:020000040800F2
:10000000B049002021020008214A0008A544000848
:100010001D4A00086D0600089D5A000800000000F7
:10002000000000000000000000000000890100083E
:100030004912000800000000CD010008E950000846
:100040003B0200083B0200083B0200083B0200089C
:100050003B0200083B0200083B0200083B0200088C
:100060003B0200083B0200083B0200083B0200087C
:100070003B0200083B0200087106000881060008E8
:1000800091060008A10600083B0200083B02000898
:100090003B0200083B0200083B0200083B0200084C
:1000A0003B020008855100083B0200083B020008A3
:1000B0003B0200083B0200083B0200083B0200082C
:1000C0003B0200083B0200083B0200083B0200081C
:1000D0003B0200086D5A00087D5A00088D5A00083E
:1000E0003B0200083B0200083B02000800F002F857
:1000F00000F03AF80AA090E8000C82448344AAF188
:100100000107DA4501D100F02FF8AFF2090EBAE885
:100110000F0013F0010F18BFFB1A43F0010318473B
:100120003493000054930000103A24BF78C878C17B
:10013000FAD8520724BF30C830C144BF04680C60ED
:10014000704700000023002400250026103A28BF35
:1001500078C1FBD8520728BF30C148BF0B60704739
:100160001FB51FBD10B510BD00F0CFF91146FFF748
:10017000F7FF06F088FB00F0EDF903B4FFF7F2FF9C
:1001800003BC00F0F5F90000224B19680868B0E8DC
:10019000F00F80F30988BFF36F8F4FF0000080F3FA
:1001A00011884EF00D0E70470000000006480068F0
:1001B000006880F3088862B661B6BFF34F8FBFF363
:1001C0006F8F00DF00BF00BF08ED00E0EFF3098094
:1001D000BFF36F8F0F4B1A6820E9F00F106008B55E
:1001E0004FF0500080F31188BFF34F8FBFF36F8F34
:1001F00007F00EFD4FF0000080F31188BDE80840C5
:1002000019680868B0E8F00F80F30988BFF36F8FB2
:10021000704700BF1C000020EFF30580704700000E
:100220000948804709480047FEE7FEE7FEE7FEE78A
:10023000FEE7FEE7FEE7FEE7FEE7FEE704480549C6
:10024000054A064B7047000083510008ED00000886
:10025000B0430020B0490020B0450020B045002048
:1002600053EA020C00F069802DE9F04B4FF00006D4
:10027000002B1FBFB3FA83F503FA05F424FA05F641
:100280005E4012BF1643B2FA82F502FA05F4C5F1D8
:1002900020051EBF22FA05FC44EA0C04203556EA6C
:1002A000044C4FEA144418BF641C4FF000084FF090
:1002B0000009904271EB030C39D3002919BFB1FA40
:1002C00081F701FA07F6B0FA80F700FA07F6C7F1EE
:1002D00020071EBF20FA07FC46EA0C062037B6FBB3
:1002E000F4FCA7EB0507103F07F01F0BCBF120062E
:1002F0000CFA0BFB2CFA06F644BFB3460026202F5F
:10030000A4BF5E464FF0000B5BEA060C08BF4FF03F
:10031000010B19EB0B09ABFB027C48EB0608C01B79
:1003200006FB02CC0BFB03CC71EB0C01C1E70B46C7
:10033000024641464846BDE8F08B13B54FF0000039
:100340004FF00001AFF30080BDE81C407047B2F1F0
:1003500020030AD5C2F1200320FA02F001FA03F3C8
:1003600021FA02F140EA0300704721FA03F04FF04E
:1003700000017047032A40F2308010F0030C00F0B7
:10038000158011F8013BBCF1020F624498BF11F8CF
:1003900001CB00F8013B38BF11F8013BA2F1040288
:1003A00098BF00F801CB38BF00F8013B11F0030300
:1003B00000F02580083AC0F0088051F8043B083A64
:1003C00051F804CBA0E80810F5E7121D5CBF51F806
:1003D000043B40F8043BAFF30080D20724BF11F880
:1003E000013B11F801CB48BF11F8012B24BF00F8E5
:1003F000013B00F801CB48BF00F8012B704710B556
:10040000203AC0F00B80B1E81850203AA0E818500C
:10041000B1E81850A0E81850BFF4F5AF5FEA027CCD
:1004200024BFB1E81850A0E8185044BF18C918C03C
:10043000BDE810405FEA827C24BF51F8043B40F8DD
:10044000043B08BF7047D20728BF31F8023B48BFC2
:1004500011F8012B28BF20F8023B48BF00F8012B00
:10046000704702F0FF0343EA032242EA024200F02F
:100470002CB84FF0000200B513469446964620393A
:1004800022BFA0E80C50A0E80C50B1F12001BFF44D
:10049000F7AF090728BFA0E80C5048BF0CC05DF8B3
:1004A00004EB890028BF40F8042B08BF704748BF01
:1004B00020F8022B11F0804F18BF00F8012B704775
:1004C0007047704770474FF000020429C0F0128057
:1004D00010F0030C3FF4CFAFCCF1040CBCF1020FD1
:1004E00018BF00F8012BA8BF20F8022BA1EB0C01CC
:1004F000FFF7C1BF5FEAC17C24BF00F8012B00F801
:10050000012B48BF00F8012B7047754600F02CF80E
:10051000AE4605006946534620F00700854618B0F0
:1005200020B5FFF78BFEBDE820404FF000064FF0EE
:1005300000074FF000084FF0000B21F00701AC4618
:10054000ACE8C009ACE8C009ACE8C009ACE8C00937
:100550008D46704710B50446AFF300802046BDE8D5
:100560001040FFF70ABE00000048704750430020CB
:1005700001491820ABBEFEE726000200704770B5A7
:10058000044600252068806800F0010018B3206848
:10059000806820F001002168886002F0B3F9054608
:1005A00013E002F0AFF9401B02280ED920688068E2
:1005B00000F0010048B1A06A40F01000A062E06ABB
:1005C00040F00100E062012070BD2068806800F00A
:1005D00001000028E5D10020F6E7000038B5044608
:1005E0000025002000902068806800F0010078BBA2
:1005F0002068806840F00100216888601948006820
:100600001949B0FBF1F0009002E00098401E009004
:1006100000980028F9D102F075F9054619E002F0BA
:1006200071F9401B022814D92068806800F001008D
:1006300078B9A06A40F01000A062E06A40F00100C2
:10064000E06200BF002084F8240000BF012038BD14
:1006500005E02068806800F001000028DFD000205D
:10066000F5E700001800002040420F0000BFFEE741
:1006700010B5024801F086FD10BD000024030020E3
:1006800010B5024801F07EFD10BD0000E002002020
:1006900010B5024801F076FD10BD0000680300208F
:1006A00010B5024801F06EFD10BD0000AC03002043
:1006B00030B590F840500124AC40C56B6C600468C4
:1006C00063604468102C04D10468A2600468E1608F
:1006D00003E00468A1600468E26030BD014609B926
:1006E000002070471148807D08B90020F9E70F48C5
:1006F000407808700D48801C0268C1F801204268EB
:10070000C1F805200089A1F8090009480A680260BB
:100710004A6842600A8902818A7A82720020044A09
:10072000D072024A90750120DBE70000EC41002006
:100730002C39002000B500F001F800BD044800216C
:1007400001604160816000200249887570470000A7
:100750002C390020EC4100202DE9F04104460D46E3
:1007600016460C480021C160016181825DB10A2EEC
:1007700001D90A2000E0304607463A462946054896
:100780000C30FFF7F7FD2146002004F0D5FBBDE853
:10079000F0810000EC41002010B52148008E50B9D6
:1007A0002048007830B10021082004F009FB002027
:1007B0001C49087010BD1A48008E4FF6FF71884220
:1007C0000AD11848007830B91749082004F0F8FA1F
:1007D000012014490870EDE71248007858B904F078
:1007E00079F9124908601049082004F0E9FA01205B
:1007F0000C490870DEE704F06DF904460B48006808
:10080000201A0749098E884208D30021082004F0E5
:10081000D7FA0020024908860249087000BFC9E7DC
:100820005C390020A00000200000C8429C0000208D
:1008300010B504F0B3F90021012000F005F9012101
:10084000002000F001F900F0B5F800200549088605
:1008500005490870054908600021082004F0B0FA35
:1008600010BD00005C390020A00000209C0000208A
:1008700070B504F02FF90646002492E0204600F0FF
:10088000CFF80546002D72D00120484901EB041134
:10089000087004EB4400464911F82000B0B901206B
:1008A00004EB4401424A02F8210004EB44001146E3
:1008B00001EB80004660002004EB440102EB810163
:1008C000087204EB440102EB8101487204EB44001E
:1008D000374901EB8000007AD0B904EB44000A46A6
:1008E00002EB80004168304605F0E7F832280FD36C
:1008F000012004EB44012E4A02EB810108722B48CF
:1009000000EB04104068401C284901EB04114860CA
:1009100004EB4400264901EB8000007A28B304EB85
:10092000440001EB8000407AF8B904EB44000A4629
:1009300002EB80004168304605F0BFF8B0F57A7FE1
:100940002DD3012004EB4401194A02EB81014872C6
:10095000164901EB04114870144800EB0410C068FC
:10096000401C124901EB0411C86018E0FFE70020A9
:100970000E4901EB041108700C4901EB0411487099
:1009800004EB44010A4A02F8210004EB440102EBA3
:100990008101087204EB440102EB81014872601C82
:1009A000C4B2032CFFF46AAF70BD00005C390020B4
:1009B0003839002010B504F08DF80446002028E0F6
:1009C000002100EB4002144B03F8221000EB400121
:1009D0001A4602EB81014C60002100EB400203EB60
:1009E0008202517200EB400203EB820211720B4A49
:1009F00002EB00121170094A02EB00125170074A13
:100A000002EB00125160054A02EB0012D160411C5A
:100A1000C8B20328D4D310BD383900205C39002077
:100A200010B50446204600F005F808B9012010BDB5
:100A30000020FCE710B504460249085D04F072F896
:100A400010BD00001C91000870B504460D460DB99C
:100A5000012000E0002006460249085D314604F00E
:100A60007BF870BD1F91000800200CE0002106E01B
:100A70000022064B03EBC0135A544A1CD1B2802902
:100A8000F6D3411CC8B20828F0D370479039002033
:100A900010B5044624B90021A62005F01CF803E097
:100AA0000021A72005F017F810BD000010B50021A7
:100AB0008D2005F010F80021142005F00CF800211D
:100AC000AF2005F008F801200149087010BD0000B2
:100AD000A100002010B5044644B90021C82004F04C
:100AE000FAFF0021A12004F0F6FF07E00021C0205A
:100AF00004F0F1FF0021A02004F0EDFF10BD000084
:100B0000F0B50B46D90803F007050126AE40F4B254
:100B10004AB10A4E06EBC116365C2643074F07EB77
:100B2000C1173E5408E0054E06EBC116365CA643DD
:100B3000024F07EBC1173E54F0BD00009039002072
:100B400010B504F0ABF80021AE2004F0C4FF002182
:100B5000084604F0C0FF0021102004F0BCFF002173
:100B6000402004F0B8FF0021812004F0B4FF0021F0
:100B7000CF2004F0B0FF0021A12004F0ACFF002141
:100B8000C82004F0A8FF0021A62004F0A4FF002143
:100B9000A82004F0A0FF00213F2004F09CFF0021CA
:100BA000D32004F098FF0021084604F094FF0021B0
:100BB000D52004F090FF0021802004F08CFF00215C
:100BC000D92004F088FF0021F12004F084FF0021E7
:100BD000DA2004F080FF0021122004F07CFF0021C5
:100BE000DB2004F078FF0021302004F074FF0021A6
:100BF000202004F070FF0021022004F06CFF00218F
:100C00008D2004F068FF0021142004F064FFFFF73A
:100C10002BFF0021AF2004F05EFFFFF747FF00200D
:100C2000FFF736FF0020FFF755FF10BD38B5002451
:100C300019E004F1B001C8B2002104F04CFF00211A
:100C4000084604F048FF0021102004F044FF8020F3
:100C50000090064800EBC41340227821002004F0E5
:100C600061F8601CC4B2082CE3D338BD9039002071
:100C70002DE9F04F0746884615469946202D01DBA1
:100C80007E2D00DD2025A5F1200000F0FF0A0024C4
:100C90002AE00AEB4A00164901EB400010F804B0C4
:100CA00000261DE00BF0010040B108EB0602D1B2B6
:100CB0003A19D0B24A46FFF723FF0DE0B9F1000F11
:100CC00001D1012300E000231A4608EB0603D9B244
:100CD0003B19D8B2FFF714FF4FEA6B0B701CC6B27A
:100CE000082EDFD3601CC4B2062CD2D3BDE8F08F2F
:100CF000219100082DE9FF4F85B016461F46059D3E
:100D00000021304608F004F809D201232D2228469C
:100D10000699FFF7ADFFA81DC5B286F00046304624
:100D200007F0C2FF044639460A2004F0C9FE824695
:100D3000504607F0D9FF0290204607F0D5FF314614
:100D4000009008F016F90190029908F015F84FF09C
:100D50007C51039007F028FE049007F0A5FF804621
:100D6000D04502D3641C4FF00008A3464FF00109A0
:100D700006E00A20BBFBF0FB09F1010000F0FF09CF
:100D8000BBF10A0FF5D24B4622462846069900F0E1
:100D90001DF809EB490005EB4000C5B297B10123EE
:100DA0002E2228460699FFF763FFA81DC5B23B46D1
:100DB00042462846069900F009F807EB470005EB84
:100DC0004000C5B2284609B0BDE8F08F2DE9F047D4
:100DD0000646884617461D4600241AE0281B401E7A
:100DE000C1B20A2004F06CFEB7FBF0F00A21B0FBA0
:100DF000F1F201FB120909F13001CAB204EB44011E
:100E000006EB4101C8B201234146FFF731FF601CE8
:100E1000C4B2AC42E2DBBDE8F0872DE9F041054603
:100E2000884616462F46344608E02278012341467C
:100E30003846FFF71DFFB81DC7B2641C2078002894
:100E4000F3D1BDE8F081000010B50348C16801206E
:100E500005F062F810BD00002443002010B50348DF
:100E60008168022005F058F810BD000024430020DE
:100E700070477FB505460E4600242146641C0DF8D8
:100E80000150F3222146641C0DF80120AB222146BB
:100E9000641C0DF801200EB1012200E00022204662
:100EA000611CCCB20DF8002000222046611CCCB29F
:100EB0000DF800206B222046611CCCB20DF80020FA
:100EC00022466946012004F07FF87FBD10B59021CD
:100ED0000F48FFF7CEFA25210E48FFF7CAFA002087
:100EE0000D49087001200A490870022081F8480065
:100EF0000020084908700949012004F08DF80121FB
:100F00000846FFF7B6FF01210220FFF7B2FF10BD30
:100F1000F43D0020843E0020B80000201567000842
:100F200070B5054600242146641C0A4845544322F6
:100F30002146641C42547A222146641C42546B228E
:100F40002146641C425422460146012004F03CF82C
:100F500070BD0000A93E00202DE9FF5F07460D4649
:100F600090461E46DDF838A04FEAD57B002D02DA08
:100F7000684280B200E0A8B2814600242146641C89
:100F80000DF80170FD222146641C0DF80120214658
:100F9000641C0DF801B04FEA29222146641C0DF8AB
:100FA000012009F0FF022146641C0DF801202146B2
:100FB000641C0DF80180320E2146641C0DF80120DE
:100FC000C6F307422046611CCCB20DF80020C6F3E0
:100FD00007222046611CCCB20DF80020F2B2204658
:100FE000611CCCB20DF800202046611CCCB20DF87B
:100FF00000A000222046611CCCB20DF800206B221C
:101000002046611CCCB20DF8002022466946012022
:1010100003F0DAFFBDE8FF9F10B51A4800780528F5
:101020001BD2DFE800F003080C12160016490878FE
:10103000FFF776FF19E0154805F068FB15E0124947
:1010400091F84800FFF76CFF0FE0114805F05EFBD8
:101050000BE0104805F05AFB07E000200949087032
:1010600009490878FFF75CFF00BF00BF054800781A
:10107000401C0449087008460078052801D3002068
:10108000087010BDB8000020F43D0020490E000893
:101090005D0E0008710E000810B500F007F8024957
:1010A000022003F0B9FF10BD255C000810B52C210B
:1010B0000B48FFF7DEF92C210A48FFF7DAF90A217D
:1010C0000948FFF7D6F90020084908600849086078
:1010D000084908700A200849087004F03FFD10BD57
:1010E000BC3D0020903D0020E83D0020B0000020E5
:1010F000B4000020AB000020AC0000202DE9FF412F
:1011000005460E4625B91EB1002004B0BDE8F081A9
:101110000020009001900290039055208DF800006F
:10112000AA208DF8010000208DF802000A2E01D9B6
:101130000A2000E030460746002405E0295DE01C57
:101140000DF80010601CC4B2BC42F7DB00208DF823
:101150000D00094800788DF80E0007480078401C03
:1011600005490870FF208DF80F0010226946022003
:1011700003F02AFF0120C8E7AB0000202DE9F04171
:101180002E48007EA0B92E4800780A2804D22C48A8
:101190000078401C2A490870294800780A2804D39E
:1011A000002026494876274948760020BDE8F0818E
:1011B0002248456A866A2C222249FFF720F91F48F7
:1011C0001A30A0F119010A6802604A684260098970
:1011D00001811A38417A401C04F0B1FC07461748D7
:1011E000817A401D04F0ABFC044637B91348401C1B
:1011F00004F0B1FC1149486201E01048456234B97D
:101200000E48401D04F0A7FC0C49886201E00B4821
:1012100086620020094908760120487600200949A5
:101220000876012048760548406A48620348806A8B
:1012300088620020024908700120B7E7903D002035
:10124000AC000020BC3D0020704772B600BFFEE736
:101250000021074AD1610749096941F00401054AA3
:1012600011611146096941F04001116170470000A8
:1012700038040020002002400021074AD1610749BC
:10128000096941F00201054A116111464861096985
:1012900041F04001116170473804002000200240F5
:1012A0000022054BDA61054A126942F00102034B44
:1012B0001A610180704700003804002000200240BD
:1012C00000201E49C96801F0100139B11C49C969E3
:1012D00041F002011A4AD16140F010001749C96873
:1012E00001F0040139B11649C96941F00101144AFC
:1012F000D16140F004001149C96901F0010169B1EF
:101300000F49C96941F004010D4AD16100BF0B4981
:10131000C96921F00101094AD16100BF00BF40F253
:101320000111884206D10549C96921F00101034A2A
:10133000D16101E00149C86000BF70470020024050
:101340003804002070B5044601F0DCFA054609E0D7
:10135000601C38B124B101F0D5FA401BA04201D97C
:10136000032070BD1248C06800F001000028EFD1D2
:101370000F48C06800F0200020B100BF20200C49B9
:10138000C86000BF0A48C06800F0100048B90848AB
:10139000C06900F0010020B90548C06800F00400F1
:1013A00018B1FFF78DFF0120DBE70020D9E700002F
:1013B0000020024010B558210C48FFF75AF80920C8
:1013C0000A4908700A20C8720B2088750C2081F821
:1013D0002100132081F82C00142081F837001520FB
:1013E00081F84200162081F84D0010BD44420020D3
:1013F0003EB503F01DFE6846FFF770F900B93EBD2B
:101400009DF80000132803D39DF80000162800D98A
:10141000F5E79DF800000F38C4B204EB440000EB80
:10142000C40037490844DDF8011040F8011FDDF819
:1014300005104160BDF8091001813149D1F82D0036
:1014400004F02EFB2F4988642D49D1F8310004F0B7
:1014500027FB2C49C8642A4890F8350081F84400DD
:10146000274890F83610274841652549886B04F0D5
:1014700017FB244988652249C86B04F011FB2149F8
:10148000C8651F4890F840101E4801661C4890F837
:1014900041101C4841661A49D1F8430004F000FB92
:1014A000184988661649D1F8470004F0F9FA154939
:1014B000C866134890F84B1012480167104890F81E
:1014C0004C10104841670E49D1F84E0004F0E8FA7C
:1014D0000C4988670A49D1F8520004F0E1FA094939
:1014E000C867074890F856100648C0F880100448AE
:1014F00090F857100348C0F8841000BF7FE7000041
:10150000444200209C42002010B5324840683249D5
:10151000C1F801002F4881682F48C0F805102D48F8
:10152000017B2D4841722B48017C2B488172294850
:1015300041692948C16027488169274801612548D8
:10154000017F25480175234890F8201022484175F5
:101550002048416A2048C0F817101E48816A1E487A
:10156000C0F81B101B4890F82C101B48C177194875
:1015700090F83010184880F820101648416B164833
:10158000C0F822101348816B1348C0F82610114888
:1015900090F83C10104880F82A100E4890F840103F
:1015A0000D4880F82B10002410E004EB440202EBFD
:1015B000C402094B1A44511C04EB440202EBC4025E
:1015C000985C0A22FFF7C8F8601CC4B2042CECD364
:1015D00010BD00009C4200204442002010B5FFF7DF
:1015E00007FFFFF791FF10BD10B5044604B910BD09
:1015F0000B48006820600A4840686060094B0A4A4E
:101600000A49022004F04EFCA060094B094A4FF041
:101610007E51012004F046FCE06000BFE7E70000D7
:10162000244300200000F0420000F0C2000080BF10
:101630000000B4420000B4C210B501200349087490
:10164000002048748874FFF741FC10BD244300203B
:101650003EB5104B104A1149022004F023FC044609
:101660000F4B104A4FF07E51012004F01BFC054641
:1016700000200090019002902146684604F062FC30
:10168000294601A804F05EFC0A216846FFF736FDF2
:101690003EBD00000000F0420000F0C2000080BF2C
:1016A0000000B4420000B4C22DE9F04107460C46E8
:1016B000234A2449384604F006FC0546224A2349B9
:1016C000204604F000FC06462148407C30B9204802
:1016D0000560466001201E4948740CE01C490868FA
:1016E000294604F005FC1A4908604868314604F0B0
:1016F000FFFB1749486016490868164907F03CFB8C
:10170000804604F099FB1249886048684FF07E518A
:1017100007F032FB804604F08FFB0D49C860FFF7ED
:101720007BFC0B48807C401C094988740846807CFF
:10173000052803D300208874FFF78AFFBDE8F081F5
:101740000000F0420000F0C20000B4420000B4C249
:1017500024430020000080BFF8B504460026002086
:10176000009000BF94F82400012801D10220F8BDA8
:10177000012084F8240000BF2046FEF700FF064643
:101780002046FEF72BFF0646002E69D1A06A20F402
:10179000885040F00200A062022001F0BBF93449F9
:1017A0000968B1FBF0F04000009002E00098401E94
:1017B000009000980028F9D12068806840F0080067
:1017C0002168886001F09EF8054616E001F09AF85D
:1017D000401B0A2811D92068806800F0080060B119
:1017E000A06A20F0020040F01000A06200BF0020BC
:1017F00084F8240000BF0120B9E72068806800F069
:1018000008000028E2D12068806840F004002168C8
:10181000886001F077F8054616E001F073F8401B88
:101820000A2811D92068806800F0040060B1A06A1D
:1018300020F0020040F01000A06200BF002084F8F9
:10184000240000BF012092E72068806800F00400B7
:101850000028E2D1A06A20F0020040F00100A0625E
:1018600000BF002084F8240000BF30467FE700005E
:101870001800002038B5024600230020009000BF69
:1018800092F82400012801D1022038BD012082F8FD
:10189000240000BF4868072812D21068406B0C79FA
:1018A000641E04EB84051F24AC40A0430D796D1E1B
:1018B00005EB85050C68AC4020431468606327E0A5
:1018C00048680D2812D21068006B0C79E41F04EBF5
:1018D00084051F24AC40A0430D79ED1F05EB850561
:1018E0000C68AC4020431468206311E01068C06AA3
:1018F0000C790D3C04EB84051F24AC40A0430D790A
:101900000D3D05EB85050C68AC4020431468E06292
:1019100008680A2812D31068C0680C780A3C04EBE7
:1019200044050724AC40A0430D780A3D05EB45056E
:101930008C68AC4020431468E0600FE010680069D8
:101940000C7804EB44050724AC40A0430D7805EB6C
:1019500045058C68AC402043146820610868102855
:1019600002D00868112827D1174C1068A0421ED158
:101970001068806800F40000F0B91068806840F4D6
:1019800000001468A0600868102815D10F4800688E
:101990000F4CB0FBF4F000EB80004000009002E040
:1019A0000098401E009000980028F9D104E0906A49
:1019B00040F020009062012300BF002082F8240044
:1019C00000BF184661E70000002401401800002015
:1019D00040420F0001460868C06C70472DE9F04195
:1019E0000446002700250026A84614B90120BDE8BA
:1019F000F081A06810B1207D00B100BFA06A30B9AD
:101A00000020E06284F82400204600F089F8204697
:101A1000FEF7B5FD0746A06A00F01000002873D15C
:101A2000002F71D1A06A20F4885040F00200A0621B
:101A3000E16960680843217B40EA41000643A068F1
:101A4000B0F5807F02D0A068012802D14FF48070E9
:101A500000E000200543207D012811D1207B38B90A
:101A6000A069401E4FF4006141EA4030054307E0A1
:101A7000A06A40F02000A062E06A40F00100E0624D
:101A80002068406820F46940284321684860206845
:101A9000806821490840304321688860A068B0F51B
:101AA000807F02D0A068012802D14FF4807000E04E
:101AB0000020B0F5807F03D1208A401E4FEA0058F5
:101AC0002068C06A20F4700040EA08002168C862FB
:101AD0002068806811490840B04208D10020E062C7
:101AE000A06A20F0020040F00100A06211E0A06AAC
:101AF00020F0020040F01000A062E06A40F0010017
:101B0000E062012705E0FFE7A06A40F01000A06254
:101B1000012738466BE70000FDF7E1FFFE0E1FFFCF
:101B200010B586B004460020029003900490059002
:101B300014492068884222D100BF1348806940F4CC
:101B40000070114988610846806900F400700190B6
:101B500000BF00BF00BF0846806940F004008861F4
:101B60000846806900F00400019000BF00BF01201A
:101B700002900320039002A9044800F025FD06B05E
:101B800010BD000000240140001002400008014088
:101B9000F8B504460D46002600200090002700F00E
:101BA000B1FE06462068806800F4807050B1A06ADB
:101BB00040F02000A06200BF002084F8240000BF95
:101BC0000120F8BD2068406800F4807020BB2068C8
:101BD000C06A00F47000F8B917E0681CA8B125B11C
:101BE00000F090FE801BA8420FD92068006800F02A
:101BF000020050B9A06A40F00400A06200BF0020BB
:101C000084F8240000BF0320DBE72068006800F0B0
:101C100002000028E1D053E0022000F07BFF3849A9
:101C20000968B1FBF0F021680969364A114091B9A1
:101C30002168C9689211114069B921680969324A5D
:101C4000114031B92168C9689211114009B91421B4
:101C500017E0292115E0216809692B4A114021B9B3
:101C60002168C9689211114041B121680969274A68
:101C7000114029B92168C968114009B9542100E00F
:101C8000FC2100FB01F718E0681C98B125B100F0B9
:101C900039FE801BA8420DD90098B8420AD2A06A2A
:101CA00040F00400A06200BF002084F8240000BFC0
:101CB000032086E70098401C00900098B842E3D3C8
:101CC0006FF0120021680860A06A40F40070A06202
:101CD0002068806800F46020B0F5602F0DD1207B73
:101CE00058B9A06A20F48070A062A06A00F4805005
:101CF00018B9A06A40F00100A062002061E700006E
:101D00001800002024499224922449124992240068
:101D100070B50446002500BF94F82400012801D1C5
:101D2000022070BD012084F8240000BF2046FEF789
:101D300055FC0546002D77D1A06A40F20121884369
:101D400040F48070A0623C492068884208D13B483A
:101D5000006800F4702008B9012002E0002000E0D3
:101D6000012078B1A06A20F48010A0622068406849
:101D700000F4806000B3A06A20F4005040F480506A
:101D8000A06219E0A06A40F48010A0622B49091FEC
:101D90002068884203D028492068884204D1274817
:101DA000006800F4806000E0002028B1A06A20F400
:101DB000005040F48050A062A06A00F4805020B12E
:101DC000E06A20F00600E06201E00020E06200BF6F
:101DD000002084F8240000BFC01E2168086020682D
:101DE000806800F46020B0F5602F16D11249206899
:101DF000884208D11148006800F4702008B9012019
:101E000002E0002000E0012038B12068806840F442
:101E1000A000216888600CE006E02068806840F43B
:101E200080102168886004E000BF002084F824004E
:101E300000BF284675E70000002801400424014047
:101E400070B50446002500BF94F82400012801D194
:101E5000022070BD012084F8240000BF2046FEF758
:101E60008EFB05462DB9A06A20F4885040F0010091
:101E7000A06200BF002084F8240000BF2846E8E7E5
:101E800070B504460CB9012070BD94F8200010B95B
:101E9000204600F0AFF82068006840F0010021689B
:101EA000086000F02FFD05460DE000F02BFD401B03
:101EB0000A2808D9606A40F400306062052084F87E
:101EC00020000120E0E72068406800F001000028C1
:101ED000EBD02068006820F002002168086000F064
:101EE00011FD05460DE000F00DFD401B0A2808D944
:101EF000606A40F400306062052084F82000012010
:101F0000C2E72068406800F002000028EBD1207E84
:101F1000012806D12068006840F080002168086030
:101F200005E02068006820F0800021680860607E7D
:101F3000012806D12068006840F040002168086050
:101F400005E02068006820F0400021680860A07E5D
:101F5000012806D12068006840F020002168086050
:101F600005E02068006820F0200021680860E07E1D
:101F7000012806D12068006820F010002168086060
:101F800005E02068006840F0100021680860207FAC
:101F9000012806D12068006840F008002168086028
:101FA00005E02068006820F0080021680860607F74
:101FB000012806D12068006840F00400216808600C
:101FC00005E02068006820F0040021680860D4E97A
:101FD0000201084321690843616908436168491E99
:101FE00008432168C86100206062012084F8200055
:101FF000002049E710B586B0044600200290039007
:10200000049005901A49206888422ED100BF1948D3
:10201000C06940F000701749C8610846C06900F007
:102020000070019000BF00BF00BF0846806940F00B
:10203000040088610846806900F00400019000BF38
:1020400000BFC814029000200390049002A90A481F
:1020500000F0BAFA4FF4805002900220039003205F
:10206000059002A9044800F0AFFA06B010BD0000C8
:1020700000640040001002400008014001460022B8
:1020800091F82100022808D00420886300BF0020B6
:1020900081F8200000BF012070470868006820F028
:1020A0000E000B6818600868006820F001000B68DB
:1020B000186091F8403001209840CB6B58600120A7
:1020C00081F8210000BF002081F8200000BF1046E9
:1020D000E2E7000070B50446002594F821000228CC
:1020E00003D00420A063012548E02068006820F0A8
:1020F0000E00216808602068006820F00100216857
:1021000008601F492068884201D1012026E01C494F
:1021100014312068884201D110201FE0184928316D
:102120002068884201D1801518E015493C312068AB
:10213000884201D1801411E0114950312068884251
:1021400002D14FF4803009E00D49643120688842A3
:1021500002D14FF4801001E04FF080700849083937
:102160004860012084F8210000BF002084F820008E
:1021700000BF606B10B12046616B8847284670BD78
:102180000800024070B50446E06B056820680668E8
:1021900094F84010042088402840002846D006F0DB
:1021A0000400002842D02068006800F0200028B910
:1021B0002068006820F00400216808605749206802
:1021C000884201D1042027E0544914312068884214
:1021D00001D1402020E0514928312068884201D1B6
:1021E000001519E04D493C312068884202D14FF476
:1021F000804011E0494950312068884202D14FF4B3
:10220000802009E0454964312068884202D14FF4BA
:10221000800001E04FF08060404908394860E06A82
:1022200000287AD02046E16A884776E094F840108A
:10223000022088402840A0B306F0020088B320683E
:10224000006800F0200040B92068006820F00A0013
:1022500021680860012084F8210030492068884204
:1022600001D1022028E02D4914312068884201D193
:10227000202021E0294928312068884201D14015D9
:102280001AE026493C312068884202D14FF40050C0
:1022900012E0224950312068884203D14FF40030C7
:1022A0000AE017E01D4964312068884202D14FF4EA
:1022B000001001E04FF0007018490839486000BF75
:1022C000002084F8200000BFA06A30B32046A16A35
:1022D000884722E094F84010082088402840E0B168
:1022E00006F00800C8B12068006820F00E002168E0
:1022F000086094F8401001208840E16B486001209C
:10230000A06384F8210000BF002084F8200000BFF3
:10231000206B10B12046216B884770BD0800024039
:102320000146002209B901207047164B0868C01AFF
:102330001423B0FBF3F08000086412480838C86327
:10234000022081F821000868026843F6F070824399
:10235000D1E901031843CB6818430B6918434B6953
:1023600018438B691843CB6918430243086802601D
:1023700000208863012081F82100002081F82000DE
:1023800000BFD1E7080002402DE9F04104460D46A8
:1023900016461F464FF0000800BF94F820000128A1
:1023A00002D10220BDE8F081012084F8200000BFA6
:1023B00094F8210001282CD1022084F8210000206B
:1023C000A0632068006820F00100216808603B4697
:1023D000324629462046FEF76BF9E06A30B12068A4
:1023E000006840F00E00216808600BE0206800687B
:1023F00020F00400216808602068006840F00A00AE
:10240000216808602068006840F0010021680860C9
:1024100006E000BF002084F8200000BF4FF0020853
:102420004046BFE72DE9F04104460E46012700254E
:1024300000BF2648007E012802D10220BDE8F081BD
:1024400001202249087600BF2068022813D14CF2EF
:102450005030FEF777FF90BB0120FEF7F9FE4CF2FB
:102460005030FEF76FFF07461948006920F004005E
:102470001749086123E04CF25030FEF763FFF0B9D2
:102480004FF0FF303060A56812E02846FEF7F4FEFA
:102490004CF25030FEF756FF07460D48006920F019
:1024A00002000B4908610FB1356007E005F5806552
:1024B000D4E9021001EB8020A842E6D800BF00BF9B
:1024C00000200249087600BF3846B7E738040020EC
:1024D000002002400348006940F080000149086183
:1024E00000207047002002402DE9FE4F05468B4634
:1024F00017469846012600240020029000BF244879
:10250000007E012802D10220BDE8FE8F0120204973
:10251000087600BF4CF25030FEF714FF064686BB2B
:10252000012D02D10120029006E0022D02D10220ED
:10253000029001E00420029000241EE02201B9462E
:10254000C24648465146FDF702FF80B20190022084
:1025500000FB04B000900199FEF7A2FE4CF250304F
:10256000FEF7F0FE06460B48006920F0010009491D
:10257000086106B104E0601CC4B202988442DDDB4D
:1025800000BF00BF00200249087600BF3046BBE70D
:10259000380400200020024000200849096901F0A9
:1025A000800151B10649054A516006495160114602
:1025B000096901F0800101B101207047002002404B
:1025C00023016745AB89EFCD2DE9F847034600228B
:1025D00094466EE14FF0010808FA02F4D1F8008049
:1025E00008EA0400A0427DD1DFF8DCA2D1F8048023
:1025F000A8EB0A09D0453AD014DCB8F1030F50D04B
:1026000009DCB8F1000F31D0B8F1010F1CD0B8F1DE
:10261000020F49D120E0B8F1110F18D0B8F1120F14
:1026200042D11EE0B9F5881F25D006DCB9F5803F00
:1026300020D0B9F5801F37D11AE0B9F5001F18D0A6
:10264000B9F5041F30D117E0D1F80CC02DE0D1F856
:102650000C8008F1040C28E0D1F80C8008F1080C7B
:1026600023E0D1F80C8008F10C0C1EE000BF00BF85
:1026700000BF00BF00BF00BFD1F80880B8F1000F55
:1026800002D14FF0040C0BE0D1F80880B8F1010F33
:1026900003D14FF0080C1C6102E04FF0080C5C61A4
:1026A00003E04FF0000C00E000BF00BFFF2801D89E
:1026B000984601E003F104084646FF2802D84FEA95
:1026C000820803E0A2F108084FEA88084746D6F8D6
:1026D00000804FF00F0909FA07F928EA09080CFAF7
:1026E00007F900E088E048EA0908C6F80080D1F858
:1026F000048008F08058B8F1805F7DD100BFDFF81A
:10270000CC81D8F8188048F00108DFF8C091C9F8EA
:102710001880C846D8F8188008F00108CDF8008065
:1027200000BF00BF4FEAB9384FEA920958F8295064
:102730004FEA82784FEA18794FF00F0808FA09F843
:1027400025EA0805DFF88881434502D14FF00008EB
:1027500016E0DFF88081434502D14FF001080FE019
:10276000DFF87481434502D14FF0020808E0DFF83A
:102770006C81434502D14FF0030801E04FF004089B
:102780004FEA82794FEA197908FA09F848EA05050B
:10279000DFF84C814FEA920948F82950D1F80480BB
:1027A00008F48018B8F5801F0AD1DFF83881D8F80E
:1027B000008048EA0008DFF82C91C9F8008009E0A1
:1027C000DFF82081D8F8008028EA0008DFF81491AB
:1027D000C9F80080D1F8048008F40018B8F5001F8B
:1027E00010D1DFF8008108F10408D8F8008048EA29
:1027F0000008DFF8F09000E05AE009F10409C9F898
:1028000000800DE0DFF8DC8008F10408D8F80080D3
:1028100028EA0008DFF8CC9009F10409C9F8008023
:10282000D1F8048008F40038B8F5003F0ED1DFF885
:10283000B480A8F10408D8F8008048EA0008DFF85E
:10284000A490A9F10409C9F800800DE0DFF8948094
:10285000A8F10408D8F8008028EA0008DFF884907E
:10286000A9F10409C9F80080D1F8048008F480387F
:10287000B8F5803F0ED1DFF86C80A8F10808D8F8D1
:10288000008048EA0008DFF85C90A9F10809C9F85F
:1028900000800DE0DFF84C80A8F10808D8F800802F
:1028A00028EA0008DFF83C90A9F10809C9F800807F
:1028B000521CD1F8008028FA02F8B8F1000F7FF41A
:1028C00089AEBDE8F887000000001110001002403A
:1028D00000080140000C01400010014000140140BC
:1028E0000800014008040140024693680B400BB108
:1028F000012000E0002070470AB1016101E00B04F3
:102900000361704701480068704700000C00002018
:102910000348006803490978084401490860704782
:102920000C0000201400002010B50848006840F09A
:10293000100006490860032000F0D8F80F2000F0CE
:1029400007F800F055F8002010BD000000200240FC
:10295000F0B587B0044600260027002500BF1F48B9
:10296000806940F400601D4988610846806900F470
:102970000060009000BF00BF01A902A800F0A6FA05
:1029800000F0DCFA06461648B6FBF0F0471E154884
:102990001549086040F2E7311348C16047600021E3
:1029A00001618160816100F087FD054695B90E489F
:1029B00000F0F4FD05466DB9192000F049F8102C1F
:1029C00007D200222146192000F052F8074804607F
:1029D00000E00125284607B0F0BD000000100240CD
:1029E00040420F00002C0140F003002010000020A6
:1029F00008B500BF1448806940F0010012498861A1
:102A00000846806900F00100009000BF00BF00BFD1
:102A10000846C06940F08050C8610846C06900F0AF
:102A20008050009000BF00BF00220F21901E00F0D8
:102A30001FF800BF0549486820F0E06040F00070D2
:102A4000486000BF08BD00000010024000000140C7
:102A500001460846002809DB00F01F0301229A40C6
:102A600043099B0003F1E023C3F8002100BF704736
:102A70002DE9F05F80460D461646002703F064FA04
:102A8000074639462A46334601F00700C0F1070AD7
:102A9000BAF1040F02D94FF0040A01E0C0F1070AAD
:102AA000D14600F1040ABAF1070F02D24FF0000A32
:102AB00001E0A0F1030AD4464FF0010A0AFA09FA2C
:102AC000AAF1010A0AEA020A0AFA0CFA4FF0010B0B
:102AD0000BFA0CFBABF1010B0BEA030B4AEA0B04FC
:102AE0002146404603F038FABDE8F09F00BF00F0F1
:102AF0000702064B19684FF6FF031940044B0B43BE
:102B000043EA0221014B196000BF70470CED00E061
:102B10000000FA052DE9F04706464FF000080025B1
:102B200000270024A146012E31D0022E56D0102EAF
:102B30005FD132484468006800F0807008B33048C4
:102B4000C4F38341475C04F4803078B12B4840687B
:102B5000C0F340402B4911F8008004F4803040B1AC
:102B60002948B0FBF8F000FB07F502E0274807FB17
:102B700000F52248406800F48000B0F5800F01D1D4
:102B8000A94603E068000321B0FBF1F932E01B48DD
:102B9000046A04F44070B0F5807F05D104F00200AF
:102BA00010B14FF4004918E004F44070B0F5007F14
:102BB00007D11248406A00F0020010B149F64049BE
:102BC0000BE004F44070B0F5407F06D10B4800687C
:102BD00000F4003008B14FF224490BE000F0AEF9E8
:102BE00006494968C1F38131491C4900B0FBF1F93C
:102BF00000E000BF00BF4846BDE8F087001002407B
:102C0000F29000080291000800127A0000093D00CD
:102C1000F8B5044600260025207800F001000028C1
:102C20006BD000274348C06900F0805070B900BFE6
:102C30004048C06940F080503E49C8610846C069BC
:102C400000F08050009000BF00BF01273A480068A4
:102C500000F48070B0B93848006840F4807036499C
:102C60000860FFF74FFE064606E0FFF74BFE801BAD
:102C7000642801D90320F8BD2F48006800F4807053
:102C80000028F2D02B48006A00F440752DB3A088CC
:102C900000F44070A84220D02648006A20F4407515
:102CA000012026490860002008602248056205F0DE
:102CB000010090B1FFF726FE064608E0FFF722FE6E
:102CC000801B41F28831884201D90320D3E719489B
:102CD000006A00F002000028F0D01648006A20F4D4
:102CE00040706168084313490862012F04D1084607
:102CF000C06920F08050C86100BF207800F0020059
:102D0000022807D10B48406820F44040A1680843DE
:102D100008494860207800F01000102807D10548C5
:102D2000406820F48000E1680843024948600020C0
:102D3000A1E7000000100240007000404004424241
:102D400070B504460D460CB9012070BD5A480068A4
:102D500000F00700A8420ED25748006820F0070094
:102D60002843554908600846006800F00700A8425B
:102D700001D00120E9E7207800F0020002281DD1EF
:102D8000207800F00400042805D14C48406840F445
:102D9000E0604A494860207800F00800082805D122
:102DA0004648406840F460504449486043484068A1
:102DB00020F0F000A168084340494860207800F006
:102DC000010078B36068012806D13C48006800F42F
:102DD000003090B90120B8E76068022806D1374872
:102DE000006800F0007040B90120AEE73348006889
:102DF00000F0020008B90120A7E73048406820F041
:102E00000300616808432D494860FFF77BFD0646D3
:102E100009E0FFF777FD801B41F28831884202D933
:102E2000032092E707E02548406800F00C00616845
:102E3000B0EB810FEDD12048006800F00700A842F8
:102E40000ED91D48006820F0070028431A49086081
:102E50000846006800F00700A84201D0012074E78E
:102E6000207800F00400042807D11448406820F4BA
:102E7000E060E168084311494860207800F00800EC
:102E8000082808D10D48406820F46050216940EAC4
:102E9000C1000A49486000F061F808494968C1F377
:102EA0000311074A515CC84006490860064800689B
:102EB000FFF74EFD002048E70020024000100240CE
:102EC0000491000818000020100000200F2202606A
:102ED0000D4A526802F0030242600B4A526802F047
:102EE000F0028260084A526802F4E062C260064A58
:102EF000526802F46052D2080261044A126802F079
:102F000007020A60704700000010024000200240E3
:102F100001480068704700001800002000B5FFF766
:102F2000F7FF04494968C1F30221034A515CC840D4
:102F300000BD0000001002401491000800B5FFF72A
:102F4000E7FF04494968C1F3C221034A515CC84004
:102F500000BD0000001002401491000870B500216F
:102F60000022002400230020134D696801F00C05A5
:102F7000F5B1042D02D0082D19D101E00F4819E058
:102F80000F4DC1F38346AB5D01F4803555B10A4D59
:102F90006D68C5F340450B4E725D084D5D43B5FB52
:102FA000F2F402E0084D03FB05F4204602E000BF06
:102FB000024800BF00BF70BD0010024000127A003E
:102FC000E0900008F090000800093D00F8B50446C4
:102FD0000CB90120F8BD207800F00100002878D05D
:102FE000F848406800F00C0004280CD0F548406810
:102FF00000F00C00082811D1F248406800F480303D
:10300000B0F5803F0AD1EF48006800F40030002896
:103010005FD0606800285CD10120DBE700BF6068FA
:10302000B0F5803F06D1E748006840F48030E549BC
:10303000086028E0606858B9E248006820F48030F1
:10304000E04908600846006820F4802008601AE023
:103050006068B0F5A02F0BD1DA48006840F48020FA
:10306000D84908600846006840F4803008600AE0EB
:10307000D448006820F48030D249086008460068CF
:1030800020F48020086000BF606888B1FFF73AFC38
:10309000054606E0FFF736FC401B642801D90320F3
:1030A00098E7C848006800F400300028F2D010E02B
:1030B000FFF728FC054606E0FFF724FC401B6428C8
:1030C00001D9032086E7BF48006800F400300028DB
:1030D000F2D1207800F00200022857D1B9484068A8
:1030E00000F00C0050B1B748406800F00C00082810
:1030F00018D1B448406800F4803098B9B1480068ED
:1031000000F0020020B12069012801D0012061E710
:10311000AC48006820F0F800616940EAC100A949A4
:10312000086033E02069E8B10120A7490860FFF793
:10313000E9FB054606E0FFF7E5FB401B022801D945
:10314000032047E79F48006800F002000028F2D003
:103150009C48006820F0F800616940EAC100994984
:10316000086013E0002098490860FFF7CBFB054694
:1031700006E0FFF7C7FB401B022801D9032029E71F
:103180009048006800F002000028F2D1207800F09A
:10319000080008282DD1A069B8B101208B4908602A
:1031A000FFF7B0FB054606E0FFF7ACFB401B02282B
:1031B00001D903200EE78348406A00F0020000288E
:1031C000F2D0012001F02EFC13E000207F490860BE
:1031D000FFF798FB054606E0FFF794FB401B02282B
:1031E00001D90320F6E67748406A00F00200002883
:1031F000F2D1207800F00400042873D10027714830
:10320000C06900F0805070B900BF6E48C06940F0DE
:1032100080506C49C8610846C06900F08050009039
:1032200000BF00BF01276A48006800F48070B0B991
:103230006748006840F4807065490860FFF762FBEA
:10324000054606E0FFF75EFB401B642801D903201A
:10325000C0E65F48006800F480700028F2D000BF2C
:10326000E068012806D15748006A40F0010055493E
:10327000086227E0E06858B95248006A20F001006F
:10328000504908620846006A20F00400086219E00C
:10329000E06805280BD14B48006A40F0040049491A
:1032A00008620846006A40F0010008620AE04548EA
:1032B000006A20F00100434908620846006A20F0D5
:1032C0000400086200BFE068A0B1FFF71BFB0546E1
:1032D00009E0FFF717FB401B41F28831884202D911
:1032E000032077E622E03748006A00F00200002859
:1032F000EFD012E0FFF706FB054608E0FFF702FB00
:10330000401B41F28831884201D9032062E62D48F2
:10331000006A00F002000028F0D1012F05D12948F1
:10332000C06920F080502749C86100BFE069C8B378
:103330002448406800F00C00082860D0E0690228AA
:1033400048D1002020490866FFF7DCFA054606E070
:10335000FFF7D8FA401B022801D903203AE61948A2
:10336000006800F000700028F2D1206AB0F5803FBC
:1033700007D11448406820F40030A168084311497F
:103380004860D4E9080108430E49496821F47411E2
:1033900008430C49486001200B490866FFF7B2FA60
:1033A000054607E03DE0FFF7ADFA401B022801D9D2
:1033B00003200FE60348006800F000700028F2D0F8
:1033C0002FE0000000100240000042428004424210
:1033D00000700040002014490866FFF793FA054684
:1033E00006E0FFF78FFA401B022801D90320F1E520
:1033F0000E48006800F000700028F2D111E0E0698A
:10340000012800D1E6E50948466806F48031206AC3
:10341000814204D106F47011606A814201D001201A
:10342000D8E50020D6E5000000004242001002402E
:103430007047704730B502460B4600BF92F83C001B
:10344000012801D1022030BD012082F83C0000BFDC
:10345000022082F83D00106844681068816824F0FA
:1034600070041868044310684460104D1068A84246
:103470000BD01068B0F1804F07D00D4D1068A842F6
:1034800003D00C4D1068A84205D121F08001586886
:10349000014310688160012082F83D0000BF0020D8
:1034A00082F83C0000BF00BFCDE70000002C0140C7
:1034B000000400400008004010B504460CB901208B
:1034C00010BD94F83D0028B9002084F83C00204647
:1034D00000F026F8022084F83D00211D206801F04C
:1034E00059FE012084F8460000BF84F83E00012107
:1034F0003F200155402001554120015500BF00BF2C
:10350000012084F842004320015544200155452004
:10351000015500BF012084F83D000020D0E70000E5
:1035200008B50168B1F1804F0DD100BF1849C969D4
:1035300041F00101164AD1611146C96901F001014A
:10354000009100BF23E0134A016891420DD100BFF2
:103550000F49C96941F002010D4AD1611146C9699B
:1035600001F00201009100BF11E00B4A0168914295
:103570000DD100BF0649C96941F00401044AD16177
:103580001146C96901F00401009100BF00BF08BDE8
:10359000001002400004004000080040014691F87D
:1035A0003D00012801D001207047022081F83D0034
:1035B0000868C06840F001000B68D860124B0868CA
:1035C00098420BD00868B0F1804F07D00F4B0868C5
:1035D000984203D00E4B086898420CD10868806866
:1035E00000F00702062A0CD00868006840F00100CD
:1035F0000B68186005E00868006840F001000B687F
:1036000018600020D0E70000002C014000040040BA
:10361000000800402DE9F04104460D46002700BF98
:1036200094F83C00012802D10220BDE8F08101207D
:1036300084F83C0000BF022084F83D0020688668C2
:1036400026F0770626F47F46206886602868502892
:1036500033D00CDC202850D004DC00284BD01028BC
:1036600051D149E0302849D040284CD139E0602878
:103670002DD0702807D0B0F5805F03D0B0F5005F83
:1036800041D10DE041E0D5E902136A68206801F0FC
:10369000D4FD2068866846F077062068866034E0AE
:1036A000D5E902136A68206801F0C7FD20688068C8
:1036B00040F480402168886027E0EA6869682068F3
:1036C00001F08CFE5021206801F0C2FD1DE0EA6887
:1036D0006968206801F095FE6021206801F0B8FD5E
:1036E00013E0EA686968206801F078FE40212068EC
:1036F00001F0AEFD09E000BF00BF00BF29682068EF
:1037000001F0A6FD01E0012700BF00BF012084F801
:103710003D0000BF002084F83C0000BF384684E72D
:10372000704770B504462068C5682068066906F0D1
:103730000200022819D105F00200022815D1401F0D
:1037400021680861012020772068806900F003006B
:1037500018B12046FFF7E4FF05E0204600F03AF9F3
:10376000204600F0EEF90020207706F0040004283F
:1037700019D105F00400042815D1C043216808615F
:10378000022020772068806900F4407018B120463C
:10379000FFF7C6FF05E0204600F01CF9204600F0C8
:1037A000D0F90020207706F00800082819D105F08C
:1037B0000800082815D1C04321680861042020773B
:1037C0002068C06900F0030018B12046FFF7A8FF89
:1037D00005E0204600F0FEF8204600F0B2F9002097
:1037E000207706F01000102819D105F010001028DD
:1037F00015D1C04321680861082020772068C0697E
:1038000000F4407018B12046FFF78AFF05E020461B
:1038100000F0E0F8204600F094F90020207706F050
:10382000010048B105F0010030B16FF001002168DE
:103830000861204600F0F0F906F08000802809D1E8
:1038400005F08000802805D1C0432168086120462A
:10385000FFF7EEFD06F04000402809D105F04000DA
:10386000402805D1C04321680861204600F0E0F9F6
:1038700006F02000202809D105F02000202805D1DD
:10388000C043216808612046FFF7D3FD70BD0000EA
:1038900010B586B004460020029003900490059075
:1038A0002068B0F1804F38D100BF4448806940F0B3
:1038B0000400424988610846806900F004000190D4
:1038C00000BF00BF00BF0846806940F00800886163
:1038D0000846806900F00800019000BF00BF4FF467
:1038E0000040029002200390059002A93448FEF7A0
:1038F0006BFE0820029002200390059002A9314837
:10390000FEF762FE00BF3049486820F4407040F086
:10391000E06040F4807048604DE02C4920688842A7
:103920002DD100BF2548806940F0040023498861FB
:103930000846806900F00400019000BF00BF00BF8E
:103940000846806940F0080088610846806900F0F8
:103950000800019000BF00BFC02002900220039029
:10396000059002A91648FEF72FFE032002900220C0
:103970000390059002A91348FEF726FE1BE01449A8
:103980002068884217D100BF0C48806940F00800C9
:103990000A4988610846806900F00800019000BF6C
:1039A00000BF4FF41070029002200390059002A90E
:1039B0000448FEF709FE06B010BD000000100240EA
:1039C00000080140000C01400000014000040040DC
:1039D0000008004070472DE9F04104460D461646A8
:1039E000002700BF94F83C00012802D10220BDE866
:1039F000F081012084F83C0000BF36B1042E1BD0BA
:103A0000082E31D00C2E5ED145E02946206801F009
:103A100029FC2068806940F00800216888612068DE
:103A2000806920F004002168886120688069296924
:103A300008432168886148E02946206801F042FC7B
:103A40002068806940F4006021688861206880698E
:103A500020F480602168886120688069296940EAD3
:103A600001202168886130E02946206801F05EFC71
:103A70002068C06940F008002168C8612068C069FA
:103A800020F004002168C8612068C06929690843E2
:103A90002168C86119E02946206801F07BFC206894
:103AA000C06940F400602168C8612068C06920F4E2
:103AB00080602168C8612068C069296940EA0120E6
:103AC0002168C86101E0012700BF00BF00BF0020DE
:103AD00084F83C0000BF384689E710B504460CB9AD
:103AE000012010BD94F83D0028B9002084F83C0066
:103AF000204600F025F8022084F83D00211D2068B2
:103B000001F048FB012084F8460000BF84F83E0025
:103B100001213F200155402001554120015500BFA2
:103B200000BF012084F84200432001554420015584
:103B30004520015500BF012084F83D000020D0E75A
:103B40007047704770B504460D4615B994F83E00AD
:103B50000BE0042D02D13F20005D06E0082D02D1CC
:103B60004020005D01E04120005D012801D00120DE
:103B700070BD1DB9022084F83E000EE0042D03D173
:103B800002213F20015508E0082D03D102214020E9
:103B9000015502E0022141200155012229462068F9
:103BA00001F03AFB19492068884201D1012000E068
:103BB000002028B12068406C40F40040216848642F
:103BC0001249206888420BD02068B0F1804F07D09E
:103BD0000F492068884203D00E49206888420CD1E2
:103BE0002068806800F00706062E0CD02068006868
:103BF00040F001002168086005E02068006840F09E
:103C00000100216808600020B2E70000002C01409C
:103C1000000400400008004010B504460349206835
:103C2000884201D1FEF774FE10BD0000002C014057
:103C30007047704738B50446204602F07FFA0546C3
:103C400005B938BD00BF00200090206800680090D2
:103C500020684068009000BF00BF00BF00200090B7
:103C600020680068009020684068009000BF00BF96
:103C700000BF002000902068006800902068406825
:103C8000009000BF00BF206802F08CFA48B180228B
:103C900005F10D01204600F0FDFA0020A5F88E0088
:103CA00005E0012205F1D401204600F009FB287946
:103CB00010B9284602F024FB00BFC2E72DE9F84FF7
:103CC0000446206805682068C668206847694FF088
:103CD0000009CA4605F00F09B9F1000F0AD105F035
:103CE000200038B106F0200020B1204601F0C7FCCA
:103CF000BDE8F88FB9F1000F7BD007F0010018B9CB
:103D000006F49070002874D005F0010030B106F47C
:103D1000807018B1606C40F00100606405F0040030
:103D200030B107F0010018B1606C40F0020060642F
:103D300005F0020030B107F0010018B1606C40F0EE
:103D40000400606405F0080048B106F0200010B9D6
:103D500007F0010018B1606C40F008006064606C0E
:103D6000002845D005F0200028B106F0200010B151
:103D7000204601F084FC20684069C0F3801A606C22
:103D800000F0080010B9BAF1000F2CD0204601F065
:103D90001DFC2068406900F0400000B300BF00BF78
:103DA0002168143151E8001F21F0400021681431CE
:103DB00041E80002002AF3D100BFE06B50B1774820
:103DC000E16B4863E06BFEF785F988B1E06B416B0E
:103DD00088470DE02046FFF72DFF09E009E0204667
:103DE000FFF728FF04E02046FFF724FF002060646F
:103DF0007EE7206B012877D105F01000002873D0F2
:103E000006F010000028FAD000BF002000902068C3
:103E10000068009020684068009000BF00BF2068E4
:103E2000406900F0400000285FD0E06B0068406807
:103E30001FFA80F8B8F1000F55D0A08D404552DD33
:103E4000A4F82E80E06B8069202843D000BF00BF1B
:103E500021680C3151E8001F21F4807021680C3179
:103E600041E80002002AF3D100BF00BF00BF216873
:103E7000143151E8001F21F001002168143141E89C
:103E80000002002AF3D100BF00BF00BF2168143137
:103E900051E8001F21F040002168143141E8000280
:103EA000002AF3D100BF202084F8420000202063C4
:103EB00000BF00BF21680C3151E8001F21F0100045
:103EC00021680C3141E80002002AF3D100BFE06B09
:103ED000FEF7D4F802206063A08DE28D801A81B2D3
:103EE0002046FFF7A6FE03E742E0A08DE18D401AD1
:103EF0001FFA80F8E08DD0B3B8F1000F37D000BFC3
:103F000000BF21680C3151E8001F21F49070216836
:103F10000C3141E80002002AF3D100BF00BF00BF0E
:103F20002168143151E8001F21F00100216814318B
:103F300041E80002002AF3D100BF202084F84200AB
:103F40000020206300BF00BF21680C3151E8001F32
:103F500021F0100021680C3141E80002002AF3D161
:103F600000BF0220606341462046FFF762FEBFE6C5
:103F700005F0800030B106F0800018B1204601F055
:103F8000FFFCB5E605F0400030B106F0400018B186
:103F9000204601F051FBABE600BFA9E62B54000818
:103FA00010B504460CB9012010BDA06900B100E0B5
:103FB00000BF94F8410028B9002084F84000204652
:103FC00000F02AF8242084F841002068C06820F41A
:103FD00000502168C860204601F0D0FB20680069CD
:103FE00020F49040216808612068406920F02A0090
:103FF000216848612068C06840F400502168C860AA
:1040000000206064202084F8410084F842000020F1
:10401000606300BFC8E7000010B586B0044600200A
:1040200002900390049005908F49206888426CD1DB
:1040300000BF8E48806940F480408C498861084602
:10404000806900F48040019000BF00BF00BF0846B7
:10405000806940F0040088610846806900F004002F
:10406000019000BF00BF481502900220039003207A
:10407000059002A97E48FEF7A7FA4FF480600290EF
:1040800000200390049002A97948FEF79DFA794830
:1040900079490860002048600021774881608021CC
:1040A000C160002101614161202181610021C16164
:1040B000FEF736F908B1FDF7C8F800BF6E48E063B7
:1040C000446200BF6B4814386C4908601020486097
:1040D00000216A4881608021C16000210161416145
:1040E0008161C161FEF71CF908B1FDF7AEF800BFB0
:1040F0006248A063446200BF002205212520FEF72C
:10410000B7FC2520FEF7A4FCABE05D49206888429F
:104110006CD100BF5548C06940F400305349C861B4
:104120000846C06900F40030019000BF00BF00BF26
:104130000846806940F0040088610846806900F004
:104140000400019000BF00BF0420029002200390F1
:104150000320059002A94648FEF736FA082002908F
:1041600000200390049002A94148FEF72DFA41482F
:1041700014304449086000204860002141488160B3
:104180008021C16000210161416120218161002104
:10419000C161FEF7C5F808B1FDF757F800BF39480F
:1041A000E063446200BF334828303749086010207C
:1041B00048600021344881608021C1600021016194
:1041C00041618161C161FEF7ABF808B1FDF73DF8CF
:1041D00000BF2D48A063446200BF002205212620B5
:1041E000FEF746FC2620FEF733FC3AE0274920681C
:1041F000884236D100BF1D48C06940F480201B4969
:10420000C8610846C06900F48020019000BF00BF6B
:1042100000BF0846806940F0080088610846806950
:1042200000F00800019000BF00BF081502900220B6
:1042300003900320059002A91548FEF7C5F94FF435
:104240000060029000200390049002A91048FEF73D
:10425000BBF9002205212720FEF70AFC2720FEF7E4
:10426000F7FB06B010BD000000380140001002400E
:104270000008014058000240E00200202403002012
:104280000044004068030020AC03002000480040C8
:10429000000C014070B504460D46164694F84200E5
:1042A00020280BD105B10EB9012070BD002020637C
:1042B00032462946204601F0DFFAF6E70220F4E70D
:1042C00070B504460D46164694F8420020280BD1DE
:1042D00005B10EB9012070BD002020633246294689
:1042E000204601F02DFBF6E70220F4E770B5054605
:1042F000284601F023FF044674B1286801F052FFFC
:1043000050B994F8D410204602F01AF8012204F1B2
:10431000D4012846FFF7D4FF70BD70472DE9F84F50
:1043200004460E46174699464FF0000A94F841009D
:10433000202850D106B117B90120BDE8F88F002020
:104340006064212084F84100FEF7DCFA8246A784ED
:10435000E784A068B0F5805F04D1206910B900251A
:10436000B04602E035464FF000081EE053460022FA
:1043700080212046CDF8009001F032FB20B12020B2
:1043800084F841000320D8E745B9B8F80000C0F32D
:1043900008002168486008F1020803E028782168D5
:1043A00048606D1CE08C401EE084E08C0028DDD16C
:1043B0005346002240212046CDF8009001F010FB2A
:1043C00020B1202084F841000320B6E7202084F8A3
:1043D00041000020B1E70220AFE70000F7B5044636
:1043E000154694F84100202836D1019800B10DB946
:1043F0000120FEBD01982062A584E5840020606450
:10440000212084F841001548A16B88621448A16BF3
:10441000C8621448A16B08630020A16B486301AE19
:1044200023681A1D31682B46A06BFDF7ADFF6FF0B6
:1044300040002168086000BF00BF2168143151E8C6
:10444000001F41F080002168143141E80002002A79
:10445000F3D100BF0020CCE70220CAE7675500086F
:10446000BF5500083F54000810B5034693F84100BB
:10447000202813D101B10AB9012010BD19629A8414
:10448000DA8400205864212083F841001868C0684D
:1044900040F080001C68E0600020EEE70220ECE7BE
:1044A0007047704700BFFEE70EB5002000900190F6
:1044B000029012481249086000211148816001737E
:1044C00001754FF46021C16100200D494860012150
:1044D0000B480161FDF782FA08B1FCF7B6FE002037
:1044E0000090012001900020029069460448FDF7E9
:1044F000C1F908B1FCF7A9FE0EBD0000002401407F
:10450000D800002010B50B480B4908601020486007
:10451000002109488160C1600161416101764176F5
:104520008176C17601774177FDF7AAFC08B1FCF7E7
:104530008CFE10BD006400400801002008B500BFDB
:104540001648406940F00100144948610846406936
:1045500000F00100009000BF00BF002205210E20E6
:10456000FEF786FA0E20FEF773FA002205210F20CF
:10457000FEF77EFA0F20FEF76BFA002205211020CD
:10458000FEF776FA1020FEF763FA002205211120CB
:10459000FEF76EFA1120FEF75BFA08BD001002402C
:1045A00010B50B4A00210B4802F0E2F90A490860F5
:1045B0000A4A00210A4802F0DBF90A4908600A4A5F
:1045C00000210A4802F0D4F90949086010BD000032
:1045D00074900008E575000800000020989000081D
:1045E000D176000804000020BC9000083577000850
:1045F0000800002000B585B00020019002900390D3
:10460000049000BF4648806940F01000444988612A
:104610000846806900F01000009000BF00BF00BF96
:104620000846806940F0200088610846806900F0F3
:104630002000009000BF00BF00BF0846806940F026
:10464000040088610846806900F00400009000BF03
:1046500000BF00BF0846806940F008008861084636
:10466000806900F00800009000BF00BF00224FF4F6
:1046700040412C48FEF740F900224FF498712A4837
:10468000FEF73AF9002243F2B4112848FEF734F954
:104690004FF400500190002002900120039001A9E6
:1046A0002048FDF791FF4FF4404001900120029017
:1046B00002200390049001A91A48FDF785FF4FF4EA
:1046C000987001900120029003900220049001A9AB
:1046D0001548FDF779FF43F2A410019001200290E4
:1046E00003900220049001A91048FDF76DFF4FF4DC
:1046F00040400190002002900120039001A90B4846
:10470000FDF762FF1020019011200290012003901C
:104710000220049001A90548FDF756FF05B000BD31
:10472000001002400010014000080140000C014050
:1047300000B58DB0002009900A900B900C90079066
:1047400008901C216846FBF794FE4FF080402449F6
:1047500008604720486000212148816044F61F61BD
:10476000C160002101618161FEF7A6FE08B1FCF77E
:104770006CFD4FF48050099009A91948FEF74AFFD3
:1047800008B1FCF762FD1648FFF7A7F908B1FCF77E
:104790005CFD00200790089007A91148FEF74AFE2B
:1047A00008B1FCF752FD602000904FF47A70019040
:1047B000002002900490002269460948FFF70BF997
:1047C00008B1FCF742FD042269460548FFF703F9EA
:1047D00008B1FCF73AFD0248FFF75AF80DB000BDEA
:1047E0003001002000B58DB0002009900A900B9098
:1047F0000C90079008901C216846FBF73AFE2D4864
:104800002D4908604720486000212B48816040F214
:10481000E731C160002101618161FEF74DFE08B101
:10482000FCF713FD4FF48050099009A92248FEF7C8
:10483000F1FE08B1FCF709FD1F48FFF74EF908B17A
:10484000FCF703FD00200790089007A91A48FEF71F
:10485000F1FD08B1FCF7F9FC602000904FF4FA700C
:104860000190002002900490002269461248FFF750
:10487000B2F808B1FCF7E9FC042269460E48FFF7DC
:10488000AAF808B1FCF7E1FC082269460A48FFF7DC
:10489000A2F808B1FCF7D9FC0C2269460648FFF7DC
:1048A0009AF808B1FCF7D1FC0348FEF7F1FF0DB010
:1048B00000BD0000000400407801002000B58DB06C
:1048C000002009900A900B900C90079008901C21F2
:1048D0006846FBF7CEFD254825490860472048601B
:1048E00000212348816040F2E731C160002101616D
:1048F0008161FEF7E1FD08B1FCF7A7FC4FF48050A1
:10490000099009A91A48FEF785FE08B1FCF79DFC3D
:104910001748FFF7E2F808B1FCF797FC0020079072
:10492000089007A91248FEF785FD08B1FCF78DFC39
:10493000602000904FF4FA700190002002900490E3
:10494000002269460A48FFF746F808B1FCF77DFCEB
:104950000C2269460648FFF73EF808B1FCF775FCE3
:104960000348FEF795FF0DB000BD000000080040B1
:10497000C001002010B50B480B4908604FF4E1302E
:104980004860002108488160C16001610C214161DB
:1049900000218161C161FFF703FB08B1FCF755FC01
:1049A00010BD0000003801400802002010B50B487F
:1049B0000B4908604FF4E1304860002108488160ED
:1049C000C16001610C21416100218161C161FFF77A
:1049D000E7FA08B1FCF739FC10BD000000440040C4
:1049E0005002002010B50B480B4908604FF4E1302D
:1049F0004860002108488160C16001610C2141616B
:104A000000218161C161FFF7CBFA08B1FCF71DFC01
:104A100010BD0000004800409802002000BFFEE7E3
:104A200000BFFEE708B508490968C9084FF47A7263
:104A3000B1FBF2F14143009100BF00BF00994A1E53
:104A400000920029F9D108BD180000200EB5002001
:104A50000090019002900948FCF77EFE0020009033
:104A6000012001900520029069460448FCF702FFEE
:104A700000200349088048600EBD0000D8000020D7
:104A8000C800002070B50F48FDF742F90A210D4813
:104A9000FDF77EF888B90B48FCF79CFF0A490880AF
:104AA000088804F021F90546084904F065F9044630
:104AB000074904F061F9044948600248FDF7C0F96C
:104AC00070BD0000D8000020C80000206740533AA5
:104AD0000000404010B5FDF715FF10BD10B50024D3
:104AE0001AE0204601F04CFA00B913E00C4800EB44
:104AF000C400807901280CD1094B03EBC403DA7997
:104B0000074B03EBC4039988054B53F83400FDF7BA
:104B1000F3FE00BF601CC4B20F2CE2D310BD000036
:104B20004C93000870B50446204601F029FA08B9F4
:104B3000002070BD074A02EBC4029188054A52F872
:104B40003400FDF7D1FE0546012D00D1F1E700202C
:104B5000EFE700004C93000870B504460D46204670
:104B600001F00EFA00B970BD0B4800EBC40080796B
:104B7000012800D0F7E70DB1012300E000231A4619
:104B8000054B03EBC4039988034B53F83400FDF73E
:104B9000B3FE00BFE7E700004C93000810B5FFF735
:104BA0009DFF10BD1148006840F080700F490860FB
:104BB00000200F4948600846006840F00100086086
:104BC0000C4800680C4908600A4800684FF47A7184
:104BD000B0FBF1F008494860064800680749B0FB9F
:104BE000F1F0054988600020C8607047FCED00E0E6
:104BF000001000E0180000203442002040420F0066
:104C000010B50C4801F0DEF804460B48844208D188
:104C10000A480849091D096801600120084908700F
:104C200007E006480021016000200549087000F0F7
:104C300009F810BD00FC000834125AA5D400002069
:104C4000D000002000B585B00020019010480390EE
:104C500001200490FDF7A0FC694601A8FDF7E2FBE6
:104C600018B1FDF737FC05B000BD0A49084801F04E
:104C7000CEF810B1FDF72EFCF5E7042206490448F2
:104C8000001D01F0A2F8FDF725FC00BFEBE70000D6
:104C900000FC000834125AA5D400002010B50024EE
:104CA0000CE0204601F094F900B905E0054901EB5C
:104CB000440001F081F900BF601CC4B2032CF0D3A2
:104CC00010BD0000C49300082DE9F0410446884659
:104CD00015461E46204601F07BF908B9BDE8F08173
:104CE0000F4800EB4407384601F0B7F94146384613
:104CF00001F08FF9384601F0DCF92946384601F019
:104D000088F9384601F0D5F93146384601F081F985
:104D1000384601F0CEF9384601F0B8F900BFDDE7BA
:104D2000C49300082DE9F0470546894616461F46FC
:104D3000DDF820A0284601F04BF908B9BDE8F0875E
:104D4000124800EB4508404601F087F949464046C5
:104D500001F05FF9404601F0ACF93146404601F000
:104D600058F9404601F0A5F9002408E0395D4046B5
:104D700001F04FF9404601F09CF9601C84B25445A3
:104D8000F4DB404601F082F900BFD7E7C493000886
:104D900010B500240EE0094850F8340040B1074A2D
:104DA00002EBC4025168054A52F83400FEF7CAFE0D
:104DB000601CC4B20C2CEED310BD0000CC930008D4
:104DC0002DE9F04704460E460C2C03D2284850F833
:104DD000340008B9BDE8F0870021304603F098FFA1
:104DE00000D200262349304604F092F800D2214E2A
:104DF0001F4850F834000068C76A781C03F074FF3D
:104E000081461C49304603F03DFE8246494603F088
:104E1000B3FF804603F048FF0546154800EBC40089
:104E2000406828B9124850F83400006845631CE017
:104E30000F4800EBC4004068042805D10C4850F826
:104E400034000068856310E0094800EBC400406846
:104E5000082805D1064850F834000068C56304E00E
:104E6000034850F834000068056400BFB2E7000052
:104E7000CC9300080000C84270B5002543E005EB64
:104E80000510294901EB0014284850F8250020603E
:104E90002748405D207125730020A4F8D000A4F8B5
:104EA000D200A4F88E00C4F80801C4F80C01C4F8BC
:104EB0000401204601F024FA0020C5EBC50101EBF6
:104EC00005111C4A5054C5EBC50101EB05111144F5
:104ED0004870C5EBC50101EB0511114488752168C7
:104EE000086801F05FF930B1802204F10D012068FB
:104EF000FFF7D0F905E0012204F1D4012068FFF7A3
:104F0000DFF9681CC5B2032DB9D3002408E004EB17
:104F10000411054A02EB011001F024FA601CC4B22E
:104F2000032CF4D370BD0000BC3E0020BC00002068
:104F30002C940008EC4100202DE9F04106460F4674
:104F4000032E01D3BDE8F08106EB06101C4901EBEE
:104F50000014C6EBC60000EB06101A49451820796C
:104F600000B1EFE7206801F036FA00B9EAE7552012
:104F700084F8D500AA21D6200155D7200755002056
:104F800008E005F10C010B5CC11C04F1D50253547F
:104F9000411CC8B20A28F4D30021E2200155297827
:104FA000E32001552878401C2870FF21E42001559A
:104FB000102204F1D501204601F0F8F900BFC1E745
:104FC000BC3E0020EC4100202DE9F04105460F4693
:104FD0001646032D00D20EB9BDE8F08105EB051091
:104FE0000C4901EB0014202E00DDF5E7206801F0EC
:104FF000F2F900B9F0E73246394604F1D500FBF783
:10500000B9F9324604F1D501204601F0CFF900BFCD
:10501000E2E70000BC3E0020032805D200EB0012AE
:10502000024B03EB0212916070470000BC3E00206F
:10503000F8B5FDF767FC064600254FE005EB0510C7
:10504000284901EB00142168086801F0ABF8D8B1D9
:105050002068C06B00684068C0F1800087B20EE035
:10506000B4F88E2004F10D00815C204601F068F94F
:1050700094F88E00401C00F07F00A4F88E00B4F875
:105080008E00B842ECD100BF207978B994F8F500D1
:1050900060B1D4F80401301A322807D9D4F80C01D1
:1050A000401CC4F80C01204601F02AF90EE02079DA
:1050B00038B1A06850B1207B9DF80010A2689047DD
:1050C00004E09DF80010204601F09CF86946204657
:1050D00001F01DF90028EAD0681CC5B2032DADD33C
:1050E000F8BD0000BC3E002010B54FF0E020006984
:1050F00003F004FA012801D002F04EFE10BD00B505
:1051000093B0282109A8FBF7B4F9142104A8FBF7F0
:10511000B0F90020009001900290039001200990C6
:1051200000040A9000200B9001200D9002201090A6
:10513000C10311914FF4E011129109A8FDF746FF48
:1051400008B1FCF782F80F2004900220059000209F
:1051500006904FF48060079000200890022104A878
:10516000FDF7EEFD08B1FCF770F802200090800317
:1051700002906846FDF74CFD08B1FCF766F813B0E5
:1051800000BD704710B50248FEF7CBFA10BD000015
:10519000F003002010B502681C4B984208D0B0F113
:1051A000804F05D01A4B984202D01A4B984203D137
:1051B00022F070024B681A43144B984208D0B0F1A9
:1051C000804F05D0124B984202D0124B984203D127
:1051D00022F44072CB681A4322F080034C6943EA00
:1051E000040202608B68C3620B688362074B9842BB
:1051F00001D10B69036301234361036903F00103D8
:105200001BB1036923F00103036110BD002C0140B1
:10521000000400400008004030B501F01F050124E3
:1052200004FA05F3046A9C430462046A01F01F0552
:1052300002FA05F52C43046230BD30B50C46816896
:1052400021F47F4142EA032525432943816030BD93
:105250000A46816821F0700142F00703194381601A
:105260007047000030B5026A056A25F00105056245
:105270004368846924F0700424F003040D682C430F
:1052800022F002028D682A430D4DA84206D100BFCC
:1052900022F00802CD682A4322F00402084DA842F9
:1052A00007D123F4807323F400734D692B438D6978
:1052B0002B43436084614D684563026230BD00004A
:1052C000002C014030B5026A056A25F01005056220
:1052D0004368846924F4E04424F440740D6844EA8B
:1052E000052422F020028D6842EA05120E4DA842E4
:1052F00007D100BF22F08002CD6842EA051222F0F9
:105300004002094DA84209D123F4806323F40063CD
:105310004D6943EA85038D6943EA850343608461EF
:105320004D688563026230BD002C014030B5026AD1
:10533000056A25F4807505624368C46924F0700429
:1053400024F003040D682C4322F400728D6842EAB5
:1053500005220F4DA84207D100BF22F40062CD689C
:1053600042EA052222F48062094DA84209D123F4C1
:10537000805323F400534D6943EA05138D6943EAD2
:1053800005134360C4614D68C563026230BD00000F
:10539000002C014030B5036A056A25F4805505628A
:1053A0004468C26922F4E04222F440720D6842EA85
:1053B000052223F400538D6843EA0533064DA842C5
:1053C00004D124F480444D6944EA85144460C261E8
:1053D0004D680564036230BD002C014030B50B46BA
:1053E0001446026A056A25F001050562816921F00B
:1053F000F00141EA041122F00A021A4381610262BB
:1054000030BD30B50B461446026A056A25F010051A
:105410000562816921F4704141EA043122F0A00261
:1054200042EA03128161026230BD70B505466C6AC2
:105430000020E085E0842046FEF7FCFB70BD70B5DF
:1054400006460025746A20684069C0F3C01594F8C8
:105450004100212805D125B10020E084204600F03C
:10546000FBF820684069C0F3801594F842002228B8
:1054700005D125B10020E085204600F0A7F8606C3A
:1054800040F0100060642046FEF7D4FB70BD70B59C
:1054900005466C6A2868006800F02000002842D1A8
:1054A000E08500BF00BF21680C3151E8001F21F4E6
:1054B000807021680C3141E80002002AF3D100BF5E
:1054C00000BF00BF2168143151E8001F21F0010026
:1054D0002168143141E80002002AF3D100BF00BF67
:1054E00000BF2168143151E8001F21F040002168FD
:1054F000143141E80002002AF3D100BF202084F8D3
:105500004200206B01280ED100BF00BF21680C3182
:1055100051E8001F21F0100021680C3141E8000221
:10552000002AF3D100BF00206063206B012804D162
:10553000A18D2046FEF77DFB02E02046FEF7D6FE59
:1055400070BD70B505466C6A01206063206B012850
:1055500005D1A08D41082046FEF76BFB02E02046F6
:10556000FEF7DBFE70BD70B505466C6A2868006802
:1055700000F02000F8B90020E08400BF00BF2168DF
:10558000143151E8001F21F080002168143141E8F6
:105590000002002AF3D100BF00BF00BF21680C3118
:1055A00051E8001F41F0400021680C3141E8000241
:1055B000002AF3D102E02046FEF772FF70BD70B5FD
:1055C0000446656A2846FEF76CFF70BD00BF00BF49
:1055D00002680C3252E8002F22F4907102680C32FB
:1055E00042E80013002BF3D100BF00BF00BF0268E8
:1055F000143252E8002F22F001010268143242E80E
:105600000013002BF3D100BF016B01290ED100BFA5
:1056100000BF02680C3252E8002F22F0100102682D
:105620000C3242E80013002BF3D100BF202180F898
:10563000421000210163704710B504462068C0681D
:1056400020F040002168C860202084F841002046F6
:10565000FEF726FF002010BD00BF00BF02680C321D
:1056600052E8002F22F0C00102680C3242E8001319
:10567000002BF3D100BF202180F841107047F8B50E
:10568000044694F84200222875D1A068B0F5805FE6
:105690000CD1206950B90025A66A20684068C0F383
:1056A00008003080A06A801CA06215E0A56A002670
:1056B000A068B0F5805F03D0A06828B9206918B948
:1056C00020684068287004E02068406800F07F008F
:1056D0002870A06A401CA062E08D401E80B2E08568
:1056E000002846D12068C06820F020002168C860EA
:1056F0002068C06820F480702168C8602068406914
:1057000020F0010021684861202084F84200002038
:105710006063206B012826D10020206300BF00BFFA
:1057200021680C3151E8001F21F0100021680C3174
:1057300041E80002002AF3D100BF2068006800F0B1
:10574000100010280AD100BF0020009020680068D7
:10575000009020684068009000BF00BFA18D2046E7
:10576000FEF767FA02E02046FEF7C0FD0020F8BD14
:1057700001E00020FBE70220F9E7000070B50446D5
:105780002168096921F44051E268114322681161DE
:105790002269A1681143626941EA02052168C9686A
:1057A00041F20C62914329432268D1602168496922
:1057B00021F44071A2691143226851612D4A216888
:1057C000914202D1FDF7BAFB01E0FDF7A7FB00EB28
:1057D000C00101EB001162689200B1FBF2F100EB35
:1057E000C00202EB001263689B00B2FBF3F2642379
:1057F000B2FBF3F202EBC20303EB0212A1EB820154
:10580000322202EB01116422B1FBF2F101F0F0014E
:1058100000EBC00202EB001263689B00B2FBF3F2E4
:105820006423B2FBF3F201EB021200EBC00101EBC7
:10583000001163689B00B1FBF3F100EBC00303EBC5
:1058400000136668B600B3FBF6F36426B3FBF6F309
:1058500003EBC30606EB0313A1EB8301322303EB37
:1058600001116423B1FBF3F101F00F01114422682F
:10587000916070BD0038014077B581B0044615468F
:105880000298A062A58500206064222084F842006E
:105890002848E16B88622848E16BC8622748E16BC1
:1058A00008630020E16B486302AE32682368191D6B
:1058B0002B46E06BFCF768FD00BF002000902068DD
:1058C0000068009020684068009000BF00BF206919
:1058D00070B100BF00BF21680C3151E8001F41F4D6
:1058E000807021680C3141E80002002AF3D100BF2A
:1058F00000BF00BF2168143151E8001F41F00100D2
:105900002168143141E80002002AF3D100BF00BF32
:1059100000BF2168143151E8001F41F040002168A8
:10592000143141E80002002AF3D100BF002004B086
:1059300070BD00008F540008435500083F54000814
:1059400010B5034699629A85DA85002058642220B2
:1059500083F84200186928B11868C06840F4807064
:105960001C68E0601868406940F001001C686061D4
:105970001868C06840F020001C68E060002010BD7E
:10598000014691F84100212828D18868B0F5805F50
:105990000BD1086948B90A6A1088C0F308000B687F
:1059A0005860086A801C086205E00B6A581C08628F
:1059B00018780B685860C88C401E80B2C88458B9EB
:1059C0000868C06820F080000B68D8600868C0686C
:1059D00040F040000B68D860002070470220FCE7D0
:1059E0002DE9F84304460D4617469846089E31E0D7
:1059F000701C70B3FCF786FFA0EB0800B04200D823
:105A000016B90320BDE8F8832068C06800F00400E0
:105A1000F8B1802D1ED0402D1CD020680068C0F346
:105A2000C000B0B100BF0020009020680068009066
:105A300020684068009000BF00BF2046FFF7C6FD09
:105A40000820606400BF002084F8400000BF0120EF
:105A5000D8E7FFE7206800682840A84201D101206C
:105A600000E00020B842C3D00020CBE710B50248C8
:105A7000FEF724F910BD00000802002010B502480E
:105A8000FEF71CF910BD00005002002010B50248BE
:105A9000FEF714F910BD00009802002000BFFEE7D9
:105AA0000146080601F47F4240EA022001F47F0229
:105AB00040EA122040EA116070470246501A7047CF
:105AC00010B50246012000E050430B1EA1F1010475
:105AD000E1B2F9D110BD70B504460D46012D06D1D5
