:020000040800F2
:100000008847002021020008ED4400084D3F000809
:10001000E94400087D05000839540008000000008C
:10002000000000000000000000000000890100083E
:10003000450E000800000000CD010008ED4A000850
:100040003B0200083B0200083B0200083B0200089C
:100050003B0200083B0200083B0200083B0200088C
:100060003B0200083B0200083B0200083B0200087C
:100070003B0200083B0200088105000891050008CA
:10008000A1050008B10500083B0200083B0200087A
:100090003B0200083B0200083B020008470E000834
:1000A0003B020008894B00083B0200083B020008A5
:1000B0003B0200083B0200083B0200083B0200082C
:1000C0003B0200083B0200083B0200083B0200081C
:1000D0003B0200080954000819540008295400087C
:1000E0003B0200083B0200083B02000800F002F857
:1000F00000F03AF80AA090E8000C82448344AAF188
:100100000107DA4501D100F02FF8AFF2090EBAE885
:100110000F0013F0010F18BFFB1A43F0010318473B
:100120001083000030830000103A24BF78C878C1E3
:10013000FAD8520724BF30C830C144BF04680C60ED
:10014000704700000023002400250026103A28BF35
:1001500078C1FBD8520728BF30C148BF0B60704739
:100160001FB51FBD10B510BD00F058F91146FFF7BF
:10017000F7FF05F000FC00F076F903B4FFF7F2FF9B
:1001800003BC00F07DF90000224B19680868B0E854
:10019000F00F80F30988BFF36F8F4FF0000080F3FA
:1001A00011884EF00D0E70470000000006480068F0
:1001B000006880F3088862B661B6BFF34F8FBFF363
:1001C0006F8F00DF00BF00BF08ED00E0EFF3098094
:1001D000BFF36F8F0F4B1A6820E9F00F106008B55E
:1001E0004FF0500080F31188BFF34F8FBFF36F8F34
:1001F00006F048FD4FF0000080F31188BDE808408C
:1002000019680868B0E8F00F80F30988BFF36F8FB2
:10021000704700BF1C000020EFF30580704700000E
:100220000948804709480047FEE7FEE7FEE7FEE78A
:10023000FEE7FEE7FEE7FEE7FEE7FEE704480549C6
:10024000054A064B70470000874B0008ED00000888
:1002500088410020884700208843002088430020F0
:10026000B2F120030AD5C2F1200320FA02F001FA0C
:1002700003F321FA02F140EA0300704721FA03F088
:100280004FF000017047032A40F2308010F0030C59
:1002900000F0158011F8013BBCF1020F624498BFD9
:1002A00011F801CB00F8013B38BF11F8013BA2F176
:1002B000040298BF00F801CB38BF00F8013B11F0F1
:1002C000030300F02580083AC0F0088051F8043B91
:1002D000083A51F804CBA0E80810F5E7121D5CBFFE
:1002E00051F8043B40F8043BAFF30080D20724BF31
:1002F00011F8013B11F801CB48BF11F8012B24BFC5
:1003000000F8013B00F801CB48BF00F8012B704713
:1003100010B5203AC0F00B80B1E81850203AA0E8A0
:100320001850B1E81850A0E81850BFF4F5AF5FEAD4
:10033000027C24BFB1E81850A0E8185044BF18C987
:1003400018C0BDE810405FEA827C24BF51F8043B2E
:1003500040F8043B08BF7047D20728BF31F8023B82
:1003600048BF11F8012B28BF20F8023B48BF00F816
:10037000012B704702F0FF0343EA032242EA0242E4
:1003800000F02CB84FF0000200B513469446964694
:10039000203922BFA0E80C50A0E80C50B1F1200198
:1003A000BFF4F7AF090728BFA0E80C5048BF0CC046
:1003B0005DF804EB890028BF40F8042B08BF7047A4
:1003C00048BF20F8022B11F0804F18BF00F8012B16
:1003D00070477047704770474FF000020429C0F023
:1003E000128010F0030C3FF4CFAFCCF1040CBCF141
:1003F000020F18BF00F8012BA8BF20F8022BA1EBB9
:100400000C01FFF7C1BF5FEAC17C24BF00F8012BDC
:1004100000F8012B48BF00F8012B7047754600F02B
:100420002BF8AE4605006946534620F00700854686
:1004300018B020B5FFF702FFBDE820404FF00006DE
:100440004FF000074FF000084FF0000B21F00701BC
:10045000AC46ACE8C009ACE8C009ACE8C009ACE8FF
:10046000C0098D46704710B50446AFF300802046A2
:10047000BDE81040FFF781BE0048704724410020CE
:1004800001491820ABBEFEE726000200704770B598
:10049000044600252068806800F0010018B3206839
:1004A000806820F001002168886001F0E3FF0546C4
:1004B00013E001F0DFFF401B02280ED9206880689E
:1004C00000F0010048B1A06A40F01000A062E06AAC
:1004D00040F00100E062012070BD2068806800F0FB
:1004E00001000028E5D10020F6E7000038B50446F9
:1004F0000025002000902068806800F0010078BB93
:100500002068806840F00100216888601948006810
:100510001949B0FBF1F0009002E00098401E0090F5
:1005200000980028F9D101F0A5FF054619E001F077
:10053000A1FF401B022814D92068806800F0010048
:1005400078B9A06A40F01000A062E06A40F00100B3
:10055000E06200BF002084F8240000BF012038BD05
:1005600005E02068806800F001000028DFD000204E
:10057000F5E700001800002040420F0000BFFEE732
:1005800010B5024801F094FB10BD000010030020DC
:1005900010B5024801F08CFB10BD0000CC02002019
:1005A00010B5024801F084FB10BD00005403002088
:1005B00010B5024801F07CFB10BD0000980300203C
:1005C00030B590F840500124AC40C56B6C600468B5
:1005D00063604468102C04D10468A2600468E16080
:1005E00003E00468A1600468E26030BD10B52148F2
:1005F000808C50B92048007830B10021082004F0E8
:1006000063F900201C49087010BD1A48808C4FF611
:10061000FF7188420AD11848007830B9174908207C
:1006200004F052F9012014490870EDE712480078EF
:1006300058B903F0B5FF124908601049082004F0CA
:1006400043F901200C490870DEE703F0A9FF0446D6
:100650000B480068201A0749898C884208D300217A
:10066000082004F031F9002002498884024908700A
:1006700000BFC9E74C390020A00000200000C8429C
:100680009C00002010B503F0EFFF0021012000F0D6
:10069000FBF80121002000F0F7F800F0A7F8002097
:1006A000054988840549087005490860002108202B
:1006B00004F00AF910BD00004C390020A000002011
:1006C0009C0000202DE9F04103F06AFF064600245B
:1006D00083E0204600F0C4F80546424800EB0410D1
:1006E000407AA84207D03F4800EB041045723D48CD
:1006F00000EB0410C6603B4800EB0410C1683046B4
:1007000004F09CFE322801D32F4603E0354800EB6D
:1007100004100778002F4BD0012004EB4401324A2B
:1007200002F821002F4800EB04100078C8B901201E
:100730002C4901EB041108702A4800EB04104660B4
:100740000020284901EB0411087204EB4400114613
:1007500001EB80004068401C04EB440102EB810186
:100760004860204800EB0410007A00BB1D4800EBF5
:1007700004104168304604F061FEB0F57A7F2AD358
:100780000120184901EB0411087204EB4401164AD8
:1007900002EB8101487004EB4400114601EB80003C
:1007A0008068401C04EB440102EB8101886012E088
:1007B000002004EB44010C4A02F8210004EB440140
:1007C00002EB81014870074901EB041108700549EB
:1007D00001EB04110872601CC4B2032CFFF479AF62
:1007E000BDE8F0811C3900204C39002010B503F021
:1007F000D7FE044600202CE00021174A02EB00122D
:100800001170154901EB00114C600021124A02EBF6
:1008100000121172104A02EB001251720E4901EBE4
:100820000011CC60002100EB40020C4B03F82210B9
:1008300000EB400203EB8202517000EB400203EB3D
:100840008202516000EB400203EB82029160411C86
:10085000C8B20328D0D310BD1C3900204C39002069
:1008600010B50446204600F005F808B9012010BD77
:100870000020FCE710B504460249085D03F0B8FE0D
:1008800010BD0000F080000870B504460D460DB99B
:10089000012000E0002006460249085D314603F0D1
:1008A000C1FE70BDF380000800200CE0002106E0CE
:1008B0000022064B03EBC0135A544A1CD1B28029C4
:1008C000F6D3411CC8B20828F0D370477439002011
:1008D00010B5044624B90021A62004F0E4FD03E08D
:1008E0000021A72004F0DFFD10BD000010B500219D
:1008F0008D2004F0D8FD0021142004F0D4FD002147
:10090000AF2004F0D0FD01200149087010BD0000A7
:10091000A100002010B5044644B90021C82004F00D
:10092000C2FD0021A12004F0BEFD07E00021C0208F
:1009300004F0B9FD0021A02004F0B5FD10BD0000B9
:10094000F0B50B46D90803F007050126AE40F4B216
:100950004AB10A4E06EBC116365C2643074F07EB39
:10096000C1173E5408E0054E06EBC116365CA6439F
:10097000024F07EBC1173E54F0BD00007439002050
:1009800010B503F00FFF0021AE2004F08CFD002114
:10099000084604F088FD0021102004F084FD0021A9
:1009A000402004F080FD0021812004F07CFD002126
:1009B000CF2004F078FD0021A12004F074FD002177
:1009C000C82004F070FD0021A62004F06CFD002179
:1009D000A82004F068FD00213F2004F064FD002100
:1009E000D32004F060FD0021084604F05CFD0021E6
:1009F000D52004F058FD0021802004F054FD002192
:100A0000D92004F050FD0021F12004F04CFD00211C
:100A1000DA2004F048FD0021122004F044FD0021FA
:100A2000DB2004F040FD0021302004F03CFD0021DB
:100A3000202004F038FD0021022004F034FD0021C4
:100A40008D2004F030FD0021142004F02CFDFFF770
:100A50002BFF0021AF2004F026FDFFF747FF002009
:100A6000FFF736FF0020FFF755FF10BD38B5002413
:100A700019E004F1B001C8B2002104F014FD002116
:100A8000084604F010FD0021102004F00CFD802029
:100A90000090064800EBC41340227821002003F0A8
:100AA000C5FE601CC4B2082CE3D338BD74390020E5
:100AB0002DE9F84F06460F4690469946B8F1200FAB
:100AC00002DBB8F17E0F01DD4FF02008A8F1200015
:100AD00000F0FF0A002444E00AEB4A00234901EB3E
:100AE000400010F804B0002537E04BFA05F000F0A4
:100AF000010008B1484605E0B9F1000F01D101201D
:100B000000E00020009007EB4502D1B206EB440262
:100B1000D0B2009AFFF714FF07EB4502D1B206EB03
:100B20004402521CD0B2009AFFF70AFF07EB4502BD
:100B3000521CD1B206EB4402D0B2009AFFF700FF7C
:100B400007EB4502521CD1B206EB4402521CD0B254
:100B5000009AFFF7F5FE681CC5B2082DC5D3601CCE
:100B6000C4B2062CB8D3BDE8F88F0000F5800008A9
:100B70002DE9F04F0746884615469946202D01DBA2
:100B80007E2D00DD2025A5F1200000F0FF0A0024C5
:100B90002AE00AEB4A00164901EB400010F804B0C5
:100BA00000261DE00BF0010040B108EB0602D1B2B7
:100BB0003A19D0B24A46FFF7C3FE0DE0B9F1000F73
:100BC00001D1012300E000231A4608EB0603D9B245
:100BD0003B19D8B2FFF7B4FE4FEA6B0B701CC6B2DC
:100BE000082EDFD3601CC4B2062CD2D3BDE8F08F30
:100BF000F58000082DE9FF4F85B016461F46059D7C
:100C00000021304607F06EF80AD201232D22284633
:100C10000699FFF74DFF05F10C00C5B286F00046BE
:100C2000304607F02BF8044639460A2004F009FC48
:100C30008246504607F042F80290204607F03EF800
:100C40003146009007F07FF90190029907F07EF895
:100C50004FF07C51039006F0E1FE049007F00EF88F
:100C60008046D04502D3641C4FF00008A3464FF0E5
:100C7000010906E00A20BBFBF0FB09F1010000F0CE
:100C8000FF09BBF10A0FF5D24B46224628460699CA
:100C900004F0E2FB09EB490005EB8000C5B29FB10F
:100CA00001232E2228460699FFF702FF05F10C00CA
:100CB000C5B23B4642462846069904F0CDFB07EBF9
:100CC000470005EB8000C5B2284609B0BDE8F08FAB
:100CD0002DE9F0470646884617461D4600241AE0CF
:100CE000281B401EC1B20A2004F0ABFBB7FBF0F09A
:100CF0000A21B0FBF1F201FB120909F13001CAB27D
:100D000004EB440106EB4101C8B201234146FFF761
:100D10002FFF601CC4B2AC42E2DBBDE8F0872DE9D6
:100D2000F0410546884616462F46344608E02278AC
:100D3000012341463846FFF71BFFB81DC7B2641CAC
:100D400020780028F3D1BDE8F0812DE9F041054677
:100D5000884616462F46344609E02278012341464C
:100D60003846FFF7A5FE07F10C00C7B2641C2078D7
:100D70000028F2D1BDE8F081002008E00021054AFA
:100D800002F8301002EBC0025160411CC8B20228C8
:100D9000F4D37047743D002070B504460449085DE3
:100DA00003F026FC05460DB9012070BD0020FCE7CC
:100DB0001D8300082DE9F041044603F059FC064666
:100DC0000C49085D03F014FC07460FB9012000E050
:100DD00000200546012D07D1074810F8340018B946
:100DE000054800EBC4004660034800F83450BDE8F5
:100DF000F08100001D830008743D002070B5054699
:100E00000E4619E00D480068012121EA10244CB17A
:100E10000B48007A30B903F02BFC0949C860012067
:100E2000087270BD064804723146284603F05AFC29
:100E300008B10020F5E700BFE4E700000808014022
:100E4000743D0020704710B54FF4807001F066F9D2
:100E500010BD72B600BFFEE70021074AD161074905
:100E6000096941F00401054A11611146096941F01F
:100E7000400111617047000028040020002002405A
:100E80000021074AD1610749096941F00201054A79
:100E9000116111464861096941F0400111617047D3
:100EA00028040020002002400022054BDA61054A98
:100EB000126942F00102034B1A6101807047000081
:100EC000280400200020024000201E49C96801F0CB
:100ED000100139B11C49C96941F002011A4AD161B6
:100EE00040F010001749C96801F0040139B11649F2
:100EF000C96941F00101144AD16140F0040011496F
:100F0000C96901F0010169B10F49C96941F00401E2
:100F10000D4AD16100BF0B49C96921F00101094A9D
:100F2000D16100BF00BF40F20111884206D10549DE
:100F3000C96921F00101034AD16101E00149C8609A
:100F400000BF7047002002402804002070B504460E
:100F500001F090FA054609E0601C38B124B101F0B7
:100F600089FA401BA04201D9032070BD1248C06815
:100F700000F001000028EFD10F48C06800F0200009
:100F800020B100BF20200C49C86000BF0A48C068DB
:100F900000F0100048B90848C06900F0010020B90D
:100FA0000548C06800F0040018B1FFF78DFF01206C
:100FB000DBE70020D9E700000020024070B51B48A5
:100FC0000023102102682820FFF714FE054618A20E
:100FD00010212846FFF7B9FE1449087A00F032F8CC
:100FE00004462CB913A214216220FFF798FE0AE0F0
:100FF0000223224614216220FFF76AFE0EA214216A
:101000006E20FFF78CFE0DA226210020FFF787FE41
:1010100006480123302142681C20FFF7EBFD0546FE
:1010200003A230212846FFF790FE70BD0C4100203E
:101030006D2F73002D2D67006700000041637475EC
:10104000616C3A00024600210BE0084810F81100DC
:10105000904204D1054800EB410040787047481C9D
:10106000C1B20329F1D30020F8E70000038400088F
:1010700010B564200F4908720F48086000204860CE
:10108000487200BF05E000210C4A42F82010411CC4
:10109000C8B20328F7D30020094908704860886067
:1010A000C86008614861886108770862054903F0F3
:1010B0000BFC10BD0C4100200000A040DC400020D3
:1010C000E84000200000C84270B5002426E004EB90
:1010D0004400144901EB80004068134951F8241082
:1010E000884219D004EB44000E4901EB80004068AF
:1010F0000D4941F824000D4810F814000C490872FD
:101100000C480860094911F8140006F0D7FD05469F
:101110002946002003F0D8FB601CC4B2032CD6D3B0
:1011200070BD00004C390020DC4000200384000822
:101130000C4100200000A04070B54B48007FD8B1A2
:101140004949086A41F2883103F0CCFA98B100208D
:101150004549087048604548406888600020C8607C
:1011600008614861886108770862414948604872AF
:101170000120FFF71FFE70BD3C4840683A4989686E
:10118000884200D1F7E739484068374988603748D6
:101190004068486001200870FFF70CFE05F06AFD0A
:1011A000314948684FF4FA61FFF728FE044606F01B
:1011B00035FB012C53D12D48C0682B49C860084627
:1011C000C0684968401A284908612A49886806F0B9
:1011D00075FD05462449086906F070FD0646294656
:1011E00006F08AFC204948614869002106F07AFE31
:1011F00035D21D484169204806F07EFC1A498861B5
:1012000088694FF07C5106F06DFE28D818490868AF
:101210001A4906F09BFD054615490868184906F06D
:1012200095FD064610488069114948600E49886955
:10123000294606F057FD05D30B498869314606F06B
:1012400051FE01D2012000E000200949487201202E
:101250000549087703F00CFA0349086200BF002033
:101260000149087000BF86E7E8400020743D002077
:101270000C410020CC40002000606A476666663F53
:10128000CDCC8C3FF8B5044600260020009000BF6E
:1012900094F82400012801D10220F8BD012084F82F
:1012A000240000BF2046FFF7F2F806462046FFF76D
:1012B0001DF90646002E69D1A06A20F4885040F03E
:1012C0000200A062022001F0DDF934490968B1FB97
:1012D000F0F04000009002E00098401E009000985E
:1012E0000028F9D12068806840F0080021688860F3
:1012F00001F0C0F8054616E001F0BCF8401B0A28D2
:1013000011D92068806800F0080060B1A06A20F060
:10131000020040F01000A06200BF002084F824000A
:1013200000BF0120B9E72068806800F008000028AD
:10133000E2D12068806840F004002168886001F0F4
:1013400099F8054616E001F095F8401B0A2811D9D6
:101350002068806800F0040060B1A06A20F00200FC
:1013600040F01000A06200BF002084F8240000BFFD
:10137000012092E72068806800F004000028E2D194
:10138000A06A20F0020040F00100A06200BF00202F
:1013900084F8240000BF30467FE7000018000020DA
:1013A00038B5024600230020009000BF92F82400C8
:1013B000012801D1022038BD012082F8240000BF9D
:1013C0004868072812D21068406B0C79641E04EB41
:1013D00084051F24AC40A0430D796D1E05EB8505E7
:1013E0000C68AC4020431468606327E048680D280F
:1013F00012D21068006B0C79E41F04EB84051F24E3
:10140000AC40A0430D79ED1F05EB85050C68AC40A1
:1014100020431468206311E01068C06A0C790D3C09
:1014200004EB84051F24AC40A0430D790D3D05EB72
:1014300085050C68AC4020431468E06208680A28FF
:1014400012D31068C0680C780A3C04EB44050724EA
:10145000AC40A0430D780A3D05EB45058C68AC40D7
:1014600020431468E0600FE0106800690C7804EB1A
:1014700044050724AC40A0430D7805EB45058C6876
:10148000AC402043146820610868102802D0086826
:10149000112827D1174C1068A0421ED1106880680F
:1014A00000F40000F0B91068806840F4000014688F
:1014B000A0600868102815D10F4800680F4CB0FBD9
:1014C000F4F000EB80004000009002E00098401E25
:1014D000009000980028F9D104E0906A40F02000C4
:1014E0009062012300BF002082F8240000BF18464C
:1014F00061E70000002401401800002040420F0076
:1015000001460868C06C70472DE9F0410446002789
:1015100000250026A84614B90120BDE8F081A06886
:1015200010B1207D00B100BFA06A30B90020E06298
:1015300084F82400204600F089F82046FEF7A7FF33
:101540000746A06A00F01000002873D1002F71D167
:10155000A06A20F4885040F00200A062E16960684F
:101560000843217B40EA41000643A068B0F5807F34
:1015700002D0A068012802D14FF4807000E0002062
:101580000543207D012811D1207B38B9A069401E78
:101590004FF4006141EA4030054307E0A06A40F0A3
:1015A0002000A062E06A40F00100E062206840682C
:1015B00020F46940284321684860206880682149F8
:1015C0000840304321688860A068B0F5807F02D071
:1015D000A068012802D14FF4807000E00020B0F52F
:1015E000807F03D1208A401E4FEA00582068C06ADD
:1015F00020F4700040EA08002168C8622068806812
:1016000011490840B04208D10020E062A06A20F0F1
:10161000020040F00100A06211E0A06A20F0020088
:1016200040F01000A062E06A40F00100E062012793
:1016300005E0FFE7A06A40F01000A06201273846ED
:101640006BE70000FDF7E1FFFE0E1FFF10B586B04F
:1016500004460020029003900490059014492068ED
:10166000884222D100BF1348806940F400701149BC
:1016700088610846806900F40070019000BF00BFD7
:1016800000BF0846806940F0040088610846806910
:1016900000F00400019000BF00BF01200290032071
:1016A000039002A9044800F047FD06B010BD0000F9
:1016B000002401400010024000080140F8B5044633
:1016C0000D46002600200090002700F0D3FE0646BD
:1016D0002068806800F4807050B1A06A40F020005B
:1016E000A06200BF002084F8240000BF0120F8BDE4
:1016F0002068406800F4807020BB2068C06A00F455
:101700007000F8B917E0681CA8B125B100F0B2FE6E
:10171000801BA8420FD92068006800F0020050B971
:10172000A06A40F00400A06200BF002084F82400FA
:1017300000BF0320DBE72068006800F002000028FB
:10174000E1D053E0022000F09DFF38490968B1FB69
:10175000F0F021680969364A114091B92168C968D9
:101760009211114069B921680969324A114031B9B1
:101770002168C9689211114009B9142117E0292183
:1017800015E0216809692B4A114021B92168C9680F
:101790009211114041B121680969274A114029B9C4
:1017A0002168C968114009B9542100E0FC2100FBFF
:1017B00001F718E0681C98B125B100F05BFE801BB2
:1017C000A8420DD90098B8420AD2A06A40F004009D
:1017D000A06200BF002084F8240000BF032086E739
:1017E0000098401C00900098B842E3D36FF01200BC
:1017F00021680860A06A40F40070A06220688068D8
:1018000000F46020B0F5602F0DD1207B58B9A06A9C
:1018100020F48070A062A06A00F4805018B9A06A19
:1018200040F00100A062002061E7000018000020E5
:1018300024499224922449124992240070B5044606
:10184000002500BF94F82400012801D1022070BDBA
:10185000012084F8240000BF2046FEF747FE05461D
:10186000002D77D1A06A40F20121884340F48070B6
:10187000A0623C492068884208D13B48006800F4D7
:10188000702008B9012002E0002000E0012078B1BA
:10189000A06A20F48010A0622068406800F4806094
:1018A00000B3A06A20F4005040F48050A06219E018
:1018B000A06A40F48010A0622B49091F206888426A
:1018C00003D028492068884204D12748006800F4E2
:1018D000806000E0002028B1A06A20F4005040F4AD
:1018E0008050A062A06A00F4805020B1E06A20F02D
:1018F0000600E06201E00020E06200BF002084F802
:10190000240000BFC01E216808602068806800F4C1
:101910006020B0F5602F16D112492068884208D1A6
:101920001148006800F4702008B9012002E000208E
:1019300000E0012038B12068806840F4A0002168F0
:1019400088600CE006E02068806840F48010216820
:10195000886004E000BF002084F8240000BF28460F
:1019600075E70000002801400424014070B50446DA
:10197000002500BF94F82400012801D1022070BD89
:10198000012084F8240000BF2046FEF780FD0546B4
:101990002DB9A06A20F4885040F00100A06200BF79
:1019A000002084F8240000BF2846E8E770B504460C
:1019B0000CB9012070BD94F8200010B9204600F049
:1019C000AFF82068006840F001002168086000F06E
:1019D00051FD05460DE000F04DFD401B0A2808D9D9
:1019E000606A40F400306062052084F82000012025
:1019F000E0E72068406800F001000028EBD0206894
:101A0000006820F002002168086000F033FD054600
:101A10000DE000F02FFD401B0A2808D9606A40F451
:101A200000306062052084F820000120C2E72068B1
:101A3000406800F002000028EBD1207E012806D18A
:101A40002068006840F080002168086005E0206898
:101A5000006820F0800021680860607E012806D1BF
:101A60002068006840F040002168086005E02068B8
:101A7000006820F0400021680860A07E012806D19F
:101A80002068006840F020002168086005E02068B8
:101A9000006820F0200021680860E07E012806D15F
:101AA0002068006820F010002168086005E02068C8
:101AB000006840F0100021680860207F012806D1EE
:101AC0002068006840F008002168086005E0206890
:101AD000006820F0080021680860607F012806D1B6
:101AE0002068006840F004002168086005E0206874
:101AF000006820F0040021680860D4E9020108436E
:101B000021690843616908436168491E08432168E7
:101B1000C86100206062012084F82000002049E7AD
:101B200010B586B004460020029003900490059002
:101B30001A49206888422ED100BF1948C06940F078
:101B400000701749C8610846C06900F00070019034
:101B500000BF00BF00BF0846806940F004008861F4
:101B60000846806900F00400019000BF00BFC8145F
:101B7000029000200390049002A90A4800F0DCFAC9
:101B80004FF480500290022003900320059002A998
:101B9000044800F0D1FA06B010BD00000064004017
:101BA00000100240000801400146002291F8210087
:101BB000022808D00420886300BF002081F820009C
:101BC00000BF012070470868006820F00E000B6815
:101BD00018600868006820F001000B68186091F830
:101BE000403001209840CB6B5860012081F82100E3
:101BF00000BF002081F8200000BF1046E2E700008F
:101C000070B50446002594F82100022803D0042072
:101C1000A063012548E02068006820F00E002168DC
:101C200008602068006820F00100216808601F49F2
:101C30002068884201D1012026E01C491431206827
:101C4000884201D110201FE01849283120688842BD
:101C500001D1801518E015493C312068884201D136
:101C6000801411E0114950312068884202D14FF4AC
:101C7000803009E00D4964312068884202D14FF478
:101C8000801001E04FF08070084908394860012059
:101C900084F8210000BF002084F8200000BF606BA2
:101CA00010B12046616B8847284670BD080002408D
:101CB00070B50446E06B05682068066894F840102B
:101CC000042088402840002846D006F00400002860
:101CD00042D02068006800F0200028B92068006821
:101CE00020F004002168086057492068884201D12B
:101CF000042027E0544914312068884201D1402053
:101D000020E0514928312068884201D1001519E0AE
:101D10004D493C312068884202D14FF4804011E0A7
:101D2000494950312068884202D14FF4802009E0AF
:101D3000454964312068884202D14FF4800001E0B7
:101D40004FF08060404908394860E06A00287AD046
:101D50002046E16A884776E094F8401002208840E7
:101D60002840A0B306F0020088B32068006800F0A5
:101D7000200040B92068006820F00A00216808604F
:101D8000012084F8210030492068884201D10220D6
:101D900028E02D4914312068884201D1202021E01B
:101DA000294928312068884201D140151AE0264986
:101DB0003C312068884202D14FF4005012E02249A1
:101DC00050312068884203D14FF400300AE017E018
:101DD0001D4964312068884202D14FF4001001E0AF
:101DE0004FF0007018490839486000BF002084F89F
:101DF000200000BFA06A30B32046A16A884722E0D5
:101E000094F84010082088402840E0B106F008000F
:101E1000C8B12068006820F00E002168086094F8BE
:101E2000401001208840E16B48600120A06384F8E5
:101E3000210000BF002084F8200000BF206B10B1FB
:101E40002046216B884770BD0800024001460022F1
:101E500009B901207047164B0868C01A1423B0FB5B
:101E6000F3F08000086412480838C863022081F843
:101E700021000868026843F6F0708243D1E901034B
:101E80001843CB6818430B6918434B6918438B6997
:101E90001843CB6918430243086802600020886336
:101EA000012081F82100002081F8200000BFD1E747
:101EB000080002402DE9F04104460D4616461F4633
:101EC0004FF0000800BF94F82000012802D1022042
:101ED000BDE8F081012084F8200000BF94F82100C3
:101EE00001282CD1022084F821000020A063206862
:101EF000006820F00100216808603B463246294610
:101F00002046FEF75DFBE06A30B12068006840F0D3
:101F10000E00216808600BE02068006820F00400D3
:101F2000216808602068006840F00A0021680860A5
:101F30002068006840F001002168086006E000BFEA
:101F4000002084F8200000BF4FF002084046BFE7A1
:101F50002DE9F04104460E460127002500BF264822
:101F6000007E012802D10220BDE8F0810120224933
:101F7000087600BF2068022813D14CF25030FEF7DB
:101F8000E5FF90BB0120FEF767FF4CF25030FEF7F3
:101F9000DDFF07461948006920F004001749086171
:101FA00023E04CF25030FEF7D1FFF0B94FF0FF3094
:101FB0003060A56812E02846FEF762FF4CF2503010
:101FC000FEF7C4FF07460D48006920F002000B49E8
:101FD00008610FB1356007E005F58065D4E90210AE
:101FE00001EB8020A842E6D800BF00BF00200249D4
:101FF000087600BF3846B7E72804002000200240DA
:102000000348006940F080000149086100207047E2
:10201000002002402DE9FE4F05468B4617469846A4
:10202000012600240020029000BF2448007E0128E1
:1020300002D10220BDE8FE8F01202049087600BFB2
:102040004CF25030FEF782FF064686BB012D02D1CE
:102050000120029006E0022D02D10220029001E050
:102060000420029000241EE02201B946C2464846E0
:102070005146FEF7F5F880B20190022000FB04B053
:1020800000900199FEF710FF4CF25030FEF75EFF12
:1020900006460B48006920F001000949086106B1B5
:1020A00004E0601CC4B202988442DDDB00BF00BFC4
:1020B00000200249087600BF3046BBE72804002014
:1020C0000020024000200849096901F0800151B157
:1020D0000649054A5160064951601146096901F0F7
:1020E000800101B1012070470020024023016745B3
:1020F000AB89EFCD70B5054602F0BAFA0646B5F5E4
:10210000807F08D10020FEF747FE04460248047095
:10211000012C00D1466070BD743D002010B504460E
:1021200004480068204020B1024804602046FFF7C0
:10213000E1FF10BD140401402DE9F84703460022D9
:1021400094466EE14FF0010808FA02F4D1F80080DD
:1021500008EA0400A0427DD1DFF8DCA2D1F80480B7
:10216000A8EB0A09D0453AD014DCB8F1030F50D0DF
:1021700009DCB8F1000F31D0B8F1010F1CD0B8F173
:10218000020F49D120E0B8F1110F18D0B8F1120FA9
:1021900042D11EE0B9F5881F25D006DCB9F5803F95
:1021A00020D0B9F5801F37D11AE0B9F5001F18D03B
:1021B000B9F5041F30D117E0D1F80CC02DE0D1F8EB
:1021C0000C8008F1040C28E0D1F80C8008F1080C10
:1021D00023E0D1F80C8008F10C0C1EE000BF00BF1A
:1021E00000BF00BF00BF00BFD1F80880B8F1000FEA
:1021F00002D14FF0040C0BE0D1F80880B8F1010FC8
:1022000003D14FF0080C1C6102E04FF0080C5C6138
:1022100003E04FF0000C00E000BF00BFFF2801D832
:10222000984601E003F104084646FF2802D84FEA29
:10223000820803E0A2F108084FEA88084746D6F86A
:1022400000804FF00F0909FA07F928EA09080CFA8B
:1022500007F900E088E048EA0908C6F80080D1F8EC
:10226000048008F08058B8F1805F7DD100BFDFF8AE
:10227000CC81D8F8188048F00108DFF8C091C9F87F
:102280001880C846D8F8188008F00108CDF80080FA
:1022900000BF00BF4FEAB9384FEA920958F82950F9
:1022A0004FEA82784FEA18794FF00F0808FA09F8D8
:1022B00025EA0805DFF88881434502D14FF0000880
:1022C00016E0DFF88081434502D14FF001080FE0AE
:1022D000DFF87481434502D14FF0020808E0DFF8CF
:1022E0006C81434502D14FF0030801E04FF0040830
:1022F0004FEA82794FEA197908FA09F848EA0505A0
:10230000DFF84C814FEA920948F82950D1F804804F
:1023100008F48018B8F5801F0AD1DFF83881D8F8A2
:10232000008048EA0008DFF82C91C9F8008009E035
:10233000DFF82081D8F8008028EA0008DFF814913F
:10234000C9F80080D1F8048008F40018B8F5001F1F
:1023500010D1DFF8008108F10408D8F8008048EABD
:102360000008DFF8F09000E05AE009F10409C9F82C
:1023700000800DE0DFF8DC8008F10408D8F8008068
:1023800028EA0008DFF8CC9009F10409C9F80080B8
:10239000D1F8048008F40038B8F5003F0ED1DFF81A
:1023A000B480A8F10408D8F8008048EA0008DFF8F3
:1023B000A490A9F10409C9F800800DE0DFF8948029
:1023C000A8F10408D8F8008028EA0008DFF8849013
:1023D000A9F10409C9F80080D1F8048008F4803814
:1023E000B8F5803F0ED1DFF86C80A8F10808D8F866
:1023F000008048EA0008DFF85C90A9F10809C9F8F4
:1024000000800DE0DFF84C80A8F10808D8F80080C3
:1024100028EA0008DFF83C90A9F10809C9F8008013
:10242000521CD1F8008028FA02F8B8F1000F7FF4AE
:1024300089AEBDE8F88700000000111000100240CE
:1024400000080140000C0140001001400014014050
:102450000800014008040140024693680B400BB19C
:10246000012000E0002070470AB1016101E00B0487
:102470000361704701480068704700000C000020AD
:102480000348006803490978084401490860704717
:102490000C0000201400002010B50848006840F02F
:1024A000100006490860032000F0D8F80F2000F063
:1024B00007F800F055F8002010BD00000020024091
:1024C000F0B587B0044600260027002500BF1F484E
:1024D000806940F400601D4988610846806900F405
:1024E0000060009000BF00BF01A902A800F0A6FA9A
:1024F00000F0DCFA06461648B6FBF0F0471E154819
:102500001549086040F2E7311348C1604760002177
:1025100001618160816100F087FD054695B90E4833
:1025200000F0F4FD05466DB9192000F049F8102CB3
:1025300007D200222146192000F052F80748046013
:1025400000E00125284607B0F0BD00000010024061
:1025500040420F00002C0140DC030020100000204E
:1025600008B500BF1448806940F001001249886135
:102570000846806900F00100009000BF00BF00BF66
:102580000846C06940F08050C8610846C06900F044
:102590008050009000BF00BF00220F21901E00F06D
:1025A0001FF800BF0549486820F0E06040F0007067
:1025B000486000BF08BD000000100240000001405C
:1025C00001460846002809DB00F01F0301229A405B
:1025D00043099B0003F1E023C3F8002100BF7047CB
:1025E0002DE9F05F80460D461646002702F0A8FF51
:1025F000074639462A46334601F00700C0F1070A6C
:10260000BAF1040F02D94FF0040A01E0C0F1070A41
:10261000D14600F1040ABAF1070F02D24FF0000AC6
:1026200001E0A0F1030AD4464FF0010A0AFA09FAC0
:10263000AAF1010A0AEA020A0AFA0CFA4FF0010B9F
:102640000BFA0CFBABF1010B0BEA030B4AEA0B0490
:102650002146404602F07CFFBDE8F09F00BF00F03D
:102660000702064B19684FF6FF031940044B0B4352
:1026700043EA0221014B196000BF70470CED00E0F6
:102680000000FA052DE9F04706464FF00008002546
:1026900000270024A146012E31D0022E56D0102E44
:1026A0005FD132484468006800F0807008B3304859
:1026B000C4F38341475C04F4803078B12B48406810
:1026C000C0F340402B4911F8008004F4803040B141
:1026D0002948B0FBF8F000FB07F502E0274807FBAC
:1026E00000F52248406800F48000B0F5800F01D169
:1026F000A94603E068000321B0FBF1F932E01B4872
:10270000046A04F44070B0F5807F05D104F0020043
:1027100010B14FF4004918E004F44070B0F5007FA8
:1027200007D11248406A00F0020010B149F6404952
:102730000BE004F44070B0F5407F06D10B48006810
:1027400000F4003008B14FF224490BE000F0AEF97C
:1027500006494968C1F38131491C4900B0FBF1F9D0
:1027600000E000BF00BF4846BDE8F087001002400F
:10277000C6800008D680000800127A0000093D00DB
:10278000F8B5044600260025207800F00100002856
:102790006BD000274348C06900F0805070B900BF7B
:1027A0004048C06940F080503E49C8610846C06951
:1027B00000F08050009000BF00BF01273A48006839
:1027C00000F48070B0B93848006840F48070364931
:1027D0000860FFF74FFE064606E0FFF74BFE801B42
:1027E000642801D90320F8BD2F48006800F48070E8
:1027F0000028F2D02B48006A00F440752DB3A08861
:1028000000F44070A84220D02648006A20F44075A9
:10281000012026490860002008602248056205F072
:10282000010090B1FFF726FE064608E0FFF722FE02
:10283000801B41F28831884201D90320D3E719482F
:10284000006A00F002000028F0D01648006A20F468
:1028500040706168084313490862012F04D108469B
:10286000C06920F08050C86100BF207800F00200ED
:10287000022807D10B48406820F44040A168084373
:1028800008494860207800F01000102807D105485A
:10289000406820F48000E168084302494860002055
:1028A000A1E70000001002400070004040044242D6
:1028B00070B504460D460CB9012070BD5A48006839
:1028C00000F00700A8420ED25748006820F0070029
:1028D0002843554908600846006800F00700A842F0
:1028E00001D00120E9E7207800F0020002281DD184
:1028F000207800F00400042805D14C48406840F4DA
:10290000E0604A494860207800F00800082805D1B6
:102910004648406840F46050444948604348406835
:1029200020F0F000A168084340494860207800F09A
:10293000010078B36068012806D13C48006800F4C3
:10294000003090B90120B8E76068022806D1374806
:10295000006800F0007040B90120AEE7334800681D
:1029600000F0020008B90120A7E73048406820F0D5
:102970000300616808432D494860FFF77BFD064668
:1029800009E0FFF777FD801B41F28831884202D9C8
:10299000032092E707E02548406800F00C006168DA
:1029A000B0EB810FEDD12048006800F00700A8428D
:1029B0000ED91D48006820F0070028431A49086016
:1029C0000846006800F00700A84201D0012074E723
:1029D000207800F00400042807D11448406820F44F
:1029E000E060E168084311494860207800F0080081
:1029F000082808D10D48406820F46050216940EA59
:102A0000C1000A49486000F061F808494968C1F30B
:102A10000311074A515CC84006490860064800682F
:102A2000FFF74EFD002048E7002002400010024062
:102A3000D880000818000020100000200F2202603B
:102A40000D4A526802F0030242600B4A526802F0DB
:102A5000F0028260084A526802F4E062C260064AEC
:102A6000526802F46052D2080261044A126802F00D
:102A700007020A6070470000001002400020024078
:102A800001480068704700001800002000B5FFF7FB
:102A9000F7FF04494968C1F30221034A515CC84069
:102AA00000BD000000100240E880000800B5FFF7FC
:102AB000E7FF04494968C1F3C221034A515CC84099
:102AC00000BD000000100240E880000870B5002141
:102AD0000022002400230020134D696801F00C053A
:102AE000F5B1042D02D0082D19D101E00F4819E0ED
:102AF0000F4DC1F38346AB5D01F4803555B10A4DEE
:102B00006D68C5F340450B4E725D084D5D43B5FBE6
:102B1000F2F402E0084D03FB05F4204602E000BF9A
:102B2000024800BF00BF70BD0010024000127A00D2
:102B3000B4800008C480000800093D00F8B50446D0
:102B40000CB90120F8BD207800F00100002878D0F1
:102B5000F848406800F00C0004280CD0F5484068A4
:102B600000F00C00082811D1F248406800F48030D1
:102B7000B0F5803F0AD1EF48006800F4003000282B
:102B80005FD0606800285CD10120DBE700BF60688F
:102B9000B0F5803F06D1E748006840F48030E54951
:102BA000086028E0606858B9E248006820F4803086
:102BB000E04908600846006820F4802008601AE0B8
:102BC0006068B0F5A02F0BD1DA48006840F480208F
:102BD000D84908600846006840F4803008600AE080
:102BE000D448006820F48030D24908600846006864
:102BF00020F48020086000BF606888B1FFF73AFCCD
:102C0000054606E0FFF736FC401B642801D9032087
:102C100098E7C848006800F400300028F2D010E0BF
:102C2000FFF728FC054606E0FFF724FC401B64285C
:102C300001D9032086E7BF48006800F4003000286F
:102C4000F2D1207800F00200022857D1B94840683C
:102C500000F00C0050B1B748406800F00C000828A4
:102C600018D1B448406800F4803098B9B148006881
:102C700000F0020020B12069012801D0012061E7A5
:102C8000AC48006820F0F800616940EAC100A94939
:102C9000086033E02069E8B10120A7490860FFF728
:102CA000E9FB054606E0FFF7E5FB401B022801D9DA
:102CB000032047E79F48006800F002000028F2D098
:102CC0009C48006820F0F800616940EAC100994919
:102CD000086013E0002098490860FFF7CBFB054629
:102CE00006E0FFF7C7FB401B022801D9032029E7B4
:102CF0009048006800F002000028F2D1207800F02F
:102D0000080008282DD1A069B8B101208B490860BE
:102D1000FFF7B0FB054606E0FFF7ACFB401B0228BF
:102D200001D903200EE78348406A00F00200002822
:102D3000F2D0012001F0DCFB13E000207F490860A5
:102D4000FFF798FB054606E0FFF794FB401B0228BF
:102D500001D90320F6E67748406A00F00200002817
:102D6000F2D1207800F00400042873D100277148C4
:102D7000C06900F0805070B900BF6E48C06940F073
:102D800080506C49C8610846C06900F080500090CE
:102D900000BF00BF01276A48006800F48070B0B926
:102DA0006748006840F4807065490860FFF762FB7F
:102DB000054606E0FFF75EFB401B642801D90320AF
:102DC000C0E65F48006800F480700028F2D000BFC1
:102DD000E068012806D15748006A40F001005549D3
:102DE000086227E0E06858B95248006A20F0010004
:102DF000504908620846006A20F00400086219E0A1
:102E0000E06805280BD14B48006A40F004004949AE
:102E100008620846006A40F0010008620AE045487E
:102E2000006A20F00100434908620846006A20F069
:102E30000400086200BFE068A0B1FFF71BFB054675
:102E400009E0FFF717FB401B41F28831884202D9A5
:102E5000032077E622E03748006A00F002000028ED
:102E6000EFD012E0FFF706FB054608E0FFF702FB94
:102E7000401B41F28831884201D9032062E62D4887
:102E8000006A00F002000028F0D1012F05D1294886
:102E9000C06920F080502749C86100BFE069C8B30D
:102EA0002448406800F00C00082860D0E06902283F
:102EB00048D1002020490866FFF7DCFA054606E005
:102EC000FFF7D8FA401B022801D903203AE6194837
:102ED000006800F000700028F2D1206AB0F5803F51
:102EE00007D11448406820F40030A1680843114914
:102EF0004860D4E9080108430E49496821F4741177
:102F000008430C49486001200B490866FFF7B2FAF4
:102F1000054607E03DE0FFF7ADFA401B022801D966
:102F200003200FE60348006800F000700028F2D08C
:102F30002FE00000001002400000424280044242A4
:102F400000700040002014490866FFF793FA054618
:102F500006E0FFF78FFA401B022801D90320F1E5B4
:102F60000E48006800F000700028F2D111E0E0691E
:102F7000012800D1E6E50948466806F48031206A58
:102F8000814204D106F47011606A814201D00120AF
:102F9000D8E50020D6E500000000424200100240C3
:102FA0007047704730B502460B4600BF92F83C00B0
:102FB000012801D1022030BD012082F83C0000BF71
:102FC000022082F83D00106844681068816824F08F
:102FD00070041868044310684460104D1068A842DB
:102FE0000BD01068B0F1804F07D00D4D1068A8428B
:102FF00003D00C4D1068A84205D121F0800158681B
:10300000014310688160012082F83D0000BF00206C
:1030100082F83C0000BF00BFCDE70000002C01405B
:10302000000400400008004010B504460CB901201F
:1030300010BD94F83D0028B9002084F83C002046DB
:1030400000F026F8022084F83D00211D206801F0E0
:10305000A3FD012084F8460000BF84F83E00012152
:103060003F200155402001554120015500BF00BFC0
:10307000012084F842004320015544200155452099
:10308000015500BF012084F83D000020D0E700007A
:1030900008B50168B1F1804F0DD100BF1849C96969
:1030A00041F00101164AD1611146C96901F00101DF
:1030B000009100BF23E0134A016891420DD100BF87
:1030C0000F49C96941F002010D4AD1611146C96930
:1030D00001F00201009100BF11E00B4A016891422A
:1030E0000DD100BF0649C96941F00401044AD1610C
:1030F0001146C96901F00401009100BF00BF08BD7D
:10310000001002400004004000080040014691F811
:103110003D00012801D001207047022081F83D00C8
:103120000868C06840F001000B68D860124B08685E
:1031300098420BD00868B0F1804F07D00F4B086859
:10314000984203D00E4B086898420CD108688068FA
:1031500000F00702062A0CD00868006840F0010061
:103160000B68186005E00868006840F001000B6813
:1031700018600020D0E70000002C0140000400404F
:10318000000800402DE9F04104460D46002700BF2D
:1031900094F83C00012802D10220BDE8F081012012
:1031A00084F83C0000BF022084F83D002068866857
:1031B00026F0770626F47F46206886602868502827
:1031C00033D00CDC202850D004DC00284BD0102851
:1031D00051D149E0302849D040284CD139E060280D
:1031E0002DD0702807D0B0F5805F03D0B0F5005F18
:1031F00041D10DE041E0D5E902136A68206801F091
:103200001EFD2068866846F077062068866034E0F8
:10321000D5E902136A68206801F011FD2068806812
:1032200040F480402168886027E0EA686968206887
:1032300001F0D6FD5021206801F00CFD1DE0EA6888
:103240006968206801F0DFFD6021206801F002FD5F
:1032500013E0EA686968206801F0C2FD4021206837
:1032600001F0F8FC09E000BF00BF00BF296820683A
:1032700001F0F0FC01E0012700BF00BF012084F84D
:103280003D0000BF002084F83C0000BF384684E7C2
:10329000704770B504462068C5682068066906F066
:1032A0000200022819D105F00200022815D1401FA2
:1032B00021680861012020772068806900F0030000
:1032C00018B12046FFF7E4FF05E0204600F03AF988
:1032D000204600F0EEF90020207706F004000428D4
:1032E00019D105F00400042815D1C04321680861F4
:1032F000022020772068806900F4407018B12046D1
:10330000FFF7C6FF05E0204600F01CF9204600F05C
:10331000D0F90020207706F00800082819D105F020
:103320000800082815D1C0432168086104202077CF
:103330002068C06900F0030018B12046FFF7A8FF1D
:1033400005E0204600F0FEF8204600F0B2F900202B
:10335000207706F01000102819D105F01000102871
:1033600015D1C04321680861082020772068C06912
:1033700000F4407018B12046FFF78AFF05E02046B0
:1033800000F0E0F8204600F094F90020207706F0E5
:10339000010048B105F0010030B16FF00100216873
:1033A0000861204600F0F0F906F08000802809D17D
:1033B00005F08000802805D1C043216808612046BF
:1033C000FFF7EEFD06F04000402809D105F040006F
:1033D000402805D1C04321680861204600F0E0F98B
:1033E00006F02000202809D105F02000202805D172
:1033F000C043216808612046FFF7D3FD70BD00007F
:1034000010B586B004460020029003900490059009
:103410002068B0F1804F38D100BF4448806940F047
:103420000400424988610846806900F00400019068
:1034300000BF00BF00BF0846806940F008008861F7
:103440000846806900F00800019000BF00BF4FF4FB
:103450000040029002200390059002A93448FEF734
:103460006BFE0820029002200390059002A93148CB
:10347000FEF762FE00BF3049486820F4407040F01B
:10348000E06040F4807048604DE02C49206888423C
:103490002DD100BF2548806940F004002349886190
:1034A0000846806900F00400019000BF00BF00BF23
:1034B0000846806940F0080088610846806900F08D
:1034C0000800019000BF00BFC020029002200390BE
:1034D000059002A91648FEF72FFE03200290022055
:1034E0000390059002A91348FEF726FE1BE014493D
:1034F0002068884217D100BF0C48806940F008005E
:103500000A4988610846806900F00800019000BF00
:1035100000BF4FF41070029002200390059002A9A2
:103520000448FEF709FE06B010BD0000001002407E
:1035300000080140000C0140000001400004004070
:103540000008004070472DE9F04104460D4616463C
:10355000002700BF94F83C00012802D10220BDE8FA
:10356000F081012084F83C0000BF36B1042E1BD04E
:10357000082E31D00C2E5ED145E02946206801F09E
:1035800073FB2068806940F008002168886120682A
:10359000806920F0040021688861206880692969B9
:1035A00008432168886148E02946206801F08CFBC7
:1035B0002068806940F40060216888612068806923
:1035C00020F480602168886120688069296940EA68
:1035D00001202168886130E02946206801F0A8FBBD
:1035E0002068C06940F008002168C8612068C0698F
:1035F00020F004002168C8612068C0692969084377
:103600002168C86119E02946206801F0C5FB2068DF
:10361000C06940F400602168C8612068C06920F476
:1036200080602168C8612068C069296940EA01207A
:103630002168C86101E0012700BF00BF00BF002072
:1036400084F83C0000BF384689E710B504460CB941
:10365000012010BD94F83D0028B9002084F83C00FA
:10366000204600F025F8022084F83D00211D206846
:1036700001F092FA012084F8460000BF84F83E0071
:1036800001213F200155402001554120015500BF37
:1036900000BF012084F84200432001554420015519
:1036A0004520015500BF012084F83D000020D0E7EF
:1036B0007047704770B504460D4615B994F83E0042
:1036C0000BE0042D02D13F20005D06E0082D02D161
:1036D0004020005D01E04120005D012801D0012073
:1036E00070BD1DB9022084F83E000EE0042D03D108
:1036F00002213F20015508E0082D03D1022140207E
:10370000015502E00221412001550122294620688D
:1037100001F084FA19492068884201D1012000E0B3
:10372000002028B12068406C40F4004021684864C3
:103730001249206888420BD02068B0F1804F07D032
:103740000F492068884203D00E49206888420CD176
:103750002068806800F00706062E0CD020680068FC
:1037600040F001002168086005E02068006840F032
:103770000100216808600020B2E70000002C014031
:10378000000400400008004010B5044603492068CA
:10379000884201D1FEF774FE10BD0000002C0140EC
:1037A0007047704738B50446204601F0C3FF054610
:1037B00005B938BD00BF0020009020680068009067
:1037C00020684068009000BF00BF00BF002000904C
:1037D00020680068009020684068009000BF00BF2B
:1037E00000BF0020009020680068009020684068BA
:1037F000009000BF00BF206801F0CEFF48B18022DA
:1038000005F10D01204600F0FDFA0020A5F88E001C
:1038100005E0012205F1D401204600F009FB2879DA
:1038200010B9284602F04EF800BFC2E72DE9F84F64
:103830000446206805682068C668206847694FF01C
:103840000009CA4605F00F09B9F1000F0AD105F0C9
:10385000200038B106F0200020B1204601F0DEFB48
:10386000BDE8F88FB9F1000F7BD007F0010018B95F
:1038700006F49070002874D005F0010030B106F411
:10388000807018B1606C40F00100606405F00400C5
:1038900030B107F0010018B1606C40F002006064C4
:1038A00005F0020030B107F0010018B1606C40F083
:1038B0000400606405F0080048B106F0200010B96B
:1038C00007F0010018B1606C40F008006064606CA3
:1038D000002845D005F0200028B106F0200010B1E6
:1038E000204601F09BFB20684069C0F3801A606CA1
:1038F00000F0080010B9BAF1000F2CD0204601F0FA
:1039000034FB2068406900F0400000B300BF00BFF6
:103910002168143151E8001F21F040002168143162
:1039200041E80002002AF3D100BFE06B50B17748B4
:10393000E16B4863E06BFEF763F988B1E06B416BC4
:1039400088470DE02046FFF72DFF09E009E02046FB
:10395000FFF728FF04E02046FFF724FF0020606403
:103960007EE7206B012877D105F01000002873D086
:1039700006F010000028FAD000BF00200090206858
:103980000068009020684068009000BF00BF206879
:10399000406900F0400000285FD0E06B006840689C
:1039A0001FFA80F8B8F1000F55D0A08D404552DDC8
:1039B000A4F82E80E06B8069202843D000BF00BFB0
:1039C00021680C3151E8001F21F4807021680C310E
:1039D00041E80002002AF3D100BF00BF00BF216808
:1039E000143151E8001F21F001002168143141E831
:1039F0000002002AF3D100BF00BF00BF21681431CC
:103A000051E8001F21F040002168143141E8000214
:103A1000002AF3D100BF202084F842000020206358
:103A200000BF00BF21680C3151E8001F21F01000D9
:103A300021680C3141E80002002AF3D100BFE06B9D
:103A4000FEF7B2F802206063A08DE28D801A81B289
:103A50002046FFF7A6FE03E742E0A08DE18D401A65
:103A60001FFA80F8E08DD0B3B8F1000F37D000BF57
:103A700000BF21680C3151E8001F21F490702168CB
:103A80000C3141E80002002AF3D100BF00BF00BFA3
:103A90002168143151E8001F21F001002168143120
:103AA00041E80002002AF3D100BF202084F8420040
:103AB0000020206300BF00BF21680C3151E8001FC7
:103AC00021F0100021680C3141E80002002AF3D1F6
:103AD00000BF0220606341462046FFF762FEBFE65A
:103AE00005F0800030B106F0800018B1204601F0EA
:103AF00015FCB5E605F0400030B106F0400018B105
:103B0000204601F068FAABE600BFA9E62F4E000898
:103B100010B504460CB9012010BDA06900B100E049
:103B200000BF94F8410028B9002084F840002046E6
:103B300000F02AF8242084F841002068C06820F4AE
:103B400000502168C860204601F0E6FA206800694C
:103B500020F49040216808612068406920F02A0024
:103B6000216848612068C06840F400502168C8603E
:103B700000206064202084F8410084F84200002086
:103B8000606300BFC8E7000010B586B0044600209F
:103B900002900390049005908F49206888426CD170
:103BA00000BF8E48806940F480408C498861084697
:103BB000806900F48040019000BF00BF00BF08464C
:103BC000806940F0040088610846806900F00400C4
:103BD000019000BF00BF481502900220039003200F
:103BE000059002A97E48FEF7A7FA4FF48060029084
:103BF00000200390049002A97948FEF79DFA7948C5
:103C00007949086000204860002177488160802160
:103C1000C160002101614161202181610021C161F8
:103C2000FEF714F908B1FDF714F900BF6E48E06320
:103C3000446200BF6B4814386C490860102048602B
:103C400000216A4881608021C160002101614161D9
:103C50008161C161FEF7FAF808B1FDF7FAF800BF1B
:103C60006248A063446200BF002205212520FEF7C0
:103C7000B7FC2520FEF7A4FCABE05D492068884234
:103C80006CD100BF5548C06940F400305349C86149
:103C90000846C06900F40030019000BF00BF00BFBB
:103CA0000846806940F0040088610846806900F099
:103CB0000400019000BF00BF042002900220039086
:103CC0000320059002A94648FEF736FA0820029024
:103CD00000200390049002A94148FEF72DFA4148C4
:103CE0001430444908600020486000214148816048
:103CF0008021C16000210161416120218161002199
:103D0000C161FEF7A3F808B1FDF7A3F800BF394879
:103D1000E063446200BF3348283037490860102010
:103D200048600021344881608021C1600021016128
:103D300041618161C161FEF789F808B1FDF789F839
:103D400000BF2D48A063446200BF00220521262049
:103D5000FEF746FC2620FEF733FC3AE027492068B0
:103D6000884236D100BF1D48C06940F480201B49FD
:103D7000C8610846C06900F48020019000BF00BF00
:103D800000BF0846806940F00800886108468069E5
:103D900000F00800019000BF00BF0815029002204B
:103DA00003900320059002A91548FEF7C5F94FF4CA
:103DB0000060029000200390049002A91048FEF7D2
:103DC000BBF9002205212720FEF70AFC2720FEF779
:103DD000F7FB06B010BD00000038014000100240A3
:103DE0000008014058000240CC02002010030020CF
:103DF0000044004054030020980300200048004085
:103E0000000C014070B504460D46164694F8420079
:103E100020280BD105B10EB9012070BD0020206310
:103E200032462946204601F0F5F9F6E70220F4E78C
:103E300070B504460D46164694F8420020280BD172
:103E400005B10EB9012070BD00202063324629461D
:103E5000204601F043FAF6E70220F4E770B5054684
:103E6000284601F067FC044674B1286801F094FC10
:103E700050B994F8D410204601F044FD012204F119
:103E8000D4012846FFF7D4FF70BD70472DE9F84FE5
:103E900004460E46174699464FF0000A94F8410032
:103EA000202850D106B117B90120BDE8F88F0020B5
:103EB0006064212084F84100FEF7DCFA8246A78482
:103EC000E784A068B0F5805F04D1206910B90025AF
:103ED000B04602E035464FF000081EE0534600228F
:103EE00080212046CDF8009001F048FA20B1202032
:103EF00084F841000320D8E745B9B8F80000C0F3C2
:103F000008002168486008F1020803E02878216869
:103F100048606D1CE08C401EE084E08C0028DDD100
:103F20005346002240212046CDF8009001F026FAA9
:103F300020B1202084F841000320B6E7202084F837
:103F400041000020B1E70220AFE7704700BFFEE765
:103F50000EB50020009001900290124812490860AE
:103F6000002111488160017301754FF46021C16126
:103F700000200D49486001210B480161FDF7C4FA9A
:103F800008B1FCF766FF002000900120019000209E
:103F9000029069460448FDF703FA08B1FCF759FF9F
:103FA0000EBD000000240140C400002010B50B48E5
:103FB0000B49086010204860002109488160C160F9
:103FC00001614161017641768176C1760177417761
:103FD000FDF7ECFC08B1FCF73CFF10BD00640040AD
:103FE000F400002008B500BF1648406940F0010009
:103FF000144948610846406900F00100009000BF84
:1040000000BF002205210E20FEF7EAFA0E20FEF77F
:10401000D7FA002205210F20FEF7E2FA0F20FEF763
:10402000CFFA002205211020FEF7DAFA1020FEF761
:10403000C7FA002205211120FEF7D2FA1120FEF75F
:10404000BFFA08BD0010024010B50B4A00210B4812
:1040500001F006FD0A4908600A4A00210A4801F0F9
:10406000FFFC0A4908600A4A00210A4801F0F8FCEE
:104070000949086010BD000048800008D1660008AA
:10408000000000206C800008696700080400002020
:1040900090800008A96700080800002000B585B0DE
:1040A0000020019002900390049000BF4E48806968
:1040B00040F010004C4988610846806900F010000B
:1040C000009000BF00BF00BF0846806940F020009C
:1040D00088610846806900F02000009000BF00BFA2
:1040E00000BF0846806940F0040088610846806986
:1040F00000F00400009000BF00BF00BF08468069C8
:1041000040F0080088610846806900F008000090CF
:1041100000BF00BF00224FF440413448FEF7A4F92D
:10412000002230213248FEF79FF9002243F2B40109
:104130003048FEF799F94FF40050019000200290AA
:104140000120039001A92948FDF7F6FF4FF44040F4
:1041500001900120029002200390049001A92348BD
:10416000FDF7EAFF30200190012002900390022029
:10417000049001A91E48FDF7DFFF43F2B40001904F
:104180000120029003900220049001A91948FDF734
:10419000D3FF4FF440400190002002900120039093
:1041A00001A91448FDF7C8FF4FF48070019000206A
:1041B00002900120039001A90D48FDF7BDFF4FF4C7
:1041C000807001900C4802900020039001A90948DA
:1041D000FDF7B2FF002205211720FEF701FA172094
:1041E000FEF7EEF905B000BD0010024000100140DE
:1041F00000080140000C01400000211000B58DB006
:10420000002009900A900B900C90079008901C21B8
:104210006846FCF7B7F84FF0804024490860472013
:10422000486000212148816044F61F61C16000217F
:1042300001618161FEF7F8FE08B1FCF70AFE4FF458
:104240008050099009A91948FEF79CFF08B1FCF7B6
:1042500000FE1648FFF7F9F908B1FCF7FAFD002057
:104260000790089007A91148FEF79CFE08B1FCF7DB
:10427000F0FD602000904FF47A70019000200290D1
:104280000490002269460948FFF75DF908B1FCF780
:10429000E0FD042269460548FFF755F908B1FCF72F
:1042A000D8FD0248FFF7ACF80DB000BD1C0100209E
:1042B00000B58DB0002009900A900B900C900790EB
:1042C00008901C216846FCF75DF82D482D490860D0
:1042D0004720486000212B48816040F2E731C160EF
:1042E000002101618161FEF79FFE08B1FCF7B1FD7D
:1042F0004FF48050099009A92248FEF743FF08B106
:10430000FCF7A7FD1F48FFF7A0F908B1FCF7A1FDD6
:1043100000200790089007A91A48FEF743FE08B14D
:10432000FCF797FD602000904FF4FA700190002098
:1043300002900490002269461248FFF704F908B180
:10434000FCF787FD042269460E48FFF7FCF808B128
:10435000FCF77FFD082269460A48FFF7F4F808B128
:10436000FCF777FD0C2269460648FFF7ECF808B128
:10437000FCF76FFD0348FFF743F80DB000BD0000E8
:10438000000400406401002000B58DB000200990B9
:104390000A900B900C90079008901C216846FBF740
:1043A000F1FF25482549086047204860002123483F
:1043B000816040F2E731C160002101618161FEF757
:1043C00033FE08B1FCF745FD4FF48050099009A970
:1043D0001A48FEF7D7FE08B1FCF73BFD1748FFF778
:1043E00034F908B1FCF735FD00200790089007A9C3
:1043F0001248FEF7D7FD08B1FCF72BFD60200090B6
:104400004FF4FA7001900020029004900022694657
:104410000A48FFF798F808B1FCF71BFD0C22694623
:104420000648FFF790F808B1FCF713FD0348FEF7C4
:10443000E7FF0DB000BD000000080040AC01002007
:1044400010B50B480B4908604FF4E130486000217B
:1044500008488160C16001610C21416100218161D6
:10446000C161FFF755FB08B1FCF7F3FC10BD00007C
:1044700000380140F401002010B50B480B490860DA
:104480004FF4E1304860002108488160C16001615B
:104490000C21416100218161C161FFF739FB08B145
:1044A000FCF7D7FC10BD0000004400403C02002097
:1044B00010B50B480B4908604FF4165048600021B6
:1044C00008488160C16001610C2141610021816166
:1044D000C161FFF71DFB08B1FCF7BBFC10BD00007C
:1044E000004800408402002000BFFEE700BFFEE756
:1044F00008B508490968C9084FF47A72B1FBF2F1AE
:104500004143009100BF00BF00994A1E009200295C
:10451000F9D108BD180000200EB5002000900190D0
:1045200002900948FCF7AEFE0020009001200190A7
:104530000520029069460448FCF732FF0020034939
:10454000088048600EBD0000C4000020B0000020BC
:1045500070B50F48FDF772F90A210D48FDF7AEF866
:1045600088B90B48FCF7CCFF0A490880088803F09B
:10457000A5FB0546084903F0E9FB0446074903F09B
:10458000E5FB044948600248FDF7F0F970BD000002
:10459000C4000020B00000206740533A00004040B3
:1045A00010B5FDF767FF10BD10B500241AE02046D6
:1045B00000F0E2FF00B913E00C4800EBC400807982
:1045C00001280CD1094B03EBC403DA79074B03EB49
:1045D000C4039988054B53F83400FDF745FF00BF2D
:1045E000601CC4B20F2CE2D310BD00002083000871
:1045F00070B50446204600F0BFFF08B9002070BD2A
:10460000074A02EBC4029188054A52F83400FDF7CC
:1046100023FF0546012D00D1F1E70020EFE7000060
:104620002083000870B504460D46204600F0A4FF24
:1046300000B970BD0B4800EBC4008079012800D0A0
:10464000F7E70DB1012300E000231A46054B03EB09
:10465000C4039988034B53F83400FDF705FF00BFEE
:10466000E7E700002083000810B5FFF79DFF10BDAD
:10467000034840680349C8600846C06870470000A6
:10468000001000E0CC4000201148006840F080702D
:104690000F49086000200F4948600846006840F054
:1046A000010008600C4800680C4908600A4800686E
:1046B0004FF47A71B0FBF1F0084948600648006891
:1046C0000749B0FBF1F0054988600020C8607047D9
:1046D000FCED00E0001000E018000020CC400020BD
:1046E00040420F00024606484068831A0548406869
:1046F0004843834201D3012070470020FCE70000BB
:10470000001000E0CC40002010B50C4800F0DEFEA8
:1047100004460B48844208D10A480849091D096823
:10472000016001200849087007E006480021016087
:1047300000200549087000F009F810BD00FC0008D1
:1047400034125AA5BC000020B800002000B585B086
:10475000002001901048039001200490FDF7B2FC66
:10476000694601A8FDF7F4FB18B1FDF749FC05B057
:1047700000BD0A49084800F0CEFE10B1FDF740FC2C
:10478000F5E7042206490448001D00F0A2FEFDF7EB
:1047900037FC00BFEBE7000000FC000834125AA50C
:1047A000BC00002010B500240CE0204600F00CFFF7
:1047B00000B905E0054901EB440000F0F9FE00BF37
:1047C000601CC4B2032CF0D310BD00009883000815
:1047D0002DE9F0410446884615461E46204600F065
:1047E000F3FE08B9BDE8F0810F4800EB44073846F6
:1047F00000F02FFF4146384600F007FF384600F032
:1048000054FF2946384600F000FF384600F04DFFBF
:104810003146384600F0F9FE384600F046FF38468B
:1048200000F030FF00BFDDE7988300082DE9F04776
:104830000546894616461F46DDF820A0284600F0AA
:10484000C3FE08B9BDE8F087124800EB45084046B2
:1048500000F0FFFE4946404600F0D7FE404600F01B
:1048600024FF3146404600F0D0FE404600F01DFFD8
:10487000002408E0395D404600F0C7FE404600F0E5
:1048800014FF601C84B25445F4DB404600F0FAFE8D
:1048900000BFD7E79883000810B500240EE0094850
:1048A00050F8340040B1074A02EBC4025168054A8F
:1048B00052F83400FEF7FEFE601CC4B20C2CEED39E
:1048C00010BD0000A08300082DE9F04704460E4605
:1048D0000C2C03D2284850F8340008B9BDE8F08702
:1048E0000021304603F0FEF900D20026234930466D
:1048F00003F0F8FA00D2214E1F4850F83400006847
:10490000C76A781C03F0DAF981461C49304603F087
:10491000F3F88246494603F019FA804603F0AEF9EF
:104920000546154800EBC400406828B9124850F805
:104930003400006845631CE00F4800EBC400406889
:10494000042805D10C4850F834000068856310E055
:10495000094800EBC4004068082805D1064850F813
:1049600034000068C56304E0034850F83400006870
:10497000056400BFB2E70000A08300080000C84241
:1049800070B5002541E0284800EB0524274850F881
:10499000250020602648405D207125730020A4F882
:1049A000D000A4F8D200A4F88E00C4F8F800C4F82F
:1049B000FC00C4F8F400204600F084FF0020C5EBA2
:1049C000C50101EB05111B4A5054C5EBC50101EBB4
:1049D000051111444870C5EBC50101EB05111144E7
:1049E00088752168086800F0D7FE30B1802204F194
:1049F0000D012068FFF706FA05E0012204F1D40159
:104A00002068FFF715FA681CC5B2032DBBD300243C
:104A100006E0054901EB042000F086FF601CC4B2EB
:104A2000032CF6D370BD0000843D0020A4000020BC
:104A30000084000884400020F8B5FDF71BFD064601
:104A400000254DE0284800EB05242168086800F0A7
:104A5000A3FED8B12068C06B00684068C0F1800038
:104A600087B20EE0B4F88E2004F10D00815C204680
:104A700000F048FF94F88E00401C00F07F00A4F87E
:104A80008E00B4F88E00B842ECD100BF207978B91E
:104A900094F8E50060B1D4F8F400301A322807D950
:104AA000D4F8FC00401CC4F8FC00204600F00AFFCB
:104AB0000EE0207938B1A06850B1207B9DF800103D
:104AC000A268904704E09DF80010204600F07CFEAC
:104AD0006946204600F0FDFE0028EAD0681CC5B2F9
:104AE000032DAFD3F8BD0000843D002010B54FF07A
:104AF000E020006902F03CFD012801D002F086F9B7
:104B000010BD00B593B0282109A8FBF73BFC142188
:104B100004A8FBF737FC002000900190029003905E
:104B20000120099000040A9000200B9001200D90B4
:104B300002201090C10311914FF4E011129109A8C5
:104B4000FDF7FCFF08B1FCF784F90F200490022068
:104B50000590002006904FF4806007900020089098
:104B6000022104A8FDF7A4FE08B1FCF772F90220A7
:104B70000090800302906846FDF702FE08B1FCF742
:104B800068F913B000BD704710B50248FEF781FB0D
:104B900010BD0000DC03002010B502681C4B9842D9
:104BA00008D0B0F1804F05D01A4B984202D01A4B72
:104BB000984203D122F070024B681A43144B98427A
:104BC00008D0B0F1804F05D0124B984202D0124B62
:104BD000984203D122F44072CB681A4322F080033A
:104BE0004C6943EA040202608B68C3620B6883620B
:104BF000074B984201D10B690363012343610369A9
:104C000003F001031BB1036923F00103036110BD2D
:104C1000002C0140000400400008004030B501F0C5
:104C20001F05012404FA05F3046A9C430462046A24
:104C300001F01F0502FA05F52C43046230BD30B5C2
:104C40000C46816821F47F4142EA0325254329432C
:104C5000816030BD0A46816821F0700142F007038F
:104C6000194381607047000030B5026A056A25F07B
:104C7000010505624368846924F0700424F003048C
:104C80000D682C4322F002028D682A430D4DA84284
:104C900006D100BF22F00802CD682A4322F00402A8
:104CA000084DA84207D123F4807323F400734D69A3
:104CB0002B438D692B43436084614D6845630262D9
:104CC00030BD0000002C014030B5026A056A25F0B5
:104CD000100505624368846924F4E04424F44074B8
:104CE0000D6844EA052422F020028D6842EA05128C
:104CF0000E4DA84207D100BF22F08002CD6842EAE3
:104D0000051222F04002094DA84209D123F4806324
:104D100023F400634D6943EA85038D6943EA850303
:104D2000436084614D688563026230BD002C0140A0
:104D300030B5026A056A25F4807505624368C46966
:104D400024F0700424F003040D682C4322F4007254
:104D50008D6842EA05220F4DA84207D100BF22F418
:104D60000062CD6842EA052222F48062094DA84221
:104D700009D123F4805323F400534D6943EA05130A
:104D80008D6943EA05134360C4614D68C5630262DF
:104D900030BD0000002C014030B5036A056A25F4DF
:104DA000805505624468C26922F4E04222F44072F0
:104DB0000D6842EA052223F400538D6843EA053367
:104DC000064DA84204D124F480444D6944EA851478
:104DD0004460C2614D680564036230BD002C01402F
:104DE00030B50B461446026A056A25F001050562D6
:104DF000816921F0F00141EA041122F00A021A430C
:104E00008161026230BD30B50B461446026A056A04
:104E100025F010050562816921F4704141EA0431F1
:104E200022F0A00242EA03128161026230BD70B535
:104E300005466C6A0020E085E0842046FEF7B2FC5F
:104E400070BD70B506460025746A20684069C0F3DD
:104E5000C01594F84100212805D125B10020E08437
:104E6000204600F0C8F820684069C0F3801594F827
:104E70004200222805D125B10020E085204600F01F
:104E800074F8606C40F0100060642046FEF78AFC05
:104E900070BD70B505466C6A2868006800F0200097
:104EA000002842D1E08500BF00BF21680C3151E8E5
:104EB000001F21F4807021680C3141E80002002AB3
:104EC000F3D100BF00BF00BF2168143151E8001FBB
:104ED00021F001002168143141E80002002AF3D1D9
:104EE00000BF00BF00BF2168143151E8001F21F04E
:104EF00040002168143141E80002002AF3D100BFCC
:104F0000202084F84200206B01280ED100BF00BF92
:104F100021680C3151E8001F21F0100021680C318C
:104F200041E80002002AF3D100BF00206063206B3B
:104F3000012804D1A18D2046FEF733FC02E0204673
:104F4000FEF78CFF70BD70B505466C6A012060638A
:104F5000206B012805D1A08D41082046FEF721FCD9
:104F600002E02046FEF791FF70BD00BF00BF02685F
:104F70000C3252E8002F22F4907102680C3242E8A1
:104F80000013002BF3D100BF00BF00BF0268143232
:104F900052E8002F22F001010268143242E80013A7
:104FA000002BF3D100BF016B01290ED100BF00BF60
:104FB00002680C3252E8002F22F0100102680C3215
:104FC00042E80013002BF3D100BF202180F84210EB
:104FD00000210163704710B504462068C06820F0C6
:104FE00040002168C860202084F841002046FEF778
:104FF000ACFF002010BD00BF00BF02680C3252E8B9
:10500000002F22F0C00102680C3242E80013002B8E
:10501000F3D100BF202180F841107047F8B5044655
:1050200094F84200222875D1A068B0F5805F0CD1B9
:10503000206950B90025A66A20684068C0F30800BE
:105040003080A06A801CA06215E0A56A0026A068D6
:10505000B0F5805F03D0A06828B9206918B920682E
:105060004068287004E02068406800F07F002870E5
:10507000A06A401CA062E08D401E80B2E08500283E
:1050800046D12068C06820F020002168C8602068F0
:10509000C06820F480702168C8602068406920F0F2
:1050A000010021684861202084F8420000206063EC
:1050B000206B012826D10020206300BF00BF21689B
:1050C0000C3151E8001F21F0100021680C3141E83B
:1050D0000002002AF3D100BF2068006800F0100031
:1050E00010280AD100BF00200090206800680090BE
:1050F00020684068009000BF00BFA18D2046FEF7E9
:1051000050FB02E02046FEF7A9FE0020F8BD01E0BA
:105110000020FBE70220F9E770B504462168096921
:1051200021F44051E2681143226811612269A168AB
:105130001143626941EA02052168C96841F20C62C3
:10514000914329432268D1602168496921F4407163
:10515000A2691143226851612D4A2168914202D10E
:10516000FDF7A4FC01E0FDF791FC00EBC00101EBB1
:10517000001162689200B1FBF2F100EBC00202EB99
:10518000001263689B00B2FBF3F26423B2FBF3F2FC
:1051900002EBC20303EB0212A1EB8201322202EB0B
:1051A00001116422B1FBF2F101F0F00100EBC00249
:1051B00002EB001263689B00B2FBF3F26423B2FBC4
:1051C000F3F201EB021200EBC00101EB0011636886
:1051D0009B00B1FBF3F100EBC00303EB0013666827
:1051E000B600B3FBF6F36426B3FBF6F303EBC3069A
:1051F00006EB0313A1EB8301322303EB01116423BC
:10520000B1FBF3F101F00F0111442268916070BD10
:105210000038014077B581B0044615460298A06277
:10522000A58500206064222084F842002848E16BB4
:1052300088622848E16BC8622748E16B0863002058
:10524000E16B486302AE32682368191D2B46E06BA0
:10525000FCF730FE00BF002000902068006800903E
:1052600020684068009000BF00BF206970B100BF97
:1052700000BF21680C3151E8001F41F480702168A3
:105280000C3141E80002002AF3D100BF00BF00BF8B
:105290002168143151E8001F41F0010021681431E8
:1052A00041E80002002AF3D100BF00BF00BF21681F
:1052B000143151E8001F41F040002168143141E8E9
:1052C0000002002AF3D100BF002004B070BD00002E
:1052D000934E0008474F0008434E000810B50346A0
:1052E00099629A85DA8500205864222083F842006A
:1052F000186928B11868C06840F480701C68E060C4
:105300001868406940F001001C6860611868C06856
:1053100040F020001C68E060002010BD014691F8BC
:105320004100212828D18868B0F5805F0BD1086939
:1053300048B90A6A1088C0F308000B685860086A08
:10534000801C086205E00B6A581C086218780B681C
:105350005860C88C401E80B2C88458B90868C068BC
:1053600020F080000B68D8600868C06840F04000FA
:105370000B68D860002070470220FCE72DE9F84355
:1053800004460D4617469846089E31E0701C70B3DF
:10539000FDF770F8A0EB0800B04200D816B9032062
:1053A000BDE8F8832068C06800F00400F8B1802DE3
:1053B0001ED0402D1CD020680068C0F3C000B0B1E2
:1053C00000BF0020009020680068009020684068BE
:1053D000009000BF00BF2046FFF7C7FD08206064B3
:1053E00000BF002084F8400000BF0120D8E7FFE79D
:1053F000206800682840A84201D1012000E0002078
:10540000B842C3D00020CBE710B50248FEF70EFA31
:1054100010BD0000F401002010B50248FEF706FAA6
:1054200010BD00003C02002010B50248FEF7FEF956
:1054300010BD00008402002000BFFEE70246501AA3
:10544000704710B50246012000E050430B1EA1F149
:105450000104E1B2F9D110BD2DE9F04706468846B6
:1054600017461D4600241AE0281B401EC1B20A2020
:10547000FFF7E7FFB7FBF0F00A21B0FBF1F201FB09
:10548000120909F13001CAB204EB440106EB8101B3
:10549000C8B201234146FBF70BFB601CC4B2AC420F
:1054A000E2DBBDE8F08770B504460D46012D06D15C
:1054B0002346402278210020FFF78AF905E02346A1
:1054C000002278211046FFF783F970BD0146086875
:1054D00070472DE9F04780460D461646002416E039
:1054E000601CB04204D2295D285C41EA002901E039
:1054F00015F8049008EB04014A4600230120FCF74C
:1055000089FD074617B13846BDE8F087A41CB442B0
:10551000E6D30020F8E738B505460C46E0B28DF832
:105520000000200A8DF80100200C8DF80200200EEA
:105530008DF80300042269462846FFF7CAFF38BDEC
:1055400002480068C0F30220704700000CED00E044
:1055500010B5002804DB0A07130E054A135406E0B1
:105560000A07140E034A00F00F031B1FD45410BD8A
:1055700000E400E018ED00E001460F2901D300200F
:105580007047044850F8310008B90020F8E70120BE
:10559000F6E700002083000808B50320009000BF54
:1055A0009DF80000411EC9B200910028F8D108BD45
:1055B00010B5044620780121FFF734F86078012106
:1055C000FFF730F810BD000010B50446204600F08B
:1055D00015F808B9002010BD074810F81400FF287E
:1055E00005D0054800EB44004078FF2801D1002099
:1055F000F1E70120EFE70000988300080146032946
:1056000001D3002070470120FCE770B504460D4629
:1056100000261BE005F0800020B120780121FFF773
:1056200001F803E020780021FEF7FCFFFFF7B4FF4C
:1056300060780121FEF7F6FFFFF7AEFF60780021EA
:10564000FEF7F0FF6806050E701CC6B2082EE1D307
:1056500070BD10B5044620780121FEF7E3FF6078A5
:105660000121FEF7DFFFFFF797FF20780021FEF70B
:10567000D9FFFFF791FF60780021FEF7D3FFFFF716
:105680008BFF10BD10B5044620780021FEF7CAFF3D
:1056900060780121FEF7C6FFFFF77EFF2078012129
:1056A000FEF7C0FFFFF778FF10BD10B50446207865
:1056B0000121FEF7B7FFFFF76FFF60780121FEF7CA
:1056C000B1FFFFF769FF60780021FEF7ABFFFFF73E
:1056D00063FF10BD484000220CE000F0800323B1BE
:1056E000072383EA4003DBB201E043061B0E1846A2
:1056F000531CDAB2082AF0D37047000010B5017BC2
:10570000C1EBC10303EB0111094BCA1890F8E61075
:105710005170002106E000F1E7035C5C931C5C54CF
:105720004B1CD9B20A29F6D30121917510BD000096
:1057300084400020024600210BE0084800EB0120D5
:105740000068904203D1054800EB01207047481CD7
:10575000C1B20329F1D30020F8E70000843D002006
:1057600001460A4A0868904201D131207047084A30
:105770000868904201D13220F8E7064A0868904252
:1057800001D13320F2E75820F0E700000038014053
:10579000004400400048004001460848814201D1D1
:1057A000002070470648814201D10020F9E70548F2
:1057B000814201D10020F4E70020F2E700380140E7
:1057C000004400400048004070B504460D46FCF718
:1057D00051FEC4F8F40094F8E50007286CD2DFE825
:1057E00000F00410303D54585C00552D08D1294676
:1057F0000020FFF76FFF84F8F200012084F8E50035
:105800005EE0AA2D09D1E534607B2946FFF762FFEF
:105810006073022004F8E50912E0D4F8FC00401C93
:10582000C4F8FC00204600F04DF8552D08D129465B
:105830000020FFF74FFF84F8F200012084F8E50014
:105840003EE0E5346570607B2946FFF743FF6073F7
:1058500000202073032004F8E50931E014F8F11F5B
:105860002078401C04F8F10904F1E7004554F134B4
:1058700060782946FFF72EFF607014F8F1090A28B6
:1058800002D3042084F8E5001AE0052084F8E5003E
:1058900016E0062084F8E50012E0FF2D03D1204633
:1058A000FFF72CFF04E0D4F8FC00401CC4F8FC0017
:1058B000204600F007F803E0204600F003F800BFA0
:1058C00000BF70BD002100F8E51F01734173E5388A
:1058D00070470246B2F8D000B2F8D230984202D1F6
:1058E0004FF0FF307047B2F8D23002F19000C05C48
:1058F000087092F8D200401C00F03F00A2F8D200DD
:105900000020EFE710B590F8D0305B1C03F03F02A9
:10591000B0F8D230934206D0B0F8D04000F19003F6
:105920001955A0F8D02010BD10B588B004461C222F
:1059300008A101A8FAF7ECFC2068FFF711FF8DF829
:1059400009004FF47A73192201A92068FEF79EFA24
:1059500008B010BD55534152547820494E49542047
:105960005355434345535346554C4C590A00000088
:10597000EFF305807047FCF78FFDFFF7C2F8FEF7E5
:105980008DFBFEF72FFBFEF793FCFEF759FDFEF7AC
:1059900073FDFEF78DFDFEF7F7FCFEF7D9FAFEF773
:1059A00005FBFEF72BFC00F015F8FEF74DFB00F0B1
:1059B00027F800BFFEE770B50546FFF7D9FF10B125
:1059C0006FF0050404E0002415B1284601F07AF8D0
:1059D000204670BD10B5FFF7CBFF10B16FF0050486
:1059E00009E00648006820B9012004490860002445
:1059F00001E04FF0FF34204610BD00006C00002095
:105A000070B5FFF7B5FF10B16FF005041FE0114846
:105A10000068012819D100BF801F0021002804DB85
:105A20000A07130E0C4A135406E00A07150E0B4A18
:105A300000F00F031B1FD55400BF00BF0220054913
:105A4000086001F0BBF8002401E04FF0FF3420466D
:105A500070BD00006C00002000E400E018ED00E0E4
:105A60002DE9FF4780468946144600200390FFF742
:105A70007FFF00284ED1B8F1000F4BD080261825AB
:105A80008246471E44B3206808B1D4F800A0A0693C
:105A900000B1A5692DB1382D03D8207900F001009F
:105AA00018B1002004B0BDE8F087606908B16069F2
:105AB0008608A06840B1E0685C2805D3206918B169
:105AC000606908B1012708E0A06830B9E06820B932
:105AD000206910B9002700E00027012F0CD12169AF
