:020000040800F2
:100000003030002041020008EF2C00084929000888
:10001000ED2C0008931500082136000800000000B0
:10002000000000000000000000000000A90100081E
:100030009515000800000000ED0100081D310008C2
:100040005B0200085B0200085B0200085B0200081C
:100050005B0200085B0200085B0200085B0200080C
:100060005B0200085B0200085B0200085B020008FC
:100070005B0200085B0200085B0200085B020008EC
:100080005B0200085B0200085B0200085B020008DC
:100090005B0200085B0200085B0200085B020008CC
:1000A0005B020008A93100085B0200085B0200083F
:1000B0005B0200085B0200085B0200085B020008AC
:1000C0005B0200085B0200085B0200085B0200089C
:1000D0005B0200085B0200080936000815360008BC
:1000E0005B0200085B0200085B02000800F002F8F7
:1000F00000F04AF80AA090E8000C82448344AAF178
:100100000107DA4501D100F03FF8AFF2090EBAE875
:100110000F0013F0010F18BFFB1A43F0010318473B
:10012000B0770000D0770000103A24BF78C878C1BB
:10013000FAD8520724BF30C830C144BF04680C60ED
:10014000704700000023002400250026103A28BF35
:1001500078C1FBD8520728BF30C148BF0B60704739
:10016000662905F00484642900F09E800020704711
:100170001FB500F0D1FC04000020002105F0CEF9ED
:10018000E0601FBD10B510BD00F0C6FD1146FFF7C1
:10019000EFFF03F08FFB00F0E4FD03B4FFF7F2FF85
:1001A00003BC00F027FE0000224B19680868B0E885
:1001B000F00F80F30988BFF36F8F4FF0000080F3DA
:1001C00011884EF00D0E70470000000006480068D0
:1001D000006880F3088862B661B6BFF34F8FBFF343
:1001E0006F8F00DF00BF00BF08ED00E0EFF3098074
:1001F000BFF36F8F0F4B1A6820E9F00F106008B53E
:100200004FF0500080F31188BFF34F8FBFF36F8F13
:1002100004F094FC4FF0000080F31188BDE8084022
:1002200019680868B0E8F00F80F30988BFF36F8F92
:10023000704700BF74000020EFF305807047000096
:100240000948804709480047FEE7FEE7FEE7FEE76A
:10025000FEE7FEE7FEE7FEE7FEE7FEE704480549A6
:10026000054A064B70470000A7310008ED00000862
:10027000302A002030300020302C0020302C00208C
:100280000FB41CB5074B06AA7B446946009005983D
:1002900000F0D5FB0020694600F0E4FB1CBC5DF8D3
:1002A00014FB0000D90700002DE9F04106460024A8
:1002B00010687529314616A510D0AFF300800028CC
:1002C00002DA404213A507E031688A0701D512A57A
:1002D00002E0490704D511A5012401E0AFF3008035
:1002E00000210A2206F1240709E0B0FBF2FCB0FB72
:1002F000F2F302FB1C00303078541846491C0028E9
:10030000F3D123462A463046BDE8F04100F02AB931
:10031000000000002D0000002B0000002000000065
:100320002DE9F0474FF0000A89460446C0F820A0A6
:100330002046E1688847002876D0252806D0D4E9F1
:1003400001219047206A401C2062F1E7E1682046C5
:1003500000258847C4F81CA006460027C4F818A04A
:100360002A2E09D0304603F080F938B304EB870811
:10037000303EC8F8186019E059F8041B204604EB19
:1003800087029161E1688847012F064618D1E0692C
:10039000002820DA25F020051DE0D8F8180000EB31
:1003A000800006EB40003038C8F818002046E168AD
:1003B0008847064603F059F90028EED1012F0AD0EC
:1003C0002E2E08D12046E16888477F1C0646022F62
:1003D00045F02005C4DBA069002803DA404245F05F
:1003E0000105A061E80701D025F01005B6B1A6F11E
:1003F0004100192802D8203645F400654A463146A6
:10040000204625604D46FFF7ABFE58B1012806D0C7
:10041000ED1D25F0070000F1080989E704E005F16A
:10042000040985E730468AE7206ABDE8F08740EA9C
:100430000103024630B59B0710D14FF0013400E0B4
:1004400008C208C91D1B9D4315EAC41FF8D013F04C
:10045000FF0102F8011B0DD01B0AF8E711F8013B60
:10046000002B02F8013B05D011F8013B002B02F8EC
:10047000013BF3D130BD032A40F2308010F0030C71
:1004800000F0158011F8013BBCF1020F624498BFE7
:1004900011F801CB00F8013B38BF11F8013BA2F184
:1004A000040298BF00F801CB38BF00F8013B11F0FF
:1004B000030300F0DC82083AC0F0088051F8043BE6
:1004C000083A51F804CBA0E80810F5E7121D5CBF0C
:1004D00051F8043B40F8043BAFF30080D20724BF3F
:1004E00011F8013B11F801CB48BF11F8012B24BFD3
:1004F00000F8013B00F801CB48BF00F8012B704722
:1005000002F0FF0343EA032242EA024200F0E3BAA8
:100510004FF0000200B5134694469646203922BF9C
:10052000A0E80C50A0E80C50B1F12001BFF4F7AFE7
:10053000090728BFA0E80C5048BF0CC05DF804EBC9
:10054000890028BF40F8042B08BF704748BF20F837
:10055000022B11F0804F18BF00F8012B7047704735
:10056000704770472DE9F0470D469946924604467C
:1005700000F124080168880604D5E06921F0100123
:10058000216000E00120A84201DD471B00E00027B8
:10059000A1697A1902EB0900081AA0612078C00647
:1005A00002D42046AFF30080002608E0D4E9012100
:1005B0001AF806009047206A401C761C20624E45BF
:1005C000F4DB2078C0060AD52046AFF3008006E0B1
:1005D000D4E9012130209047206A401C2062381E57
:1005E000A7F10107F4DC07E0D4E9012118F80500C0
:1005F0009047206A401C2062281EA5F10105F3DC0B
:100600002046AFF300802078000602D50220BDE826
:10061000F0870120FBE770472DE9FF4F0C461E468F
:100620004FF0FF378BB0D2E90001DDF860800A900F
:100630008A46C1F30A5505B93D46002108464FF0E8
:100640000000BAF1000F00F4400005DA00EB800072
:100650004FF4400101EA50004FEA9059B9F1010FFF
:1006600000DDB9460A9850EA4A000ED044F6105010
:10067000A5F2FF3545432F14B8F1000F1ED0754287
:10068000291E1EDDC9F100021CE0B8F1010F4FF078
:10069000000001D0302103E0F24305E02154401C6A
:1006A000B042FBDB30460022002121540B99C1F8F7
:1006B0000880C1E900200FB0BDE8F08FBD1B6D1CA4
:1006C000DEE74A4600DA694206A800F0AFFA06AB58
:1006D00093E8070003AB83E8070050460A9900F04F
:1006E00090FB8DE80700A0F500501F38009003989C
:1006F000002D0ADD42F21F014A460844002303A9E7
:100700000390684600F0F9FD09E0A0F500504A4664
:100710001F38002303A90390684600F003FE8DE80C
:1007200007000004000C03D04FF0FF30410800E048
:100730001046B8F1000F03D00022009215461EE0CB
:10074000751E05D400F0ECF9303262556D1EF9D5F6
:10075000B3460122084302D000227F1C04E0207827
:10076000302801D100227F1E002A099784D01DE085
:10077000112D07DA00F0D4F9303262556D1C50EAC1
:100780000102F5D1084302D00098C8B10EE0002163
:10079000681E05E0235C625C63542254401E491CC1
:1007A0008142F7DBAB46A81B401E0990002004F8ED
:1007B0000B000B98099AC0F80880C0E9002B7AE773
:1007C00011264FF0000857E72DE9F04F8846044600
:1007D000D21D22F0070191B0D1E90001CDE90A0153
:1007E00002F01FFF02460B98C00F01D02D2007E03A
:1007F0002068810701D52B2002E0202101EAC000FA
:10080000032A099001D0072A05DB0346414620460A
:1008100000F0CCF90BE12078800601D5E06900E01A
:100820000620B8F1650F814606D0B8F1660F18D0E2
:10083000B8F1670F70D131E00020B9F1110F0090CD
:1008400001DB112301E009F101030AAA01A90CA8A7
:10085000FFF7E2FEDDE90C70002609F10105834691
:1008600047E001204B4600904FF000470AAA01A93B
:100870000CA8FFF7D1FEDDE90DB00C995D4600260E
:1008800010B909F101000D18B9EB050003D4C0F14E
:10089000FF3609F10105A5EB09002BE0B9F1010FC5
:1008A00001DA4FF001090020B9F1110F009048461C
:1008B00001DD112300E003460AAA01A90CA8FFF7F5
:1008C000ABFEDDE90C704D4600268346207800071C
:1008D0000AD4AB4500DA5D4601A8012D04DD4119BB
:1008E00011F8011C302907D04F4502DA17F1040F27
:1008F00004DA012082460FE06D1EEEE7002F02DCD5
:10090000ED1B3E4403E0781CA84200DD7D1CB81BB3
:1009100000F1010A4FF000472078000703D4AA45F0
:1009200001DB4FF0FF3A0021B7F1004F0DF1430812
:100930008DF8431024D002202B23002F01DA7F42B0
:100940002D230A21021EA0F1010000DC5FB197FBFC
:10095000F1FC97FBF1F201FB1C7C17460CF1300C0B
:1009600008F801CDEEE7A8F1010003702188090520
:1009700001D5452100E06521A0F1010800F8011C26
:1009800009980FA9A1EB0807FF1D00B1012041192B
:1009900001EBEA70A1693844081A401EA061207872
:1009A000C00602D42046AFF30080099828B1D4E9EC
:1009B00001219047206A401C20622078C00622D581
:1009C0002046AFF300801EE0002E04DBB34502DDBD
:1009D00001A8805D00E03020D4E901219047206A21
:1009E000401C2062761CAAF101005FEA000A0AD1CD
:1009F00000F092F8C0680168405CD4E9012190479A
:100A0000206A401C2062281EA5F10105DCDC07E0FD
:100A1000D4E9012118F8010B9047206A401C20629C
:100A2000381EA7F10107F3DC2046AFF30080032056
:100A300011B041E601694A1C02610878704700B5AF
:100A40008FB0CDE901310021059105497944CDE907
:100A5000031011466846FFF763FC0FB000BD0000AD
:100A6000E5FFFFFF0A6802F8010B0A60704710B546
:100A7000203AC0F00B80B1E81850203AA0E8185096
:100A8000B1E81850A0E81850BFF4F5AF5FEA027C57
:100A900024BFB1E81850A0E8185044BF18C918C0C6
:100AA000BDE810405FEA827C24BF51F8043B40F867
:100AB000043B08BF7047D20728BF31F8023B48BF4C
:100AC00011F8012B28BF20F8023B48BF00F8012B8A
:100AD00070474FF000020429C0F0128010F0030CA0
:100AE0003FF418ADCCF1040CBCF1020F18BF00F8B4
:100AF000012BA8BF20F8022BA1EB0C01FFF70ABDC8
:100B00005FEAC17C24BF00F8012B00F8012B48BF2D
:100B100000F8012B7047000000487047F0290020C2
:100B200030B5B0F10A024FEA900E71F100034EEABF
:100B3000817EB0EB0E0061EB91014FEA101E4EEA90
:100B4000017E10EB0E0041EB11114FEA102E4EEA20
:100B5000016E10EB0E0041EB11214FEA104E4EEAF0
:100B6000014E10EB0E0041EB1141401841F1000124
:100B70004FEAD00040EA41704FEAD10110EB800506
:100B80004FEA810444EA907444EB01046D1944EB8C
:100B90000404521BA3414FF0000348BF0A3200D5A2
:100BA00030BD401C41F1000130BD00002DE9F04195
:100BB0001F46044603260168072A01F4006004DB8F
:100BC00008B116A505E016A503E008B115A500E0DB
:100BD00015A521F010002060A069C01EA0610FB112
:100BE000401EA0612046AFF300804FB1D4E901213F
:100BF00038469047206A401C2062C01C206206E0F4
:100C0000206AFAE7D4E9012115F8010B9047761E16
:100C1000F8D22046AFF30080BDE8F0814E414E008F
:100C20006E616E00494E4600696E66002DE9F04720
:100C3000814616468AB0354878440DC88DE80D00C7
:100C400032487844801C03AC0DC884E80D0041F69E
:100C50009B300844372190FBF1F290FBF1F5A5F1B0
:100C6000800501FB12041B3C02D56442012000E018
:100C70000020DFF898A080460027FA44AAF1BE0AB7
:100C80000EE0E0070AD03246684607EB4701012331
:100C90000AEB810100F046FB8DE8070064107F1C21
:100CA000002CEED1194F7F44AE3F19E0E80715D074
:100CB00007EB04100DF1180A90E80E008AE80E0008
:100CC000C068F04201D1981908903246012306A964
:100CD00003A800F027FB03AB83E807006D10641C3A
:100CE000002DE3D14FF0010332466946B8F1000F01
:100CF00003A802D000F001FB01E000F013FBC9E9FA
:100D00000001C9F808200AB0BDE8F0875C6C00005B
:100D100000487047D02900207546FFF7F9FFAE461E
:100D200005006946534620F00700854618B020B5F7
:100D3000FFF794FABDE820404FF000064FF000079F
:100D40004FF000084FF0000B21F00701AC46ACE873
:100D5000C009ACE8C009ACE8C009ACE8C0098D46E0
:100D6000704710B50446AFF300802046BDE8104040
:100D7000FFF713BA4FF0013C50F8042B51F8043B35
:100D80009A4221D1A2EB0C03934313EACC1317D15F
:100D900050F8042B51F8043B9A4215D1A2EB0C03F6
:100DA000934313EACC130BD150F8042B51F8043BB6
:100DB0009A4209D1A2EB0C03934313EACC13DBD084
:100DC0004FF00000704700BFD01A01BAB1FA81F1AC
:100DD00001F0180122FA01F0CB40C1F12001DBB291
:100DE000C0B2C01A2CFA01F3D11A914311EAC3110F
:100DF000E6D1704701491820ABBEFEE7260002008D
:100E000070475FEA400C08BF91F0000F4FEA8C2357
:100E10004FEAC12243EA51514FEA1C5018BF00F576
:100E2000F0404FEA300018BF41F000415FEA6C5CCF
:100E300000F02980BCF1FF3F08BF40F080407047C0
:100E4000130C06BF12044FF0100C4FF0000C130EE1
:100E500004BF12020CF1080C130F04BF12010CF1B5
:100E6000040C930F04BF92000CF1020CD30F04BFCB
:100E700052000CF1010C11464FF00002A0F11F00CE
:100E8000A0EB0C00704711F0004F08BF704731F025
:100E900000413FF4D5AF0B0C06BF09044FF0100C16
:100EA0004FF0000C0B0E04BF09020CF1080C0B0FE5
:100EB00004BF09010CF1040C8B0F04BF89000CF175
:100EC000020CCB0F04BF49000CF1010CCCF1200344
:100ED000A0EB0C0022FA03F302FA0CF241EA030140
:100EE00000F10100704720F07F4C80EA030023F0FE
:100EF0007F47ACEB070303F57C5300F0004003F1A0
:100F0000FF032DE980494FEA154B09B44FEA14431A
:100F100025EA0B4E24EA03480FF2042606EB1327BA
:100F200049083E785FEA320203FB0667C7F500070F
:100F300007FB06F64FEA54374FEAD64606F102069B
:100F400007FB066CCCF1005C4FEA1C472CEA074C0F
:100F500007FB06F40CFB06F504EB15464FEA961664
:100F600034BF00204FF000404FEAD13706FB07FCAA
:100F70004FEA1C4C0CFB0BF7D21B03FB0CF761EB8D
:100F800007010CFB0EF7B0EB074072EB17420CFBAE
:100F900008F734BFA2EB0742B2EB074261EB1741FF
:100FA0004FEA0C444FEA910706FB07FC4FEA1C4C42
:100FB0000CFB0BF7B0EBC74072EB573203FB0CF79F
:100FC00034BFA2EBC742B2EBC74261EB57310CFB17
:100FD0000EF7B0EBC70072EB57720CFB08F734BF8B
:100FE000A2EBC702B2EBC70261EB5771039F4FEA56
:100FF000816141EA921104EBCC044FEAD1374FEA08
:10100000826206FB07FC42EA90124FEA80604FEAD8
:101010001C4C0CFB0BF7D21B03FB0CF761EB07011D
:101020000CFB0EF7B0EB074072EB17420CFB08F716
:1010300034BFA2EB0742B2EB074261EB17414FEA24
:101040008C554FEA910704EB9C2406FB07FC4FEA02
:101050001C4C0CFB0BF7B0EBC74072EB573203FB99
:101060000CF734BFA2EBC742B2EBC74261EB57317A
:101070000CFB0EF7B0EBC70072EB57720CFB08F7D6
:1010800034BFA2EBC702B2EBC70261EB577115EB9D
:101090004C254FEA816141EA92114FEA82624FEAA0
:1010A000D13742EA901206FB07FC44F100044FEAF4
:1010B00080604FEA1C4C0CFB0BF7D21B03FB0CF7B8
:1010C00061EB07010CFB0EF7B0EB074072EB174228
:1010D0000CFB08F734BFA2EB0742B2EB074261EB0F
:1010E000174115EB1C154FEA813141EA92414FEA55
:1010F000823242EA90424FEA80304FEA0C7644F165
:10110000000448EA03434EEA0B484FF0000EB2EBEE
:10111000080C71EB030724BF624639464EEB0E0EF6
:101120004FF0000B0018524149414BEB0B0BB2EB57
:10113000080C71EB03077BF1000B24BF62463946B4
:101140004EEB0E0E4FF0000B0018524149414BEB95
:101150000B0BB2EB080C71EB03077BF1000B24BF08
:10116000624639464EEB0E0E51EA020718BF46F0B2
:10117000010616EB0E7655F1000254F1000103D57D
:10118000BDE88901BDE80088BDE88901BDE80048E7
:10119000B619524141EB0101A3F101037047808070
:1011A0007F7E7D7C7B7A79787776767574737271C1
:1011B00071706F6E6E6D6C6C6B6A6A696868676679
:1011C00066656464636362616160605F5F5E5E5D0B
:1011D0005D5C5C5B5B5A5A5959585857575656557F
:1011E00055555454535352525251515050504F4FE1
:1011F0004F4E4E4D4D4D4C4C4C4B4B4B4A4A4A4931
:101200004949484848474747474646464545454473
:101210004444444343434342424242414141002B00
:101220009C4630D477002BD01CB54FEA370703B467
:101230004FF010004FF01001BAF1000F06D0BCF1D2
:10124000000FDCBF40F0080040F008014FF0000044
:101250000FBCBDE810400BF1010BBBF1010F08BF43
:101260005FEA170722BF12F1010211F101014FF0ED
:10127000004143F1000300F0004043EA00007047E2
:10128000F9D35708D0E746EA064613F1400F4FEA74
:1012900016461FDD13F1200FDFBF16430A4600215B
:1012A00020335B42BED0C3F1200746EA064602FA6D
:1012B00007F74FEA164646EA0706C3F1200722FA67
:1012C00003F201FA07F721FA03F14FF0000342EAB3
:1012D0000702A7E746EA020646EA06464FEA16462E
:1012E00046EA0106BCBF46EA0646360C4FF000034C
:1012F0004FF000024FF0000194E72DE9804C9A4630
:10130000934670B491E8380007C831EA400C48BFF2
:1013100034EA430C03D5FFF7E6FDFFF780FFF0BC8E
:10132000BDE8008C2DE9804C9A46934670B491E854
:10133000380007C810F0804F08BF13F0804F03D16A
:1013400000F005F8FFF76BFFF0BCBDE8008C20F063
:101350007F4780EA030023F07F4C07EB0C03A3F5E3
:101360007C5300F00040A3F1FE0392F0000F00F068
:10137000B38095F0000F00F077802DE901494FEA26
:1013800011404FEA144621EA004800FB06FC24EA1B
:10139000064708FB06F607FB08F800FB07F718EB03
:1013A00006484CEB164C4FEA124B18EB07484FEA35
:1013B00015464CEB174022EA0B4E0BFB06FC25EAC8
:1013C00006470EFB06F607FB0EFE0BFB07F71EEBB0
:1013D000064E4CEB164C4FF000061EEB074E4CEB46
:1013E000174B18EB0B0840F1000018EB0E0B58EBF5
:1013F000000840F100008F1A4FF000013CBFC943C4
:10140000661B14BFB5EB040C00213CBFC943F61B9F
:101410004FEA17444EEA8E0E27EA04454FEA1C476E
:1014200004FB07622CEA074C05FB07F70CFB05F6EB
:1014300004FB0CFC16EB074642EB174216EB0C467E
:1014400042EB1C421BEB060658EB0202414146EA06
:101450009E0601D5BDE80189B619524141EB010153
:10146000A3F10103BDE801894FEA14454FEA114792
:1014700024EA054621EA074C05FB07F406FB07F7BB
:101480000CFB06F105FB0CFC11EB074144EB174488
:101490004FEA124711EB0C4144EB1C4422EA074C83
:1014A00005FB07F206FB07F70CFB06F605FB0CFC39
:1014B00016EB074642EB174216EB0C4642EB1C4577
:1014C0006A1854F1000148BF7047B619524141EB08
:1014D0000101A3F10103704795F0000F37D04FEAE7
:1014E00011424FEA144721EA024624EA074C02FB64
:1014F00007F106FB07F70CFB06F402FB0CFC14EBF0
:10150000074441EB17414FEA154714EB0C4441EBFC
:101510001C4125EA074C02FB07F506FB07F70CFB0D
:1015200006F602FB0CFC16EB074645EB174516EBDF
:101530000C4645EB1C42121951F1000148BF70479F
:10154000B619524141EB0101A3F1010370474FEA83
:1015500014454FEA114724EA054621EA074C05FBEA
:1015600007F106FB07F70CFB06F24FF0000605FB40
:101570000CFC12EB074241EB174112EB0C4251EB12
:101580001C4148BF7047921841EB0101A3F10103D0
:101590007047FEE7704772B6FEE710B590F821106D
:1015A0000022022905D00421816380F82020012037
:1015B00010BD01680B6823F00E030B6001680B6817
:1015C00023F001030B6090F84030C46B012101FA55
:1015D00003F3636080F8211080F82020104610BDCE
:1015E00010B590F821100024022903D00421816352
:1015F00001243DE001680A6822F00E020A600168D9
:101600000A6822F001020A601A4A0168914201D177
:10161000012121E0174A1432914201D110211BE02F
:10162000144A2832914201D1891515E0114A3C3201
:10163000914201D189140FE00E4A5032914202D1F9
:101640004FF4803108E00B4A6432914202D14FF4EA
:10165000801101E04FF08071064A083A5160012183
:1016600080F82110002180F82010416B01B18847DB
:10167000204610BD0800024070B5044600F010F985
:101680000546601C02D004480078044400F008F9C4
:10169000401BA042FAD370BD640000202DE9F84F32
:1016A000DFF8B8910024A9F1040B23460F2709F1B4
:1016B000040AABF1040EC9E00125A5402A40AA4264
:1016C0007DD1674ED1F804C0ACEB0608B44532D0EA
:1016D00014DCBCF1030F3AD009DCBCF1000F2AD0B6
:1016E000BCF1010F1CD0BCF1020F31D11DE0BCF1E7
:1016F000110F17D0BCF1120F2AD119E0B8F5881FCD
:1017000019D006DCB8F5803F15D0B8F5801F1FD181
:1017100011E0B8F5001F0ED0B8F5041F18D10AE08B
:10172000CB6815E0CB681B1D12E0CB6808330FE0D7
:10173000CB680C330CE08B682BB1012B4FF0080306
:1017400003D0456104E0042302E0056100E00023CA
:10175000FF2A01D8064601E000F104064FEA84059D
:1017600001D9A5F12005D6F8008007FA05FC28EA82
:101770000C0803FA05F548EA0508C6F800804D682C
:10178000ED0062D5374DAE6946F00106AE61AD6938
:1017900024F0030605F001050095334D06EB050C1A
:1017A000DCF80850A607360F07FA06F825EA080500
:1017B000DFF8B880404503D14FF0000817E044E05F
:1017C000DFF8AC80404502D14FF001080FE0DFF8B0
:1017D000A480404502D14FF0020808E0DFF898806D
:1017E000404502D14FF0030801E04FF0040808FA29
:1017F00006F848EA0508CCF808804D68D9F800607A
:10180000ED024D4601D5164300E096432E604D682B
:10181000DAF80060AD02554601D5164300E0964364
:101820002E604D68DBF80060AD035D4601D51643C0
:1018300000E096432E604D68DEF80060ED037546CB
:1018400001D5164300E096432E60641C0D682A46BD
:10185000E5407FF431AFBDE8F88F00000804014097
:10186000000011100010024000000140000801407B
:10187000000C014000100140001401408068084045
:1018800000D001207047C26821EA02030A4043EAFF
:101890000241016170470AB1016170470904FBE729
:1018A0000148806870470000640000200248816899
:1018B000027811448160704764000020074810B529
:1018C000016841F010010160032000F0A1F80F2031
:1018D00000F006F800F04AF8002010BD0020024099
:1018E00030B505461C4887B0816941F400618161CB
:1018F000806906A900F40060009001A800F030F9AA
:1019000000F05EF91549164AB0FBF1F11548491E81
:101910000260416040F2E7320021C0E903218160AA
:10192000816100F049FB040012D10E4800F072FB07
:1019300004000DD1192000F03DF8102D07D200222F
:101940002946192000F044F80748056000E001240A
:1019500007B0204630BD00000010024040420F009A
:10196000002C0140B4080020680000200F4808B592
:10197000816941F001018161816901F001010091FA
:10198000C16941F08051C161C069002200F08050FE
:1019900000900F21901E00F01BF80548416821F0CF
:1019A000E06141F00071416008BD0000001002409C
:1019B00000000140002809DB00F01F0201219140D6
:1019C0004009800000F1E020C0F8001170470000DD
:1019D000F0B40E4B1B680C46C3F30223C3F107059A
:1019E000042D00D90425191D072901D2002300E088
:1019F000DB1E012606FA05F1491E214099409E4052
:101A0000761E16403143F0BC01F01FBE0CED00E025
:101A1000064900F0070208684FF6FF03184040EA45
:101A20000220034A10430860704700000CED00E0FC
:101A30000000FA052DE9F0470F46050061D0434E3E
:101A4000306800F00700B84209D2306820F0070083
:101A500038433060306800F00700B84251D1286840
:101A60003B4C810712D5400703D5606840F4E06025
:101A700060602878000703D5606840F460506060BB
:101A80006068A96820F0F000084360602878C0070B
:101A900028D06868012810D02168022810D0890752
:101AA00000292EDA616821F0030101436160FFF72C
:101AB000F7FE804641F288390DE021688903EFE79F
:101AC0008901EDE7FFF7ECFEA0EB0801494502D9DB
:101AD0000320BDE8F0876068696800F00C00B0EB97
:101AE000810FEFD1306800F00700B8420BD93068A1
:101AF00020F0070038433060306800F00700B8423B
:101B000001D00120E5E72878400705D56068E9683D
:101B100020F4E060084360602878000706D560681C
:101B2000296920F4605040EAC100606000F058F874
:101B30006168084AC1F30311515CC8400649086056
:101B400006480068FFF7CCFE0020C2E700200240F4
:101B50000010024002780008700000206800002099
:101B60000F2202600C4A536803F00303436053687A
:101B700003F0F0038360536803F4E063C3605268CA
:101B80004FF4E06303EAD20202610448006800F007
:101B9000070008607047000000100240002002406B
:101BA0000448054900684968044AC1F30221515CB0
:101BB000C8407047700000200010024012780008F2
:101BC0000448054900684968044AC1F3C221515CD0
:101BD000C8407047700000200010024012780008D2
:101BE0000E4A51680E4801F00C03042B11D0082B4B
:101BF0000FD10C48C1F38343C903C05C0AD55168B7
:101C0000084AC1F34041921E515C054A5043B0FB63
:101C1000F1F070470449484370470000001002404B
:101C200000127A00F277000800093D002DE9F84F14
:101C3000040070D02078C04DC00749D06868C0F358
:101C40008100012807D06868C0F38100022809D10B
:101C50006868C00306D52868800339D56068002805
:101C6000E7D035E06068B0F5803F0BD010B1B0F53B
:101C7000A02F11D0286820F480302860286820F434
:101C8000802002E0286840F480302860606890B1CD
:101C9000FFF706FE06460AE0286840F48020286028
:101CA000F0E700BFFFF7FCFD801B642873D82868AD
:101CB0008003F7D50CE0FFF7F3FD064605E000BF13
:101CC000FFF7EEFD801B6428F0D828688003F7D466
:101CD00020789A4E80074FF001094FF0000839D55F
:101CE000686810F00C0F07D06868C0F38100022804
:101CF00009D16868C00306D42868800714D5206914
:101D0000012808D110E02069B0B1C6F80090FFF7B3
:101D1000C7FD074605E00AE1FFF7C2FDC01B022828
:101D2000C4D828688007F7D52868616920F0F800D2
:101D300040EAC10028600DE0C6F80080FFF7B0FD62
:101D4000074604E0FFF7ACFDC01B022823D8286833
:101D50008007F7D4207800072CD57948A169D9B13C
:101D6000C0F80090FFF79CFD074604E0FFF798FDE0
:101D7000C01B02280FD8686A8007F7D571484FF456
:101D8000FA510068B0FBF1F0009000BF0098411ECE
:101D90000091FAD20EE080E0C0F80080FFF780FDED
:101DA000074604E0FFF77CFDC01B022875D8686A6F
:101DB0008007F7D42078400760D5E8690027C00085
:101DC00008D4E86940F08050E861E869012700F034
:101DD000805000905C480168C90513D401688346AF
:101DE00041F480710160FFF75BFD824606E000BFB1
:101DF000FFF756FDA0EB0A0064284ED8DBF8000080
:101E0000C005F5D5E06801280AD008B1052813D02F
:101E1000286A20F001002862286A20F0040002E00D
:101E2000286A40F001002862E06841F2883B98B1DE
:101E3000FFF736FD82460BE0286A40F00400286276
:101E4000EEE700BFFFF72CFDA0EB0A0159455AD879
:101E5000286A8007F6D50CE0FFF722FD824605E0F0
:101E6000FFF71EFDA0EB0A0159454CD8286A8007F0
:101E7000F6D41FB1E86920F08050E861E06988B3CA
:101E80006968C1F38101022944D00228C6F8608044
:101E900004D0FFF705FD044638E034E0FFF700FD0D
:101EA000074604E0FFF7FCFCC01B02282BD828687B
:101EB0008001F7D4206AB0F5803F05D16868A16839
:101EC00020F4003008436860D4E9080108436968D9
:101ED00021F4741108436860C6F86090FFF7E0FCD5
:101EE000044606E025E000BFFFF7DAFC001B0228ED
:101EF00009D828688001F7D51BE000BFFFF7D0FCA8
:101F0000001B022802D90320BDE8F88F2868800151
:101F1000F4D40EE00128F7D06868226A00F480311A
:101F2000914204D1616A00F47010884201D001200E
:101F3000EAE70020E8E7000000100240000042420B
:101F400080044242700000200070004070477047DB
:101F500070B590F83C20012A26D0012480F83C403E
:101F6000022280F83D2003685A689D6822F07006BE
:101F70000A6832435A600D4B02689A4208D0B2F1A7
:101F8000804F05D00A4B9A4202D00A4B9A4204D1A4
:101F9000496825F080031943916080F83D40002195
:101FA00080F83C10084670BD022070BD002C014036
:101FB000000400400008004010B5040003D094F86D
:101FC0003D0010B107E0012010BD002084F83C0066
:101FD000204600F01EF8022084F83D00211D2068F4
:101FE00001F0E8F8012084F8460084F83E0084F807
:101FF0003F0084F8400084F8410084F8420084F8EF
:10200000430084F8440084F8450084F83D00002033
:1020100010BD704790F83D10012901D00120704794
:10202000022180F83D100168CA6842F00102CA60CE
:1020300000680B49884208D0B0F1804F05D00949AB
:10204000884202D00849884204D1816801F0070122
:10205000062903D0016841F00101016000207047AA
:10206000002C01400004004000080040704770B59B
:102070000446006801694FF00005C943890715D47B
:10208000C168C943890711D4E91E01610120207785
:10209000206880698007204602D0FFF7E7FF04E050
:1020A00000F0CCF8204600F07DF925772068016922
:1020B000C943490717D4C168C943490713D46FF00E
:1020C00004010161022020772068806910F4407FBC
:1020D000204602D0FFF7CAFF04E000F0AFF8204628
:1020E00000F060F9257720680169C943090716D413
:1020F000C168C943090712D46FF0080101610420C7
:1021000020772068C0698007204602D0FFF7AEFF25
:1021100004E000F093F8204600F044F925772068A9
:102120000169C943C90617D4C168C943C90613D494
:102130006FF010010161082020772068C06910F459
:10214000407F204602D0FFF791FF04E000F076F8D0
:10215000204600F027F9257720680169C943C9079F
:1021600008D1C168C943C90704D1891E016120464D
:1021700000F068F920680169C943090609D4C168FB
:10218000C943090605D46FF0800101612046FFF7BD
:10219000DDFE20680169C943490609D4C168C94305
:1021A000490605D46FF040010161204600F054F962
:1021B00020680169C94389060BD4C168C9438906EF
:1021C00007D46FF0200101612046BDE87040FFF7A1
:1021D000BEBE70BD10B586B0002100910191029184
:1021E0000391124C0368124902221248A34209D1FA
:1021F0008B6943F008038B61896901F00801049140
:1022000003210BE00C4CA3420ED18B6943F0080371
:102210008B61896901F008010491A115CDE90012D3
:1022200069460392FFF73AFA06B010BD0004004079
:1022300000100240000C014000080040704770B5DB
:10224000044690F83C0000260D4601280FD00120DE
:1022500084F83C006AB1042A1DD0082A2FD00C2A29
:102260003FD00126002084F83C00304670BD02209B
:1022700070BD206800F0E2FF2068816941F008012C
:1022800081612068816921F0040181612068816990
:102290002A69114311E0206800F0F8FF2068816985
:1022A00041F4006181612068816921F4806181616C
:1022B000206881692A6941EA02218161D2E72068A8
:1022C00001F010F82068C16941F00801C16120687F
:1022D000C16921F00401C1612068C1692A69114303
:1022E00011E0206801F02AF82068C16941F400611A
:1022F000C1612068C16921F48061C1612068C16940
:102300002A6941EA0221C161ACE710B5040003D09B
:1023100094F83D0010B107E0012010BD002084F8C2
:102320003C00204600F01EF8022084F83D00211DEC
:10233000206800F03FFF012084F8460084F83E004A
:1023400084F83F0084F8400084F8410084F842009B
:1023500084F8430084F8440084F8450084F83D0084
:10236000002010BD08B50C4A01680C48914207D105
:10237000C16941F00201C161C06900F0020009E0D9
:10238000074A914207D1C16941F00401C161C069A6
:1023900000F00400009008BD00040040001002405E
:1023A000000800407047000010B50446022249B101
:1023B00004290ED0082913D094F84100012816D022
:1023C000012010BD94F83E000128F9D184F83E2088
:1023D0000FE094F83F000128F2D184F83F2008E094
:1023E00094F840000128EBD184F8402001E084F803
:1023F00041200122206800F013FF0F492068884225
:1024000003D1426C42F4004242642068884208D002
:10241000B0F1804F05D00949884202D0084988426E
:1024200004D1816801F00701062903D0016841F059
:1024300001010160002010BD002C0140000400409B
:102440000008004000680349884201D1FFF72EBA16
:1024500070470000002C0140704770477047000033
:10246000F8B5016804460868CA684B6910F00F0F98
:102470004FF0000559D003F0010602F4907737437E
:1024800065D0C10705D0D10503D5616C41F00101CC
:102490006164410705D5D90703D0616C41F00201A1
:1024A0006164810705D5D90703D0616C41F004014F
:1024B0006164010707D502F02001314303D0616C4C
:1024C00041F008016164616C00293AD0800604D5AE
:1024D000900602D5204600F082FF20684069616CBA
:1024E000C0F38010090700D460B3204600F050FF0D
:1024F00020684069400621D52068143050E8001F4C
:1025000021F0400140E80012002AF5D1E06BA8B1AB
:102510006D494163E06BFFF763F8002811D0E06B71
:10252000416B01B0BDE8F040084783060FD5930624
:102530000DD52046BDE8F84000F051BF2046FFF71A
:102540008DFFF8BD2046FFF789FF6564F8BD266B57
:102550002023012E7CD1C6067AD5D60678D5086808
:102560004868009048694FF00206400640D5E16B8C
:10257000086840680004000CE8D0A28D8242E5D9CA
:10258000E085886920282DD020680C3050E8001F95
:1025900021F4807140E80012002AF5D1206814303F
:1025A00050E8001F21F0010140E80012002AF5D197
:1025B0002068143050E8001F21F0400140E800126C
:1025C000002AF5D184F84230256320680C3050E8A9
:1025D000001F21F0100140E80012002AF5D1E06B45
:1025E000FEF7DBFF6663A08DE18D401A81B22AE021
:1025F000A08DE18D401A81B2E08D0028A6D000297F
:10260000A4D022680C3252E8000F20F4907042E807
:102610000007002FF5D12068143050E8002F22F079
:10262000010240E80027002FF5D184F842302563ED
:1026300020680C3050E8002F22F0100240E8002300
:10264000002BF5D166632046FFF707FFF8BDFFE7D3
:1026500005062BD5150629D594F841002128F5D17A
:10266000A068B0F5805F01D12069B0B1206A411C3B
:102670002162216800784860E08C401E0004000C54
:10268000E084E3D12068C16821F08001C160206846
:10269000C16841F04001C160D8E7206A0088C0F3FA
:1026A00008004860206A801C2062E5E74006CDD51E
:1026B0005006CBD5CA68204622F04002CA6084F892
:1026C000413000F040F9C1E78133000870B50400E3
:1026D00004D094F84100002510B106E0012070BD3F
:1026E00084F84050204600F023F8242084F841006C
:1026F0002068C16821F40051C160204600F0D0FE7E
:102700002068016921F4904101612068416921F04C
:102710002A0141612068C16841F40051C1606564CB
:10272000202084F8410084F842006563002070BDD9
:1027300030B585B0002400940194029403942E4D8A
:1027400003682E4802210322AB4227D1C36943F418
:102750000033C361C36903F400330493836943F016
:10276000040383618069264D00F004000490042076
:10277000CDE90001039269462846FEF78FFF082045
:10278000CDE90004694628460294FEF787FF00223F
:1027900005212620FFF71CF9262029E0194DAB4220
:1027A00028D1C36943F48023C361C36903F4802340
:1027B0000493836943F0080383618069039200F006
:1027C000080004902815CDE900010F4D6946284600
:1027D000FEF764FFE814CDE9000469462846029438
:1027E000FEF75CFF002205212720FFF7F1F82720E4
:1027F000FFF7E0F805B030BD004400400010024093
:102800000008014000480040000C014090F84230B0
:10281000202B01D00220704721B11AB1002303639D
:1028200000F09ABE0120704738B5044600681A4986
:10283000884220D1194A1078552817D15078AA28F3
:1028400014D1A2F20A2390791870D0795870107AB6
:1028500098700021684655186D7A4554491CC9B2D4
:102860000429F8D300985860012018720F220B49F0
:102870002046FFF7CBFF0A49206888420AD1094861
:1028800009490122007808712046BDE83840054911
:10289000FFF7BCBF38BD0000004800400203002025
:1028A0000044004010000020EC0000202DE9F84317
:1028B000044690F841001F4616460D46202802D0D7
:1028C0000220BDE8F8837DB176B10020606421204C
:1028D00084F84100FEF7E4FFA6848046E684A06801
:1028E000B0F5805F02D003E00120EAE7206910B173
:1028F0002E4600250EE000260CE08021204600F048
:1029000046FEA0B9AEB116F8010B21684860E08C14
:10291000401EE084E08C43464FF000020097002800
:10292000EBD14FF04001204600F031FE30B10320E2
:10293000C7E735F8020BC0F30800E6E7202084F86B
:1029400041000020BDE77047FEE7000070B501229E
:102950000E4DD40321462846FEF79DFF0C4E012262
:1029600008213046FEF797FF00F04EF8002221467E
:102970002846FEF790FF00F047F800220821304675
:10298000FEF789FFBDE8704000F03EB80008014046
:10299000000C014070B50B4D4FF40044002221465D
:1029A0002846FEF778FF012208210748FEF773FF4B
:1029B00000F02AF821462846BDE870400122FEF7C3
:1029C0006ABF000000080140000C014010B5012260
:1029D000D1030B48FEF75FFF00F016F8094C012207
:1029E00008212046FEF757FF00F00EF800220821CC
:1029F0002046FEF750FFBDE8104000F005B800008B
:102A000000080140000C01400320401EC0B2FCD26F
:102A10007047000010B50B4A00210B4801F048F93F
:102A20000A4C084A002120602432094801F040F98C
:102A3000044A606048320021064801F039F9A0607C
:102A400010BD000084770008AD3800085800002051
:102A5000E1380008094600082DE9F04F85B000264E
:102A600045480096019602960396816941F010014F
:102A70008161816901F010010491816941F02001B7
:102A80008161816901F020010491816941F00401B3
:102A90008161816901F004010491816941F00801BB
:102AA00081618069DFF8D49000F008004FF4005491
:102AB0000490002221464846FEF7EDFEDFF8C0A054
:102AC00000224FF460615046FEF7E5FE0122D70375
:102AD00039465046FEF7DFFEDFF8A8B00122082194
:102AE0005846FEF7D8FE4FF400780022414658467B
:102AF000FEF7D1FE0125CDE9004502240294694686
:102B000048460394FEF7CAFD4FF4C0600090CDE93B
:102B10000154694650460394FEF7C0FDA002039499
:102B20008DE8610069465046FEF7B8FDCDE90075B5
:102B30000327CDE9024769465046FEF7AFFD08205E
:102B4000CDE90005CDE9024769465846FEF7A6FDE6
:102B50007020CDE90006694602955846FEF79EFDB5
:102B6000CDF80080CDE90154694658460394FEF73C
:102B700095FD05B0BDE8F08F001002400010014047
:102B800000080140000C014010B58AB000240794F1
:102B90001C2168460894FDF7BBFC1B4819490160DD
:102BA00040F2CF21C0E9011440F2CF71C0E9031413
:102BB0008461FFF7AAFB08B1FEF7EDFC079407A9B3
:102BC00011480894FFF7C4F908B1FEF7E4FC60204F
:102BD000CDE900040294082269460B480494FFF7EB
:102BE0002EFB08B1FEF7D7FC0C2269460648FFF71A
:102BF00026FB08B1FEF7CFFC0348FFF7EBFA0AB05B
:102C000010BD0000000400409407002010B58AB0F9
:102C1000002407941C2168460894FDF779FC1648A7
:102C2000144901604721C0E9011440F2E731C0E9CD
:102C300003148461FFF769FB08B1FEF7ACFC07944D
:102C400007A90D480894FFF783F908B1FEF7A3FC24
:102C50006020CDE9000402940822694606480494E5
:102C6000FFF7EDFA08B1FEF796FC0348FFF7B2FA5A
:102C70000AB010BD00080040DC0700200C4810B569
:102C80000A4901604FF416514160002181600C2215
:102C9000C160C0E904128161C161FFF717FD00281E
:102CA00003D0BDE81040FEF776BC10BD00440040E4
:102CB000240800200C4810B50A4901604FF4165151
:102CC0004160002181600C22C160C0E90412816171
:102CD000C161FFF7FBFC002803D0BDE81040FEF700
:102CE0005ABC10BD004800406C080020FEE7FEE71B
:102CF00030B40021084B0A465FF0000003EBC0042B
:102D0000401CC0B262548028F8D3491CC9B20829BB
:102D1000F2D330BC00F0C0B81403002030B1012859
:102D200007D100215FF0A70000F0B1B90021A62073
:102D3000FAE7704710B558B1012810D10021C02022
:102D400000F0A5F90021A020BDE8104000F09FB9D7
:102D50000021C82000F09BF90021A120F4E710BD5C
:102D600030B5CC0801F0070301259D40EBB2064DBC
:102D700005EBC005C808285C0AB1184302E063EA05
:102D80000000C043285530BD1403002010B53D4C51
:102D9000002220212046FEF77EFDC820FEF76CFCB5
:102DA000012220212046FEF776FD0021AE2000F012
:102DB0006EF90021084600F06AF90021102000F0A9
:102DC00066F90021402000F062F90021812000F026
:102DD0005EF90021CF2000F05AF90021A12000F077
:102DE00056F90021C82000F052F90021A62000F079
:102DF0004EF90021A82000F04AF900213F2000F000
:102E000046F90021D32000F042F90021084600F0E5
:102E10003EF90021D52000F03AF90021802000F091
:102E200036F90021D92000F032F90021F12000F01C
:102E30002EF90021DA2000F02AF90021122000F0FA
:102E400026F90021DB2000F022F90021302000F0DB
:102E50001EF90021202000F01AF90021022000F0C4
:102E600016F900218D2000F012F90021142000F045
:102E70000EF9FFF73DFF0021BDE81040AF2000F044
:102E800006B90000000801400246012000E050435E
:102E9000491EC9B2FBD2704770B5184E002400BF5E
:102EA00004F1B000C0B2002100F0F1F800210846A2
:102EB00000F0EDF80021102000F0E9F8FFF746FDE2
:102EC000782000F0FFF8FFF781FD402000F0FAF8CD
:102ED000FFF77CFD5FF0000506EBC500005D00F02C
:102EE000F1F8FFF773FD6D1CEDB2802DF4D3FFF701
:102EF00051FD641CE4B2082CD2D370BD1403002031
:102F00002DE9FC4F1C460E4682468B460190082B4D
:102F10000DD0600700D0012000EBD40061084843C9
:102F2000C0B28146203AD0B2009000204BE006208B
:102F3000F7E7082C13D00C2C18D0102C1BD0182C11
:102F400044D10098234900EBC00000BF01EB800191
:102F5000002711F80850E80712D00B9A13E00098E8
:102F60001D4900EB400001EB4001F1E700981B49CF
:102F700000EB4000EAE71A49009801EB0011E7E78F
:102F80000B9828B3002231465046FFF7E9FE761C25
:102F90007F1C6D08FFB2F6B2082FDCD30AF10100E6
:102FA00000F0FF0A082C0AD00199AAEB0100B0EB4F
:102FB000540F04D10BF108008A4600F0FF0B08F112
:102FC00001005E46C0B280464845B2D3BDE8FC8FE2
:102FD0000122D8E7FE650008725900089A5B0008D4
:102FE0000E6000082DE9F84F0025DDE90A691F464B
:102FF00092468B468046082E00D1022500241CE014
:10300000381B401EC1B20A20FFF73EFFBAFBF0F0AA
:103010000A21B0FBF1F201FB1200CDF8009080B163
:103020003030C2B205EB560101FB0480C0B233461A
:103030005946FFF765FF641CE4B2BC42E0D3BDE82B
:10304000F88F05EB560101FB0480C0B233463022F5
:10305000EEE72DE9F8411E46154688460446079FCF
:103060000BE03346414620460097FFF749FF082E04
:103070000AD004EB5600C4B26D1C2A78A2F12000DD
:103080005E28EED9BDE8F881A41DE4B2F4E770B57E
:103090000C460546FFF75AFC782000F013F8FFF7BE
:1030A00095FC0CB1402000E0002000F00BF8FFF789
:1030B0008DFC284600F006F8FFF788FCBDE870405C
:1030C000FFF768BC2DE9F041DFF84880124E054655
:1030D00000244FF40047280601D5012200E0002219
:1030E00039464046FEF7D7FBFFF78EFC0122082148
:1030F0003046FEF7D0FBFFF787FC00220821304660
:10310000FEF7C9FB6806641C050EE4B2082CE2D386
:10311000BDE8F08100080140000C014010B55020CE
:1031200080F31188BFF34F8FBFF36F8F02F054F815
:1031300018B104494FF080500860002080F31188D6
:1031400010BD000004ED00E030B58FB028216846C6
:10315000FDF7DEF914210AA8FDF7DAF901210804C8
:10316000CDE900100024029402250491CDE9075016
:103170004FF4E01009906846FEF758FD08B172B6AA
:10318000FEE70F20CDE90A054FF48060CDE90C4041
:1031900002210AA80E94FEF74DFC002801D072B659
:1031A000FEE70FB030BD70470148FEF760BF00007A
:1031B000B4080020F0B50268164B174C174D4FF0BD
:1031C0008047984205D0B84203D0A04201D0A8421F
:1031D00003D122F070064A683243984205D0B842C3
:1031E00003D0A04201D0A84203D122F44074CA689F
:1031F00022434C6922F08002224302608A68C26244
:103200000A688262984201D1096901630121416122
:10321000F0BD0000002C0140000400400008004008
:1032200010B501F01F030121046A99408C43046228
:10323000016A9A401143016210BD000030B5036A73
:10324000026A22F0010202624268846924F0730576
:103250000C682C4323F002058B682B430A4DA842CF
:103260000BD123F00805CB6822F440722B434D6943
:1032700023F0040315438A692A4342608461496844
:103280004163036230BD0000002C014030B5026A8A
:10329000036A23F010030362436884690D6824F411
:1032A000E64444EA05248D6822F0200242EA051231
:1032B0000B4DA8420ED1CD6822F0800242EA0512E1
:1032C0004D6923F4406343EA85038D6922F040028F
:1032D00043EA85034360846149688163026230BDCB
:1032E000002C014030B5036A026A22F48072026247
:1032F0004268C46923F4007324F073050C682C43FE
:103300008D6843EA05230C4DA8420ED1CD6823F405
:10331000006343EA05234D6922F4405242EA051254
:103320008D6923F4806342EA05124260C4614968F2
:10333000C163036230BD0000002C014030B5046A57
:10334000026A22F4805202624268C3690D6823F463
:10335000E64343EA05238D6824F4005444EA053427
:10336000064DA84204D14D6922F4804242EA8512FA
:103370004260C36149680164046230BD002C0140B1
:1033800010B5406A0021C185C184FFF767F810BD00
:1033900001680C3151E8002F22F4907241E80023BB
:1033A000002BF5D10168143151E8002F22F0010201
:1033B00041E80023002BF5D1016B012909D10168F7
:1033C0000C3151E8002F22F0100241E80023002BBD
:1033D000F5D1202180F8421000210163704708B523
:1033E00090F84210222901D0022008BD82684FF4D3
:1033F00080539A4201D1016921B1816A9A421BD05E
:103400004AB10AE00268816A5268C2F308020A807F
:10341000816A891C08E0026972B10268526802F090
:103420007F020A70816A491C8162C18D491E0904AC
:10343000090CC18503D01BE002685268F1E70168FE
:10344000CA6822F02002CA600168CA6822F4807249
:10345000CA6001684A6922F001024A61202180F8AD
:10346000421000214163026B012A03D0FFF7DCF90F
:10347000002008BD016301680C3151E8002F22F0E3
:10348000100241E80023002BF5D101680A68D2063A
:1034900002D50A6849680091818DFEF7DEFFE7E7F3
:1034A00070B5044600680169E26821F44051114397
:1034B00001612169A0680843616908432168CA68FD
:1034C00041F20C639A430243CA6020684169A269D1
:1034D00021F44071114341611E492068884202D1A4
:1034E000FEF76EFB01E0FEF75BFB00EBC00101EBBA
:1034F0000012606864218000B2FBF0F3B3FBF1F3CB
:103500006FF018067343B2FBF0F5B2FBF0F605EB73
:103510008305322303EB0515B5FBF1F5B6FBF1F698
:1035200005F0F00505EB0615B2FBF0F6B2FBF0F086
:10353000B0FBF1F06FF01802504306EB800003EB94
:103540000010B0FBF1F0216800F00F002844886003
:1035500070BD00000038014081628285C285002173
:103560004164222180F84210016921B10168CA68D2
:1035700042F48072CA6001684A6942F001024A61FD
:103580000068C16841F02001C160002070472DE94A
:10359000F041984617460E460446069D27E0681CF3
:1035A00025D02DB1FEF77CF9A0EB0800A8421ED96A
:1035B00020680C3050E8001F21F4D07140E8001260
:1035C000002AF5D12068143050E8001F21F00101D5
:1035D00040E80012002AF5D1202084F8410084F848
:1035E0004200002084F840000320BDE8F0812068FC
:1035F000006836EA000004D00020B842CFD0002096
:10360000F3E70120F9E700000148FEF729BF0000B9
:10361000240800200148FEF723BF00006C080020AA
:10362000FEE7490050EAC12018BF04204A0D18BF28
:1036300040F0010040F2FF72B2EB515F08BF40F072
:103640000200012808BF052070470907090E00285D
:1036500004DB00F1E02080F80014704700F00F0058
:1036600000F1E02080F8141D704730380A2801D29C
:1036700001207047002070472DE9F04385B00024F9
:1036800079A16846FCF7D3FE784D00206E46315C88
:103690002955641C401CC0B2E4B20328F7D3744F10
:1036A00007F12408F87900EB400118F831000628EA
:1036B0000AD2DFE800F0090305303234312100E09E
:1036C00032212955641CE4B26AA13046FCF7AFFEF2
:1036D0000020315C2955641C401CC0B2E4B20428AF
:1036E000F7D366A16846FCF7A2FE0020315C29559D
:1036F000641C401CC0B2E4B20428F7D3F87900EB94
:10370000400108EBC100807801280AD002280AD0C5
:1037100003280CD132E03321D3E73421D1E735211E
:10372000CFE7412100E042212955641CE4B251A1B8
:103730006846FCF77CFE0020315C2955641C401C67
:10374000C0B2E4B20428F7D34EA16846FCF76FFE7E
:103750000020315C2955641C401CC0B2E4B207282B
:10376000F7D3F87900EB400108EBC100407801285D
:1037700006D0022806D0032808D172E04321D3E7FF
:10378000452100E046212955641CE4B239A1684670
:10379000FCF74DFE0020315C2955641C401CC0B272
:1037A000E4B20428F7D339A16846FCF740FE0020B4
:1037B000315C2955641C401CC0B2E4B20728F7D321
:1037C000F879B94600EB400008EBC0004746406876
:1037D00001F0C0FE02460B462EA16846FCF750FDE4
:1037E0000020315C2955641C401CC0B2E4B204289E
:1037F000F7D320A16846FCF71AFE0020315C29555A
:10380000641C401CC0B2E4B20428F7D323A168466C
:10381000FCF70DFE0020315C2955641C401CC0B231
:10382000E4B20528F7D399F807001EA100EB400089
:1038300007EBC000C2686846FCF722FD0020315C3F
:103840002955641C401CC0B2E4B20428F7D34FF6DB
:10385000FF73342205491448FFF728F805B0BDE886
:10386000F08347218FE7000069643A0018000020C8
:10387000EC000020202020203A00000061696D3A11
:1038800000000000736F757263653A0077656967C1
:1038900068743A00252E32660000000074696D6578
:1038A0003A000000256400006C080020012000F0B0
:1038B000A9F9FBE7FEF702F8FFF746FCFFF7CCF8A3
:1038C000FFF762F9FFF7A2F9FFF7D8F9FFF7F2F96E
:1038D00000F0B2F9FFF79EF800F0CAF9FEE7000029
:1038E00008214448FEF760FD0C214348FEF75CFDCB
:1038F00008214148FEF758FD012251033F48FDF7DA
:10390000CAFF00224FF400713D48FDF7C4FF394E55
:103910004FF47A773068C7633748C8210268D163AB
:1039200000680164374D384C4FF0010B05F1080A6F
:103930004FF00009A846207968B16868B84202D201
:10394000401C686001E038466F603168C863207AC7
:1039500001280BD026E031684846C1F83C90C5F8F4
:10396000049098F80220012A3CD03FE098F800002B
:10397000434618B96421012000F00CFE83F800B022
:10398000DAF80010491CCAF80010B1F5FA7F09D91D
:1039900084F80890CAF8009083F80090C8210120AC
:1039A00000F0F8FD607A012820D198F80100434624
:1039B00018B96421022000F0EDFD83F801B0DAF8B7
:1039C0000400401CCAF80400B0F5FA7F0ED984F850
:1039D0000990CAF8049083F80190C821022000F0F1
:1039E000D9FD03E03268D06388F80200012000F0BE
:1039F00009F9A0E7DC07002094070020001001402F
:103A0000000C014000000020EC0000202DE9FC41EA
:103A1000FFF742FA0124052108235EA2084600941C
:103A2000FFF717FB08255E4ECDE90054F27902231B
:103A300005215020FFF7D6FA08235AA20F210520AE
:103A40000094FFF706FB30680A27B0FBF7F2CDE9D8
:103A5000005403230F215020FFF7C4FA0122142140
:103A60006420FFF77DF93068CDE90054B0FBF7F131
:103A700007FB110201230F216620FFF7B3FA082389
:103A80004CA20F216E200094FFF7E3FA08234AA20C
:103A9000192105200094FFF7DCFA1820CDE9000475
:103AA0000C360123327823216420FFF79BFA082388
:103AB00046A2232105200094FFF7CBFA7078012855
:103AC00004D0022806D003280BD119E0082341A214
:103AD000009402E0082340A2009423213220FFF743
:103AE000B8FA08233DA22D2105200094FFF7B1FA72
:103AF000B078012808D002280AD003280FD144E06A
:103B0000082338A20094E8E7082337A2009402E0D3
:103B1000082336A200942D211E20FFF79AFA0823CD
:103B200033A2372105200094FFF793FA706801F063
:103B30009FFDCDE900540246022337213220FFF7D2
:103B400051FA01223C214120FFF70AF976683046FC
:103B500001F08EFD01F0ACFD314601F089FE2649F1
:103B600001F0BAFD01F084FDCDE9005402460223C4
:103B700037214320FFF736FA082320A237215020AF
:103B80000094FFF766FABDE8FC8108231CA20094AC
:103B9000C1E700007061636B6765204E756D3A0088
:103BA000EC00002073797374656D2074696D653A5B
:103BB00000000000730000002D2D2D2D5061636B5F
:103BC000676520496E666F2D2D2D2D00736F757200
:103BD00063653A00450000004600000061696D3AE7
:103BE000000000004700000041000000420000000B
:103BF0007765696768743A000000C8426B67000027
:103C00004300000010B5EFF3058149B9EFF31081CF
:103C100031B908490968022905D1EFF3118111B1C1
:103C20006FF0050403E0002408B100F0D3FE204645
:103C300010BD0000C4000020EFF3058058B9EFF379
:103C4000108040B909490868022801D030B109E064
:103C5000EFF3118030B16FF005007047012008606C
:103C6000002070474FF0FF3070470000C400002074
:103C700010B5EFF3058060B9EFF3108048B90B4938
:103C80000868022802D0012806D00BE0EFF311806B
:103C900040B16FF0050010BD0220086000F002FF87
:103CA000002010BD4FF0FF3010BD0000C400002008
:103CB000F0B585B04FEA01034FF00004EFF3058142
:103CC0000394A1BBEFF3108189BB21490968022944
:103CD00002D1EFF3118151BB48B3802618218DF832
:103CE000104004AD42B3176807B13D4697691FB154
:103CF00039467F1E382F02D21779FF0702D00020E5
:103D000005B0F0BD576907B1BE08D2F808C0BCF1D4
:103D1000000F0DD0D4685C2C18D312693AB137B1BA
:103D20008DE806103246294601F017FA03900DE09F
:103D3000D7685FB912694AB903AACDE90012B2B2D5
:103D4000294601F0DDF9012800D003940398D7E754
:103D5000C40000202DE9F041134C0F46054666696A
:103D60002068001D00F006FD681C07D137B12168EE
:103D7000BDE8F0410D48091D00F04CBD20683544F8
:103D8000B5424560216805D2A068BDE8F041091D33
:103D900000F028BD6068091D00F024FD206B8542FD
:103DA00000D22563BDE8F08174000020EC0D0020F6
:103DB0002DE9F041054600F039FD2D4C2069401CED
:103DC000206120682B4F10B1E06930B32BE02560F3
:103DD0002069012827D1002606EB860007EB80002A
:103DE00000F0F2FC761C382EF6D3234800F0ECFCF1
:103DF0002148143000F0E8FC1F48283000F0E4FCB3
:103E00001D483C3000F0E0FC1B48503000F0DCFC6A
:103E1000194860601430A06005E02068E96AC06A53
:103E2000884200D82560E06A401CE0626864E86A65
:103E3000A169884200D9A06100EB800007EB8000F7
:103E4000291D00F0E7FC00F011FDE06900280CD00E
:103E50002068E96AC06A884207D208494FF080505A
:103E60000860BFF34F8FBFF36F8FBDE8F081000094
:103E7000740000203C0900209C0D002004ED00E0AF
:103E800038B500F0D3FC104CA068C8B90F4800F05A
:103E90009BFC0E48143000F097FC0C482060143056
:103EA00060600A4B00202833009003F1500210217B
:103EB0000A2000F0C9FEA06010B105A100F054FD79
:103EC000BDE8384000F0D2BCB0000020000E002059
:103ED000546D72510000000030B4026C0B46002A91
:103EE0000BD0C1681144C1604468A14201D301688C
:103EF000C16030BC1846FCF7BEBA30BC70472DE933
:103F0000F041856B174604460026026C82B1C7B1AA
:103F1000E068FCF7B0FAE168206C091AE1602268F9
:103F2000914202D26168081AE060022F16D017E0B1
:103F30002068A8B9606801F0B3F906460020606007
:103F40000EE0A068FCF797FA216CA0680844A06016
:103F50006168884204D32068A06001E005B16D1E4D
:103F60006D1CA5633046BDE8F08110B5044690F89D
:103F7000590058B101280CD002280FD0502080F3EE
:103F80001188BFF34F8FBFF36F8FFEE7206B00F0F8
:103F900081FC2046BDE8104000F07CBC10BD000054
:103FA00010484FF4A051420706D0C01D0D4920F023
:103FB0000700411AC1F5A0510B4A00230144C2E990
:103FC00000030839103A21F0070111604B600B60C3
:103FD0000B1AC0E9001393604FF000405360D060AB
:103FE00070470000D0150020D8000020144E154C5A
:103FF000A6F29C474FF08058DFF84C9012E000BFCB
:1040000000F014FCF068C568281D00F0B3FB2069BF
:10401000401E2061E068401EE06000F027FC28465A
:10402000FFF7A3FFE0680028EAD138680128F9D932
:10403000C9F80080BFF34F8FBFF36F8FF2E7000026
:10404000D80D00207400002004ED00E070B51D467E
:10405000049C51B1C4F80020C4E90F01012120469D
:1040600000F026FE84F84C5070BD2460F4E72DE982
:10407000F0470E46DDE909841746824691009946CD
:10408000089DA522206BFCF73BFA6FF00301206B23
:1040900001EB8701084420F00707780707D050207C
:1040A00080F31188BFF34F8FBFF36F8FFEE72218A5
:1040B000315C82F83410315C11B1401C1028F6D309
:1040C000002684F84360382D00D33725E562C4E923
:1040D0001356201D00F083FB04F1180000F07FFB55
:1040E0002461C5F138006462A061666584F8586097
:1040F0004A465146384600F03BFA2060B8F1000FBE
:1041000001D0C8F80040BDE8F087000030B5114983
:1041100000E011460A688242FBD34B685C18844277
:1041200003D1406818444860084643681C1894420C
:1041300009D1084C103C2468A24209D052681A44A4
:1041400042600A6812680260814200D0086030BD97
:104150000460F9E7D800002070B5002441600B4DE1
:104160000061914206D8D11A8269914206D2011D9E
:10417000686807E09A4203D2994201D3012403E020
:10418000011D286800F02EFB204670BDB000002005
:1041900010B5044600F04AFBA06B28B15FF00004A4
:1041A00000F064FB204610BD0124F9E730B589B06A
:1041B000304D55E00498002806DADDE90601059A3D
:1041C0009047049800284BDB069C606910B1201DC5
:1041D00000F0D0FA02A800F0B9F8024604980A28C4
:1041E0003ED2DFE800F00505053D263705053D26F2
:1041F0000598A169034601442046FFF7ADFF00B3CF
:10420000616A20468847E069012829D10020009092
:104210000598A169002342181946204601F04AF981
:1042200078B9502080F31188BFF34F8FBFF36F8FA1
:10423000FEE70598A06128B1811813462046FFF7D4
:104240008BFF0DE0502080F31188BFF34F8FBFF339
:104250006F8FFEE794F82C0010B9204600F01AFB8F
:10426000002204A9A86800F075FE0028A2D109B0B8
:1042700030BD0000B00000202DE9FC410F4605468E
:1042800000F054FC01A800F061F80446019818B150
:1042900001F07EF8BDE8FC81224EAFB17068006885
:1042A000A8B30027291B3A46B06800F071FB01F063
:1042B0006FF80028EED11C494FF080500860BFF322
:1042C0004F8FBFF36F8FE5E7A542EBD801F060F8A1
:1042D00030682746C068C468201D00F04BFAE069CA
:1042E000012810D1A0692B4641193A462046FFF714
:1042F00033FF40B100200346014600902A46204685
:1043000001F0D8F820B1616A20468847C2E707E08B
:10431000502080F31188BFF34F8FBFF36F8FFEE7FC
:104320000127BFE7B000002004ED00E00648416827
:10433000096829B14168C968C9684968016370475B
:104340004FF0FF31FAE700007400002070B5054619
:1043500000F03CFF064E04463069844203D200F070
:1043600009F8012000E0002028602046346170BD7B
:10437000B0000020F8B5194D1FE0C068C468066899
:10438000201D00F0F7F9616A20468847E06901289E
:1043900013D1A0693044B04206D924616060211D68
:1043A000286800F01FFA08E000200346014600904C
:1043B0003246204601F07EF838B1286801680029AD
:1043C000DBD16968C5E90010F8BD502080F3118881
:1043D000BFF34F8FBFF36F8FFEE70000B0000020E8
:1043E00008484068401C4FF0500080F3118804D00A
:1043F000BFF34F8FBFF36F8FFEE7BFF34F8FBFF356
:104400006F8FFEE7E0000020074C2068016841B193
:10441000C0680021D0F80000FFF72EFFFFF7C6FEAE
:10442000F3E701210020F7E7B00000202DE9F0417B
:10443000044600F0FBF994F9455004F1240609E024
:10444000606A48B1304600F06BFF08B100F0F0FA46
:104450006D1E6DB2002DF3DC4FF0FF3684F8456021
:1044600000F004FA00F0E2F994F9445004F1100766
:1044700009E0206948B1384600F052FF08B100F069
:10448000D7FA6D1E6DB2002DF3DC84F84460BDE8F0
:10449000F04100F0EBB900002DE9F041054600279E
:1044A00000F044FB314E306808B9FFF779FDF06841
:1044B00005424BD1C5B3083568070ED005F007009B
:1044C000C0F108000544680707D0502080F3118828
:1044D000BFF34F8FBFF36F8FFEE72DB37068854238
:1044E00034D82248103001460C6801E020460C46C2
:1044F0006168A94202D221680029F7D131688C4253
:1045000024D007682168016060680837411B1029C2
:104510000FD96019420708D0502080F31188BFF3EB
:104520004F8FBFF36F8FFEE710E041606560FFF7CC
:10453000EDFD61687068401A7060B268904200D208
:10454000B060F06801430020C4E9000100F020FFE2
:10455000780707D0502080F31188BFF34F8FBFF347
:104560006F8FFEE73846BDE8F0810000C8000020EC
:1045700010B5031F4FF080741C601B1F21F0010158
:104580001960191F024B0B60143940380A6010BDC6
:10459000E1430008074A0128126807D0022807D023
:1045A000032802D104480068C1637047D163704793
:1045B0001164704794070020DC070020F0B5114E0D
:1045C0000021A6F124000123C47913E001EB41028C
:1045D00006EBC202557D5DB915690768BD4207D17A
:1045E000157D012D09D0022D09D0032D04D053755E
:1045F000491CC9B28C42E9D8F0BD0372F7E7437297
:10460000F5E7000010010020304D012291022846FC
:10461000FDF741F90122D40221462846FDF73BF976
:10462000012251022846FDF736F9FEF7AFFB0020C4
:10463000FEF774FB0020FEF77DFB0F22244925487E
:10464000FEF7E4F82249012212392348FEF7DEF88A
:104650004FF6FF73402221491E48FEF727F91F49F4
:10466000AA46091FA1461E480A271E4D1E4C4FF0A0
:104670000008012608602068B0FBF7F107FB110075
:1046800018B949465046FDF7FEF8FFF7BFF910216B
:104690002846FDF7F3F800B9267120212846FDF7DA
:1046A000EDF808B984F8048040212846FDF7E6F8C3
:1046B00000B9A67100F01AF8FFF780FF2068401CCF
:1046C00020606420FFF79EFAD5E700000008014053
:1046D000020300206C08002024080020180000209D
:1046E00000007041000C0140EC00002070B51F4933
:1046F000087A01282BD10025A1F10C040D72E07974
:104700000A7800EB400301F1180000F833208A78A2
:1047100000EBC300012A82704B7843704968416006
:104720002168C16014D0022A16D0032A19D00022B1
:104730004FF480610E48FDF7AEF800BFFEF79CFF16
:10474000E079401CC0B2E071142800D3E57170BD5F
:1047500050310161012102E09631016102210175B0
:10476000ECE701F2E73101610575E7E7F8000020A9
:1047700000080140D0E9013201699A60D0E90123C3
:104780005A604A68824201D182684A60002202610E
:104790000868401E0860086870470000034B03600B
:1047A00003F15C000860802010607047180F002043
:1047B000044B036003F15C0008604FF480701060EC
:1047C000704700007411002000F108014FF0FF3223
:1047D000C0E90112C1600161002101607047002140
:1047E0000161704730B50B685A1C02D000F1080215
:1047F00002E0026904E02246546825689D42FAD925
:1048000053684B6099608A60516008610168491C77
:10481000016030BD42684A6093688B60936859605C
:10482000916008610168491C01607047502080F365
:104830001188BFF34F8FBFF36F8F0A494868401C40
:10484000486001280CD10848006810F0FF0F07D01D
:10485000502080F31188BFF34F8FBFF36F8FFEE7B7
:1048600070470000E000002004ED00E008494868BF
:1048700028B1401E486001D180F311887047502054
:1048800080F31188BFF34F8FBFF36F8FFEE70000F7
:10489000E000002070B5002827D0144DA0F10804D6
:1048A0006168E868014207D1502080F31188BFF3A6
:1048B0004F8FBFF36F8FFEE722683AB1502080F32D
:1048C0001188BFF34F8FBFF36F8FFEE781436160A5
:1048D00000F02CF960686968084468602046FFF7BA
:1048E00015FCBDE8704000F053BD70BDC80000204D
:1048F0004FF0E02000210161816105494FF47A7297
:104900000968B1FBF2F1491E41610721016170475D
:104910007000002010B5FBF78FFC114910280ED352
:1049200000F1E02090F8F0030A78904207D250207E
:1049300080F31188BFF34F8FBFF36F8FFEE70948F5
:104940000068896800F4E060884207D9502080F34D
:104950001188BFF34F8FBFF36F8FFEE710BD0000CC
:10496000E00000200CED00E010B5084B002200BF75
:1049700053F832401CB1521C082AF9D310BD43F839
:10498000321003EBC201486010BD0000FC0800209B
:1049900070B515460E460446FFF748FF94F94410DB
:1049A0000020491C01D184F8440094F94510491CA9
:1049B00001D184F84500FFF759FFA06B28B92A46BA
:1049C000314604F1240000F051F82046BDE8704063
:1049D000FFF72CBD10B5020014D00F48806B38B122
:1049E000502080F31188BFF34F8FBFF36F8FFEE726
:1049F00000F09CF800211046FFF7ACF900F0C8FC6D
:104A0000002807D105494FF080500860BFF34F8F51
:104A1000BFF36F8F10BD00007400002004ED00E0B4
:104A200002498A6A02604969416070477400002047
:104A300001490120486270477400002010B50C46FF
:104A400050B1094909681831FFF7CCFE2046BDE88E
:104A500010400121FFF77EB9502080F31188BFF389
:104A60004F8FBFF36F8FFEE77400002070B51446C0
:104A70000D4668B10A4909681831FFF7CBFE0CB141
:104A80004FF0FF3521462846BDE87040FFF762B978
:104A9000502080F31188BFF34F8FBFF36F8FFEE775
:104AA0007400002030B587B00024039405AA04A93F
:104AB00003A80494FFF772FEDDE903010094CDE939
:104AC0000110002315A11748059A00F046FB164D6A
:104AD000002868631FD000F0BDFC012809D0401CED
:104AE00019D1502080F31188BFF34F8FBFF36F8F20
:104AF000FEE7502080F31188BFF34F8FBFF36F8F15
:104B00004FF0FF3028630120E8616C6107B0BDE819
:104B1000304000F045B807B030BD000049444C4576
:104B200000000000ED3F0008740000200248816B87
:104B3000491C81637047000074000020164810B5BE
:104B4000816B11B10121416210BD00214162816977
:104B5000124A01E0B9B1491E01EB810352F823303A
:104B6000002BF7D001EB810302EB830202F1080472
:104B700053685B685360A34201D15B685360DA6895
:104B80000260816110BD502080F31188BFF34F8F08
:104B9000BFF36F8FFEE70000740000203C09002087
:104BA0001CB5264908780190FF20087008788DF818
:104BB00000009DF800009DF8002000F0F0009042F9
:104BC00007D0502080F31188BFF34F8FBFF36F8F52
:104BD000FEE79DF800001A4B00F050001870072007
:104BE000986005E09DF8002052008DF80020401EDE
:104BF0009DF800201206F5D49860032807D05020B5
:104C000080F31188BFF34F8FBFF36F8FFEE74FF430
:104C100040709860019808700A48016841F470017A
:104C20000160016841F070410160FFF761FE002002
:104C30005860FBF7CBFA00201CBD000000E400E048
:104C4000E000002020ED00E038B5049D18B153B11C
:104C5000CAB181B120E0502080F31188BFF34F8F9B
:104C6000BFF36F8FFEE7502080F31188BFF34F8FA3
:104C7000BFF36F8FFEE7502080F31188BFF34F8F93
:104C8000BFF36F8FFEE739B1502080F31188BFF377
:104C90004F8FBFF36F8FFEE750241C46012384F82B
:104CA00046302B460094FFF7D1F9204638BD00006E
:104CB00070B50D46040025D0FFF7B8FDD4E90F20EC
:104CC000216802FB001161600021A1632168A160DD
:104CD0000A46D4E90F01401E00FB0121E160214694
:104CE0004FF0FF3001F8440F487004F110008DB10F
:104CF000FFF76AFD04F12400FFF766FDFFF7B6FD3C
:104D0000012070BD502080F31188BFF34F8FBFF397
:104D10006F8FFEE721690029F0D000F001FB002829
:104D2000ECD004494FF080500860BFF34F8FBFF3C1
:104D30006F8FE3E704ED00E02DE9FF4782B01D46E9
:104D40008A464FF00008040003D0BAF1000F08D0E3
:104D500011E0502080F31188BFF34F8FBFF36F8FA6
:104D6000FEE7206C38B1502080F31188BFF34F8FDD
:104D7000BFF36F8FFEE7022D0AD1E06B012807D049
:104D8000502080F31188BFF34F8FBFF36F8FFEE782
:104D900000F00EFA3F4F4FF000094FF0805648B92F
:104DA000049838B1502080F31188BFF34F8FBFF3C0
:104DB0006F8FFEE7FFF73AFDA06BE16B884207D3E8
:104DC000022D05D00498D0B1B8F1000F1AD01EE022
:104DD0002A4651462046FFF792F8616A19B104F15C
:104DE000240000F09DFA20B13E60BFF34F8FBFF367
:104DF0006F8FFFF73BFD012006B0BDE8F087FFF79E
:104E000035FD22E06846FFF70BFE4FF00108FFF783
:104E10002DFDFFF78BFEFFF709FD94F94400401CC0
:104E200001D184F8449094F94500401C01D184F8E4
:104E30004590FFF71BFD04A9684600F027F930B143
:104E40002046FFF7F3FA00F0A3FA0020D4E7FFF7BB
:104E5000EDFCA06BE16B884213D1FFF707FD04F175
:104E600010000499FFF7EAFD2046FFF7DFFA00F093
:104E70008FFA00289ED13E60BFF34F8FBFF36F8F34
:104E800098E7FFF7F3FC2046FFF7D0FA00F080FA2E
:104E900090E7000004ED00E02DE9F0471F46904642
:104EA0008946040003D0B9F1000F08D011E050206A
:104EB00080F31188BFF34F8FBFF36F8FFEE7206C35
:104EC00038B1502080F31188BFF34F8FBFF36F8F3D
:104ED000FEE7022F0AD1E06B012807D0502080F3B3
:104EE0001188BFF34F8FBFF36F8FFEE7FFF712FDFF
:104EF0005020EFF3118680F31188BFF34F8FBFF37B
:104F00006F8FA06BE16B884206D3022F04D0002084
:104F100086F31188BDE8F08794F945503A46494632
:104F20002046FEF7ECFF681C04D06D1C84F8455049
:104F30000120EDE7606A0028FAD004F1240000F0B7
:104F4000EFF90028F4D0B8F1000FF1D00121C8F832
:104F50000010EDE72DE9F747002683B08A460400EC
:104F600003D0BAF1000F08D011E0502080F311886F
:104F7000BFF34F8FBFF36F8FFEE7206C38B1502027
:104F800080F31188BFF34F8FBFF36F8FFEE700F000
:104F90000FF9DFF8F4804FF000094FF0805748B95F
:104FA000059838B1502080F31188BFF34F8FBFF3BD
:104FB0006F8FFEE7FFF73AFCA56BC5B1514620465F
:104FC000FEF78AFF6D1EA563206950B104F1100041
:104FD00000F0A6F928B1C8F80070BFF34F8FBFF3F7
:104FE0006F8FFFF743FC012006B0BDE8F0870598FE
:104FF00008B11EB106E0FFF739FC27E06846FFF76D
:105000000FFD0126FFF732FCFFF790FDFFF70EFCC6
:1050100094F94400401C01D184F8449094F945006F
:10502000401C01D184F84590FFF720FC05A9684693
:1050300000F02CF8002820460AD0FFF7F7F900F01E
:10504000A7F92046FFF7A4F80028B3D00020CBE74B
:10505000FFF79EF890B104F124000599FFF7EEFCEC
:105060002046FFF7E3F900F093F90028A2D1C8F831
:105070000070BFF34F8FBFF36F8F9BE72046FFF7A2
:10508000D5F900F085F995E704ED00E02DE9F04150
:105090000C46050011D0C4B1FFF7C8FB174B5A6985
:1050A0006E682068911B471C17D02F689B6A9F422F
:1050B00019D0964217D8012410E0502080F31188AF
:1050C000BFF34F8FBFF36F8FFEE7502080F311883F
:1050D000BFF34F8FBFF36F8FFEE70024FFF7C6FBD0
:1050E0002046BDE8F081884205D9401A2060284654
:1050F000FFF796FCF1E700202060DCE77400002059
:105100002DE9FF5F8346DDE90E87994616468A46FC
:105110009000FFF7C1F905001CD05C20FFF7BCF937
:10512000040014D00020256384F85900CDE9024022
:10513000CDE900874B46324651465846FEF797FF69
:105140002046FEF735FE012004B0BDE8F09F28465A
:10515000FFF7A0FB4FF0FF30F6E7F0B585B0DDE9D3
:105160000B640A9DA6B1DCB15C270097266302267A
:1051700084F85960002604AFCDE90246CDE9005716
:10518000FEF775FF2046FEF713FE049805B0F0BD4C
:10519000502080F31188BFF34F8FBFF36F8FFEE76E
:1051A000502080F31188BFF34F8FBFF36F8FFEE75E
:1051B0000548C16919B1806B18B100207047012002
:1051C00070470220704700007400002001484069C9
:1051D00070470000740000202DE9F0412E4C00279C
:1051E000A06B40B1206A401C2062606A00B10127B8
:1051F0003846BDE8F0816669761C666113D1606847
:10520000006838B1502080F31188BFF34F8FBFF38F
:105210006F8FFEE76068A1686160A060A06A401CB3
:10522000A062FFF783F8206BDFF87080864209D315
:105230006068006880B16068C068C5686868864258
:105240000DD220632068C06A00EB800158F821006D
:105250000128CAD90127C8E74FF0FF30F1E7281D20
:10526000FFF788FAA86A18B105F11800FFF782FA6B
:10527000E86AA169884200D9A06100EB800108EBCF
:105280008100291DFFF7C6FAE86A2168C96A8842C9
:10529000CED30127CCE70000740000203C09002099
:1052A00070B504004FF0000133D01B4D28688442D4
:1052B00007D0502080F31188BFF34F8FBFF36F8F5B
:1052C000FEE7206D38B1401E2065E36CE26A9A4229
:1052D0001FD040B11DE0502080F31188BFF34F8FE5
:1052E000BFF36F8FFEE7201DFFF744FAE06CE0622A
:1052F000C0F13800A061E06AA969884200D9A861BC
:10530000064900EB800001EB8000211DFFF782FAC7
:105310000121084670BD0000740000203C090020F7
:1053200070B5C068C46854B104F118000646FFF7B0
:1053300021FA144DA86B50B13146134815E05020A6
:1053400080F31188BFF34F8FBFF36F8FFEE7201DEF
:10535000FFF710FAE06AA969884200D9A8610B49F1
:1053600000EB800001EB8000211DFFF753FAE06A9B
:105370002968C96A884202D90120686270BD00208C
:1053800070BD000074000020C40D00203C09002006
:105390002DE9F0472C4D00242746A86B38B1FFF7C4
:1053A00045FAA86B401EA863A86B40B146E05020A8
:1053B00080F31188BFF34F8FBFF36F8FFEE729692A
:1053C000224E0120D1B3A6F5916980463068E0B144
:1053D000F068C46804F11800FFF7CCF9201DFFF74E
:1053E000C9F9E06AA969884200D9A86100EB800187
:1053F00009EB8100211DFFF70DFAE06A2968C96AEF
:105400008842E3D3C5F82480E0E70CB1FEF78EFFB5
:105410002C6A4CB14FEA0806FFF7DEFE00B16E625F
:10542000641EF9D100202862686A38B10849012752
:1054300038070860BFF34F8FBFF36F8FFFF716FA7F
:105440003846BDE8F087000074000020C40D00203D
:1054500004ED00E010B586B0FEF712FD114CA06817
:10546000B8B100200390049005AA04A903A8FFF78F
:105470009FF9DDE9032102208DE8070000230AA13E
:105480000B48059AFFF769FEE06010B106B00120F5
:1054900010BD502080F31188BFF34F8FBFF36F8F83
:1054A000FEE70000B0000020546D722053766300C8
:1054B000094400082DE9FF411E46134602000A9DDB
:1054C0004FF0000016D0144CA768002F0FD0CDE984
:1054D00000130292062917DAFFF76AFE02284FF03E
:1054E00000030FD000226946A068FFF725FC04B036
:1054F000BDE8F081502080F31188BFF34F8FBFF3D8
:105500006F8FFEE72A46EEE70023324669463846AB
:10551000FFF7C2FCEBE70000B000002010B5002947
:105520000AD00878002807D005487844FBF722FC09
:10553000002801D0002010BD0248784410BD0000B2
:10554000C6230000BE2300000808A0F500114FEAA2
:105550003101704743004FEAD30C4FEA3C0C434003
:105560001FBF40070CF1605113F0FE4F70471CF055
:10557000006F03D100200CF0004170470CF0004395
:1055800043EA507010B540EACC0000F026F900BFA5
:10559000000000924FEA0001FFF7D6BF4FF0004134
:1055A0004FF00000A1F500217047000090EA010FC4
:1055B00048BF81F0004100F16C81421A3CBF801A63
:1055C00089184FEAD0524FF07F4C1CEA410FA2EBF2
:1055D000D15318BF9CEA026F00F03B804FF0004CA3
:1055E0004CEA00204CEA012121FA03FC10EB0C0CE0
:1055F0001ED202F1FF325FEA1C2040EBC25038BFDE
:1056000070471CF07F0F4FEA400C18BFBCF17F4F72
:1056100038BF7047C3F12003994008BF20F0010054
:10562000BCF17F4F38BF7047A0F1C04000F01BB9FC
:105630004FEA3C00000A40EBC25028BF1CF0FF0FAD
:105640004FEA400CE6D018BFBCF17F4F38BF70471F
:10565000EAE79CEA026F05D010EA5C0F08BF00F091
:105660000040704710B500F0B8F800BF64FBBE3EC4
:10567000C10DD1F19E0206DB4FEA002343F0004347
:1056800023FA02F07047004207D54FEA4001B1F11A
:10569000FE4F02D24FF00000704710B500F09DF8A9
:1056A00049922480002070476FEA20007047000074
:1056B000B0FA80F310FA03F2C3F19D030AD0D905C2
:1056C00001EB1220530638BF704700F1010008BFFC
:1056D00020F00100704700004FF47F0C1CEAD0124C
:1056E0001EBF1CEAD11392EA0C0F93EA0C0F00F0D4
:1056F000478090EA010F48BF42F480724FF0004C9F
:105700004CEA00204CEA012102EB0302A0FB01134A
:10571000A2F50002002918BF43F001035B0028BF77
:105720004FEA330342EB22425FEA132C4CEBC250A8
:105730002EBFBCEB436FB2F57C0F70474FEA036C92
:10574000BCF1004F08BF20F00100B2F57C0F38BF5C
:1057500070470BD582F0FF0212F5803FC8BF70473B
:1057600000F1C040D8BF00F00040704700F5000CC9
:105770005FEA4C0C48BF7047B0F1C04000F073B80E
:1057800090EA010F0CEAD11348BF42F480726245DF
:1057900038BF634504D280EA010000F00040704742
:1057A00010B500F01AF800BF8900013E00F007B8FC
:1057B00000F009B85FEA410C5FEA1C6C08D080EA8F
:1057C000010000F050B85FEA400C5FEA1C6CF6D1B3
:1057D0004FF00040A0F5800070470EF1020E2EF051
:1057E000030E5EF8044B244204D44FEA4102B2F1A6
:1057F0007F4F11D84FEA4003B3F17F4F0CD80ED141
:105800004FEAD07CB2F17F4F0CEB4C0C0CF1020C48
:1058100008BF4CEBD17C04E04FF0080C01E04FEAEC
:10582000D17C0CEB4C0324FA03F404F00704B4F12C
:10583000040C06D20EEB840CBDE810404CF0010CB9
:105840006047DFE80CF0070802024FF00040A0F5C7
:10585000800010BD0846420018BFD2F1807288BF98
:1058600000F0004010BDFF2141EAD050C005704754
:1058700080F0004090EA010F7FF59FAE81F000417B
:1058800000F007B890EA010F48BF81F000413FF5F2
:1058900094AE421A04D882F00042A0EB02001144F8
:1058A0004FEAD0524FF07F4C1CEA410FA2EBD1538C
:1058B00018BF9CEA026F4AD04FF0004C4CEA00201F
:1058C0004CEA012121FA03FCB0EB0C0C0FD412F0CE
:1058D000FE0F36D05FEA4C001DD5001240EBC250DF
:1058E00038BF70471CF03F0F18BF70470BE0A2F1A4
:1058F00001025FEA1C2040EBC25038BF70471CF029
:105900007F0F18BF7047C3F12003994014BF401E9A
:1059100020F00100704780084FEA122308BF70474B
:10592000B0FA80FCA2EB0C02CCF1280C60FA0CF06F
:1059300093EA122F04BF00EBC25070474FEAC370C6
:105940007047130A5FEADC1008BF7047F6E79CEA6D
:10595000026F04D010EA5C0F08BF0020704710B53A
:10596000FFF73BFF40DFF63E81F000407047FAF75B
:105970002BBF0000000000000000002F000000000E
:105980000700070000147F147F1400242A7F2A12C6
:1059900000626408132300364955225000000503B5
:1059A000000000001C224100000041221C000014E5
:1059B000083E08140008083E0808000000A0600027
:1059C00000080808080800006060000000201008B7
:1059D0000402003E5149453E0000427F4000004223
:1059E00061514946002141454B31001814127F1086
:1059F000002745454539003C4A49493000017109B5
:105A0000050300364949493600064949291E000068
:105A1000363600000000563600000008142241000F
:105A2000001414141414000041221408000201513F
:105A3000090600324959513E007C1211127C007F48
:105A400049494936003E41414122007F4141221CE3
:105A5000007F49494941007F09090901003E414948
:105A6000497A007F0808087F0000417F410000203C
:105A700040413F01007F08142241007F40404040E8
:105A8000007F020C027F007F0408107F003E41412E
:105A9000413E007F09090906003E4151215E007F19
:105AA000091929460046494949310001017F010190
:105AB000003F4040403F001F2040201F003F403833
:105AC000403F006314081463000708700807006172
:105AD0005149454300007F41410000552A552A5550
