:020000040800F2
:10000000E84800203D020008ED570008755200083E
:10001000E9570008A9190008B568000800000000A9
:10002000000000000000000000000000A501000822
:100030006323000800000000E9010008015F0008D8
:10004000570200085702000857020008570200082C
:10005000570200085702000857020008570200081C
:10006000570200085702000857020008570200080C
:100070005702000857020008AD190008BD19000812
:10008000CD190008DD1900085702000857020008C2
:1000900057020008570200085702000857020008DC
:1000A000570200089D5F0008570200085702000829
:1000B00057020008570200085702000857020008BC
:1000C00057020008570200085702000857020008AC
:1000D000570200088568000895680008A5680008B0
:1000E00057020008570200085702000800F002F803
:1000F00000F048F80AA090E8000C82448344AAF17A
:100100000107DA4501D100F03DF8AFF2090EBAE877
:100110000F0013F0010F18BFFB1A43F0010318473B
:10012000BCB60000DCB60000103A24BF78C878C125
:10013000FAD8520724BF30C830C144BF04680C60ED
:10014000704700000023002400250026103A28BF35
:1001500078C1FBD8520728BF30C148BF0B60704739
:100160001FB500F021FD0400002000210AF0DEFA96
:10017000401C6060002000210AF0C2FAE0601FBD50
:1001800010B510BD00F034FA1146FFF7E9FF07F093
:10019000E9FE00F07BFA03B4FFF7F2FF03BC00F0C6
:1001A00079FD0000224B19680868B0E8F00F80F371
:1001B0000988BFF36F8F4FF0000080F311884EF075
:1001C0000D0E70470000000006480068006880F3CC
:1001D000088862B661B6BFF34F8FBFF36F8F00DF41
:1001E00000BF00BF08ED00E0EFF30980BFF36F8FA1
:1001F0000F4B1A6820E9F00F106008B54FF050005F
:1002000080F31188BFF34F8FBFF36F8F09F0ACFB02
:100210004FF0000080F31188BDE8084019680868B5
:10022000B0E8F00F80F30988BFF36F8F704700BF0D
:100230001C000020EFF3058070470000094880474C
:1002400009480047FEE7FEE7FEE7FEE7FEE7FEE7B8
:10025000FEE7FEE7FEE7FEE704480549054A064BD0
:10026000704700009B5F0008ED000008E842002096
:10027000E8480020E8440020E8440020B2F12003D0
:100280000AD5C2F1200320FA02F001FA03F321FAA1
:1002900002F140EA0300704721FA03F04FF0000139
:1002A0007047401ECAB210F8011F8A4202D00029CE
:1002B000F9D10020704710B5431C02E010F8011B73
:1002C00071B18107FAD14FF0013202C88C1A8C4308
:1002D00014EAC211F9D0C01A0A0603D0C01E10BD1C
:1002E000C01A10BD0A0401D0801E10BD0902FCD046
:1002F000401E10BD032A40F2308010F0030C00F0C5
:10030000158011F8013BBCF1020F624498BF11F84F
:1003100001CB00F8013B38BF11F8013BA2F1040208
:1003200098BF00F801CB38BF00F8013B11F0030380
:1003300000F02580083AC0F0088051F8043B083AE4
:1003400051F804CBA0E80810F5E7121D5CBF51F886
:10035000043B40F8043BAFF30080D20724BF11F800
:10036000013B11F801CB48BF11F8012B24BF00F865
:10037000013B00F801CB48BF00F8012B704710B5D6
:10038000203AC0F00B80B1E81850203AA0E818508D
:10039000B1E81850A0E81850BFF4F5AF5FEA027C4E
:1003A00024BFB1E81850A0E8185044BF18C918C0BD
:1003B000BDE810405FEA827C24BF51F8043B40F85E
:1003C000043B08BF7047D20728BF31F8023B48BF43
:1003D00011F8012B28BF20F8023B48BF00F8012B81
:1003E000704702F0FF0343EA032242EA024200F0B0
:1003F00084B84FF0000200B5134694469646203963
:1004000022BFA0E80C50A0E80C50B1F12001BFF4CD
:10041000F7AF090728BFA0E80C5048BF0CC05DF833
:1004200004EB890028BF40F8042B08BF704748BF81
:1004300020F8022B11F0804F18BF00F8012B7047F5
:100440004FF0013C50F8042B51F8043B9A4221D163
:10045000A2EB0C03934313EACC1317D150F8042BEF
:1004600051F8043B9A4215D1A2EB0C03934313EAD3
:10047000CC130BD150F8042B51F8043B9A4209D10C
:10048000A2EB0C03934313EACC13DBD04FF0000034
:10049000704700BFD01A01BAB1FA81F101F018011A
:1004A00022FA01F0CB40C1F12001DBB2C0B2C01A88
:1004B0002CFA01F3D11A914311EAC311E6D1704726
:1004C00070477047704710B500F038F8006810BDED
:1004D00010B5044600F032F8046010BD7CB5054646
:1004E00000236846CDE9003300F04AF86946284603
:1004F00007F038F97CBD4FF000020429C0F01280EB
:1005000010F0030C3FF477AFCCF1040CBCF1020FF8
:1005100018BF00F8012BA8BF20F8022BA1EB0C019B
:10052000FFF769BF5FEAC17C24BF00F8012B00F828
:10053000012B48BF00F8012B7047000000487047AE
:10054000844200200FB4002300B589B00CA90091AB
:100550000B99CB60214B7B440693214B7B44079343
:1005600004236FF00042CDE901321E4A7A446B4603
:100570000892024600200AF0C1FE09B05DF814FBA3
:1005800070B506464FF0FF3015460C46324686B031
:100590000091CDE9010169460020049004A8FFF70D
:1005A000D1FF02460498211825B108B1084600E0A1
:1005B00020462860049800280DD0002A02DD00980B
:1005C000884208D03246081B69460094CDE90104F0
:1005D00004A8FFF7B7FF06B070BD0000F3000000ED
:1005E0000B010000CB00000000487047844200204F
:1005F0007546FFF7F9FFAE4605006946534620F001
:100600000700854618B020B5FFF726FEBDE820405C
:100610004FF000064FF000074FF000084FF0000BBE
:1006200021F00701AC46ACE8C009ACE8C009ACE871
:10063000C009ACE8C0098D46704710B5044600F00B
:100640002FF80068005D00F0010010BD426842B163
:10065000016811F8013B23B1521EC0E9001218468F
:1006600070470121C160881E704742685AB1C36853
:10067000016843B983688B4205D0491E521CC0E90A
:100680000012002070474FF0FF30704710B504464D
:10069000AFF300802046BDE81040FFF77CBD0000AE
:1006A00010B500F081FA001D10BD00BF81A0000050
:1006B0002DE9FF4F06468BB00878FF2806D0491C6D
:1006C0002D2805D000244FF0000908E000200CE0A0
:1006D0000124F8E709EB8903491C00EB430908787A
:1006E000FF28F7D114B1C9F1000081461078002528
:1006F0002C46AA4629462D2801D02B2804D1521C6D
:100700002D2813D0002082468B461078FF280FD06A
:100710004FF0000C0A21521CA5FB017804FB01815B
:1007200005FB0C11C5194BEB0104EEE70120EAE7CC
:10073000002108464FF00000BAF1000F02D000EB94
:1007400080004008C0F38157012F01DD4FF0FF37D3
:100750000E9955EA040009EB01080BD04FF002098D
:1007600018F5FA7F16DA4FEACA70002F706008DDBC
:10077000012007E04FEACA70C6E900B00FB0BDE83B
:10078000F08F00203060FFF7D9FEC0F800901821EC
:10079000084616E0B8F5FA7F18DD002F02DAF748B0
:1007A000784401E0F6487844D0E90010C6E900102A
:1007B00040EACA707060FFF7C1FEC0F800901421D3
:1007C00008460FB0BDE8F04F0AF00FBD0021084603
:1007D0004FF00000B8F10001099002DAC7F1000201
:1007E00000E03A4601DAC8F1000106A800F0E0F99D
:1007F00006AB93E8070003AB83E8070044F23E0032
:100800005BEA04010090584604D144F21E012C46D4
:100810005D460091210C0904014306D1009924048E
:1008200044EA15442D041039009104F07F4101433E
:1008300006D10099240244EA15642D02083900917A
:1008400004F07041014306D10099240144EA157473
:100850002D01091F009104F04041014306D1009988
:10086000A40044EA9574AD00891E009104F0004193
:10087000084304D100986D196441401E00904FF068
:1008800001033A466846B8F1000FCDE9014503A9D6
:1008900002DD00F0DCFE01E000F0AFFEBAF1000F77
:1008A00004460D4601D084F00044002108464FF074
:1008B0000000099940F2FF77484010F00C0F07D173
:1008C00024F00040284303D0C4F30A50B84212D1A8
:1008D000FFF734FEC0F80090C4F30A50B8420AD1C2
:1008E000A8487844D0E90010C6E9001004F000419F
:1008F0000843706042E7C6E900543FE72DE9FF4F27
:100900001F464FF0000A4FF0FF38454691B0D7E937
:100910000146CDF83CA000F047F9C0680168405C92
:100920001090B96912986D1C8847396A81468847CA
:100930000028F6D1B9F1FF3F0AD0002E24F4D0648C
:1009400011DDB9F12B0F08D0B9F12D0F0BD102E059
:10095000404615B013E744F48064B96912986D1CE1
:100960008847761E8146600504A901D52D2000E048
:100970002B20002E01F1010B0DF130088DF8100035
:100980003FDDB9F1690F08D0B9F1490F05D0B9F1D0
:100990006E0F02D0B9F14E0F1CD13B4601A8009555
:1009A00080E85002DDE912126FF002000AF0AAFCA2
:1009B000C11CCED10EE0B96912986D1C88478146E2
:1009C0001398761E44F4007405600F98401C002EA6
:1009D0000F9016DDB9F1300FEDD0B9F1780F02D0DC
:1009E000B9F1580F0DD10F9801280AD13B46CDE936
:1009F0000054DDE91212001F02960AF081FCC11CAE
:100A0000A7D1109989453ED144F0800406E013999E
:100A1000681CAAF1010A44F400740860B9696D1CED
:100A20001298761E884730288146F0D02BE0109926
:100A3000894505D1200603D4761E44F0800418E0D1
:100A4000484606F0B4FF08B3761E0DF123018B452E
:100A500044F4007408D2A9F130000BF8010B200611
:100A600007D5AAF1010003E0200602D40AF1010033
:100A70008246A00502D51399681C0860B9691298CE
:100A80006D1C88478146002ED1DC53E0002E51DDDD
:100A9000B9F1650F02D0B9F1450F4BD1A00549D589
:100AA000B9696D1C1298761E24F440748847002E94
:100AB00081460CDD2B2804D0B9F12D0F07D144F469
:100AC0008074B96912986D1C8847761E8146E005CE
:100AD00001D52D2100E02B2108F8011BCDF8008065
:100AE00021E0761E0DF13901884544F400740CD2E2
:100AF000A9F1300010F0FF0088F8000002D1009941
:100B0000884509D908F1010806E0E00501D51E482D
:100B100001E042F20F708246B96912986D1C884755
:100B2000814613980560002E04DD484606F03FFF1D
:100B30000028D6D1F96912988847FF2053468BF8D0
:100B4000000088F8000000200A900B9004AA0CA96D
:100B50000AA8FFF7ADFDA00502D46FF00100F8E68A
:100B600014F0240F12D0E0071CD13868DDE90A1216
:100B7000031D3B600068C0E9001213E060B0000094
:100B800052B0000016AF0000F1D8FFFF0AA9684676
:100B900006F0E8FDE00705D13868009A011D3960CC
:100BA000006802602846D4E600487047A44200204E
:100BB0002DE9F047814616468AB0354878440DC87D
:100BC0008DE80D0032487844801C03AC0DC884E8E1
:100BD0000D0041F69B300844372190FBF1F290FB69
:100BE000F1F5A5F1800501FB12041B3C02D564421E
:100BF000012000E00020DFF898A080460027FA449A
:100C0000AAF1BE0A0EE0E0070AD03246684607EBBA
:100C1000470101230AEB810100F004FD8DE8070084
:100C200064107F1C002CEED1194F7F44AE3F19E0B9
:100C3000E80715D007EB04100DF1180A90E80E0034
:100C40008AE80E00C068F04201D198190890324637
:100C5000012306A903A800F0E5FC03AB83E8070025
:100C60006D10641C002DE3D14FF00103324669463C
:100C7000B8F1000F03A802D000F0AAFC01E000F0D8
:100C8000D1FCC9E90001C9F808200AB0BDE8F08725
:100C9000E0AB000001491820ABBEFEE726000200D1
:100CA0002DE9FF4F1F464FF03C0987B04FF000423F
:100CB000DDE9141001F10108DDF858A002EA405006
:100CC0000390002005908346054604460490B969C8
:100CD000461E08988847AAF1010A0290BAF1000F4F
:100CE0003BDD02982E2815D0102100F017FA0028BD
:100CF0002EDB4FF0010B0599014317D0B9F1000F1E
:100D00000BDB4A46C11700F0F6F905430C43A9F185
:100D1000040905E0012004900BE008B145F001054D
:100D200001200590049820B9361D02E0049800B116
:100D3000361FB969089808F101088847BBF1000F10
:100D4000AAF1010A0290C9D00999C1F80080C5E74B
:100D50000298702808D0502806D0F969089888476A
:100D6000BBF1000F14D04FE0002002900120BBF136
:100D7000000F049009D0B969089808F10108884764
:100D8000AAF10109B9F1000F07DCF9690898884751
:100D90006FF001000BB0BDE8F08F2B2804D02D2898
:100DA0000CD14FF0FF300490B969089808F10108A0
:100DB0008847A9F10109B9F1000FE6DD411CE4D033
:100DC0000A2100F0ABF90028DFDB029908F10108E5
:100DD00001EB810100EB41000290B9690898884756
:100DE0000A2100F09BF9099AA9F10109B9F1000F54
:100DF000C2F8008001DD0028E7DAF9690898884721
:100E00000499029800FB016655EA040004D004F03E
:100E10004041090002D006E0039898E0A40044EAAB
:100E20009574AD00B61E04F00041080002D16D19A2
:100E30006441761E159810F0240F03D04FF00B0973
:100E40005C4803E04FF028096FF07D00824656456C
:100E500007DAAAEB06018944B9F1410F01DD4FF031
:100E6000410901200021A9F1010200F044F90246E4
:100E700028400B462140084301D0012100E0002119
:100E8000501E029143F1FF3128402140084301D018
:100E9000012000E000200299834651EA0B014FD067
:100EA000002108464FF00000039900F4400039B1DA
:100EB00000EB80004FF4400100EBD07001EA6000CD
:100EC0008015012802DD4FF0FF3000E013D0401CF8
:100ED00036D0029860B3BBF1000F0CD14A46012016
:100EE000002100F008F928402140084301D00120EA
:100EF00000E00020E0B101204A46002100F0FBF8AC
:100F0000034640190A4661412D1A8C4111D3B9F1AB
:100F1000400F09DD159810F0240F02D0AAF1340615
:100F200003E0AAF1170600E0761C00254FF000440C
:100F300006E05B1E42F1FF3220EA030521EA0204CB
:100F4000CAF10100B04206DA1B4903980843019038
:100F5000002000900EE0039AC4F3D321E80A0A436C
:100F6000164940EA44500A433146CDE9000268463A
:100F700006F012FD159810F0240F0BD01598C0073D
:100F800015D13868DDE90012031D3B600068C0E937
:100F900000120CE002A8694606F0E4FB1598C007B1
:100FA00005D13868029A011D396000680260404628
:100FB000F0E6000002FCFFFF0000F07F0000F03FC1
:100FC0002DE9FF4F92461D4685B04FF00041DDE907
:100FD000124BDDE914727F1E01EA4B50414940F08B
:100FE000FF4940EA0108002122F02000492804912D
:100FF00002D04E2828D04CE03BA0012607C88DE83F
:101000000700A9690698641C88477F1E014606D41C
:101010001DF8060018B121F0200181420BD0E969CA
:1010200006988847032E34D0082E32D06FF0010086
:1010300009B0BDE8F08F761C032E01D0082EE0D158
:10104000601CCAF80000DCE7A9690698641C8847A0
:101050007F1E2AD420F02000412826D1A9690698B5
:10106000641C88477F1E20D420F020004E281CD10D
:10107000A9690698641C88477F1E48F4002849F433
:101080008009CAF8004001D4282806D0E9690698EA
:1010900088475FEACB7012D022E0A9690698641CE9
:1010A00088477F1E01D4002803DAE969069888473B
:1010B000BCE72928F1D1641CCAF80040E9E71BF01D
:1010C000240F07D028680499031D2B600068C0E92D
:1010D000001805E02868021D2A600068C0F800902A
:1010E0002046A5E70000F07F494E46494E49545935
:1010F000000000007047B2F120030AD5C2F12003BE
:1011000001FA02F120FA03F300FA02F041EA0301C6
:10111000704700FA03F14FF0000070473A2800D200
:10112000303820F02002412A01D3A2F13700884252
:1011300001D34FF0FF30704720F07F4C80EA03006E
:1011400023F07F47ACEB070303F57C5300F000402E
:1011500003F1FF032DE980494FEA154B09B44FEA2B
:10116000144325EA0B4E24EA03480FF2042606EB4B
:10117000132749083E785FEA320203FB0667C7F58A
:10118000000707FB06F64FEA54374FEAD64606F14A
:10119000020607FB066CCCF1005C4FEA1C472CEA08
:1011A000074C07FB06F40CFB06F504EB15464FEA6B
:1011B000961634BF00204FF000404FEAD13706FBAF
:1011C00007FC4FEA1C4C0CFB0BF7D21B03FB0CF784
:1011D00061EB07010CFB0EF7B0EB074072EB174217
:1011E0000CFB08F734BFA2EB0742B2EB074261EBFE
:1011F00017414FEA0C444FEA910706FB07FC4FEA00
:101200001C4C0CFB0BF7B0EBC74072EB573203FBE7
:101210000CF734BFA2EBC742B2EBC74261EB5731C8
:101220000CFB0EF7B0EBC70072EB57720CFB08F724
:1012300034BFA2EBC702B2EBC70261EB5771039F49
:101240004FEA816141EA921104EBCC044FEAD137B5
:101250004FEA826206FB07FC42EA90124FEA806086
:101260004FEA1C4C0CFB0BF7D21B03FB0CF761EB9A
:1012700007010CFB0EF7B0EB074072EB17420CFBBB
:1012800008F734BFA2EB0742B2EB074261EB17410C
:101290004FEA8C554FEA910704EB9C2406FB07FCB0
:1012A0004FEA1C4C0CFB0BF7B0EBC74072EB57320C
:1012B00003FB0CF734BFA2EBC742B2EBC74261EBB2
:1012C00057310CFB0EF7B0EBC70072EB57720CFBFB
:1012D00008F734BFA2EBC702B2EBC70261EB57714C
:1012E00015EB4C254FEA816141EA92114FEA826287
:1012F0004FEAD13742EA901206FB07FC44F10004A2
:101300004FEA80604FEA1C4C0CFB0BF7D21B03FB2F
:101310000CF761EB07010CFB0EF7B0EB074072EB2B
:1013200017420CFB08F734BFA2EB0742B2EB0742AF
:1013300061EB174115EB1C154FEA813141EA9241EF
:101340004FEA823242EA90424FEA80304FEA0C760E
:1013500044F1000448EA03434EEA0B484FF0000E04
:10136000B2EB080C71EB030724BF624639464EEB23
:101370000E0E4FF0000B0018524149414BEB0B0B86
:10138000B2EB080C71EB03077BF1000B24BF624644
:1013900039464EEB0E0E4FF0000B001852414941FA
:1013A0004BEB0B0BB2EB080C71EB03077BF1000B63
:1013B00024BF624639464EEB0E0E51EA020718BFB3
:1013C00046F0010616EB0E7655F1000254F10001CD
:1013D00003D5BDE88901BDE80088BDE88901BDE805
:1013E0000048B619524141EB0101A3F101037047D6
:1013F00080807F7E7D7C7B7A797877767675747352
:10140000727171706F6E6E6D6C6C6B6A6A69686810
:10141000676666656464636362616160605F5F5EA6
:101420005E5D5D5C5C5B5B5A5A595958585757561C
:101430005655555554545353525252515150505081
:101440004F4F4F4E4E4D4D4D4C4C4C4B4B4B4A4AD3
:101450004A49494948484847474747464646454517
:101460004544444444434343434242424241414150
:1014700046EA0646A3F570534FEA164646EA425638
:101480004FEAD22242EA415210B54FEAD121A3F1EC
:10149000010300F02FF820F0004000F1020C00F0F2
:1014A000004701EB00501146BCF5006F40EA070011
:1014B00000D210BDBAF1000F0AD01CB503B44FF032
:1014C00004004FF004014FF000000FBCBDE81040D5
:1014D0004FF00001BBF1010FB9BF04484FF0FF31DD
:1014E0000348002140EA070010BD00BFFFFFEF7F67
:1014F0000000F07F002B9C4630D477002BD01CB529
:101500004FEA370703B44FF010004FF01001BAF163
:10151000000F06D0BCF1000FDCBF40F0080040F027
:1015200008014FF000000FBCBDE810400BF1010BAB
:10153000BBF1010F08BF5FEA170722BF12F10102DA
:1015400011F101014FF0004143F1000300F00040B0
:1015500043EA00007047F9D35708D0E746EA064649
:1015600013F1400F4FEA16461FDD13F1200FDFBFC6
:1015700016430A46002120335B42BED0C3F1200748
:1015800046EA064602FA07F74FEA164646EA070613
:10159000C3F1200722FA03F201FA07F721FA03F157
:1015A0004FF0000342EA0702A7E746EA020646EACE
:1015B00006464FEA164646EA0106BCBF46EA06461C
:1015C000360C4FF000034FF000024FF0000194E79B
:1015D0002DE9804C9A46934670B491E8380007C8CC
:1015E00031EA400C48BF34EA430C03D5FFF7A4FDB1
:1015F000FFF780FFF0BCBDE8008C2DE9804C9A46D7
:10160000934670B491E8380007C831EA400C48BFEF
:1016100034EA430C03D5FFF78FFDFFF729FFF0BC39
:10162000BDE8008C2DE9804C9A46934670B491E851
:10163000380007C810F0804F08BF13F0804F03D167
:1016400000F01AF8FFF756FFF0BCBDE8008C2DE95A
:10165000804C9A46934670B491E8380007C810F061
:10166000804F08BF13F0804F03D100F005F8FFF75B
:10167000FFFEF0BCBDE8008C20F07F4780EA03004D
:1016800023F07F4C07EB0C03A3F57C5300F00040E4
:10169000A3F1FE0392F0000F00F0B38095F0000F6D
:1016A00000F077802DE901494FEA11404FEA1446D6
:1016B00021EA004800FB06FC24EA064708FB06F680
:1016C00007FB08F800FB07F718EB06484CEB164C35
:1016D0004FEA124B18EB07484FEA15464CEB174000
:1016E00022EA0B4E0BFB06FC25EA06470EFB06F62C
:1016F00007FB0EFE0BFB07F71EEB064E4CEB164CE2
:101700004FF000061EEB074E4CEB174B18EB0B0887
:1017100040F1000018EB0E0B58EB000840F1000000
:101720008F1A4FF000013CBFC943661B14BFB5EBD5
:10173000040C00213CBFC943F61B4FEA17444EEA94
:101740008E0E27EA04454FEA1C4704FB07622CEA89
:10175000074C05FB07F70CFB05F604FB0CFC16EB2E
:10176000074642EB174216EB0C4642EB1C421BEBC2
:10177000060658EB0202414146EA9E0601D5BDE845
:101780000189B619524141EB0101A3F10103BDE802
:1017900001894FEA14454FEA114724EA054621EA38
:1017A000074C05FB07F406FB07F70CFB06F105FBEE
:1017B0000CFC11EB074144EB17444FEA124711EBC5
:1017C0000C4144EB1C4422EA074C05FB07F206FBE4
:1017D00007F70CFB06F605FB0CFC16EB074642EB85
:1017E000174216EB0C4642EB1C456A1854F10001F7
:1017F00048BF7047B619524141EB0101A3F1010303
:10180000704795F0000F37D04FEA11424FEA144766
:1018100021EA024624EA074C02FB07F106FB07F720
:101820000CFB06F402FB0CFC14EB074441EB1741E4
:101830004FEA154714EB0C4441EB1C4125EA074CD9
:1018400002FB07F506FB07F70CFB06F602FB0CFC98
:1018500016EB074645EB174516EB0C4645EB1C42CD
:10186000121951F1000148BF7047B619524141EBBE
:101870000101A3F1010370474FEA14454FEA1147F4
:1018800024EA054621EA074C05FB07F106FB07F7AA
:101890000CFB06F24FF0000605FB0CFC12EB0742B6
:1018A00041EB174112EB0C4251EB1C4148BF704712
:1018B000921841EB0101A3F10103704770B5044692
:1018C00000252068806800F0010018B32068806857
:1018D00020F001002168886001F0ECFE054613E06D
:1018E00001F0E8FE401B02280ED92068806800F055
:1018F000010048B1A06A40F01000A062E06A40F028
:101900000100E062012070BD2068806800F00100E5
:101910000028E5D10020F6E738B504460025002070
:1019200000902068806800F0010078BB2068806823
:1019300040F0010021688860194800681949B0FB2F
:10194000F1F0009002E00098401E009000980028FE
:10195000F9D101F0AFFE054619E001F0ABFE401BE6
:10196000022814D92068806800F0010078B9A06AC4
:1019700040F01000A062E06A40F00100E06200BFA9
:10198000002084F8240000BF012038BD05E0206855
:10199000806800F001000028DFD00020F5E700009B
:1019A0001800002040420F0000BFFEE710B50248BB
:1019B00001F0C0FA10BD0000F802002010B5024886
:1019C00001F0B8FA10BD0000B402002010B50248C2
:1019D00001F0B0FA10BD00003C03002010B5024831
:1019E00001F0A8FA10BD00008003002030B590F887
:1019F00040500124AC40C56B6C600468636044686F
:101A0000102C04D10468A2600468E16003E004685B
:101A1000A1600468E26030BD014609B9002070474A
:101A20001148807D08B90020F9E70F484078087018
:101A30000D48801C0268C1F801204268C1F80520E9
:101A40000089A1F8090009480A6802604A684260F2
:101A50000A8902818A7A82720020044AD072024A7C
:101A600090750120DBE700001841002004390020B8
:101A700000B500F001F800BD04480021016041609C
:101A800081600020024988757047000004390020F9
:101A9000184100202DE9F04104460D4616460C4839
:101AA0000021C160016181825DB10A2E01D90A2045
:101AB00000E0304607463A46294605480C30FEF716
:101AC00019FC2146002004F075F9BDE8F081000002
:101AD0001841002010B52148808C50B9204800786A
:101AE00030B10021082004F0ADF800201C49087036
:101AF00010BD1A48808C4FF6FF7188420AD11848F1
:101B0000007830B91749082004F09CF801201449E6
:101B10000870EDE71248007858B903F0C1FE124989
:101B200008601049082004F08DF801200C49087065
:101B3000DEE703F0B5FE04460B480068201A0749AB
:101B4000898C884208D30021082004F07BF800200B
:101B5000024988840249087000BFC9E7343900206F
:101B6000A00000200000C8429C00002010B503F037
:101B7000FBFE0021012000F0E5F80121002000F02B
:101B8000E1F800F095F800200549888405490870BF
:101B9000054908600021082004F054F810BD000039
:101BA00034390020A00000209C00002070B503F014
:101BB00077FE0646002474E0204600F0AFF80546A4
:101BC000002D57D0012004EB4401374A02F82100D0
:101BD00004EB4400354911F82000F0B9012004EB72
:101BE0004401324A02F8210004EB4400114601EBA3
:101BF00080004660002004EB440102EB8101087282
:101C000004EB4400284901EB80004068401C04EBD1
:101C10004401254A02EB8101486004EB440023495A
:101C200001EB8000007A20BB04EB44000A4602EB83
:101C300080004168304604F05FFEB0F57A7F2ED315
:101C4000012004EB4401194A02EB8101087204EB04
:101C50004401154A02EB8101487004EB440011462F
:101C600001EB80008068401C04EB440102EB810121
:101C7000886014E0002004EB44010B4A02F82100C4
:101C800004EB440102EB8101487004EB4401074A74
:101C900002F8210004EB440102EB81010872601C90
:101CA000C4B2032C88D370BD343900201039002011
:101CB00010B503F0F5FD0446002027E0002100EBFD
:101CC0004002144B03F8221000EB40011A4602EBCD
:101CD00081014C60002100EB400203EB8202117293
:101CE00000EB40020C4B03F8221000EB400203EB28
:101CF0008202517000EB400203EB8202516000EB64
:101D0000400203EB82029160411CC8B20328D5D384
:101D100010BD0000103900203439002010B50446F1
:101D2000204600F005F808B9012010BD0020FCE7AE
:101D300010B504460249085D03F0DAFD10BD00004D
:101D4000E0B3000870B504460D460DB9012000E06F
:101D5000002006460249085D314603F0E3FD70BDF0
:101D6000E3B3000810B504460CB9002010BD0B48C1
:101D7000C07F48B9094890F8200028B9074890F872
:101D8000210008B90020F1E7242204492046FEF78B
:101D9000F6FA0020024908700120E7E75C390020CC
:101DA000A100002010B500F007F80249012004F05E
:101DB00043F810BD956D000810B524210748FEF7C3
:101DC00018FB60210648FEF714FB00200549087047
:101DD000054908700549087010BD00005C390020F5
:101DE00080390020A1000020A2000020A3000020D4
:101DF00010B504461CB1064890F8340008B900201C
:101E000010BD142202492046FEF7B9FA0120F7E777
:101E1000E03D002010B538211348FEF7EAFA002013
:101E2000124908601249087000236B22D02101205A
:101E300003F07AFE07231922D021012003F074FE5B
:101E400006231A22D021012003F06EFE00231B225C
:101E5000D021012003F068FE00231C22D0210120A4
:101E600003F062FE10BD0000E03D0020A80000204D
:101E7000AC00002000B585B00E2001AB3B22D02184
:101E80000090012003F006FE01A805F01BF805F004
:101E900087F805B000BD000000200CE0002106E03E
:101EA0000022064B03EBC0135A544A1CD1B28029BE
:101EB000F6D3411CC8B20828F0D37047E03900209F
:101EC00010B5044624B90021A62005F033F903E03B
:101ED0000021A72005F02EF910BD000010B500214B
:101EE0008D2005F027F90021102005F023F90021AD
:101EF000AE2005F01FF900200149087010BD000058
:101F0000A400002010B500218D2005F013F9002158
:101F1000142005F00FF90021AF2005F00BF9012086
:101F20000149087010BD0000A400002010B504464F
:101F300044B90021C82005F0FDF80021A12005F0DA
:101F4000F9F807E00021C02005F0F4F80021A020F6
:101F500005F0F0F810BD0000F0B50B46D90803F00D
:101F600007050126AE40F4B24AB10A4E06EBC1168F
:101F7000365C2643074F07EBC1173E5408E0054E79
:101F800006EBC116365CA643024F07EBC1173E5461
:101F9000F0BD0000E039002010B503F065FD002120
:101FA000AE2005F0C7F80021084605F0C3F800216F
:101FB000102005F0BFF80021402005F0BBF80021FB
:101FC000812005F0B7F80021CF2005F0B3F80021FB
:101FD000A12005F0AFF80021C82005F0ABF80021E2
:101FE000A62005F0A7F80021A82005F0A3F80021FD
:101FF0003F2005F09FF80021D32005F09BF8002139
:10200000084605F097F80021D52005F093F8002147
:10201000802005F08FF80021D92005F08BF80021F1
:10202000F12005F087F80021DA2005F083F800217F
:10203000122005F07FF80021DB2005F07BF800215D
:10204000302005F077F80021202005F073F80021FA
:10205000022005F06FF800218D2005F06BF80021BB
:10206000142005F067F8FFF717FF0021AF2005F0F7
:1020700061F8FFF747FF0020FFF722FF0020FFF77E
:1020800055FF10BD38B5002419E004F1B001C8B205
:10209000002105F04FF80021084605F04BF800211B
:1020A000102005F047F880200090064800EBC4138C
:1020B00040227821002003F065FD601CC4B2082C8A
:1020C000E3D338BDE03900202DE9F84F06460F462E
:1020D00090469946B8F1200F02DBB8F17E0F01DD82
:1020E0004FF02008A8F1200000F0FF0A002444E08F
:1020F0000AEB4A00234901EB400010F804B0002528
:1021000037E04BFA05F000F0010008B1484605E061
:10211000B9F1000F01D1012000E00020009007EB91
:102120004502D1B206EB4402D0B2009AFFF714FF89
:1021300007EB4502D1B206EB4402521CD0B2009A22
:10214000FFF70AFF07EB4502521CD1B206EB44022F
:10215000D0B2009AFFF700FF07EB4502521CD1B244
:1021600006EB4402521CD0B2009AFFF7F5FE681C41
:10217000C5B2082DC5D3601CC4B2062CB8D3BDE8C7
:10218000F88F0000E5B300082DE9F04F07468846B8
:1021900015469946202D01DB7E2D00DD2025A5F179
:1021A000200000F0FF0A00242AE00AEB4A0016494A
:1021B00001EB400010F804B000261DE00BF0010018
:1021C00040B108EB0602D1B23A19D0B24A46FFF745
:1021D000C3FE0DE0B9F1000F01D1012300E000239F
:1021E0001A4608EB0603D9B23B19D8B2FFF7B4FE82
:1021F0004FEA6B0B701CC6B2082EDFD3601CC4B252
:10220000062CD2D3BDE8F08FE5B300082DE9FF4FCF
:1022100085B016461F46059D0021304608F07CFD1E
:102220000AD201232D2228460699FFF74DFF05F11A
:102230000C00C5B286F00046304608F021FD044689
:1022400039460A2004F044FF8246504608F050FD0B
:102250000290204608F04CFD3146009008F0BEFE8A
:102260000190029908F08CFD4FF07C51039008F02A
:10227000B5FB049008F004FD8046D04502D3641CF1
:102280004FF00008A3464FF0010906E00A20BBFB0F
:10229000F0FB09F1010000F0FF09BBF10A0FF5D2D4
:1022A0004B4622462846069904F01DFF09EB4900DB
:1022B00005EB8000C5B29FB101232E222846069966
:1022C000FFF702FF05F10C00C5B23B464246284627
:1022D000069904F008FF07EB470005EB8000C5B244
:1022E000284609B0BDE8F08F2DE9F047064688463C
:1022F00017461D4600241AE0281B401EC1B20A20C2
:1023000004F0E6FEB7FBF0F00A21B0FBF1F201FBAE
:10231000120909F13001CAB204EB440106EB410194
:10232000C8B201234146FFF72FFF601CC4B2AC4284
:10233000E2DBBDE8F0872DE9F04105468846164608
:102340002F46344608E02278012341463846FFF7FD
:102350001BFFB81DC7B2641C20780028F3D1BDE86C
:10236000F081704772B600BFFEE700000021074A07
:10237000D1610749096941F00401054A116111461B
:10238000096941F04001116170470000100400200C
:10239000002002400021074AD1610749096941F044
:1023A0000201054A116111464861096941F0400185
:1023B0001161704710040020002002400022054BEC
:1023C000DA61054A126942F00102034B1A61018089
:1023D00070470000100400200020024000201E4929
:1023E000C96801F0100139B11C49C96941F0020105
:1023F0001A4AD16140F010001749C96801F0040180
:1024000039B11649C96941F00101144AD16140F05E
:1024100004001149C96901F0010169B10F49C96995
:1024200041F004010D4AD16100BF0B49C96921F097
:102430000101094AD16100BF00BF40F20111884289
:1024400006D10549C96921F00101034AD16101E0C2
:102450000149C86000BF70470020024010040020FE
:1024600070B5044601F026F9054609E0601C38B154
:1024700024B101F01FF9401BA04201D9032070BD17
:102480001248C06800F001000028EFD10F48C06872
:1024900000F0200020B100BF20200C49C86000BF20
:1024A0000A48C06800F0100048B90848C06900F048
:1024B000010020B90548C06800F0040018B1FFF71A
:1024C0008DFF0120DBE70020D9E70000002002405B
:1024D00010B558210C48FDF78CFF09200A490870F7
:1024E0000A20C8720B2088750C2081F82100132067
:1024F00081F82C00142081F83700152081F8420063
:10250000162081F84D0010BD704100203EB503F04B
:102510009DFC6846FFF780FA00B93EBD9DF80000BB
:10252000132803D39DF80000162800D9F5E79DF87D
:1025300000000F38C4B204EB440000EBC40037497C
:102540000844DDF8011040F8011FDDF80510416076
:10255000BDF8091001813149D1F82D0004F0ACF922
:102560002F4988642D49D1F8310004F0A5F92C4990
:10257000C8642A4890F8350081F84400274890F84C
:102580003610274841652549886B04F095F92449A0
:1025900088652249C86B04F08FF92149C8651F4836
:1025A00090F840101E4801661C4890F841101C48E5
:1025B00041661A49D1F8430004F07EF9184988664B
:1025C0001649D1F8470004F077F91549C866134851
:1025D00090F84B1012480167104890F84C101048C2
:1025E00041670E49D1F84E0004F066F90C4988673E
:1025F0000A49D1F8520004F05FF90949C867074851
:1026000090F856100648C0F88010044890F857100B
:102610000348C0F8841000BF7FE70000704100202D
:10262000C841002010B5324840683249C1F8010065
:102630002F4881682F48C0F805102D48017B2D4890
:1026400041722B48017C2B488172294841692948F5
:10265000C16027488169274801612548017F2548D5
:102660000175234890F82010224841752048416A9E
:102670002048C0F817101E48816A1E48C0F81B1079
:102680001B4890F82C101B48C177194890F830105F
:10269000184880F820101648416B1648C0F82210E0
:1026A0001348816B1348C0F82610114890F83C106D
:1026B000104880F82A100E4890F840100D4880F815
:1026C0002B10002410E004EB440202EBC402094B7F
:1026D0001A44511C04EB440202EBC402985C0A2227
:1026E000FFF7D8F9601CC4B2042CECD310BD000075
:1026F000C84100207041002010B5FFF707FFFFF729
:1027000091FF10BDF8B5044600260020009000BFE0
:1027100094F82400012801D10220F8BD012084F89A
:10272000240000BF2046FFF7C9F806462046FFF701
:10273000F3F80646002E69D1A06A20F4885040F0D4
:102740000200A062022001F0CDF834490968B1FB13
:10275000F0F04000009002E00098401E00900098C9
:102760000028F9D12068806840F00800216888605E
:1027700000F0A0FF054616E000F09CFF401B0A2871
:1027800011D92068806800F0080060B1A06A20F0CC
:10279000020040F01000A06200BF002084F8240076
:1027A00000BF0120B9E72068806800F00800002819
:1027B000E2D12068806840F004002168886000F061
:1027C00079FF054616E000F075FF401B0A2811D975
:1027D0002068806800F0040060B1A06A20F0020068
:1027E00040F01000A06200BF002084F8240000BF69
:1027F000012092E72068806800F004000028E2D100
:10280000A06A20F0020040F00100A06200BF00209A
:1028100084F8240000BF30467FE700001800002045
:1028200038B5024600230020009000BF92F8240033
:10283000012801D1022038BD012082F8240000BF08
:102840004868072812D21068406B0C79641E04EBAC
:1028500084051F24AC40A0430D796D1E05EB850552
:102860000C68AC4020431468606327E048680D287A
:1028700012D21068006B0C79E41F04EB84051F244E
:10288000AC40A0430D79ED1F05EB85050C68AC400D
:1028900020431468206311E01068C06A0C790D3C75
:1028A00004EB84051F24AC40A0430D790D3D05EBDE
:1028B00085050C68AC4020431468E06208680A286B
:1028C00012D31068C0680C780A3C04EB4405072456
:1028D000AC40A0430D780A3D05EB45058C68AC4043
:1028E00020431468E0600FE0106800690C7804EB86
:1028F00044050724AC40A0430D7805EB45058C68E2
:10290000AC402043146820610868102802D0086891
:10291000112827D1174C1068A0421ED1106880687A
:1029200000F40000F0B91068806840F400001468FA
:10293000A0600868102815D10F4800680F4CB0FB44
:10294000F4F000EB80004000009002E00098401E90
:10295000009000980028F9D104E0906A40F020002F
:102960009062012300BF002082F8240000BF1846B7
:1029700061E70000002401401800002040420F00E1
:1029800001460868C06C70472DE9F04104460027F5
:1029900000250026A84614B90120BDE8F081A068F2
:1029A00010B1207D00B100BFA06A30B90020E06204
:1029B00084F82400204600F089F82046FEF77EFFC8
:1029C0000746A06A00F01000002873D1002F71D1D3
:1029D000A06A20F4885040F00200A062E1696068BB
:1029E0000843217B40EA41000643A068B0F5807FA0
:1029F00002D0A068012802D14FF4807000E00020CE
:102A00000543207D012811D1207B38B9A069401EE3
:102A10004FF4006141EA4030054307E0A06A40F00E
:102A20002000A062E06A40F00100E0622068406897
:102A300020F4694028432168486020688068214963
:102A40000840304321688860A068B0F5807F02D0DC
:102A5000A068012802D14FF4807000E00020B0F59A
:102A6000807F03D1208A401E4FEA00582068C06A48
:102A700020F4700040EA08002168C862206880687D
:102A800011490840B04208D10020E062A06A20F05D
:102A9000020040F00100A06211E0A06A20F00200F4
:102AA00040F01000A062E06A40F00100E0620127FF
:102AB00005E0FFE7A06A40F01000A0620127384659
:102AC0006BE70000FDF7E1FFFE0E1FFF10B586B0BB
:102AD0000446002002900390049005901449206859
:102AE000884222D100BF1348806940F40070114928
:102AF00088610846806900F40070019000BF00BF43
:102B000000BF0846806940F004008861084680697B
:102B100000F00400019000BF00BF012002900320DC
:102B2000039002A9044800F027FC06B010BD000085
:102B3000002401400010024000080140F8B504469E
:102B40000D46002600200090002700F0B3FD064649
:102B50002068806800F4807050B1A06A40F02000C6
:102B6000A06200BF002084F8240000BF0120F8BD4F
:102B70002068406800F4807020BB2068C06A00F4C0
:102B80007000F8B917E0681CA8B125B100F092FDFB
:102B9000801BA8420FD92068006800F0020050B9DD
:102BA000A06A40F00400A06200BF002084F8240066
:102BB00000BF0320DBE72068006800F00200002867
:102BC000E1D053E0022000F08DFE38490968B1FBE6
:102BD000F0F021680969364A114091B92168C96845
:102BE0009211114069B921680969324A114031B91D
:102BF0002168C9689211114009B9142117E02921EF
:102C000015E0216809692B4A114021B92168C9687A
:102C10009211114041B121680969274A114029B92F
:102C20002168C968114009B9542100E0FC2100FB6A
:102C300001F718E0681C98B125B100F03BFD801B3E
:102C4000A8420DD90098B8420AD2A06A40F0040008
:102C5000A06200BF002084F8240000BF032086E7A4
:102C60000098401C00900098B842E3D36FF0120027
:102C700021680860A06A40F40070A0622068806843
:102C800000F46020B0F5602F0DD1207B58B9A06A08
:102C900020F48070A062A06A00F4805018B9A06A85
:102CA00040F00100A062002061E700001800002051
:102CB00024499224922449124992240070B5044672
:102CC000002500BF94F82400012801D1022070BD26
:102CD000012084F8240000BF2046FEF71DFE0546B3
:102CE000002D77D1A06A40F20121884340F4807022
:102CF000A0623C492068884208D13B48006800F443
:102D0000702008B9012002E0002000E0012078B125
:102D1000A06A20F48010A0622068406800F48060FF
:102D200000B3A06A20F4005040F48050A06219E083
:102D3000A06A40F48010A0622B49091F20688842D5
:102D400003D028492068884204D12748006800F44D
:102D5000806000E0002028B1A06A20F4005040F418
:102D60008050A062A06A00F4805020B1E06A20F098
:102D70000600E06201E00020E06200BF002084F86D
:102D8000240000BFC01E216808602068806800F42D
:102D90006020B0F5602F16D112492068884208D112
:102DA0001148006800F4702008B9012002E00020FA
:102DB00000E0012038B12068806840F4A00021685C
:102DC00088600CE006E02068806840F4801021688C
:102DD000886004E000BF002084F8240000BF28467B
:102DE00075E70000002801400424014070B5044646
:102DF000002500BF94F82400012801D1022070BDF5
:102E0000012084F8240000BF2046FEF757FD054648
:102E10002DB9A06A20F4885040F00100A06200BFE4
:102E2000002084F8240000BF2846E8E7014600227D
:102E300091F82100022808D00420886300BF0020F8
:102E400081F8200000BF012070470868006820F06A
:102E50000E000B6818600868006820F001000B681D
:102E6000186091F8403001209840CB6B58600120E9
:102E700081F8210000BF002081F8200000BF10462B
:102E8000E2E7000070B50446002594F8210002280E
:102E900003D00420A063012548E02068006820F0EA
:102EA0000E00216808602068006820F00100216899
:102EB00008601F492068884201D1012026E01C4992
:102EC00014312068884201D110201FE018492831B0
:102ED0002068884201D1801518E015493C312068EE
:102EE000884201D1801411E0114950312068884294
:102EF00002D14FF4803009E00D49643120688842E6
:102F000002D14FF4801001E04FF080700849083979
:102F10004860012084F8210000BF002084F82000D0
:102F200000BF606B10B12046616B8847284670BDBA
:102F30000800024070B50446E06B0568206806682A
:102F400094F84010042088402840002846D006F01D
:102F50000400002842D02068006800F0200028B952
:102F60002068006820F00400216808605749206844
:102F7000884201D1042027E0544914312068884256
:102F800001D1402020E0514928312068884201D1F8
:102F9000001519E04D493C312068884202D14FF4B8
:102FA000804011E0494950312068884202D14FF4F5
:102FB000802009E0454964312068884202D14FF4FD
:102FC000800001E04FF08060404908394860E06AC5
:102FD00000287AD02046E16A884776E094F84010CD
:102FE000022088402840A0B306F0020088B3206881
:102FF000006800F0200040B92068006820F00A0056
:1030000021680860012084F8210030492068884246
:1030100001D1022028E02D4914312068884201D1D5
:10302000202021E0294928312068884201D140151B
:103030001AE026493C312068884202D14FF4005002
:1030400012E0224950312068884203D14FF4003009
:103050000AE017E01D4964312068884202D14FF42C
:10306000001001E04FF0007018490839486000BFB7
:10307000002084F8200000BFA06A30B32046A16A77
:10308000884722E094F84010082088402840E0B1AA
:1030900006F00800C8B12068006820F00E00216822
:1030A000086094F8401001208840E16B48600120DE
:1030B000A06384F8210000BF002084F8200000BF36
:1030C000206B10B12046216B884770BD080002407C
:1030D0000146002209B901207047164B0868C01A42
:1030E0001423B0FBF3F08000086412480838C8636A
:1030F000022081F821000868026843F6F0708243DC
:10310000D1E901031843CB6818430B6918434B6995
:1031100018438B691843CB6918430243086802605F
:1031200000208863012081F82100002081F8200020
:1031300000BFD1E7080002402DE9F04104460D46EA
:1031400016461F464FF0000800BF94F820000128E3
:1031500002D10220BDE8F081012084F8200000BFE8
:1031600094F8210001282CD1022084F821000020AD
:10317000A0632068006820F00100216808603B46D9
:10318000324629462046FEF731FCE06A30B120681D
:10319000006840F00E00216808600BE020680068BD
:1031A00020F00400216808602068006840F00A00F0
:1031B000216808602068006840F00100216808600C
:1031C00006E000BF002084F8200000BF4FF0020896
:1031D0004046BFE72DE9F04104460E460127002591
:1031E00000BF2648007E012802D10220BDE8F08100
:1031F00001202249087600BF2068022813D14CF232
:103200005030FFF72DF990BB0120FFF7AFF84CF2DB
:103210005030FFF725F907461948006920F00400EF
:103220001749086123E04CF25030FFF719F9F0B963
:103230004FF0FF303060A56812E02846FFF7AAF88B
:103240004CF25030FFF70CF907460D48006920F0AA
:1032500002000B4908610FB1356007E005F5806594
:10326000D4E9021001EB8020A842E6D800BF00BFDD
:1032700000200249087600BF3846B7E71004002056
:10328000002002400348006940F0800001490861C5
:1032900000207047002002402DE9FE4F05468B4676
:1032A00017469846012600240020029000BF2448BB
:1032B000007E012802D10220BDE8FE8F01202049B6
:1032C000087600BF4CF25030FFF7CAF8064686BBBE
:1032D000012D02D10120029006E0022D02D1022030
:1032E000029001E00420029000241EE02201B94671
:1032F000C24648465146FCF7C1FF80B20190022009
:1033000000FB04B000900199FFF758F84CF25030E0
:10331000FFF7A6F806460B48006920F001000949AE
:10332000086106B104E0601CC4B202988442DDDB8F
:1033300000BF00BF00200249087600BF3046BBE74F
:10334000100400200020024000200849096901F013
:10335000800151B10649054A516006495160114644
:10336000096901F0800101B101207047002002408D
:1033700023016745AB89EFCD2DE9F84703460022CD
:1033800094466EE14FF0010808FA02F4D1F800808B
:1033900008EA0400A0427DD1DFF8DCA2D1F8048065
:1033A000A8EB0A09D0453AD014DCB8F1030F50D08D
:1033B00009DCB8F1000F31D0B8F1010F1CD0B8F121
:1033C000020F49D120E0B8F1110F18D0B8F1120F57
:1033D00042D11EE0B9F5881F25D006DCB9F5803F43
:1033E00020D0B9F5801F37D11AE0B9F5001F18D0E9
:1033F000B9F5041F30D117E0D1F80CC02DE0D1F899
:103400000C8008F1040C28E0D1F80C8008F1080CBD
:1034100023E0D1F80C8008F10C0C1EE000BF00BFC7
:1034200000BF00BF00BF00BFD1F80880B8F1000F97
:1034300002D14FF0040C0BE0D1F80880B8F1010F75
:1034400003D14FF0080C1C6102E04FF0080C5C61E6
:1034500003E04FF0000C00E000BF00BFFF2801D8E0
:10346000984601E003F104084646FF2802D84FEAD7
:10347000820803E0A2F108084FEA88084746D6F818
:1034800000804FF00F0909FA07F928EA09080CFA39
:1034900007F900E088E048EA0908C6F80080D1F89A
:1034A000048008F08058B8F1805F7DD100BFDFF85C
:1034B000CC81D8F8188048F00108DFF8C091C9F82D
:1034C0001880C846D8F8188008F00108CDF80080A8
:1034D00000BF00BF4FEAB9384FEA920958F82950A7
:1034E0004FEA82784FEA18794FF00F0808FA09F886
:1034F00025EA0805DFF88881434502D14FF000082E
:1035000016E0DFF88081434502D14FF001080FE05B
:10351000DFF87481434502D14FF0020808E0DFF87C
:103520006C81434502D14FF0030801E04FF00408DD
:103530004FEA82794FEA197908FA09F848EA05054D
:10354000DFF84C814FEA920948F82950D1F80480FD
:1035500008F48018B8F5801F0AD1DFF83881D8F850
:10356000008048EA0008DFF82C91C9F8008009E0E3
:10357000DFF82081D8F8008028EA0008DFF81491ED
:10358000C9F80080D1F8048008F40018B8F5001FCD
:1035900010D1DFF8008108F10408D8F8008048EA6B
:1035A0000008DFF8F09000E05AE009F10409C9F8DA
:1035B00000800DE0DFF8DC8008F10408D8F8008016
:1035C00028EA0008DFF8CC9009F10409C9F8008066
:1035D000D1F8048008F40038B8F5003F0ED1DFF8C8
:1035E000B480A8F10408D8F8008048EA0008DFF8A1
:1035F000A490A9F10409C9F800800DE0DFF89480D7
:10360000A8F10408D8F8008028EA0008DFF88490C0
:10361000A9F10409C9F80080D1F8048008F48038C1
:10362000B8F5803F0ED1DFF86C80A8F10808D8F813
:10363000008048EA0008DFF85C90A9F10809C9F8A1
:1036400000800DE0DFF84C80A8F10808D8F8008071
:1036500028EA0008DFF83C90A9F10809C9F80080C1
:10366000521CD1F8008028FA02F8B8F1000F7FF45C
:1036700089AEBDE8F887000000001110001002407C
:1036800000080140000C01400010014000140140FE
:103690000800014008040140024693680B400BB14A
:1036A000012000E0002070470AB1016101E00B0435
:1036B0000361704701480068704700000C0000205B
:1036C00003480068034909780844014908607047C5
:1036D0000C0000201400002010B50848006840F0DD
:1036E000100006490860032000F0D8F80F2000F011
:1036F00007F800F055F8002010BD0000002002403F
:10370000F0B587B0044600260027002500BF1F48FB
:10371000806940F400601D4988610846806900F4B2
:103720000060009000BF00BF01A902A800F0B6FA37
:1037300000F0ECFA06461648B6FBF0F0471E1548B6
:103740001549086040F2E7311348C1604760002125
:1037500001618160816100F097FD054695B90E48D1
:1037600000F004FE05466DB9192000F049F8102C50
:1037700007D200222146192000F052F807480460C1
:1037800000E00125284607B0F0BD0000001002400F
:1037900040420F00002C0140C40300201000002014
:1037A00008B500BF1448806940F0010012498861E3
:1037B0000846806900F00100009000BF00BF00BF14
:1037C0000846C06940F08050C8610846C06900F0F2
:1037D0008050009000BF00BF00220F21901E00F01B
:1037E0001FF800BF0549486820F0E06040F0007015
:1037F000486000BF08BD000000100240000001400A
:1038000001460846002809DB00F01F0301229A4008
:1038100043099B0003F1E023C3F8002100BF704778
:103820002DE9F05F80460D461646002703F0D0FCD8
:10383000074639462A46334601F00700C0F1070A19
:10384000BAF1040F02D94FF0040A01E0C0F1070AEF
:10385000D14600F1040ABAF1070F02D24FF0000A74
:1038600001E0A0F1030AD4464FF0010A0AFA09FA6E
:10387000AAF1010A0AEA020A0AFA0CFA4FF0010B4D
:103880000BFA0CFBABF1010B0BEA030B4AEA0B043E
:103890002146404603F0A4FCBDE8F09F00BF00F0C5
:1038A0000702064B19684FF6FF031940044B0B4300
:1038B00043EA0221014B196000BF70470CED00E0A4
:1038C0000000FA05064A126822F00402044B1A604E
:1038D000012901D130BF02E040BF20BF20BF7047A7
:1038E00010ED00E02DE9F04706464FF000080025F6
:1038F00000270024A146012E31D0022E56D0102ED2
:103900005FD132484468006800F0807008B33048E6
:10391000C4F38341475C04F4803078B12B4840689D
:10392000C0F340402B4911F8008004F4803040B1CE
:103930002948B0FBF8F000FB07F502E0274807FB39
:1039400000F52248406800F48000B0F5800F01D1F6
:10395000A94603E068000321B0FBF1F932E01B48FF
:10396000046A04F44070B0F5807F05D104F00200D1
:1039700010B14FF4004918E004F44070B0F5007F36
:1039800007D11248406A00F0020010B149F64049E0
:103990000BE004F44070B0F5407F06D10B4800689E
:1039A00000F4003008B14FF224490BE000F0AEF90A
:1039B00006494968C1F38131491C4900B0FBF1F95E
:1039C00000E000BF00BF4846BDE8F087001002409D
:1039D000B6B30008C6B3000800127A0000093D0023
:1039E000F8B5044600260025207800F001000028E4
:1039F0006BD000274348C06900F0805070B900BF09
:103A00004048C06940F080503E49C8610846C069DE
:103A100000F08050009000BF00BF01273A480068C6
:103A200000F48070B0B93848006840F480703649BE
:103A30000860FFF73FFE064606E0FFF73BFE801BEF
:103A4000642801D90320F8BD2F48006800F4807075
:103A50000028F2D02B48006A00F440752DB3A088EE
:103A600000F44070A84220D02648006A20F4407537
:103A7000012026490860002008602248056205F000
:103A8000010090B1FFF716FE064608E0FFF712FEB0
:103A9000801B41F28831884201D90320D3E71948BD
:103AA000006A00F002000028F0D01648006A20F4F6
:103AB00040706168084313490862012F04D1084629
:103AC000C06920F08050C86100BF207800F002007B
:103AD000022807D10B48406820F44040A168084301
:103AE00008494860207800F01000102807D10548E8
:103AF000406820F48000E1680843024948600020E3
:103B0000A1E7000000100240007000404004424263
:103B100070B504460D460CB9012070BD5A480068C6
:103B200000F00700A8420ED25748006820F00700B6
:103B30002843554908600846006800F00700A8427D
:103B400001D00120E9E7207800F0020002281DD111
:103B5000207800F00400042805D14C48406840F467
:103B6000E0604A494860207800F00800082805D144
:103B70004648406840F460504449486043484068C3
:103B800020F0F000A168084340494860207800F028
:103B9000010078B36068012806D13C48006800F451
:103BA000003090B90120B8E76068022806D1374894
:103BB000006800F0007040B90120AEE733480068AB
:103BC00000F0020008B90120A7E73048406820F063
:103BD0000300616808432D494860FFF76BFD064606
:103BE00009E0FFF767FD801B41F28831884202D966
:103BF000032092E707E02548406800F00C00616868
:103C0000B0EB810FEDD12048006800F00700A8421A
:103C10000ED91D48006820F0070028431A490860A3
:103C20000846006800F00700A84201D0012074E7B0
:103C3000207800F00400042807D11448406820F4DC
:103C4000E060E168084311494860207800F008000E
:103C5000082808D10D48406820F46050216940EAE6
:103C6000C1000A49486000F061F808494968C1F399
:103C70000311074A515CC8400649086006480068BD
:103C8000FFF73EFD002048E7002002400010024000
:103C9000C8B3000818000020100000200F220260A6
:103CA0000D4A526802F0030242600B4A526802F069
:103CB000F0028260084A526802F4E062C260064A7A
:103CC000526802F46052D2080261044A126802F09B
:103CD00007020A6070470000001002400020024006
:103CE00001480068704700001800002000B5FFF789
:103CF000F7FF04494968C1F30221034A515CC840F7
:103D000000BD000000100240D8B3000800B5FFF766
:103D1000E7FF04494968C1F3C221034A515CC84026
:103D200000BD000000100240D8B3000870B50021AB
:103D30000022002400230020134D696801F00C05C7
:103D4000F5B1042D02D0082D19D101E00F4819E07A
:103D50000F4DC1F38346AB5D01F4803555B10A4D7B
:103D60006D68C5F340450B4E725D084D5D43B5FB74
:103D7000F2F402E0084D03FB05F4204602E000BF28
:103D8000024800BF00BF70BD0010024000127A0060
:103D9000A4B30008B4B3000800093D00F8B5044618
:103DA0000CB90120F8BD207800F00100002878D07F
:103DB000F848406800F00C0004280CD0F548406832
:103DC00000F00C00082811D1F248406800F480305F
:103DD000B0F5803F0AD1EF48006800F400300028B9
:103DE0005FD0606800285CD10120DBE700BF60681D
:103DF000B0F5803F06D1E748006840F48030E549DF
:103E0000086028E0606858B9E248006820F4803013
:103E1000E04908600846006820F4802008601AE045
:103E20006068B0F5A02F0BD1DA48006840F480201C
:103E3000D84908600846006840F4803008600AE00D
:103E4000D448006820F48030D249086008460068F1
:103E500020F48020086000BF606888B1FFF72AFC6A
:103E6000054606E0FFF726FC401B642801D9032025
:103E700098E7C848006800F400300028F2D010E04D
:103E8000FFF718FC054606E0FFF714FC401B64280A
:103E900001D9032086E7BF48006800F400300028FD
:103EA000F2D1207800F00200022857D1B9484068CA
:103EB00000F00C0050B1B748406800F00C00082832
:103EC00018D1B448406800F4803098B9B14800680F
:103ED00000F0020020B12069012801D0012061E733
:103EE000AC48006820F0F800616940EAC100A949C7
:103EF000086033E02069E8B10120A7490860FFF7B6
:103F0000D9FB054606E0FFF7D5FB401B022801D987
:103F1000032047E79F48006800F002000028F2D025
:103F20009C48006820F0F800616940EAC1009949A6
:103F3000086013E0002098490860FFF7BBFB0546C6
:103F400006E0FFF7B7FB401B022801D9032029E751
:103F50009048006800F002000028F2D1207800F0BC
:103F6000080008282DD1A069B8B101208B4908604C
:103F7000FFF7A0FB054606E0FFF79CFB401B02286D
:103F800001D903200EE78348406A00F002000028B0
:103F9000F2D0012001F02CFC13E000207F490860E2
:103FA000FFF788FB054606E0FFF784FB401B02286D
:103FB00001D90320F6E67748406A00F002000028A5
:103FC000F2D1207800F00400042873D10027714852
:103FD000C06900F0805070B900BF6E48C06940F001
:103FE00080506C49C8610846C06900F0805000905C
:103FF00000BF00BF01276A48006800F48070B0B9B4
:104000006748006840F4807065490860FFF752FB1C
:10401000054606E0FFF74EFB401B642801D903204C
:10402000C0E65F48006800F480700028F2D000BF4E
:10403000E068012806D15748006A40F00100554960
:10404000086227E0E06858B95248006A20F0010091
:10405000504908620846006A20F00400086219E02E
:10406000E06805280BD14B48006A40F0040049493C
:1040700008620846006A40F0010008620AE045480C
:10408000006A20F00100434908620846006A20F0F7
:104090000400086200BFE068A0B1FFF70BFB054613
:1040A00009E0FFF707FB401B41F28831884202D943
:1040B000032077E622E03748006A00F0020000287B
:1040C000EFD012E0FFF7F6FA054608E0FFF7F2FA44
:1040D000401B41F28831884201D9032062E62D4815
:1040E000006A00F002000028F0D1012F05D1294814
:1040F000C06920F080502749C86100BFE069C8B39B
:104100002448406800F00C00082860D0E0690228CC
:1041100048D1002020490866FFF7CCFA054606E0A2
:10412000FFF7C8FA401B022801D903203AE61948D4
:10413000006800F000700028F2D1206AB0F5803FDE
:1041400007D11448406820F40030A16808431149A1
:104150004860D4E9080108430E49496821F4741104
:1041600008430C49486001200B490866FFF7A2FA92
:10417000054607E03DE0FFF79DFA401B022801D904
:1041800003200FE60348006800F000700028F2D01A
:104190002FE0000000100240000042428004424232
:1041A00000700040002014490866FFF783FA0546B6
:1041B00006E0FFF77FFA401B022801D90320F1E552
:1041C0000E48006800F000700028F2D111E0E069AC
:1041D000012800D1E6E50948466806F48031206AE6
:1041E000814204D106F47011606A814201D001203D
:1041F000D8E50020D6E50000000042420010024051
:104200007047704730B502460B4600BF92F83C003D
:10421000012801D1022030BD012082F83C0000BFFE
:10422000022082F83D00106844681068816824F01C
:1042300070041868044310684460104D1068A84268
:104240000BD01068B0F1804F07D00D4D1068A84218
:1042500003D00C4D1068A84205D121F080015868A8
:10426000014310688160012082F83D0000BF0020FA
:1042700082F83C0000BF00BFCDE70000002C0140E9
:10428000000400400008004010B504460CB90120AD
:1042900010BD94F83D0028B9002084F83C00204669
:1042A00000F026F8022084F83D00211D206801F06E
:1042B0007DFE012084F8460000BF84F83E00012105
:1042C0003F200155402001554120015500BF00BF4E
:1042D000012084F842004320015544200155452027
:1042E000015500BF012084F83D000020D0E7000008
:1042F00008B50168B1F1804F0DD100BF1849C969F7
:1043000041F00101164AD1611146C96901F001016C
:10431000009100BF23E0134A016891420DD100BF14
:104320000F49C96941F002010D4AD1611146C969BD
:1043300001F00201009100BF11E00B4A01689142B7
:104340000DD100BF0649C96941F00401044AD16199
:104350001146C96901F00401009100BF00BF08BD0A
:10436000001002400004004000080040014691F89F
:104370003D00012801D001207047022081F83D0056
:104380000868C06840F001000B68D860124B0868EC
:1043900098420BD00868B0F1804F07D00F4B0868E7
:1043A000984203D00E4B086898420CD10868806888
:1043B00000F00702062A0CD00868006840F00100EF
:1043C0000B68186005E00868006840F001000B68A1
:1043D00018600020D0E70000002C014000040040DD
:1043E000000800402DE9F04104460D46002700BFBB
:1043F00094F83C00012802D10220BDE8F0810120A0
:1044000084F83C0000BF022084F83D0020688668E4
:1044100026F0770626F47F462068866028685028B4
:1044200033D00CDC202850D004DC00284BD01028DE
:1044300051D149E0302849D040284CD139E060289A
:104440002DD0702807D0B0F5805F03D0B0F5005FA5
:1044500041D10DE041E0D5E902136A68206801F01E
:10446000F8FD2068866846F077062068866034E0AC
:10447000D5E902136A68206801F0EBFD20688068C6
:1044800040F480402168886027E0EA686968206815
:1044900001F0B0FE5021206801F0E6FD1DE0EA6861
:1044A0006968206801F0B9FE6021206801F0DCFD38
:1044B00013E0EA686968206801F09CFE40212068EA
:1044C00001F0D2FD09E000BF00BF00BF29682068ED
:1044D00001F0CAFD01E0012700BF00BF012084F800
:1044E0003D0000BF002084F83C0000BF384684E750
:1044F000704770B504462068C5682068066906F0F4
:104500000200022819D105F00200022815D1401F2F
:1045100021680861012020772068806900F003008D
:1045200018B12046FFF7E4FF05E0204600F03AF915
:10453000204600F0EEF90020207706F00400042861
:1045400019D105F00400042815D1C0432168086181
:10455000022020772068806900F4407018B120465E
:10456000FFF7C6FF05E0204600F01CF9204600F0EA
:10457000D0F90020207706F00800082819D105F0AE
:104580000800082815D1C04321680861042020775D
:104590002068C06900F0030018B12046FFF7A8FFAB
:1045A00005E0204600F0FEF8204600F0B2F90020B9
:1045B000207706F01000102819D105F010001028FF
:1045C00015D1C04321680861082020772068C069A0
:1045D00000F4407018B12046FFF78AFF05E020463E
:1045E00000F0E0F8204600F094F90020207706F073
:1045F000010048B105F0010030B16FF00100216801
:104600000861204600F0F0F906F08000802809D10A
:1046100005F08000802805D1C0432168086120464C
:10462000FFF7EEFD06F04000402809D105F04000FC
:10463000402805D1C04321680861204600F0E0F918
:1046400006F02000202809D105F02000202805D1FF
:10465000C043216808612046FFF7D3FD70BD00000C
:1046600010B586B004460020029003900490059097
:104670002068B0F1804F38D100BF4448806940F0D5
:104680000400424988610846806900F004000190F6
:1046900000BF00BF00BF0846806940F00800886185
:1046A0000846806900F00800019000BF00BF4FF489
:1046B0000040029002200390059002A93448FEF7C2
:1046C0005BFE0820029002200390059002A9314869
:1046D000FEF752FE00BF3049486820F4407040F0B9
:1046E000E06040F4807048604DE02C4920688842CA
:1046F0002DD100BF2548806940F00400234988611E
:104700000846806900F00400019000BF00BF00BFB0
:104710000846806940F0080088610846806900F01A
:104720000800019000BF00BFC0200290022003904B
:10473000059002A91648FEF71FFE032002900220F2
:104740000390059002A91348FEF716FE1BE01449DA
:104750002068884217D100BF0C48806940F00800EB
:104760000A4988610846806900F00800019000BF8E
:1047700000BF4FF41070029002200390059002A930
:104780000448FEF7F9FD06B010BD0000001002401D
:1047900000080140000C01400000014000040040FE
:1047A0000008004070472DE9F04104460D461646CA
:1047B000002700BF94F83C00012802D10220BDE888
:1047C000F081012084F83C0000BF36B1042E1BD0DC
:1047D000082E31D00C2E5ED145E02946206801F02C
:1047E0004DFC2068806940F00800216888612068DD
:1047F000806920F004002168886120688069296947
:1048000008432168886148E02946206801F066FC79
:104810002068806940F400602168886120688069B0
:1048200020F480602168886120688069296940EAF5
:1048300001202168886130E02946206801F082FC6F
:104840002068C06940F008002168C8612068C0691C
:1048500020F004002168C8612068C0692969084304
:104860002168C86119E02946206801F09FFC206892
:10487000C06940F400602168C8612068C06920F404
:1048800080602168C8612068C069296940EA012008
:104890002168C86101E0012700BF00BF00BF002000
:1048A00084F83C0000BF384689E710B504460CB9CF
:1048B000012010BD94F83D0028B9002084F83C0088
:1048C000204600F025F8022084F83D00211D2068D4
:1048D00001F06CFB012084F8460000BF84F83E0024
:1048E00001213F200155402001554120015500BFC5
:1048F00000BF012084F842004320015544200155A7
:104900004520015500BF012084F83D000020D0E77C
:104910007047704770B504460D4615B994F83E00CF
:104920000BE0042D02D13F20005D06E0082D02D1EE
:104930004020005D01E04120005D012801D0012000
:1049400070BD1DB9022084F83E000EE0042D03D195
:1049500002213F20015508E0082D03D1022140200B
:10496000015502E00221412001550122294620681B
:1049700001F05EFB19492068884201D1012000E066
:10498000002028B12068406C40F400402168486451
:104990001249206888420BD02068B0F1804F07D0C0
:1049A0000F492068884203D00E49206888420CD104
:1049B0002068806800F00706062E0CD0206800688A
:1049C00040F001002168086005E02068006840F0C0
:1049D0000100216808600020B2E70000002C0140BF
:1049E000000400400008004010B504460349206858
:1049F000884201D1FEF764FE10BD0000002C01408A
:104A00007047704738B50446204602F027FD05463A
:104A100005B938BD00BF00200090206800680090F4
:104A200020684068009000BF00BF00BF00200090D9
:104A300020680068009020684068009000BF00BFB8
:104A400000BF002000902068006800902068406847
:104A5000009000BF00BF206802F032FD48B1802204
:104A600005F10D01204600F0FDFA0020A5F88E00AA
:104A700005E0012205F1D401204600F009FB287968
:104A800010B9284602F0CAFD00BFC2E72DE9F84F71
:104A90000446206805682068C668206847694FF0AA
:104AA0000009CA4605F00F09B9F1000F0AD105F057
:104AB000200038B106F0200020B1204601F0EBFCC8
:104AC000BDE8F88FB9F1000F7BD007F0010018B9ED
:104AD00006F49070002874D005F0010030B106F49F
:104AE000807018B1606C40F00100606405F0040053
:104AF00030B107F0010018B1606C40F00200606452
:104B000005F0020030B107F0010018B1606C40F010
:104B10000400606405F0080048B106F0200010B9F8
:104B200007F0010018B1606C40F008006064606C30
:104B3000002845D005F0200028B106F0200010B173
:104B4000204601F0A8FC20684069C0F3801A606C20
:104B500000F0080010B9BAF1000F2CD0204601F087
:104B600041FC2068406900F0400000B300BF00BF76
:104B70002168143151E8001F21F0400021681431F0
:104B800041E80002002AF3D100BFE06B50B1774842
:104B9000E16B4863E06BFEF775F988B1E06B416B40
:104BA00088470DE02046FFF72DFF09E009E0204689
:104BB000FFF728FF04E02046FFF724FF0020606491
:104BC0007EE7206B012877D105F01000002873D014
:104BD00006F010000028FAD000BF002000902068E6
:104BE0000068009020684068009000BF00BF206807
:104BF000406900F0400000285FD0E06B006840682A
:104C00001FFA80F8B8F1000F55D0A08D404552DD55
:104C1000A4F82E80E06B8069202843D000BF00BF3D
:104C200021680C3151E8001F21F4807021680C319B
:104C300041E80002002AF3D100BF00BF00BF216895
:104C4000143151E8001F21F001002168143141E8BE
:104C50000002002AF3D100BF00BF00BF2168143159
:104C600051E8001F21F040002168143141E80002A2
:104C7000002AF3D100BF202084F8420000202063E6
:104C800000BF00BF21680C3151E8001F21F0100067
:104C900021680C3141E80002002AF3D100BFE06B2B
:104CA000FEF7C4F802206063A08DE28D801A81B205
:104CB0002046FFF7A6FE03E742E0A08DE18D401AF3
:104CC0001FFA80F8E08DD0B3B8F1000F37D000BFE5
:104CD00000BF21680C3151E8001F21F49070216859
:104CE0000C3141E80002002AF3D100BF00BF00BF31
:104CF0002168143151E8001F21F0010021681431AE
:104D000041E80002002AF3D100BF202084F84200CD
:104D10000020206300BF00BF21680C3151E8001F54
:104D200021F0100021680C3141E80002002AF3D183
:104D300000BF0220606341462046FFF762FEBFE6E7
:104D400005F0800030B106F0800018B1204601F077
:104D500023FDB5E605F0400030B106F0400018B183
:104D6000204601F075FBABE600BFA9E643620008F0
:104D700010B504460CB9012010BDA06900B100E0D7
:104D800000BF94F8410028B9002084F84000204674
:104D900000F02AF8242084F841002068C06820F43C
:104DA00000502168C860204601F0F4FB20680069CB
:104DB00020F49040216808612068406920F02A00B2
:104DC000216848612068C06840F400502168C860CC
:104DD00000206064202084F8410084F84200002014
:104DE000606300BFC8E7000010B586B0044600202D
:104DF00002900390049005908F49206888426CD1FE
:104E000000BF8E48806940F480408C498861084624
:104E1000806900F48040019000BF00BF00BF0846D9
:104E2000806940F0040088610846806900F0040051
:104E3000019000BF00BF481502900220039003209C
:104E4000059002A97E48FEF797FA4FF48060029021
:104E500000200390049002A97948FEF78DFA794862
:104E600079490860002048600021774881608021EE
:104E7000C160002101614161202181610021C16186
:104E8000FEF726F908B1FDF76DFA00BF6E48E06342
:104E9000446200BF6B4814386C49086010204860B9
:104EA00000216A4881608021C16000210161416167
:104EB0008161C161FEF70CF908B1FDF753FA00BF3B
:104EC0006248A063446200BF002205212520FEF74E
:104ED000A7FC2520FEF794FCABE05D4920688842E2
:104EE0006CD100BF5548C06940F400305349C861D7
:104EF0000846C06900F40030019000BF00BF00BF49
:104F00000846806940F0040088610846806900F026
:104F10000400019000BF00BF042002900220039013
:104F20000320059002A94648FEF726FA08200290C1
:104F300000200390049002A94148FEF71DFA414861
:104F400014304449086000204860002141488160D5
:104F50008021C16000210161416120218161002126
:104F6000C161FEF7B5F808B1FDF7FCF900BF39489B
:104F7000E063446200BF334828303749086010209E
:104F800048600021344881608021C16000210161B6
:104F900041618161C161FEF79BF808B1FDF7E2F95B
:104FA00000BF2D48A063446200BF002205212620D7
:104FB000FEF736FC2620FEF723FC3AE0274920685E
:104FC000884236D100BF1D48C06940F480201B498B
:104FD000C8610846C06900F48020019000BF00BF8E
:104FE00000BF0846806940F0080088610846806973
:104FF00000F00800019000BF00BF081502900220D9
:1050000003900320059002A91548FEF7B5F94FF467
:105010000060029000200390049002A91048FEF75F
:10502000ABF9002205212720FEF7FAFB2720FEF727
:10503000E7FB06B010BD0000003801400010024040
:105040000008014058000240B4020020F80200208D
:10505000004400403C030020800300200048004042
:10506000000C014070B504460D46164694F8420007
:1050700020280BD105B10EB9012070BD002020639E
:1050800032462946204601F003FBF6E70220F4E70A
:1050900070B504460D46164694F8420020280BD100
:1050A00005B10EB9012070BD0020206332462946AB
:1050B000204601F051FBF6E70220F4E770B5054603
:1050C000284602F0CBF9044674B1286802F0F8F9DA
:1050D00050B994F8D410204602F0C0FA012204F12D
:1050E000D4012846FFF7D4FF70BD70472DE9F84F73
:1050F00004460E46174699464FF0000A94F84100C0
:10510000202850D106B117B90120BDE8F88F002042
:105110006064212084F84100FEF7CCFA8246A7841F
:10512000E784A068B0F5805F04D1206910B900253C
:10513000B04602E035464FF000081EE0534600221C
:1051400080212046CDF8009001F056FB20B12020B0
:1051500084F841000320D8E745B9B8F80000C0F34F
:1051600008002168486008F1020803E028782168F7
:1051700048606D1CE08C401EE084E08C0028DDD18E
:105180005346002240212046CDF8009001F034FB28
:1051900020B1202084F841000320B6E7202084F8C5
:1051A00041000020B1E70220AFE70000F7B5044658
:1051B000154694F84100202836D1019800B10DB968
:1051C0000120FEBD01982062A584E5840020606472
:1051D000212084F841001548A16B88621448A16B16
:1051E000C8621448A16B08630020A16B486301AE3C
:1051F00023681A1D31682B46A06BFDF79DFF6FF0E9
:1052000040002168086000BF00BF2168143151E8E8
:10521000001F41F080002168143141E80002002A9B
:10522000F3D100BF0020CCE70220CAE77F6300086B
:10523000D76300085762000810B5034693F8410091
:10524000202813D101B10AB9012010BD19629A8436
:10525000DA8400205864212083F841001868C0686F
:1052600040F080001C68E0600020EEE70220ECE7E0
:105270007047704700BFFEE70EB500200090019018
:1052800002901248124908600021114881600173A0
:1052900001754FF46021C16100200D494860012172
:1052A0000B480161FDF770FB08B1FDF75BF80020CA
:1052B0000090012001900020029069460448FDF70B
:1052C000AFFA08B1FDF74EF80EBD00000024014012
:1052D000D400002008B500BF1648406940F0010026
:1052E000144948610846406900F00100009000BF81
:1052F00000BF002205210E20FEF792FA0E20FEF7D5
:105300007FFA002205210F20FEF78AFA0F20FEF710
:1053100077FA002205211020FEF782FA1020FEF70E
:105320006FFA002205211120FEF77AFA1120FEF70C
:1053300067FA08BD0010024010B50B4A00210B4867
:1053400002F084FE0A4908600A4A00210A4802F075
:105350007DFE0A4908600A4A00210A4802F076FEEA
:105360000949086010BD000038B30008018D00082D
:10537000000000205CB300081D930008040000201A
:1053800080B300088D9400080800002000B585B0A7
:105390000020019002900390049000BF5348806960
:1053A00040F01000514988610846806900F0100003
:1053B000009000BF00BF00BF0846806940F0200099
:1053C00088610846806900F02000009000BF00BF9F
:1053D00000BF0846806940F0040088610846806983
:1053E00000F00400009000BF00BF00BF08468069C5
:1053F00040F0080088610846806900F008000090CD
:1054000000BF00BF00224FF440413948FEF74CF97D
:10541000002241F630113748FEF746F9002243F2E8
:10542000B4113548FEF740F94FF4005001900020C8
:1054300002900120039001A92D48FDF79DFF4FF434
:10544000404001900120029002200390049001A9A5
:105450002748FDF791FF4FF49870019001200290CA
:1054600003900220049001A92248FDF785FF43F232
:10547000A41001900120029003900220049001A941
:105480001D48FDF779FF4FF4404001900020029045
:105490000120039001A91848FDF76EFF4FF400604A
:1054A000019001200290002003900220049001A9A5
:1054B0001048FDF761FF4FF48050019011200290D9
:1054C000002003900220049001A90A48FDF754FF30
:1054D00010200190112002900020039002200490DF
:1054E00001A90548FDF748FF05B000BD00100240C6
:1054F0000010014000080140000C014000B58DB0D3
:10550000002009900A900B900C90079008901C21A5
:105510006846FAF76EFF4FF0804024490860472044
:10552000486000212148816044F61F61C16000216C
:1055300001618161FEF7A8FE08B1FCF713FF4FF48B
:105540008050099009A91948FEF74CFF08B1FCF7F3
:1055500009FF1648FFF7A9F908B1FCF703FF00207F
:105560000790089007A91148FEF74CFE08B1FCF718
:10557000F9FE602000904FF47A70019000200290B4
:105580000490002269460948FFF70DF908B1FCF7BD
:10559000E9FE042269460548FFF705F908B1FCF762
:1055A000E1FE0248FFF75CF80DB000BD04010020E9
:1055B00000B58DB0002009900A900B900C900790D8
:1055C00008901C216846FAF714FF2D482D49086001
:1055D0004720486000212B48816040F2E731C160DC
:1055E000002101618161FEF74FFE08B1FCF7BAFEB0
:1055F0004FF48050099009A92248FEF7F3FE08B144
:10560000FCF7B0FE1F48FFF750F908B1FCF7AAFEFF
:1056100000200790089007A91A48FEF7F3FD08B18B
:10562000FCF7A0FE602000904FF4FA70019000207B
:1056300002900490002269461248FFF7B4F808B1BE
:10564000FCF790FE042269460E48FFF7ACF808B15B
:10565000FCF788FE082269460A48FFF7A4F808B15B
:10566000FCF780FE0C2269460648FFF79CF808B15B
:10567000FCF778FE0348FEF7F3FF0DB000BD000015
:10568000000400404C01002000B58DB000200990BE
:105690000A900B900C90079008901C216846FAF72E
:1056A000A8FE254825490860472048600021234876
:1056B000816040F2E731C160002101618161FEF744
:1056C000E3FD08B1FCF74EFE4FF48050099009A9A4
:1056D0001A48FEF787FE08B1FCF744FE1748FFF7AB
:1056E000E4F808B1FCF73EFE00200790089007A9F7
:1056F0001248FEF787FD08B1FCF734FE60200090E9
:105700004FF4FA7001900020029004900022694644
:105710000A48FFF748F808B1FCF724FE0C22694656
:105720000648FFF740F808B1FCF71CFE0348FEF7F7
:1057300097FF0DB000BD000000080040940100205C
:1057400010B50B480B4908604FF4E1304860002168
:1057500008488160C16001610C21416100218161C3
:10576000C161FFF705FB08B1FCF7FCFD10BD0000AF
:1057700000380140DC01002010B50B480B490860DF
:105780004FF4E1304860002108488160C160016148
:105790000C21416100218161C161FFF7E9FA08B183
:1057A000FCF7E0FD10BD0000004400402402002092
:1057B00010B50B480B4908604FF4165048600021A3
:1057C00008488160C16001610C2141610021816153
:1057D000C161FFF7CDFA08B1FCF7C4FD10BD0000B0
:1057E000004800406C02002000BFFEE700BFFEE75B
:1057F00008B508490968C9084FF47A72B1FBF2F19B
:105800004143009100BF00BF00994A1E0092002949
:10581000F9D108BD180000200EB5002000900190BD
:1058200002900948FCF76EFF0020009001200190D3
:105830000520029069460448FCF7F2FF0020034966
:10584000088048600EBD0000D4000020BC0000208D
:1058500070B50F48FDF732FA0A210D48FDF76EF9D1
:1058600088B90B48FDF78CF80A490880088805F0CC
:105870003FFA0546084905F083FA0446074905F052
:105880007FFA044948600248FDF7B0FA70BD000095
:10589000D4000020BC0000206740533A0000404084
:1058A00010B5FDF707FF10BD10B500241AE0204623
:1058B00001F0AAFC00B913E00C4800EBC4008079A9
:1058C00001280CD1094B03EBC403DA79074B03EB36
:1058D000C4039988054B53F83400FDF7E5FE00BF7B
:1058E000601CC4B2112CE2D310BD000010B6000839
:1058F00070B50446204601F087FC08B9002070BD51
:10590000074A02EBC4029188054A52F83400FDF7B9
:10591000C3FE0546012D00D1F1E70020EFE70000AE
:1059200010B6000870B504460D46204601F06CFC28
:1059300000B970BD0B4800EBC4008079012800D08D
:10594000F7E70DB1012300E000231A46054B03EBF6
:10595000C4039988034B53F83400FDF7A5FE00BF3C
:10596000E7E7000010B6000810B5FFF79DFF10BD77
:105970001148006840F080700F49086000200F490E
:1059800048600846006840F0010008600C48006864
:105990000C4908600A4800684FF47A71B0FBF1F0D6
:1059A00008494860064800680749B0FBF1F005491E
:1059B00088600020C8607047FCED00E0001000E047
:1059C000180000206041002040420F0010B50C4834
:1059D00001F0C3FB04460B48844208D10A48084939
:1059E000091D0968016001200849087007E00648A0
:1059F0000021016000200549087000F009F810BD81
:105A000000FC000834125AA5C8000020C400002081
:105A100000B585B00020019010480390012004904B
:105A2000FDF792FC694601A8FDF7D4FB18B1FDF71C
:105A300029FC05B000BD0A49084801F0B3FB10B1CC
:105A4000FDF720FCF5E7042206490448001D01F09B
:105A500087FBFDF717FC00BFEBE7000000FC000828
:105A600034125AA5C800002010B500240CE02046CE
:105A700001F0F2FB00B905E0054901EB440001F03B
:105A8000DFFB00BF601CC4B2032CF0D310BD0000CC
:105A900098B600082DE9F0470746884691461D460E
:105AA000089E384601F0D8FB08B9BDE8F08705B17B
:105AB00006B9FAE71B4800EB470A504601F05EFCC6
:105AC0004146504601F021FC504601F083FC494616
:105AD000504601F01AFC504601F07CFC504601F0A3
