:020000040800F2
:100000008043002021020008C7290008DD240008E1
:10001000C5290008C304000885340008000000005A
:10002000000000000000000000000000890100083E
:100030005106000800000000CD010008652D0008F1
:100040003B0200083B0200083B0200083B0200089C
:100050003B0200083B0200083B0200083B0200088C
:100060003B0200083B0200083B0200083B0200087C
:100070003B0200083B020008C5040008D104000848
:10008000DD040008E90400083B0200083B02000808
:100090003B0200083B0200083B0200083B0200084C
:1000A0003B020008F92D00083B0200083B02000853
:1000B0003B0200083B0200083B0200083B0200082C
:1000C0003B0200083B0200083B0200083B0200081C
:1000D0003B020008613400086D34000879340008E0
:1000E0003B0200083B0200083B02000800F002F857
:1000F00000F03AF80AA090E8000C82448344AAF188
:100100000107DA4501D100F02FF8AFF2090EBAE885
:100110000F0013F0010F18BFFB1A43F0010318473B
:100120000C5100002C510000103A24BF78C878C14F
:10013000FAD8520724BF30C830C144BF04680C60ED
:10014000704700000023002400250026103A28BF35
:1001500078C1FBD8520728BF30C148BF0B60704739
:100160001FB51FBD10B510BD00F045F91146FFF7D2
:10017000F7FF03F049FB00F063F903B4FFF7F2FF68
:1001800003BC00F06BF90000224B19680868B0E866
:10019000F00F80F30988BFF36F8F4FF0000080F3FA
:1001A00011884EF00D0E70470000000006480068F0
:1001B000006880F3088862B661B6BFF34F8FBFF363
:1001C0006F8F00DF00BF00BF08ED00E0EFF3098094
:1001D000BFF36F8F0F4B1A6820E9F00F106008B55E
:1001E0004FF0500080F31188BFF34F8FBFF36F8F34
:1001F00004F042FA4FF0000080F31188BDE8084097
:1002000019680868B0E8F00F80F30988BFF36F8FB2
:10021000704700BF1C000020EFF30580704700000E
:100220000948804709480047FEE7FEE7FEE7FEE78A
:10023000FEE7FEE7FEE7FEE7FEE7FEE704480549C6
:10024000054A064B70470000F72D0008ED00000836
:10025000803D002080430020803F0020803F002020
:10026000032A40F2308010F0030C00F0158011F8E2
:10027000013BBCF1020F624498BF11F801CB00F8BA
:10028000013B38BF11F8013BA2F1040298BF00F80E
:1002900001CB38BF00F8013B11F0030300F02580CB
:1002A000083AC0F0088051F8043B083A51F804CBF2
:1002B000A0E80810F5E7121D5CBF51F8043B40F8B8
:1002C000043BAFF30080D20724BF11F8013B11F8C3
:1002D00001CB48BF11F8012B24BF00F8013B00F807
:1002E00001CB48BF00F8012B704710B5203AC0F091
:1002F0000B80B1E81850203AA0E81850B1E8185027
:10030000A0E81850BFF4F5AF5FEA027C24BFB1E863
:100310001850A0E8185044BF18C918C0BDE81040D4
:100320005FEA827C24BF51F8043B40F8043B08BFDD
:100330007047D20728BF31F8023B48BF11F8012BA4
:1003400028BF20F8023B48BF00F8012B704702F09D
:10035000FF0343EA032242EA024200F002B84FF0F0
:1003600000020429C0F0128010F0030C00F01B8082
:10037000CCF1040CBCF1020F18BF00F8012BA8BF90
:1003800020F8022BA1EB0C0100F00DB85FEAC17C54
:1003900024BF00F8012B00F8012B48BF00F8012B07
:1003A00070474FF0000200B5134694469646203938
:1003B00022BFA0E80C50A0E80C50B1F12001BFF41E
:1003C000F7AF090728BFA0E80C5048BF0CC05DF884
:1003D00004EB890028BF40F8042B08BF704748BFD2
:1003E00020F8022B11F0804F18BF00F8012B704746
:1003F000704770477047754600F02CF8AE46050010
:100400006946534620F00700854618B020B5FFF72F
:1004100015FFBDE820404FF000064FF000074FF0F9
:1004200000084FF0000B21F00701AC46ACE8C00912
:10043000ACE8C009ACE8C009ACE8C0098D4670471B
:1004400010B50446AFF300802046BDE81040FFF72A
:1004500094BE0000004870471C3D00200149182050
:10046000ABBEFEE7260002007047000070B50446F0
:1004700000688168C943C90717D1816821F001016B
:10048000816000F007FE05460AE000BF00F002FEB2
:10049000401B022804D920688068C043C00706D0EA
:1004A00020688068C043C007F0D0002070BDA06AFB
:1004B00040F01000A062E06A40F00100E06201201C
:1004C00070BDFEE7014800F0DBBB00001003002018
:1004D000014800F0D5BB0000CC020020014800F02C
:1004E000CFBB000054030020014800F0C9BB00004E
:1004F0009803002030B590F840500124AC40C56B03
:100500006C60046863604368102B036803D09960D3
:100510000068C26030BD9A600068C16030BD0000F4
:1005200000281CD00F498A7DD2B14A780270D1F8D8
:100530000220C0F80120D1F80620C0F805204A8921
:10054000A0F80920084A03681360436853600389D0
:100550001381807A90720020D072887501207047D4
:1005600000207047583C0020F8380020AFF300808E
:100570000349002008604860886002498875704718
:10058000F8380020583C002010B5044609480023E4
:10059000C3600361838231B10A2A00D90A22054867
:1005A0000C30FFF75DFE2146BDE81040002002F050
:1005B00033BB0000583C002010B500F005F808B12E
:1005C000002010BD012010BD0149085C02F016BAE0
:1005D0002051000810B5094C207E00280DD024229F
:1005E00004F124012046FFF780FE54F8010FA061BA
:1005F0006068E06120892084012010BD043900205A
:1006000010B500F009F8BDE810400249012002F0E1
:100610003FBB0000D934000810B524210A48FFF779
:10062000C0FE094824212438FFF7BBFE06480A21F2
:100630002430FFF7B6FE054800218160C160BDE8A7
:10064000104002F02FBF0000283900209C0000203D
:10065000704772B6FEE7000010B558210C48FFF74E
:100660007EFE0B48092101700A21C1720B218175A0
:100670000C2180F82110132180F82C10142180F80F
:100680003710152180F84210162180F84D1010BD4A
:10069000B03C00200EB502F005FB6846FFF740FFB6
:1006A00000283ED09DF80000A0F11301042938D2A3
:1006B0000F38C0B200EB400101EBC0011948DDF872
:1006C0000120014441F8012FDDF805204A60BDF802
:1006D00009200A81134910F82D2F58310A71027927
:1006E0004A71027A8A71427ACA71C27A0A72C27BEC
:1006F0004A72C27C8A72027DCA72827D0A73827ECD
:100700004A73827F8A73C27FCA7390F821200A7469
:1007100090F825204A7490F829208A7490F82A00CD
:10072000C8740EBDB03C002070B51948194C5FF07C
:1007300000050068C4F8010004F15801C4F8050080
:100740004A7862728A78A272E06020610978217525
:100750006175C4F81700C4F81B00E17784F8201015
:10076000C4F82200C4F8260084F82A1084F82B105C
:1007700005EB450000EBC5000119205C0A22491C6D
:10078000FFF702FF6D1CEDB2042DF1D370BD000028
:10079000B8000020B03C002010B5FFF77BFFBDE89B
:1007A0001040FFF7C1BF0000F8B50024009490F896
:1007B00024202546012A12D0012280F824204A68EC
:1007C0001F23072A0DD20668776B521E02EB8202A6
:1007D00093409F430B6893401F43776319E00220C7
:1007E000F8BD06680D2A0AD2376BD21F02EB8202CF
:1007F00093409F430B6893401F43376309E0F76AB8
:100800000D3A02EB820293409F430B6893401F43D3
:10081000F7620A68072306680A2A0AD3F7680A3AC1
:1008200002EB420293409F438B6893401F43F76063
:1008300008E0376902EB420293409F438B68934084
:100840001F4337610A68102A01D0112A20D1124BA8
:1008500002689A4217D193681B0219D4936843F433
:10086000000393600968102912D10C490C4A0968E9
:10087000B1FBF2F101EB8101490000E0491E00915A
:100880000029FBD104E0816A41F02001816201244A
:1008900080F824502046F8BD0024014018000020B4
:1008A00040420F002DE9F0414FF0000704003D46A3
:1008B0007ED0A06A002628B9E66284F8246020462B
:1008C00000F07EF82046FFF7D1FDA16AC90600D4EA
:1008D00020B1A06A40F01000A06269E0A16A21F492
:1008E000885141F00201A1626268E169237B0A43F9
:1008F00047EA43010A43A1684FF48077B94209D01F
:10090000012907D05FF0000194F814C0BCF1010F79
:1009100002D00AE03946F7E7F3B1A36A43F02003B7
:10092000A362E36A43F00103E3622368D3F804C0DF
:100930002CF4694C4CEA010CC3F804C021688B68A4
:10094000DFF870C003EA0C0313438B60A168B9425F
:100950000BD0012909D00CE0DFF85CC0A3690CEBD7
:1009600043330B4343F40061DFE7218A0D05A5F50E
:1009700080152168CB6A23F470032B43CB62216876
:1009800089680E4B1940914208D1E662A16A21F0B4
:10099000020141F00101A162BDE8F081A06A20F0EE
:1009A000020040F01000A062E06A40F00100E06246
:1009B0000120F1E7FDF7E1FF00E0FFFFFE0E1FFF62
:1009C00000B585B00021009101910291039100686A
:1009D0000E49884217D10E48816941F40071816146
:1009E000816901F400710491816941F00401816120
:1009F0008069694600F00400049003200090019093
:100A0000044800F04DFA05B000BD0000002401408C
:100A1000001002400008014070B5040003D094F8B3
:100A2000200010B104E0012070BD204600F082F8E3
:100A30002068016841F00101016000F02BFB0546D0
:100A4000052604E000F026FB401B0A2811D8206888
:100A50004068C007F6D02068016821F002010160FB
:100A600000F018FB05460BE000F014FB401B0A28C1
:100A700006D9606A40F40030606284F82060D2E7F2
:100A8000206840688007EFD4207E01282068016834
:100A90003DD021F080010160607E0128206801685E
:100AA00038D021F040010160A07E01282068016853
:100AB00033D021F020010160E07E01282068016828
:100AC0002ED041F010010160207F012820680168CC
:100AD00029D021F008010160607F012820680168A9
:100AE00024D021F004010160D4E902010843D4E9D3
:100AF0000412114308436168491E08432168C86114
:100B000000206062012084F82000002070BD41F0C8
:100B10008001C0E741F04001C5E741F02001CAE78C
:100B200021F01001CFE741F00801D4E741F00401C2
:100B3000D9E7000010B586B0002100910191029123
:100B4000039100681349884222D11348C16941F0DA
:100B50000071C161C16901F000710491816941F0C6
:100B60000401816180690D4C00F0040004904FF491
:100B7000006000906946204600F092F9A0140090B1
:100B800002200190032003906946204600F088F976
:100B900006B010BD00640040001002400008014093
:100BA00010B590F821100022022905D0042181639C
:100BB00080F82020012010BD01680B6823F00E038F
:100BC0000B6001680B6823F001030B6090F8403064
:100BD000C46B012101FA03F3636080F8211080F8EF
:100BE0002020104610BD000010B590F82110002400
:100BF000022903D00421816301243DE001680A68D1
:100C000022F00E020A6001680A6822F001020A60FE
:100C10001A4A0168914201D1012121E0174A143298
:100C2000914201D110211BE0144A2832914201D196
:100C3000891515E0114A3C32914201D189140FE027
:100C40000E4A5032914202D14FF4803108E00B4AF3
:100C50006432914202D14FF4801101E04FF0807173
:100C6000064A083A5160012180F82110002180F8DD
:100C70002010416B01B18847204610BD080002409A
:100C80002DE9F05FC16B0C6801680B68D0F840C0BB
:100C9000042202FA0CF2494DDFF824A1494E4A4FD2
:100CA000DFF828B1DFF828E122422CD05A072AD5F4
:100CB0000A68920603D40A6822F004020A600168F6
:100CC000A94201D1042219E0514501D1402215E089
:100CD000B14202D14FF4806210E0B94202D14FF428
:100CE00080420BE0594502D14FF4802206E0714565
:100CF00002D14FF4800201E04FF080622F490839A1
:100D00004A60C16A3BE04FF0020808FA0CF818EAA2
:100D1000040F4FF000094FF0010235D05FEA8378ED
:100D200032D50B689B0605D40B6823F00A030B60D1
:100D300080F821200168A94201D1022219E0514521
:100D400001D1202215E0B14202D14FF4007210E02F
:100D5000B94202D14FF400520BE0594502D14FF491
:100D6000003206E0714502D14FF4001201E04FF06D
:100D70000072124908394A6080F82090816A00297F
:100D80001AD0BDE8F05F0847082505FA0CF52542A2
:100D900012D01B0710D50B6823F00E030B6090F8E0
:100DA0004010C36B02FA01F15960826380F8212080
:100DB00080F82090016BE2E7BDE8F09F0800024058
:100DC0001C00024030000240440002405800024033
:100DD0006C00024030B528B308C8134914221944E6
:100DE000B1FBF2F18900C1631049816302214177AF
:100DF0001A6843F6F0718A43D0E900142143D0E920
:100E000002452C43214304692143446921438469F9
:100E10002143114319600021416301224277017788
:100E2000084630BD012030BDF8FFFDBF0000024084
:100E300070B5044690F82000002501280CD0012050
:100E400084F8200094F821600020012E06D084F858
:100E500020000225284670BD022070BD022684F8BD
:100E60002160A0632068066826F00106066020461F
:100E7000FFF740FBE06A00282068016802D041F0DB
:100E80000E0106E021F0040101602068016841F0D4
:100E90000A0101602068016841F001010160D9E7A1
:100EA0002DE9F84FDFF8B8910024A9F1040B23468F
:100EB0000F2709F1040AABF1040EC9E00125A54092
:100EC0002A40AA427DD1674ED1F804C0ACEB060897
:100ED000B44532D014DCBCF1030F3AD009DCBCF1CC
:100EE000000F2AD0BCF1010F1CD0BCF1020F31D190
:100EF0001DE0BCF1110F17D0BCF1120F2AD119E07F
:100F0000B8F5881F19D006DCB8F5803F15D0B8F5C4
:100F1000801F1FD111E0B8F5001F0ED0B8F5041FD7
:100F200018D10AE0CB6815E0CB681B1D12E0CB6836
:100F300008330FE0CB680C330CE08B682BB1012B2E
:100F40004FF0080303D0456104E0042302E005618B
:100F500000E00023FF2A01D8064601E000F1040664
:100F60004FEA840501D9A5F12005D6F8008007FADB
:100F700005FC28EA0C0803FA05F548EA0508C6F856
:100F800000804D68ED0062D5374DAE6946F0010630
:100F9000AE61AD6924F0030605F001050095334DFF
:100FA00006EB050CDCF80850A607360F07FA06F822
:100FB00025EA0805DFF8B880404503D14FF0000866
:100FC00017E044E0DFF8AC80404502D14FF0010863
:100FD0000FE0DFF8A480404502D14FF0020808E09E
:100FE000DFF89880404502D14FF0030801E04FF050
:100FF000040808FA06F848EA0508CCF808804D68A5
:10100000D9F80060ED024D4601D5164300E0964345
:101010002E604D68DAF80060AD02554601D51643E2
:1010200000E096432E604D68DBF80060AD035D463E
:1010300001D5164300E096432E604D68DEF800604F
:10104000ED03754601D5164300E096432E60641CFF
:101050000D682A46E5407FF431AFBDE8F88F000007
:10106000080401400000111000100240000001407F
:1010700000080140000C0140001001400014014034
:101080008068084000D0012070470AB101617047B4
:101090000904FBE701488068704700000C0000204D
:1010A0000248816802781144816070470C0000207A
:1010B000074810B5016841F010010160032000F0FD
:1010C000A1F80F2000F006F800F04AF8002010BD4B
:1010D0000020024030B505461C4887B0816941F4C4
:1010E00000618161806906A900F40060009001A898
:1010F00000F0A6F900F0D4F91549164AB0FBF1F159
:101100001548491E0260416040F2E7320021C0E903
:1011100003218160816100F0BFFB040012D10E4801
:1011200000F014FC04000DD1192000F03DF8102D42
:1011300007D200222946192000F044F8074805602C
:1011400000E0012407B0204630BD0000001002403E
:1011500040420F00002C0140DC0300201000002062
:101160000F4808B5816941F001018161816901F091
:1011700001010091C16941F08051C161C069002243
:1011800000F0805000900F21901E00F01BF80548E1
:10119000416821F0E06141F00071416008BD00004C
:1011A0000010024000000140002809DB00F01F028F
:1011B000012191404009800000F1E020C0F80011B9
:1011C00070470000F0B40E4B1B680C46C3F30223BB
:1011D000C3F10705042D00D90425191D072901D2E3
:1011E000002300E0DB1E012606FA05F1491E21401E
:1011F00099409E40761E16403143F0BC02F0F4B98F
:101200000CED00E0064900F0070208684FF6FF0306
:10121000184040EA0220034A10430860704700006B
:101220000CED00E00000FA052DE9F84305460078D2
:10123000354CC00754D0E0690026C00008D4E069EE
:1012400040F08050E061E069012600F0805000909D
:101250002E480168C90512D40168804641F48071A6
:101260000160FFF717FF074605E000BFFFF712FF19
:10127000C01B642823D8D8F80000C005F6D5206A22
:1012800010F4407021D0A98801F4407181421CD033
:10129000206A1F49012220F440700A6000220A607F
:1012A0002062C00711D0FFF7F5FE074641F28838EB
:1012B00008E000BFFFF7EEFEC11B414502D9032045
:1012C000BDE8F883206A8007F4D5206A696820F4B5
:1012D0004070084320621EB1E06920F08050E06158
:1012E0002878800705D56068A96820F44040084345
:1012F00060602878C00605D56068E96820F4800041
:10130000084360600020DBE70010024000700040EE
:10131000400442422DE9F0470F46050061D0434E9C
:10132000306800F00700B84209D2306820F00700AA
:1013300038433060306800F00700B84251D1286867
:101340003B4C810712D5400703D5606840F4E0604C
:1013500060602878000703D5606840F460506060E2
:101360006068A96820F0F000084360602878C00732
:1013700028D06868012810D02168022810D0890779
:1013800000292EDA616821F0030101436160FFF753
:1013900081FE804641F288390DE021688903EFE73C
:1013A0008901EDE7FFF776FEA0EB0801494502D978
:1013B0000320BDE8F0876068696800F00C00B0EBBE
:1013C000810FEFD1306800F00700B8420BD93068C8
:1013D00020F0070038433060306800F00700B84262
:1013E00001D00120E5E72878400705D56068E96865
:1013F00020F4E060084360602878000706D5606844
:10140000296920F4605040EAC100606000F058F89B
:101410006168084AC1F30311515CC840064908607D
:1014200006480068FFF756FE0020C2E70020024091
:101430000010024006510008180000201000002093
:101440000F2202600C4A536803F0030343605368A1
:1014500003F0F0038360536803F4E063C3605268F1
:101460004FF4E06303EAD20202610448006800F02E
:101470000700086070470000001002400020024092
:101480000448054900684968044AC1F30221515CD7
:10149000C840704718000020001002401651000894
:1014A0000448054900684968044AC1F3C221515CF7
:1014B000C840704718000020001002401651000874
:1014C0000E4A51680E4801F00C03042B11D0082B72
:1014D0000FD10C48C1F38343C903C05C0AD55168DE
:1014E000084AC1F34041921E515C054A5043B0FB8B
:1014F000F1F0704704494843704700000010024073
:1015000000127A00F650000800093D002DE9F84F5E
:10151000040070D02078C04DC00749D06868C0F37F
:101520008100012807D06868C0F38100022809D132
:101530006868C00306D52868800339D5606800282C
:10154000E7D035E06068B0F5803F0BD010B1B0F562
:10155000A02F11D0286820F480302860286820F45B
:10156000802002E0286840F480302860606890B1F4
:10157000FFF790FD06460AE0286840F480202860C6
:10158000F0E700BFFFF786FD801B642873D828684A
:101590008003F7D50CE0FFF77DFD064605E000BFB0
:1015A000FFF778FD801B6428F0D828688003F7D403
:1015B00020789A4E80074FF001094FF0000839D586
:1015C000686810F00C0F07D06868C0F3810002282B
:1015D00009D16868C00306D42868800714D520693B
:1015E000012808D110E02069B0B1C6F80090FFF7DB
:1015F00051FD074605E00AE1FFF74CFDC01B02283C
:10160000C4D828688007F7D52868616920F0F800F9
:1016100040EAC10028600DE0C6F80080FFF73AFDFF
:10162000074604E0FFF736FDC01B022823D82868D0
:101630008007F7D4207800072CD57948A169D9B163
:10164000C0F80090FFF726FD074604E0FFF722FDF3
:10165000C01B02280FD8686A8007F7D571484FF47D
:10166000FA510068B0FBF1F0009000BF0098411EF5
:101670000091FAD20EE080E0C0F80080FFF70AFD8A
:10168000074604E0FFF706FDC01B022875D8686A0C
:101690008007F7D42078400760D5E8690027C000AC
:1016A00008D4E86940F08050E861E869012700F05B
:1016B000805000905C480168C90513D401688346D6
:1016C00041F480710160FFF7E5FC824606E000BF4F
:1016D000FFF7E0FCA0EB0A0064284ED8DBF800001E
:1016E000C005F5D5E06801280AD008B1052813D057
:1016F000286A20F001002862286A20F0040002E035
:10170000286A40F001002862E06841F2883B98B105
:10171000FFF7C0FC82460BE0286A40F00400286214
:10172000EEE700BFFFF7B6FCA0EB0A0159455AD817
:10173000286A8007F6D50CE0FFF7ACFC824605E08E
:10174000FFF7A8FCA0EB0A0159454CD8286A80078E
:10175000F6D41FB1E86920F08050E861E06988B3F1
:101760006968C1F38101022944D00228C6F860806B
:1017700004D0FFF78FFC044638E034E0FFF78AFC22
:10178000074604E0FFF786FCC01B02282BD8286818
:101790008001F7D4206AB0F5803F05D16868A16860
:1017A00020F4003008436860D4E908010843696800
:1017B00021F4741108436860C6F86090FFF76AFC72
:1017C000044606E025E000BFFFF764FC001B02288A
:1017D00009D828688001F7D51BE000BFFFF75AFC45
:1017E000001B022802D90320BDE8F88F2868800179
:1017F000F4D40EE00128F7D06868226A00F4803142
:10180000914204D1616A00F47010884201D0012035
:10181000EAE70020E8E70000001002400000424232
:10182000800442421800002000700040704770475A
:1018300070B590F83C20012A26D0012480F83C4065
:10184000022280F83D2003685A689D6822F07006E5
:101850000A6832435A600D4B02689A4208D0B2F1CE
:10186000804F05D00A4B9A4202D00A4B9A4204D1CB
:10187000496825F080031943916080F83D400021BC
:1018800080F83C10084670BD022070BD002C01405D
:10189000000400400008004010B5040003D094F894
:1018A0003D0010B107E0012010BD002084F83C008D
:1018B000204600F01FF8022084F83D00211D20681A
:1018C00001F0A0FA012084F8460084F83E0084F874
:1018D0003F0084F8400084F8410084F8420084F816
:1018E000430084F8440084F8450084F83D0000205B
:1018F00010BD000008B501681148B1F1804F0BD050
:10190000104A914210D1C16941F00201C161C06920
:1019100000F00200009008BDC16941F00101C16101
:10192000C06900F00100F5E7074A9142F3D1C169AF
:1019300041F00401C161C06900F00400EAE7000061
:1019400000100240000400400008004090F83D10E4
:10195000012901D001207047022180F83D10016863
:10196000CA6842F00102CA6000680B49884208D088
:10197000B0F1804F05D00949884202D00849884219
:1019800004D1816801F00701062903D0016841F004
:101990000101016000207047002C0140000400405C
:1019A0000008004070B5044690F83C00002501286E
:1019B00017D0012684F83C60022084F83D0020689E
:1019C000826822F0770222F47F4282600868502801
:1019D00038D00DDC20284FD005DC90B3102811D171
:1019E0004AE0022070BD302846D040280AD13BE0B2
:1019F00060282FD070280DD0B0F5805F03D0B0F5EF
:101A0000005F12D0012584F83D60002084F83C007E
:101A1000284670BDCB68D1E90121206801F03BFA6E
:101A20002068816841F0770109E0CB68D1E90121A4
:101A3000206801F030FA2068816841F480418160BB
:101A4000E1E719E0CA684968206801F0D9FA502135
:101A5000206806E0CA684968206801F0E2FA60215F
:101A6000206801F022FACEE7CA684968206801F0D0
:101A7000C7FA40212068F4E7226801461046F0E7E3
:101A800070472DE9F04104460068C66805694FF0CB
:101A90000007A90713D5B10711D5F91E016101206F
:101AA0002077206880698007204602D0FFF7E8FF92
:101AB00004E000F0F9F8204600F08BF9277768077A
:101AC00016D5700714D521686FF004000861022054
:101AD00020772068806910F4407F204602D0FFF70D
:101AE000CFFF04E000F0E0F8204600F072F927771D
:101AF000280715D5300713D521686FF00800086155
:101B0000042020772068C0698007204602D0FFF7B4
:101B1000B7FF04E000F0C8F8204600F05AF9277734
:101B2000E80616D5F00614D521686FF0100008619C
:101B3000082020772068C06910F4407F204602D03A
:101B4000FFF79EFF04E000F0AFF8204600F041F9F7
:101B50002777E80708D0F00706D021686FF001006A
:101B60000861204600F084F9280608D5300606D51D
:101B700021686FF0800008612046FFF757FE680675
:101B800008D5700606D521686FF040000861204630
:101B900000F078F9A8060AD5B00608D521686FF0DC
:101BA000200008612046BDE8F041FFF740BEBDE8D7
:101BB000F081000030B585B00021009101910291C3
:101BC0000391006832490224324A334DB0F1804F0C
:101BD0001CD0324B984245D1886940F0040088619E
:101BE000886900F004000490886940F0080088616A
:101BF0008869694600F008000490C020CDE900041F
:101C000010460394FFF74CF9032038E0886940F050
:101C100004008861886900F004000490886940F03D
:101C2000080088618869694600F0080004904FF454
:101C30000040CDE9000410460394FFF731F9082075
:101C4000CDE90004694628460394FFF729F91448B2
:101C5000416821F4407141F0E06141F480714160DC
:101C600005B030BD0F4A9042FAD1886940F00800B3
:101C70008861886900F0080004904FF41070CDE985
:101C80000004694628460394FFF70AF9E8E70000D4
:101C90000010024000080140000C01400004004018
:101CA0000000014000080040704770B5044690F8FD
:101CB0003C0000260D4601280FD0012084F83C008E
:101CC0006AB1042A1DD0082A2FD00C2A3FD0012641
:101CD000002084F83C00304670BD022070BD2068B2
:101CE00001F0ECF82068816941F008018161206809
:101CF000816921F004018161206881692A691143A9
:101D000011E0206801F002F92068816941F4006166
:101D100081612068816921F4806181612068816925
:101D20002A6941EA02218161D2E7206801F01AF9AB
:101D30002068C16941F00801C1612068C16921F0D2
:101D40000401C1612068C1692A69114311E020685A
:101D500001F034F92068C16941F40061C161206873
:101D6000C16921F48061C1612068C1692A6941EAC1
:101D70000221C161ACE710B5040003D094F83D0026
:101D800010B107E0012010BD002084F83C0020467F
:101D900000F01EF8022084F83D00211D206801F0AB
:101DA00031F8012084F8460084F83E0084F83F00B2
:101DB00084F8400084F8410084F8420084F843002D
:101DC00084F8440084F8450084F83D00002010BDEC
:101DD0007047704710B50446022249B104290ED05D
:101DE000082913D094F84100012816D0012010BD15
:101DF00094F83E000128F9D184F83E200FE094F8D1
:101E00003F000128F2D184F83F2008E094F8400018
:101E10000128EBD184F8402001E084F84120012220
:101E2000206801F02BF80F492068884203D1426CEA
:101E300042F4004242642068884208D0B0F1804FEA
:101E400005D00949884202D00849884204D18168F6
:101E500001F00701062903D0016841F0010101608A
:101E6000002010BD002C014000040040000800408C
:101E700000680349884201D1FFF712B9704700009A
:101E8000002C014070477047F8B5054601F0ECFBA7
:101E9000040024D028680026016841680091016888
:101EA0004168009101684168009101F0EFFB40B189
:101EB000802204F10D01284600F070FAA4F88E602B
:101EC00005E0012204F1D401284600F075FA2079DA
:101ED000002804D12046BDE8F84001F063BCF8BDFD
:101EE000F8B5016804460868CA684B6910F00F0F1E
:101EF0004FF0000559D003F0010602F49077374304
:101F000065D0C10705D0D10503D5616C41F0010151
:101F10006164410705D5D90703D0616C41F0020126
:101F20006164810705D5D90703D0616C41F00401D4
:101F30006164010707D502F02001314303D0616CD1
:101F400041F008016164616C00293AD0800604D533
:101F5000900602D5204601F02AF920684069616C9C
:101F6000C0F38010090700D460B3204601F0EAF8FE
:101F700020684069400621D52068143050E8001FD1
:101F800021F0400140E80012002AF5D1E06BA8B131
:101F90006D494163E06BFEF727FE002811D0E06B2E
:101FA000416B01B0BDE8F040084783060FD59306AA
:101FB0000DD52046BDE8F84001F0F9B82046FFF7FE
:101FC00063FFF8BD2046FFF75FFF6564F8BD266B31
:101FD0002023012E7CD1C6067AD5D60678D508688E
:101FE0004868009048694FF00206400640D5E16B12
:101FF000086840680004000CE8D0A28D8242E5D950
:10200000E085886920282DD020680C3050E8001F1A
:1020100021F4807140E80012002AF5D120681430C4
:1020200050E8001F21F0010140E80012002AF5D11C
:102030002068143050E8001F21F0400140E80012F1
:10204000002AF5D184F84230256320680C3050E82E
:10205000001F21F0100140E80012002AF5D1E06BCA
:10206000FEF79EFD6663A08DE18D401A81B22AE0E5
:10207000A08DE18D401A81B2E08D0028A6D0002904
:10208000A4D022680C3252E8000F20F4907042E88D
:102090000007002FF5D12068143050E8002F22F0FF
:1020A000010240E80027002FF5D184F84230256373
:1020B00020680C3050E8002F22F0100240E8002386
:1020C000002BF5D166632046FFF7DDFEF8BDFFE784
:1020D00005062BD5150629D594F841002128F5D100
:1020E000A068B0F5805F01D12069B0B1206A411CC1
:1020F0002162216800784860E08C401E0004000CDA
:10210000E084E3D12068C16821F08001C1602068CB
:10211000C16841F04001C160D8E7206A0088C0F37F
:1021200008004860206A801C2062E5E74006CDD5A3
:102130005006CBD5CA68204622F04002CA6084F817
:10214000413000F0CAF9C1E74730000870B504001B
:1021500004D094F84100002510B106E0012070BDC4
:1021600084F84050204600F023F8242084F84100F1
:102170002068C16821F40051C160204601F078F860
:102180002068016921F4904101612068416921F0D2
:102190002A0141612068C16841F40051C160656451
:1021A000202084F8410084F842006563002070BD5F
:1021B0002DE9F04786B0002500950195029503951D
:1021C0000446DFF8B8C103686D48022103226D4F51
:1021D00080264FF480684FF020094FF0100A6345C5
:1021E0004BD1836943F480438361836903F4804363
:1021F0000493836943F0040383618069039200F0D0
:10220000040004900802CDE9000169463846FEF753
:1022100047FECDE90085694638460295FEF740FE47
:102220005A4F5948C7E90005C7E902563D61C7E959
:1022300005593846FD61FEF7CDFD08B1FEF709FAF4
:10224000E7637C62514F504844371438C7E902565F
:102250003D617D61BD61FD61C7E9000A3846FEF759
:10226000B9FD08B1FEF7F5F9A76300220521252085
:102270007C62FEF7A7FF252051E0DFF814C163451B
:1022800052D1C36943F40033C361C36903F400331B
:102290000493836943F0040383618069039200F02F
:1022A000040004900420CDE9000169463846FEF799
:1022B000F7FD0820CDE90005694638460295FEF78E
:1022C000EFFD324F304888371430C7E90005C7E9C1
:1022D00002563D61C7E905593846FD61FEF77AFDB2
:1022E00008B1FEF7B6F9E7637C62284F2648CC3781
:1022F0002830C7E902563D617D61BD61FD61C7E9D6
:10230000000A3846FEF766FD08B1FEF7A2F9A7639A
:102310000022052126207C62FEF754FF2620FEF7CE
:1023200043FF06B0BDE8F0871A4CA342F9D1C36958
:1023300043F48023C361C36903F480230493836956
:1023400043F0080383618069CDE9008100F0080053
:10235000CDE90320104C69462046FEF7A1FDE014AC
:10236000CDE90005694620460295FEF799FD002259
:1023700005212720FEF726FF2720D0E7003801405F
:10238000001002400008014058000240CC0200202A
:102390000044004000480040000C014090F84230EA
:1023A000202B01D00220704721B11AB10023036312
:1023B00000F0BABF0120704790F84230202B01D0C6
:1023C0000220704721B11AB10023036300F0F4BF6B
:1023D0000120704770B5054601F046F9040011D0A0
:1023E000286801F053F900280CD194F8D410204645
:1023F00001F0DEF904F1D4012846BDE87040012265
:10240000FFF7DABF70BD70472DE9F843044690F836
:102410004100984616460D46202802D00220BDE80D
:10242000F88385B17EB100206064212084F84100EA
:10243000FEF730FEA6848146E684A0682027B0F52A
:10244000805F02D003E00120E9E7206910B12E4649
:1024500000250EE000260CE08021204600F0C7FF9A
:10246000A8B9C6B116F8010B21684860E08C401E7F
:10247000E084E08C4B464FF00002CDF8008000284D
:10248000EAD14FF04001204600F0B1FF40B184F89E
:1024900041700320C3E735F8020BC0F30800E3E7FF
:1024A00084F841700020BAE790F84130202B01D029
:1024B0000220704779B172B101628284C284002126
:1024C0004164212180F841100068C16841F0800119
:1024D000C16000207047012070477047FEE7000090
:1024E0003EB5002410480094019402940D49846084
:1024F000016004730475012505614FF46021446097
:10250000C161FEF7CFF908B1FEF7A3F8CDE90045A8
:10251000694605480294FEF747F9002801D0FEF706
:1025200098F83EBD00240140C40000200D4810B5BD
:102530000B4901601021416000218160C16001618F
:102540004161017641768176C17601774177FEF768
:1025500063FA002803D0BDE81040FEF77AB810BD3A
:1025600000640040F4000020154808B5416941F0BE
:10257000010141614069002200F001000090052145
:102580000E20FEF71FFE0E20FEF70EFE0022052194
:102590000F20FEF717FE0F20FEF706FE0022052192
:1025A0001020FEF70FFE1020FEF7FEFD0022052191
:1025B0001120FEF707FEBDE808401120FEF7F4BD2C
:1025C0000010024010B50B4A00210B4801F076F9CB
:1025D0000A4C084A002120602432094801F06EF9B3
:1025E000044A606048320021064801F067F9A060A3
:1025F00010BD000088500008FD41000800000020C8
:1026000085420008A14200082DE9F04F85B0002660
:1026100035480096019602960396816941F01001B3
:102620008161816901F010010491816941F020010B
:102630008161816901F020010491816941F0040107
:102640008161816901F004010491816941F008010F
:1026500081618069DFF894A000F008004FF44047E2
:102660000490002239465046FEF70FFDDFF880B097
:102670004FF49878002241465846FEF706FD43F293
:10268000B419002249461B48FEF7FFFC4FF40050E6
:10269000CDE900060124694602945046FEF700FC8D
:1026A00002250097CDE90145694650460395FEF79E
:1026B000F7FBCDE9008469465846CDE90245FEF7AF
:1026C000EFFBCDE9009469460A48CDE90245FEF7E3
:1026D000E7FB0097CDE9016469460648FEF7E0FB99
:1026E00005B0BDE8F08F000000100240001001406E
:1026F00000080140000C014010B58EB00024079482
:10270000089409940A940B941C2168460C94FDF7D4
:1027100048FE23484FF0804101604721C0E9011481
:1027200044F61F61C0E903148461FFF7B5F808B1EE
:10273000FDF78FFF4FF48050079007A91848FFF767
:1027400031F908B1FDF785FF1548FFF714FB08B113
:10275000FDF77FFF0B940BA911480C94FFF768F865
:1027600008B1FDF776FF602000904FF47A70CDE954
:102770000104002269460A480494FFF796FA08B15A
:10278000FDF767FF042269460548FFF78EFA08B196
:10279000FDF75FFF0248FFF70DFA0EB010BD000015
:1027A0001C01002010B58EB00024079408940994F1
:1027B0000A940B941C2168460C94FDF7F2FD2B48FB
:1027C000294901604721C0E9011440F2E731C0E91D
:1027D00003148461FFF760F808B1FDF73AFF4FF486
:1027E0008050079007A92148FFF7DCF808B1FDF7F2
:1027F00030FF1E48FFF7BFFA08B1FDF72AFF0B9420
:102800000BA91A480C94FFF713F808B1FDF721FF44
:10281000602000904FF4FA70CDE90104002269466F
:1028200012480494FFF741FA08B1FDF712FF0422A1
:1028300069460E48FFF739FA08B1FDF70AFF08228A
:1028400069460A48FFF731FA08B1FDF702FF0C228A
:1028500069460648FFF729FA08B1FDF7FAFE034872
:10286000FFF7A8F90EB010BD00040040640100207D
:1028700010B58EB000240794089409940A940B9420
:102880001C2168460C94FDF78CFD2348214901600A
:102890004721C0E9011440F2E731C0E90314846123
:1028A000FEF7FAFF08B1FDF7D4FE4FF48050079011
:1028B00007A91948FFF776F808B1FDF7CAFE1648D0
:1028C000FFF759FA08B1FDF7C4FE0B940BA91248A3
:1028D0000C94FEF7ADFF08B1FDF7BBFE6020009041
:1028E0004FF4FA70CDE90104002269460A480494C5
:1028F000FFF7DBF908B1FDF7ACFE0C22694606488C
:10290000FFF7D3F908B1FDF7A4FE0348FFF752F92A
:102910000EB010BD00080040AC0100200C4810B5FE
:102920000A4901604FF4E1314160002181600C22CD
:10293000C160C0E904128161C161FFF707FC002892
:1029400003D0BDE81040FDF784BE10BD0038014043
:10295000F40100200C4810B50A4901604FF4E13140
:102960004160002181600C22C160C0E904128161D4
:10297000C161FFF7EBFB002803D0BDE81040FDF775
:1029800068BE10BD004400403C0200200C4810B559
:102990000A4901604FF416514160002181600C2208
:1029A000C160C0E904128161C161FFF7CFFB00285B
:1029B00003D0BDE81040FDF74CBE10BD00480040FC
:1029C00084020020FEE7FEE770B50B4D0024204690
:1029D00000F01AFE50B105EBC4008179012905D140
:1029E000C279818855F83400FEF74FFB641CE4B2CD
:1029F0000F2CECD370BD00002451000810B5044624
:102A000000F002FE00280AD0054800EBC40150F88F
:102A100034008988FEF734FB012800D0002010BD67
:102A20002451000870B50D46044600F0EDFD002865
:102A300010D0094B03EBC400817901290AD10DB1F3
:102A4000012200E00022818853F83400BDE8704084
:102A5000FEF71BBB70BD000024510008FFF7B4BF98
:102A60000D48016841F0807101600C48002242600D
:102A7000016841F00101016009484FF47A7301686F
:102A80000848B1FBF3F3C0E90013074BB1FBF3F1C6
:102A9000C0E9021270470000FCED00E0001000E009
:102AA00018000020A03C002040420F0070B50A4EE4
:102AB0000024204600F0B6FD48B106EB4405012194
:102AC0002878FFF7AFFF68780121FFF7ABFF641CA0
:102AD000E4B2032CEDD370BD9C51000870B5084DD5
:102AE000002400BF55F8340020B105EBC40149684B
:102AF000FFF770F9641CE4B20C2CF3D370BD000036
:102B0000A45100082DE9F047DFF8E0800025DFF848
:102B1000D490DFF8D4A088B02E46A8F5407700BF47
:102B200007EB052459F8250020601AF805002071EC
:102B30002573A4F8D060A4F8D260A4F88E60C4F81D
:102B4000F860C4F8FC602046C4F8F46000F02AFE87
:102B5000C5EBC50000EB051101EB080008F80160AA
:102B6000467086752068006800F090FD0028206897
:102B700005D0802204F10D01FFF710FC04E00122D2
:102B800004F1D401FFF718FC6D1CEDB2032DC7D37F
:102B9000174D00244FF47A7807EB04261C2215A168
:102BA0006846FDF7A2FB30680168A94201D13121D6
:102BB0000AE0174A914201D1322105E0154A9142BB
:102BC00001D1332100E058218DF805104346192228
:102BD0006946FFF719FC641CE4B2032CDCD308B08F
:102BE000BDE8F087AC00002004520008583C0020EB
:102BF0000038014055534152547820494E495420E1
:102C00005355434345535346554C4C590A00000015
:102C1000004400400048004030B40B460146032801
:102C20002FD21948C1EBC10200EB012002EB0111C8
:102C3000164A0A440179002923D1552180F8D5107C
:102C4000AA2180F8D61080F8D730002153184418F4
:102C5000491C1B7BC9B284F8D8300A29F6D300215D
:102C600080F8E210117880F8E3101178491C117097
:102C7000FF2180F8E41030BC102200F1D50100F0F3
:102C8000A7BD30BC7047000058390020583C0020D8
:102C9000032803D2024A02EB002081607047000043
:102CA000583900202DE9F047FEF7F4F9DFF8B0803D
:102CB0008146002508EB05242068006800F0E6FC4A
:102CC000C0B12068C06B0068406804F10D06C0F117
:102CD000800087B20AE0815D204600F069FD94F82B
:102CE0008E00401C00F07F00A4F88E00B4F88E0027
:102CF000B842F0D1207980B994F8E50068B1D4F8F1
:102D0000F410A9EB0100322807D9D4F8FC00401CCC
:102D1000C4F8FC00204600F045FD04F1900600BF19
:102D2000B4F8D010B4F8D20081420FD16D1CEDB2CE
:102D3000032DBFD3BDE8F087A268002AF0D0207B26
:102D40009047EDE7204600F0B1FCE9E7815D401CCB
:102D500000F03F02A4F8D22020790028F2D0EBE75F
:102D60005839002010B54FF0E020006901F0D6FF7F
:102D7000012803D0BDE8104001F004BD10BD30B5FE
:102D800093B028216846FDF70CFB14210AA8FDF733
:102D900008FB002501200F9510951195010412954F
:102DA0008DE8230004904FF4E010CDE908100224D0
:102DB00007946846FEF7AAFB08B172B6FEE70AA9B7
:102DC0000F2081E831004FF48060CDE90D0502212C
:102DD0000AA8FEF79FFA08B172B6FEE74FF400406A
:102DE00011900F940FA8FEF71FFA002801D072B6B9
:102DF000FEE713B030BD70470148FEF742BE000049
:102E0000DC030020F0B50268194B1A4C1A4D4FF044
:102E10008047984205D0B84203D0A04201D0A842D2
:102E200003D122F070064A683243984205D0B84276
:102E300003D0A04201D0A84203D122F44074CA6852
:102E400022434C6922F08002224302608A68C262F7
:102E50000A688262984201D10969016301214161D6
:102E60000169C90703D0016921F001010161F0BDC9
:102E7000002C0140000400400008004010B501F0A3
:102E80001F030121046A99408C430462016A9A403D
:102E90001143016210BD10B5846842EA032224F494
:102EA0007F440A432243826010BD826822F0700290
:102EB0000A4342F0070181607047000030B5036AA1
:102EC000026A22F0010202624268846924F07305FA
:102ED0000C682C4323F002058B682B430A4DA84253
:102EE0000BD123F00805CB6822F440722B434D69C7
:102EF00023F0040315438A692A43426084614968C8
:102F00004163036230BD0000002C014030B5026A0D
:102F1000036A23F010030362436884690D6824F494
:102F2000E64444EA05248D6822F0200242EA0512B4
:102F30000B4DA8420ED1CD6822F0800242EA051264
:102F40004D6923F4406343EA85038D6922F0400212
:102F500043EA85034360846149688163026230BD4E
:102F6000002C014030B5036A026A22F480720262CA
:102F70004268C46923F4007324F073050C682C4381
:102F80008D6843EA05230C4DA8420ED1CD6823F489
:102F9000006343EA05234D6922F4405242EA0512D8
:102FA0008D6923F4806342EA05124260C461496876
:102FB000C163036230BD0000002C014030B5046ADB
:102FC000026A22F4805202624268C3690D6823F4E7
:102FD000E64343EA05238D6824F4005444EA0534AB
:102FE000064DA84204D14D6922F4804242EA85127E
:102FF0004260C36149680164046230BD002C014035
:1030000010B5036A046A24F001040462846924F0A0
:10301000F00444EA021423F00A020A4384610262C3
:1030200010BD10B5036A046A24F0100404628469B8
:1030300023F0A00324F4704444EA023243EA01116D
:103040008261016210BD10B5406A0021C185C18452
:10305000FEF71AFF10BD70B5446A2068406994F805
:103060004110C0F3C0100025212904D118B1E58416
:10307000204600F08EF82068406994F84210C0F3B2
:103080008010222904D118B1E585204600F05AF8B5
:10309000606C40F0100060642046FEF7F5FE70BDE5
:1030A00010B50146406A096809684FF000028906B8
:1030B0002ED4C28501680C3151E8003F23F480739F
:1030C00041E80034002CF5D10168143151E8003F8B
:1030D00023F0010341E80034002CF5D101681431DC
:1030E00051E8003F23F0400341E80034002CF5D1C3
:1030F000202180F84210016B012909D101680C31AF
:1031000051E8003F23F0100341E80034002CF5D1D2
:103110004263016B012902D0FFF75CF910BD818D7C
:10312000FEF7B1FE10BD10B5406A01214163016B8D
:10313000012902D0FFF767F910BD818D4908FEF71C
:10314000A2FE10BD01680C3151E8002F22F49072EC
:1031500041E80023002BF5D10168143151E8002F1C
:1031600022F0010241E80023002BF5D1016B012977
:1031700009D101680C3151E8002F22F0100241E81A
:103180000023002BF5D1202180F84210002101639B
:10319000704701680C3151E8002F22F0C00241E86D
:1031A0000023002BF5D1202180F84110704708B58D
:1031B00090F84210222901D0022008BD82684FF405
:1031C00080539A4201D1016921B1816A9A421BD090
:1031D0004AB10AE00268816A5268C2F308020A80B2
:1031E000816A891C08E0026972B10268526802F0C3
:1031F0007F020A70816A491C8162C18D491E0904DF
:10320000090CC18503D01BE002685268F1E7016830
:10321000CA6822F02002CA600168CA6822F480727B
:10322000CA6001684A6922F001024A61202180F8DF
:10323000421000214163026B012A03D0FFF7CAF854
:10324000002008BD016301680C3151E8002F22F015
:10325000100241E80023002BF5D101680A68D2066C
:1032600002D50A6849680091818DFEF70CFEE7E7F8
:1032700070B5044600680169E26821F440511143C9
:1032800001612169A0680843616908432168CA682F
:1032900041F20C639A430243CA6020684169A26903
:1032A00021F44071114341611E492068884202D1D6
:1032B000FEF7F6F801E0FEF7E3F800EBC00101EBE2
:1032C0000012606864218000B2FBF0F3B3FBF1F3FD
:1032D0006FF018067343B2FBF0F5B2FBF0F605EBA6
:1032E0008305322303EB0515B5FBF1F5B6FBF1F6CB
:1032F00005F0F00505EB0615B2FBF0F6B2FBF0F0B9
:10330000B0FBF1F06FF01802504306EB800003EBC6
:103310000010B0FBF1F0216800F00F002844886035
:1033200070BD00000038014038B5816204468285D6
:10333000002013466064222284F84220E56B1B4A79
:10334000AA62E56B1A4AEA62E56B1A4A2A63E26BE3
:1033500050630A462168E06B091DFDF769FD20688E
:10336000016840680090206948B120680C3050E83E
:10337000001F41F4807140E80012002AF5D1206856
:10338000143050E8001F41F0010140E80012002A0B
:10339000F5D12068143050E8001F41F0400140E8AA
:1033A0000012002AF5D1002038BD0000A13000082D
:1033B000273100085730000881628285C2850021CC
:1033C0004164222180F84210016921B10168CA6874
:1033D00042F48072CA6001684A6942F001024A619F
:1033E0000068C16841F02001C160002070472DE9EC
:1033F000F843984617460D460446089E24E0701C84
:1034000022D0FDF747FEA0EB0800B0421AD8CEB19B
:103410002068C168490717D5802D15D0402D13D0DD
:103420000168C94309070FD401680025406800906E
:103430002046FFF787FE0820606484F84050012092
:10344000BDE8F8830320FBE72068006835EA000048
:1034500004D00020B842D2D00020F1E70120F9E7E3
:103460000148FEF73DBD0000F40100200148FEF7D1
:1034700037BD00003C0200200148FEF731BD0000CE
:1034800084020020FEE7484000210722030602D5FF
:1034900082EA400000E04000491CC9B2C0B20829DD
:1034A000F4D3704704480021017041708170C170ED
:1034B00001714171817170479C0000200448054AE8
:1034C00081681161C0685061243AC2E904107047F4
:1034D0009C000020283900202DE9F0410D460128EC
:1034E00015D13F4C0126214620784F793D4A0728C7
:1034F00072D2DFE800F0040E172735424500552D43
:1035000005D129460020FFF7BEFF60712670BDE897
:10351000F081AA2D36D129463846FFF7B4FF6071F5
:10352000022028E0012D2DD1A5700A212D48FCF79D
:1035300038FF0020607029463846FFF7A4FF60710D
:10354000032018E0607829461554401C6070384606
:10355000FFF799FF607160780A28D8D304200AE049
:10356000E5701DB1BD4203D1012002E0A67101E06A
:103570000020A07105202070C9E725710620FAE718
:10358000FF2D02D0FFF78EFFB9E7E068401CE06036
:10359000A079E0B11349A07824390870E078C872A6
:1035A0002079087300200C18135C401CC0B26370B3
:1035B0000A28F8D3FFF782FF0A4924222439A1F10F
:1035C0002400FCF792FE07484838067604E0A0681D
:1035D000401CA060FFF772FFBDE8F041FFF762BF3B
:1035E0009C0000204C3900200907090E002804DB4C
:1035F00000F1E02080F80014704700F00F0000F1A7
:10360000E02080F8141D70470F2801D30020704778
:10361000034951F830000028F9D00120704700001C
:103620002451000803280BD2064911F81020FF2A64
:1036300006D001EB40004078FF2801D00120704700
:10364000002070479C5100084840002107220306D3
:1036500002D582EA400000E04000491CC9B2C0B275
:103660000829F4D370470000074A002102EB012328
:103670001B68834202D102EB01207047491CC9B28A
:103680000329F3D3002070475839002004498842A9
:1036900003D00449884200D003490020704700004D
:1036A00000380140004400400048004070B50D461D
:1036B0000446FDF7EFFCC4F8F40094F8E500012699
:1036C000072851D2DFE800F0040F243143454900B8
:1036D000552D07D129460020FFF7B6FF84F8F200E8
:1036E00084F8E56070BDAA2D08D0D4F8FC00401C19
:1036F000C4F8FC00204600F055F8E9E794F8F20021
:103700002946E534FFF7A0FF60730220207070BDEA
:1037100084F8E65094F8F2002946E534FFF794FF68
:103720006073002020730320F0E714F8F10FA4F178
:103730000A02411C2170855460782946FFF784FFF6
:10374000607014F8F1090A28E1D3042002E0052092
:1037500000E0062084F8E50070BDFF2D09D0D4F804
:10376000FC00401CC4F8FC002046BDE8704000F09E
:1037700019B8207BC0EBC00101EB001008490144DF
:1037800094F8E6004870002022180B18401C92F8AC
:10379000E720C0B29A700A28F6D38E75E4E70000DD
:1037A000583C0020002100F8E51F01734173704769
:1037B00010B5B0F8D030B0F8D2405A1C02F03F0239
:1037C000944204D000F190041955A0F8D02010BD07
:1037D0002DE9F0411646884605460768FDF75AFC74
:1037E000044604E0FDF756FC001B32280AD897F87F
:1037F00041002028F6D1324641462868BDE8F04114
:10380000FEF752BEBDE8F081FDF752FCFFF7B7FAB4
:10381000FEF7FAFEFEF7A8FEFEF7C4FFFFF77EF8FC
:10382000FFF798F8FFF7B2F8FFF722F8FEF758FE17
:10383000FEF77CFEFEF760FF00F012F8FEF7C2FE16
:1038400000F020F8FEE710B5EFF3058111B16FF03D
:10385000050403E0002408B100F05AFE204610BD24
:10386000EFF3058010B16FF0050070470448016860
:1038700011B14FF0FF307047012101600020704707
:103880006C00002010B5EFF3058010B16FF005005B
:1038900010BD08480168012902D04FF0FF3010BD6B
:1038A000054A002182F8141D0221016000F098FEF3
:1038B000002010BD6C0000200BE000E02DE9FF416E
:1038C0004FEA01034FF00005EFF30581039549BB73
:1038D00040B38027182100244AB3166806B1344645
:1038E00096691EB13146761E382E02D21679F60739
:1038F00003D0002004B0BDE8F081566906B1B708D6
:10390000D2F808C0BCF1000F0DD0D5685C2D18D3DB
:1039100012693AB136B18DE806103A46214601F0F7
:10392000D2F903900DE0D6685EB912694AB903AACC
:10393000CDE90012BAB2214601F098F9012800D071
:1039400003950398D6E700002DE9F041134C0F468C
:103950000546E6682068001D00F0A7FC681C07D13A
:1039600037B12168BDE8F0410D48091D00F0ECBCFD
:1039700020683544B5424560216805D2A06BBDE89A
:10398000F041091D00F0C8BC606B091D00F0C4FCCB
:10399000A06A854200D2A562BDE8F0811C0000202B
:1039A000140900202DE9F041054600F0D9FC2D4C0A
:1039B000A068401CA06020682B4F10B1606930B334
:1039C0002BE02560A068012827D1002606EB8600A1
:1039D00007EB800000F092FC761C382EF6D32348CB
:1039E00000F08CFC2148143000F088FC1F4828307F
:1039F00000F084FC1D483C3000F080FC1B48503037
:103A000000F07CFC194860631430A06305E0206876
:103A1000E96AC06A884200D82560606A401C60621A
:103A20006864E86A2169884200D9206100EB80005F
:103A300007EB8000291D00F087FC00F0B1FC6069F5
:103A400000280CD02068E96AC06A884207D2084979
:103A50004FF080500860BFF34F8FBFF36F8FBDE80A
:103A6000F08100001C00002064040020C408002035
:103A700004ED00E038B500F073FC104C2068C8B9C4
:103A80000F4800F03BFC0E48143000F037FC0C48A7
:103A9000E060143020610A4B0020F03B009003F1FD
:103AA000500210210A2000F083FE206010B105A111
:103AB00000F0F8FCBDE8384000F072BC580000206F
:103AC000180A0020546D72510000000030B4026CDE
:103AD0000B46002A0BD0C1681144C1608468A14222
:103AE00001D30168C16030BC1846FCF7B9BB30BCDB
:103AF00070472DE9F041856B174604460026026C9D
:103B000082B1C7B1E068FCF7ABFBE168206C091A31
:103B1000E1602268914202D2A168081AE060022F97
:103B200016D017E02068A8B9A06801F06FF9064622
:103B30000020A0600EE06068FCF792FB216C6068DA
:103B400008446060A168884204D32068606001E096
:103B500005B16D1E6D1CA5633046BDE8F08110B542
:103B6000044690F8590058B101280CD002280FD013
:103B7000502080F31188BFF34F8FBFF36F8FFEE7A4
:103B8000206B00F021FC2046BDE8104000F01CBC7A
:103B900010BD000010484FF42051420706D0C01D50
:103BA0000D4920F00700411AC1F520510B4A0023AE
:103BB0000144C2E900030839183A21F007011160F5
:103BC0004B600B600B1AC0E9001393604FF000408C
:103BD0005360506170470000F810002088000020FA
:103BE000144E154CA6F29C474FF08058DFF84C90CD
:103BF00012E000BF00F0B4FBF068C568281D00F0BB
:103C000054FBA068401EA0606068401E606000F029
:103C1000C7FB2846FFF7A3FF60680028EAD1386891
:103C20000128F9D9C9F80080BFF34F8FBFF36F8F18
:103C3000F2E70000000900201C00002004ED00E075
:103C400070B51D46049C51B1C4F80020C4E90F01B1
:103C50000121204600F0E0FD84F84C5070BD246046
:103C6000F4E700002DE9F05F8846DDE90B94154686
:103C7000834691009A460A9EA522206BFCF767FBBB
:103C80006FF00301206B01EB8501084420F007076A
:103C9000780707D0502080F31188BFF34F8FBFF310
:103CA0006F8FFEE70025B8F1000F0FD05FF0000026
:103CB000221818F8001082F8341018F8001011B10A
:103CC000401C1028F4D384F8435001E084F83450A9
:103CD000382E00D33726E662C4E91365201D00F0B4
:103CE00018FB04F1180000F014FB2461C6F1380041
:103CF0006462A061656584F858505246594638465A
:103D000000F05AFA2060B9F1000F01D0C9F8004064
:103D1000BDE8F09F30B5114900E011460A688242C3
:103D2000FBD34B685C18844203D140681844486058
:103D3000084643681C18944209D1084C183C246872
:103D4000A24209D052681A4442600A6812680260AE
:103D5000814200D0086030BD0460F9E7880000208F
:103D600070B5002441600B4D0061914206D8D11A14
:103D70008269914206D2011D286907E09A4203D266
:103D8000994201D3012403E0011DE86800F0C4FA60
:103D9000204670BD5800002010B5044600F0E0FA3F
:103DA000A06B28B15FF0000400F0FAFA204610BDC5
:103DB0000124F9E730B589B03C4D6EE00498002845
:103DC00006DADDE90601059A90470498002864DBCD
:103DD000069C606910B1201D00F067FA03A800F08E
:103DE000D7F8024604980A2857D2DFE800F0050504
:103DF000052D334A05052D3394F8280040F00100C5
:103E000084F828000599A069059B01442046FFF726
:103E1000A7FF68B3216A2046884794F82800400726
:103E20003BD5002000900598A1690023421819464F
:103E3000204601F0F5F8D8B9502080F31188BFF37F
:103E40004F8FBFF36F8FFEE714F8280F20F00100AB
:103E5000207022E094F8280040F0010084F8280047
:103E60000598A06128B1811813462046FFF778FF16
:103E700013E0502080F31188BFF34F8FBFF36F8F93
:103E8000FEE794F82800810703D4204600F09CFA4E
:103E900003E020F0010084F82800002204A928682B
:103EA00000F00EFE002889D109B030BD5800002076
:103EB0002DE9FC410F46054600F0D6FB01A800F0B5
:103EC00067F80446019818B101F018F8BDE8FC81C4
:103ED000254EAFB130690068D0B30027291B3A46A0
:103EE000306800F0F3FA01F009F80028EED11F491C
:103EF0004FF080500860BFF34F8FBFF36F8FE5E73F
:103F0000A542EBD800F0FAFFF0682746C068C46805
:103F1000201D00F0CAF994F82800410719D5A069BE
:103F20002B4641193A462046FFF71AFFA8B1002058
:103F30000346014600902A46204601F071F860B918
:103F4000502080F31188BFF34F8FBFF36F8FFEE7D0
:103F500007E020F0010084F82800216A2046884705
:103F6000B4E70127BAE700005800002004ED00E0A4
:103F70000648416B096829B1416BC968C96849683D
:103F8000816270474FF0FF31FAE700001C0000200B
:103F900070B5054600F0D0FE064E0446B068844277
:103FA00003D200F009F8012000E00020286020463C
:103FB000B46070BD58000020F8B5194D20E0C0680D
:103FC000C4680668201D00F070F9216A2046884701
:103FD00094F82800400713D5A0693044B04206D9B0
:103FE00024616060211DE86800F096F908E0002077
:103FF0000346014600903246204601F011F838B1E0
:10400000E86801680029DAD12969C5E90310F8BD1B
:10401000502080F31188BFF34F8FBFF36F8FFEE7FF
:104020005800002008484068401C4FF0500080F3C2
:10403000118804D0BFF34F8FBFF36F8FFEE7BFF33C
:104040004F8FBFF36F8FFEE790000020074CE068B2
:10405000016841B1C0680021D0F80000FFF728FFD7
:10406000FFF7A8FEF3E701210020F7E75800002042
:104070002DE9F041044600F073F994F9455004F13C
:10408000240609E0606A48B1304600F0FFFE08B13E
:1040900000F06CFA6D1E6DB2002DF3DC4FF0FF36B0
:1040A00084F8456000F07CF900F05AF994F9445026
:1040B00004F1100709E0206948B1384600F0E6FE37
:1040C00008B100F053FA6D1E6DB2002DF3DC84F8D8
:1040D0004460BDE8F04100F063B900002DE9F04113
:1040E0000546002700F0C0FA324E306808B9FFF7E5
:1040F00051FD706905424ED1C5B3083568070ED031
:1041000005F00700C0F108000544680707D05020FB
:1041100080F31188BFF34F8FBFF36F8FFEE72DB38E
:104120007068854237D82348183001460C6801E092
:1041300020460C466168A94202D221680029F7D1C5
:1041400031688C4227D007682168016060680837B1
:10415000411B10290FD96019420708D0502080F365
:104160001188BFF34F8FBFF36F8FFEE713E04160FD
:104170006560FFF7CFFD61687068401A7060B268D3
:10418000904200D2B060706901430020C4E9000190
:10419000F068401CF06000F0B1FE780707D05020B6
:1041A00080F31188BFF34F8FBFF36F8FFEE7384660
:1041B000BDE8F0817000002010B5031F4FF080743F
:1041C0001C601B1F21F001011960191F024B0B60BD
:1041D000143940380A6010BD2540000810B5FEF7BC
:1041E0003FFCFEF73BFCFEF779FCFEF75FFCFEF7B9
:1041F00089FCBDE81040FCF72FBA0000FFF7EEFF86
:104200000A271A4E1A4C01254FF000082068401C5E
:104210002060FEF747FD2068B0FBF7F107FB1100B7
:1042200008B9FCF7B9FA0020FCF7C6F908B97078AC
:1042300008B1257101E084F804800120FCF7BCF985
:1042400008B9B07808B1657101E084F805800220F2
:10425000FCF7B2F908B9F07808B1A57101E084F86B
:1042600006800A20FFF7EFFAD0E70000083D0020A3
:10427000B800002010B5FCF779F9BDE81040FCF754
:10428000BFB90000FFF7F6FF044C2068401C206017
:10429000FCF7A0F90220FFF7D6FAF6E7C0000020ED
:1042A00010B50220FFF7CFFAFBE7D0E90132016930
:1042B0009A60D0E901235A604A68824201D182683B
:1042C0004A60002202610868401E08600868704762
:1042D000034B036003F15C000860802010607047AE
:1042E000400A0020044B036003F15C0008604FF4B7
:1042F00080701060704700009C0C002000F10801E5
:104300004FF0FF32C0E90112C1600161002101607C
:10431000704700210161704730B50B685A1C02D00C
:1043200000F1080202E0026904E0224654682568B0
:104330009D42FAD953684B6099608A605160086168
:104340000168491C016030BD42684A6093688B6017
:1043500093685960916008610168491C0160704769
:10436000502080F31188BFF34F8FBFF36F8F0A493E
:104370004868401C486001280CD10848006810F0CB
:10438000FF0F07D0502080F31188BFF34F8FBFF38A
:104390006F8FFEE7704700009000002004ED00E002
:1043A0000849486828B1401E486001D180F311884F
:1043B0007047502080F31188BFF34F8FBFF36F8F8A
:1043C000FEE700009000002070B500282AD0164DAE
:1043D000A0F1080460686969084207D1502080F3A1
:1043E0001188BFF34F8FBFF36F8FFEE722683AB19A
:1043F000502080F31188BFF34F8FBFF36F8FFEE71C
:104400008843606000F030F960686968084468605B
:104410002046FFF77FFC2869401C2861BDE87040FA
:1044200000F06CBD70BD0000700000204FF0E02077
:1044300000210161816105494FF47A720968B1FB7D
:10444000F2F1491E41610721016170471800002007
:1044500010B5FBF7E1FE114910280ED300F1E02062
:1044600090F8F0030A78904207D2502080F3118828
:10447000BFF34F8FBFF36F8FFEE70948006889686D
:1044800000F4E060884207D9502080F31188BFF320
:104490004F8FBFF36F8FFEE710BD0000900000202C
:1044A0000CED00E010B5084B002200BF53F832407D
:1044B0001CB1521C082AF9D310BD43F8321003EB8B
:1044C000C201486010BD00002404002070B51546EC
:1044D0000E460446FFF744FF94F944100020491C9F
:1044E00001D184F8440094F94510491C01D184F8A5
:1044F0004500FFF755FFA06B28B92A46314604F165
:10450000240000F051F82046BDE87040FFF7B0BD30
:1045100010B5020014D00F48006B38B1502080F362
:104520001188BFF34F8FBFF36F8FFEE700F09CF849
:1045300000211046FFF708FA00F0E0FC002807D140
:1045400005494FF080500860BFF34F8FBFF36F8F66
:1045500010BD00001C00002004ED00E002490A6AC2
:104560000260C968416070471C00002001490120B9
:10457000C86170471C00002010B50C4650B10949B5
:1045800009681831FFF7C8FE2046BDE81040012138
:10459000FFF7DAB9502080F31188BFF34F8FBFF3D4
:1045A0006F8FFEE71C00002070B514460D4668B101
:1045B0000A4909681831FFF7C7FE0CB14FF0FF3503
:1045C00021462846BDE87040FFF7BEB9502080F371
:1045D0001188BFF34F8FBFF36F8FFEE71C000020E1
:1045E00030B587B00024039405AA04A903A8049455
:1045F000FFF76EFEDDE903010094CDE90110002311
:1046000015A11748059A00F05EFB164D0028E862D8
:104610001FD000F0D5FC012809D0401C19D1502032
:1046200080F31188BFF34F8FBFF36F8FFEE75020E9
:1046300080F31188BFF34F8FBFF36F8F4FF0FF30C0
:10464000A86201206861EC6007B0BDE8304000F06E
:1046500045B807B030BD000049444C45000000009B
:10466000E13B00081C0000200248016B491C01636B
:10467000704700001C000020164810B5016B11B1F6
:104680000121C16110BD0021C1610169124A01E02F
:10469000B9B1491E01EB810352F82330002BF7D04A
:1046A00001EB810302EB830202F1080453685B68AB
:1046B0005360A34201D15B685360DA680260016114
:1046C00010BD502080F31188BFF34F8FBFF36F8F61
:1046D000FEE700001C000020640400201CB52649F1
:1046E00008780190FF20087008788DF800009DF888
:1046F00000009DF8002000F0F000904207D050200C
:1047000080F31188BFF34F8FBFF36F8FFEE79DF8E3
:1047100000001A4C00F0500020700720A06005E057
:104720009DF8002052008DF80020401E9DF80020CA
:104730001206F5D4A060032807D0502080F311881A
:10474000BFF34F8FBFF36F8FFEE74FF44070A06051
:10475000019808700A48016841F47001016001681D
:1047600041F070410160FFF761FE00206060FBF7DF
:104770001DFD00201CBD000000E400E090000020B2
:1047800020ED00E010B5502080F31188BFF34F8F6B
:10479000BFF36F8F00F0D6FA18B104494FF0805084
:1047A0000860002080F3118810BD000004ED00E0D7
:1047B00038B5049D18B153B1CAB181B120E0502081
:1047C00080F31188BFF34F8FBFF36F8FFEE7502048
:1047D00080F31188BFF34F8FBFF36F8FFEE7502038
:1047E00080F31188BFF34F8FBFF36F8FFEE739B1AE
:1047F000502080F31188BFF34F8FBFF36F8FFEE718
:1048000050241C46012384F846302B460094FFF7C1
:1048100017FA204638BD000070B50D46040025D0BB
:10482000FFF79EFDD4E90F20216802FB0011A16073
:104830000021A163216861600A46D4E90F01401E8E
:1048400000FB0121E16021464FF0FF3001F8440FE9
:10485000487004F110008DB1FFF750FD04F1240001
:10486000FFF74CFDFFF79CFD012070BD502080F349
:104870001188BFF34F8FBFF36F8FFEE721690029C7
:10488000F0D000F003FB0028ECD004494FF080503A
:104890000860BFF34F8FBFF36F8FE3E704ED00E0D5
:1048A0002DE9FF4782B01D468A464FF000080400FC
:1048B00003D0BAF1000F08D011E0502080F3118826
:1048C000BFF34F8FBFF36F8FFEE7206C38B15020DE
:1048D00080F31188BFF34F8FBFF36F8FFEE7022D78
:1048E0000AD1E06B012807D0502080F31188BFF374
:1048F0004F8FBFF36F8FFEE700F010FA3F4F4FF07E
:1049000000094FF0805648B9049838B1502080F320
:104910001188BFF34F8FBFF36F8FFEE7FFF720FDC6
:10492000A06BE16B884207D3022D05D00498D0B16B
:10493000B8F1000F1AD01EE02A4651462046FFF774
:10494000D8F8616A19B104F1240000F09FFA20B18F
:104950003E60BFF34F8FBFF36F8FFFF721FD012044
:1049600006B0BDE8F087FFF71BFD22E06846FFF7C1
:10497000F5FD4FF00108FFF713FDFFF775FEFFF798
:10498000EFFC94F94400401C01D184F8449094F960
:104990004500401C01D184F84590FFF701FD04A9B2
:1049A000684600F029F930B12046FFF761FB00F0BE
:1049B000A5FA0020D4E7FFF7D3FCA06BE16B884297
:1049C00013D1FFF7EDFC04F110000499FFF7D4FDBB
:1049D0002046FFF74DFB00F091FA00289ED13E6083
:1049E000BFF34F8FBFF36F8F98E7FFF7D9FC2046D7
:1049F000FFF73EFB00F082FA90E7000004ED00E0D4
:104A00002DE9F0471F4690468946040003D0B9F1CE
:104A1000000F08D011E0502080F31188BFF34F8FB2
:104A2000BFF36F8FFEE7206C38B1502080F3118800
:104A3000BFF34F8FBFF36F8FFEE7022F0AD1E06BFA
:104A4000012807D0502080F31188BFF34F8FBFF3A8
:104A50006F8FFEE7FFF7FCFC5020EFF3118680F329
:104A60001188BFF34F8FBFF36F8FA06BE16B88424C
:104A700006D3022F04D0002086F31188BDE8F0870A
:104A800094F94550A06B3A4649462046FFF731F865
:104A9000681C04D06D1C84F845500120ECE7606A66
:104AA0000028FAD004F1240000F0F0F90028F4D036
:104AB000B8F1000FF1D00121C8F80010EDE70000B7
:104AC0002DE9F747002683B08A46040003D0BAF1E7
:104AD000000F08D011E0502080F31188BFF34F8FF2
:104AE000BFF36F8FFEE7206C38B1502080F3118840
:104AF000BFF34F8FBFF36F8FFEE700F00FF9DFF8C2
:104B0000F4804FF000094FF0805748B9059838B14C
:104B1000502080F31188BFF34F8FBFF36F8FFEE7F4
:104B2000FFF71EFCA56BC5B151462046FEF7CEFF30
:104B30006D1EA563206950B104F1100000F0A6F9C4
:104B400028B1C8F80070BFF34F8FBFF36F8FFFF726
:104B500027FC012006B0BDE8F087059808B11EB11A
:104B600006E0FFF71DFC27E06846FFF7F7FC01268B
:104B7000FFF716FCFFF778FDFFF7F2FB94F944000E
:104B8000401C01D184F8449094F94500401C01D1A7
:104B900084F84590FFF704FC05A9684600F02CF85E
:104BA000002820460AD0FFF763FA00F0A7F9204654
:104BB000FFF7F2F80028B3D00020CBE7FFF7ECF8BE
:104BC00090B104F124000599FFF7D6FC2046FFF7C9
:104BD0004FFA00F093F90028A2D1C8F80070BFF393
:104BE0004F8FBFF36F8F9BE72046FFF741FA00F02E
:104BF00085F995E704ED00E02DE9F0410C4605004C
:104C000011D0C4B1FFF7ACFB174BDA686E682068AF
:104C1000911B471C17D02F681B6A9F4219D09642E0
:104C200017D8012410E0502080F31188BFF34F8F74
:104C3000BFF36F8FFEE7502080F31188BFF34F8FD3
:104C4000BFF36F8FFEE70024FFF7AAFB2046BDE805
:104C5000F081884205D9401A20602846FFF77EFC83
:104C6000F1E700202060DCE71C0000202DE9FF5F59
:104C70008346DDE90E87994616468A469000FFF77F
:104C80002DFA05001CD05C20FFF728FA040014D090
:104C90000020256384F85900CDE90240CDE9008762
:104CA0004B46324651465846FEF7DCFF2046FEF79B
:104CB00079FE012004B0BDE8F09F2846FFF784FB91
:104CC0004FF0FF30F6E7F0B585B0DDE90B640A9DE3
:104CD000A6B1DCB15C2700972663022684F85960F0
:104CE000002604AFCDE90246CDE90057FEF7BAFF32
:104CF0002046FEF757FE049805B0F0BD502080F323
:104D00001188BFF34F8FBFF36F8FFEE7502080F302
:104D10001188BFF34F8FBFF36F8FFEE705484169DE
:104D200019B1006B18B100207047012070470220B4
:104D3000704700001C0000200148C0687047000058
:104D40001C0000202DE9F0412E4C0027206B28B1DB
:104D5000A069401CA0613846BDE8F081E668761C79
:104D6000E66013D1606B006838B1502080F3118881
:104D7000BFF34F8FBFF36F8FFEE7606BA16B616373
:104D8000A063206A401C2062FFF7F2F8A06ADFF8F7
:104D90007880864209D3606B0068A0B1606BC06800
:104DA000C5686868864211D2A0622068C06A00EBBC
:104DB000800158F82100012800D90127E069002866
:104DC000C9D00127C7E74FF0FF30EDE7281DFFF7F7
:104DD0006CFAA86A18B105F11800FFF766FAE86ADC
:104DE0002169884200D9206100EB800108EB810035
:104DF000291DFFF7A9FAE86A2168C96A8842CAD35F
:104E00000127C8E71C0000206404002070B50400DE
:104E10004FF0000133D01B4D2868844207D050204A
:104E200080F31188BFF34F8FBFF36F8FFEE7206DC4
:104E300038B1401E2065E36CE26A9A421FD040B14F
:104E40001DE0502080F31188BFF34F8FBFF36F8FA9
:104E5000FEE7201DFFF729FAE06CE062C0F13800A0
:104E6000A061E06A2969884200D92861064900EBFF
:104E7000800001EB8000211DFFF766FA0121084642
:104E800070BD00001C0000206404002070B5C068E4
:104E9000C46854B104F118000646FFF706FA144D31
:104EA000286B50B13146134815E0502080F311882B
:104EB000BFF34F8FBFF36F8FFEE7201DFFF7F5F9AC
:104EC000E06A2969884200D928610B4900EB80001B
:104ED00001EB8000211DFFF737FAE06A2968C96AF3
:104EE000884202D90120E86170BD002070BD000039
:104EF0001C000020EC080020640400202DE9F0478D
:104F00002C4D00242746286B38B1FFF729FA286B6F
:104F1000401E2863286B40B146E0502080F3118882
:104F2000BFF34F8FBFF36F8FFEE7A968224E0120BA
:104F3000D1B3A6F5916980463068E0B1F068C468E5
:104F400004F11800FFF7B1F9201DFFF7AEF9E06A90
:104F50002969884200D9286100EB800109EB8100B2
:104F6000211DFFF7F1F9E06A2968C96A8842E3D395
:104F7000C5F81C80E0E70CB1FEF7FAFFAC694CB154
:104F80004FEA0806FFF7DEFE00B1EE61641EF9D1BC
:104F90000020A861E86938B108490127380708608E
:104FA000BFF34F8FBFF36F8FFFF7FAF93846BDE8B5
:104FB000F08700001C000020EC08002004ED00E059
:104FC00010B586B0FEF756FD114C2068B8B1002030
:104FD0000390049005AA04A903A8FFF783F9DDE96B
:104FE000032102208DE8070000230AA10B48059A3F
:104FF000FFF769FE606010B106B0012010BD5020BF
:1050000080F31188BFF34F8FBFF36F8FFEE700006F
:1050100058000020546D7220537663004D40000804
:105020002DE9FF411E46134602000A9D4FF0000085
:1050300016D0144C2768002F0FD0CDE90013029230
:10504000062917DAFFF76AFE02284FF000030FD097
:10505000002269462068FFF723FC04B0BDE8F08118
:10506000502080F31188BFF34F8FBFF36F8FFEE79F
:105070002A46EEE70023324669463846FFF7C0FC71
:10508000EBE700005800002020520008000000005C
:105090000000000000000000000000000008000008
:1050A0001800000000000000000000000852000886
:1050B00000000000000000000000000000000000F0
:1050C00000080000180000000000000000000000C0
:1050D0001452000800000000000000000000000062
:1050E00000000000000800001800000000000000A0
:1050F00000000000010202030405060708090A0B6C
:105100000C0D0E0F10100000000000000000010246
:1051100003040607080900000000010203040D0C47
:105120000B0A0E00000801401000010100080140B8
:10513000200001010008014000010101000C0140B4
:1051400080000101000C014004000101000C01403D
:1051500010000101000C014020000101000C014081
:1051600000010101000C014000100101000C014090
:1051700000200101000C014000400001000C014032
:1051800000800001001001400040010000100140BB
:105190000080010000100140002000010506FFFF13
:1051A000FFFF00001C010020000000001C01002087
:1051B00004000000000000000000000000000000EB
:1051C00000000000640100200000000064010020D5
:1051D00004000000640100200800000064010020B9
:1051E0000C000000AC0100200000000000000000E6
:1051F000000000000000000000000000AC010020E2
:105200000C00000000010100757365725461736B3E
:105210005F310000757365725461736B5F3200001B
:1052200064656661756C745461736B004C52000860
:1052300000000020C40000002801000810530008EE
:10524000C4000020BC42000044010008000000002F
:10525000000000000000000001000000100000003D
:105260000000000000127A000000000000000000B2
:10527000000000000000000000000000000000002E
:10528000000000000000000000000000000000001E
:10529000000000000000000000000000000000000E
:1052A00000000000000000000000000000000000FE
:1052B00000000000000000000000000000000000EE
:1052C00000000000000000000000000000000000DE
:1052D00000000000000000000000000000000000CE
:1052E000AAAAAAAA00000000000000000000000016
:1052F0000000000000000000F40100203C0200203B
:1053000084020020000000000000000000000000F7
:04000005080000ED02
:00000001FF
